:020000042000DA
:104000006432012095520020ED520020F55200202C
:1040100005530020FD520020055300200000000041
:10402000000000000000000000000000C553002058
:104030000553002000000000C15400200555002059
:104040000553002005530020055300200553002090
:104050000000000005530020055300200000000070
:1040600005530020000000000000000000000000D8
:104070000000000000000000055300200553002050
:104080000553002005530020055300200553002050
:104090000553002005530020055300200553002040
:1040A0000553002000000000000000000000000098
:1040B0000000000005530020000000000000000088
:1040C0000000000000000000000000000553002078
:1040D0000553002000000000000000000000000068
:1040E00000000000000000000000000000000000D0
:1040F00000000000000000000553002005530020D0
:1041000000000000000000000000000000000000AF
:10411000000000000000000000000000000000009F
:10412000000000000000000000000000000000008F
:10413000000000000000000000000000000000007F
:10414000000000000000000000000000000000006F
:10415000000000000000000000000000000000005F
:10416000000000000000000000000000000000004F
:10417000000000000000000000000000000000003F
:10418000000000000000000000000000000000002F
:10419000000000000000000000000000000000001F
:1041A000000000000000000000000000000000000F
:1041B00000000000000000000000000000000000FF
:1041C00000000000000000000000000000000000EF
:1041D00000000000000000000000000000000000DF
:1041E00000000000000000000000000000000000CF
:1041F00000000000000000000000000000000000BF
:1042000000000000000000000000000000000000AE
:10421000000000000000000000000000000000009E
:10422000000000000000000000000000000000008E
:10423000000000000000000000000000000000007E
:10424000000000000000000000000000000000006E
:10425000000000000000000000000000000000005E
:10426000000000000000000000000000000000004E
:10427000000000000000000000000000000000003E
:10428000000000000000000000000000000000002E
:10429000055300200000000000000000055300202E
:1042A0000000000005530020000000000000000096
:1042B0000000000000000000000000000553002086
:1042C00000000000055300200000000005530020FE
:1042D00000000000000000000000000000000000DE
:1042E0000000000000000000000000000553002056
:1042F00005530020000000000000000005530020CE
:1043000005530020055300200000000000000000BD
:10431000000000000000000000000000000000009D
:10432000000000000000000000000000000000008D
:10433000000000000000000000000000000000007D
:10434000000000000000000000000000000000006D
:10435000000000000000000000000000000000005D
:10436000000000000000000000000000000000004D
:10437000000000000000000000000000000000003D
:10438000000000000000000000000000000000002D
:10439000000000000000000000000000000000001D
:1043A000000000000000000000000000000000000D
:1043B00000000000000000000000000000000000FD
:1043C00000000000000000000000000000000000ED
:1043D00000000000000000000000000000000000DD
:1043E00000000000000000000000000000000000CD
:1043F00000000000000000000000000000000000BD
:1044000080B400AFFEE700BF80B483B000AF786037
:104410003960FEE7B0B588B004AF78607B68002BE8
:1044200000D1E9E07B681B68013B082B00F2DD80CE
:1044300001A252F823F000BF5D440020C1440020D7
:10444000A5450020B3450020714500208B45002084
:10445000C1450020CF450020DD450020684B1B688A
:1044600043F00203664A13607B689A1D7B685B79A0
:10447000644811461A4608F0C5FD634A7B68473315
:10448000196811609B8893805F4B1B781D465E4BBB
:104490005B781C465C4B9B7818465B4BDB78194677
:1044A000594B1B791A46584B5B7900900191029247
:1044B0000393564853492A46234603F05DFA9BE08E
:1044C0000023FB604E4B1B6823F002034C4A136031
:1044D0004B4B1B6823F00803494A13607B68043385
:1044E000FB60FB6893F84930C82B1BD1464B1B7807
:1044F0001D46454B5B781C46434B9B781846424B08
:10450000DB781946404B1B791A463F4B5B7900908C
:104510000191029203933E483A492A46234603F00A
:104520002BFA1AE0384B1B781D46374B5B781C463C
:10453000354B9B781846344BDB781946324B1B7948
:104540001A46314B5B7900900191029203933148F6
:104550002C492A46234603F00FFA2A48002121223B
:1045600008F04EFE28480021062208F049FE43E0EC
:10457000234B1B6843F00203214A1360204B1B6846
:1045800023F080031E4A136036E01D4B1B6823F0A6
:1045900002031B4A13601A4B1B6823F00403184ADA
:1045A000136029E0164B1B6843F01003144A136094
:1045B00022E0134B1B6823F01003114A13601BE029
:1045C0000F4B1B6843F020030D4A136014E00C4BA3
:1045D0001B6843F040030A4A13600DE0084B1B6858
:1045E00043F08003064A136006E07B681B680A48B4
:1045F000194603F0C1F900BF1037BD46B0BD00BF7A
:10460000482201208C340120843401208C0F0120A9
:10461000D40F01203C1001209C10012080B584B0F3
:1046200000AF78607B68002B00D131E07B681B68AD
:10463000032B18D0042B1DD0012B22D10023FB60AB
:10464000154B1B6843F00803134A13607B6804335F
:10465000FB60FB681B681A46104B1A60FB685B68BE
:104660000F4A136014E00C4B1B6843F004030A4A22
:1046700013600DE0084B1B6823F00403064A136027
:1046800006E07B681B680748194603F075F900BF10
:104690001037BD4680BD00BF4822012050220120B6
:1046A0004C220120C410012080B483B000AF786098
:1046B0000C37BD465DF8047B704700BF90B587B0EE
:1046C00000AF786039600023FB747B68002B02D058
:1046D0003B68002B00D1FDE07B681B68012B03D0F9
:1046E000022B00F0A380F5E03B689B687B613B6890
:1046F00000221A717B689C68784808F0E3FF034643
:10470000204676491A4608F04BFC0346002B40F041
:104710008C80092003F072F80346BB740523FB74F8
:10472000FB7C78696E491A4608F06CFCFB7C7A6960
:1047300013447B613B681A79FB7C1344DAB23B6813
:104740001A71BB7C03F00103002B13D00223FB740E
:10475000FB7C786963491A4608F054FCFB7C7A6953
:1047600013447B613B681A79FB7C1344DAB23B68E3
:104770001A7112E00323FB74FB7C78695A491A46CC
:1047800008F040FCFB7C7A6913447B613B681A7932
:10479000FB7C1344DAB23B681A710B2003F02EF84D
:1047A0000346BB740623FB74FB7C78694F491A46A9
:1047B00008F028FCFB7C7A6913447B613B681A791A
:1047C000FB7C1344DAB23B681A71BB7C03F0010333
:1047D000002B13D00223FB74FB7C786941491A46F5
:1047E00008F010FCFB7C7A6913447B613B681A7902
:1047F000FB7C1344DAB23B681A7112E00323FB74AA
:10480000FB7C786938491A4608F0FCFBFB7C7A6926
:1048100013447B613B681A79FB7C1344DAB23B6832
:104820001A717B6900221A7054E053E07B681B699F
:10483000FB602F4808F046FF0346F8682C491A46EB
:1048400008F0AEFB0346002B43D17B689B69FB60FD
:104850000323FB74FB7CF86826491A4608F0A0FB8A
:104860000346002B00D035E0FB7CFA681344FB6064
:10487000FB681B78FB720223FB74FB7CFA68134411
:10488000FB60FB7A312B10D1FB7CF86815491A4686
:1048900008F086FB0346002B03D1092002F0C6FE78
:1048A00017E0092002F036FF13E0FB7A322B10D11B
:1048B000FB7CF8680B491A4608F072FB0346002B94
:1048C00003D10B2002F0B2FE03E00B2002F022FF26
:1048D000FFE700BF1C37BD4690BD00BFA4190120F3
:1048E000F0100120F8100120FC100120001101201F
:1048F000981901200811012080B400AF044B002258
:104900001A60044B00221A60BD465DF8047B7047B4
:1049100048220120502201202DE9F0479EB00AAF25
:1049200007F11C0300221A60043300221A600433CA
:1049300000221A60043300221A60043300221A6035
:10494000043300221A60043300221A600433002268
:104950001A60043300221A60043300221A60043300
:1049600000221A60043307F1080300221A6004339E
:1049700000221A60043300221A60043300221A60F5
:10498000043300221A6004330123FB710023BB713E
:1049900000237B7100233B714FF0FF33FB644FF02A
:1049A000FF33BB6400200021002203F067F80346B8
:1049B000BB64BB6C002B08DAB048B96C40F2BD2276
:1049C000AF4B02F0D9FFBB6C52E1BB6C002B43D064
:1049D000BB6C022B06D100BFAA4B1B6803F0080377
:1049E000002BF9D0002006F0C1F80346FB64FB6CF5
:1049F000002B08DAA148F96C4FF43472A04B02F096
:104A0000BBFFFB6C34E1FF2003F096F90346FB6427
:104A1000FB6C002B08DA9948F96C40F2D322984BD2
:104A200002F0AAFFFB6C23E100200021002203F02A
:104A300025F80346FB64FB6C002B08DA8F48F96C01
:104A400040F2D6228E4B02F097FFFB6C10E1FB6C1C
:104A5000002B01D08C4B0BE10C23BB712C237B7101
:104A6000B91D7A1D07F11C03012003F001FAF86457
:104A7000FB6C002B08DA8148F96C40F2E522804B90
:104A800002F07AFFFB6CF3E08048814902F074FF8A
:104A9000D7F834E0BE6BFD6B3C6C386A796ABA6A51
:104AA000FB6A97F830C0E24697F831C0E14697F8C4
:104AB00032C0E04697F833C000940190029103920F
:104AC0000493CDF814A0CDF81890CDF81C80CDF843
:104AD00020C07048714632462B4602F04DFF102030
:104AE00011210022002305F06BFF0346FB64FB6CE1
:104AF000002B08DA6148F96C40F2F322604B02F0B7
:104B00003BFFFB6CB4E0FF2005F08CFF0346FB6429
:104B1000FB6C002B08DA5948F96C40F2F722584B2D
:104B200002F02AFFFB6CA3E005F040FF0346FB64A4
:104B3000FB6C002B06D100BF524B1B6803F0020335
:104B4000002BF9D1FB1D04200121012205F0DCFD21
:104B5000F864FB6C002B08DA4848F96C40F20F321D
:104B6000474B02F009FFFB6C82E00023BB71BB796D
:104B7000202019460022002305F022FF0346FB6493
:104B8000FB6C002B08DA3D48F96C4FF445723C4B46
:104B900002F0F2FEFB6C6BE000233B713B1D012039
:104BA0000A21012206F000F80346FB64FB6C002B8F
:104BB00008DA3248F96C40F21B32314B02F0DCFE6D
:104BC000FB6C55E0302000210022002305F0F8FEA8
:104BD0000346FB64FB6C002B08DA2848F96C40F2B2
:104BE0001F32274B02F0C8FEFB6C41E00020002181
:104BF00005F012FB0346FB64FB6C002B08DA1F4830
:104C0000F96C40F223321E4B02F0B6FEFB6C2FE033
:104C100007F108031846FF21082208F0F1FA07F10E
:104C2000080301201946142205F01AFF0346FB640D
:104C3000FB6C002B08DA1148F96C40F22932104B5A
:104C400002F09AFEFB6C13E0C82003F075F80346EF
:104C5000FB64FB6C002B08DA0848F96C4FF44B72CC
:104C6000074B02F089FEFB6C02E0FFF745FEFB6C90
:104C700018465037BD46BDE8F08700BF0C11012033
:104C8000BC130120482201202EF8FFFF3C11012017
:104C90005811012060110120B0B58EB002AF4FF065
:104CA000FF33BB6200200021002202F0E7FE034632
:104CB0001A46A74B1A60A64B1B68002B25D0A54BA4
:104CC0001B68002B21D1002005F050FF0346BB627A
:104CD000BB6A002B08DAA048B96A4FF453729F4BA5
:104CE00002F04AFEBB6A2FE1C82003F025F8034614
:104CF000BB629B4B00221A8000200021002202F0A0
:104D0000BDFE03461A46924B1A60914B1B68022B5C
:104D100025D0904B1B68022B21D1022005F026FFE5
:104D20000346BB62BB6A002B08DA8B48B96A40F2C3
:104D30005A328A4B02F020FEBB6A05E1C82002F01D
:104D4000FBFF0346BB62864B00221A800020002135
:104D5000002202F093FE03461A467D4B1A607C4BFC
:104D60001B68022B6FD100BF7E4B1B6803F008034A
:104D7000002BF9D0012005F0A5F90346BB62BB6A00
:104D8000002B08DA7448B96A40F26D32734B02F0B6
:104D9000F3FDBB6AD8E0012005F078F90346BB6259
:104DA000BB6A002B08DA6C48B96A40F271326B4B6F
:104DB00002F0E2FDBB6AC7E0002387F82F3007F15D
:104DC000080318460021212208F01AFA2123FB804B
:104DD0000023BB80391DBA1D07F10803002005F030
:104DE00019FF0346BB62BB6A002B08DA5A48B96A4E
:104DF00040F27A32594B02F0BFFDBB6AA4E007F1E2
:104E000008035948194602F0B7FD002387F82F30F0
:104E100014E0092002F00AFC4FF4C87000F0E2FD33
:104E2000092002F077FC4FF4C87000F0DBFD97F822
:104E30002F30DBB20133DBB287F82F3097F92F30F8
:104E4000022BE6DD7FE0012005F03CF90346BB6262
:104E5000BB6A002B08DA4048B96A4FF464723F4BD2
:104E600002F08AFDBB6A6FE0012005F00FF90346EE
:104E7000BB62BB6A002B08DA3748B96A4FF4657227
:104E8000364B02F079FDBB6A5EE011E0092002F0CA
:104E9000CDFB322000F0A6FD092002F03BFC3220C1
:104EA00000F0A0FD314B1B780133DAB22F4B1A70A2
:104EB0002C4B1B6803F00803002B03D12B4B1B78F2
:104EC000312BE3D9294B1B78322B22D1092002F058
:104ED000ADFB244B00221A60254802F04DFD00F086
:104EE0008BF9B862BB6A002B08DA1B48B96A40F23A
:104EF000AF321A4B02F040FDBB6A25E003E04FF4ED
:104F0000FA7007F0D3FA174B1B6803F00803002B65
:104F1000F5D0092002F0FEFB164B1B681B0E1D4648
:104F2000144B1B681B14DCB2124B1B681B12DAB249
:104F3000104B1B68DBB2009201930F480F492A46C1
:104F4000234602F019FD002318463037BD46B0BD98
:104F5000B0190120582201200C110120E01301207A
:104F60005422012048220120981101205C220120B6
:104F7000F811012050220120301201208C34012030
:104F800080B584B000AF07F10802FB1D0320114675
:104F90001A4602F07BFCBA68FB79032011461A46D8
:104FA00002F0B6FC0346FB73FB7B012B03D1054BE0
:104FB00002221A6002E0034B00221A601037BD463D
:104FC00080BD00BF5822012080B584B000AF78605A
:104FD0004FF0FF33FB60FFF78FFCFFF79DFCF8609D
:104FE000FB68002B07DAFB681A4A934202D11A4881
:104FF00002F0C2FCFEE7194802F0BEFC184800218E
:10500000212208F0FDF8FFF7BBFFFFF745FEF8602F
:10501000012005F057F80346FB60FB68002B07DA18
:105020001048F96840F214420F4B02F0A5FCFEE76D
:10503000012005F02BF80346FB60FB68002B07DA24
:105040000848F96840F21C42074B02F095FCFEE765
:10505000FEE700BF2EF8FFFF94120120CC120120C2
:10506000603401200C110120F413012080B582B0BE
:1050700000AF7860094802F07FFC094802F07CFC30
:105080000848796802F078FC054802F075FC03488E
:1050900002F072FC0837BD4680BD00BFF812012047
:1050A000001301203813012080B500AF054B1846CE
:1050B00006F018FA06F00EFA0F2006F07FFA06F056
:1050C00039FD80BD0040002080B584B002AF4FF0B4
:1050D000FF337B60FFF7E8FF00F04CF839206021D8
:1050E0004FF4007206F07EFB072002F06DFA0C20F0
:1050F00002F010FB0C2006F0B5FC0C2006F05CFC66
:105100000346164819464FF4E132602306F0C0FF0B
:105110001348FFF7ABFF092000F0ACFB03467B60B0
:105120007B68002B03DA0F4802F026FCFEE7012320
:105130000093002301930C480C494FF400620023B4
:1051400000F0E2FA03467B607B68002B03DA084834
:1051500002F012FCFEE700F03FFCFEE700C000405A
:10516000601301206C130120C94F0020941301200B
:10517000A413012080B500AF0C20012106F0CCFB68
:105180000620012106F0C8FB0720012106F0C4FB20
:105190003620032106F074FB3820032106F070FB53
:1051A00039200021002206F07DFB4FF0402008212D
:1051B000002206F03FF93F200021002206F072FB9A
:1051C0000C480221012206F035F9002000210022BE
:1051D00006F068FB07480421012206F02BF90120A4
:1051E0000021002206F05EFB02480821012206F0A1
:1051F00021F980BD0050004080B586B004AF4FF06B
:10520000FF337B60FF2005F00DFC03467B607B686D
:10521000002B07DA1D48796850221D4B02F0ACFBC9
:105220007B682FE0FB1C102001211A46012305F0AA
:10523000C7FB03467B607B68002B07DA134879685D
:105240005722134B02F098FB7B681BE0002300936E
:105250000023019300230293002303930020FF21E6
:105260000022002305F02AFC03467B607B68002BAC
:1052700007DA064879686522054B02F07DFB7B68FA
:1052800000E0002318460837BD4680BD0414012005
:105290003414012080B582B000AF0F4B7B600F4B00
:1052A0003B6007E03B681A1D3A607A68111D79601F
:1052B00012681A603B680A4A9342F3D309480A49C4
:1052C0004FF000028842B8BF40F8042BFADBFFF72A
:1052D000FBFE0837BD4680BD9819012098190120B2
:1052E0004822012048220120D836012080B400AF96
:1052F000FEE700BF80B400AFFEE700BF80B400AFA0
:10530000FEE700BF80B400AFFEE700BF80B485B009
:1053100000AF78600F4B1B68002B02D10D4B0E4A7B
:105320001A600C4B1B68FB600A4B1A687B681344BD
:105330000A4A934201D9002306E0064B1A687B68AB
:105340001344044A1360FB6818461437BD465DF8E1
:10535000047B704760220120D8360120D836022015
:1053600080B485B000AFF860B9607A60FB68043B38
:10537000FB60FB684FF080721A60FB68043BFB60C7
:10538000BA68FB681A60FB68043BFB60094AFB686B
:105390001A60FB68143BFB607A68FB681A60FB6864
:1053A000203BFB60FB6818461437BD465DF8047B64
:1053B000704700BFB953002080B500AF00F072F80D
:1053C000FEE700BF074B19680868B0E8F00F80F3EC
:1053D0000988BFF36F8F4FF0000080F311884EF003
:1053E0000D0E70477032012005480068006880F398
:1053F000088862B6BFF34F8FBFF36F8F00DF00BF27
:1054000008ED00E080B500AF0B4A0B4B1B6843F47E
:1054100060031360084A084B1B6843F06043136045
:1054200000F084F8054B00221A60FFF7DDFFFFF75C
:10543000C3FF0023184680BD20ED00E0B419012011
:1054400080B400AF054B4FF080521A60BFF34F8F0E
:10545000BFF36F8FBD465DF8047B704704ED00E03D
:1054600080B500AF00F01EF8044B1B680133034AFF
:105470001360BFF34F8FBFF36F8F80BDB41901204E
:1054800080B500AF064B1B68013B054A1360044B17
:105490001B68002B02D1002000F00EF880BD00BF79
:1054A000B4190120EFF311804FF0200181F311882E
:1054B00070470023184600BF80F31188704700BF73
:1054C000EFF30980BFF36F8F0D4B1A6820E9F00FDF
:1054D00010602DE908404FF0200080F3118801F0A2
:1054E0002BF94FF0000080F31188BDE808401968DF
:1054F0000868B0E8F00F80F30988BFF36F8F70473A
:105500007032012080B500AFFFF7CCFF01F064F8E6
:105510000346002B03D0044B4FF080521A6000204A
:10552000FFF7CAFF80BD00BF04ED00E080B400AF0C
:10553000044B054A1A60054B07221A60BD465DF808
:10554000047B704714E000E07F38010010E000E0C9
:1055500080B584B000AFF860B9601346FB71FB689A
:105560001846B96805F0CCFFFA68FB791046194671
:1055700005F0F2FFFB68184606F020F800235BB246
:1055800018461037BD4680BD80B582B000AF786048
:105590007B68184606F070F87B68184605F0C6FF71
:1055A0000837BD4680BD00BF80B584B000AF7860CD
:1055B0007B68002B01D1FC2310E07B68FB6001209D
:1055C0000021032200F06CFA0246FB681A607B6837
:1055D0001B68002B01D0002300E0FE235BB21846BD
:1055E0001037BD4680BD00BF80B582B000AF786087
:1055F0007B68002B01D1FC2305E07B681B68184603
:1056000000F074FC00235BB218460837BD4680BD2D
:1056100080B582B000AF78607B68002B01D1FC239D
:105620000DE07B681B68184600210022002300F073
:10563000B5FA0346012B01D0002300E000235BB242
:1056400018460837BD4680BD80B582B000AF78608F
:105650007B68002B01D1FC2316E00E4B00221A6060
:105660007B681B68184600210A4A002300F030FBC3
:105670000346012B07D1074B1B68002B01D0FFF716
:10568000DFFE002300E000235BB218460837BD466A
:1056900080BD00BF6432012080B582B000AF786069
:1056A00039607B68002B01D1FC230DE07B681B680F
:1056B000184600213A68002300F060FB0346012BE6
:1056C00001D1002300E0FE235BB218460837BD4637
:1056D00080BD00BF80B582B000AF78607B68002BD2
:1056E00001D1FC230BE0012000F016FA02467B6892
:1056F0001A607B68002B01D0002300E0FE235BB220
:1057000018460837BD4680BD80B588B004AFF86044
:10571000B9603B601346FB80FB889B089AB2BB696B
:105720000093FB6901930023029300230393F8681D
:10573000B9683B6800F0A8FD0346012B01D10023A6
:1057400000E0FE235BB218461037BD4680BD00BFA7
:1057500080B582B000AF78607B681B68184600F0A7
:10576000C5FB00235BB218460837BD4680BD00BFAD
:1057700080B582B000AF786039607B68002B01D1C2
:10578000FC230DE07B681B68184600213A68002363
:1057900000F0F4FA0346012B01D1002300E0FE23C0
:1057A0005BB218460837BD4680BD00BF80B582B0E9
:1057B00000AF78607B68002B01D1FC230DE07B6893
:1057C0001B68184600210022002300F0E7F9034679
:1057D000012B01D1002300E0FE235BB218460837FD
:1057E000BD4680BD80B586B000AFF860B9607A6014
:1057F000FB683B61BB687B610E4B00221A600E4B5D
:105800001A6807F11003104619460A4A002300F0EF
:105810005FFA0346012B07D1064B1B68002B01D012
:10582000FFF70EFE002300E0FE235BB21846183798
:10583000BD4680BD643201206832012080B586B04B
:1058400000AF786000237B61094B1A6807F10C03F5
:10585000104619464FF0FF32002300F08FFA7861AE
:105860007B69012B03D1FB683A6910469847EBE747
:105870006832012080B586B004AF7860032008212B
:10588000002200F00DF90246104B1A600F4B1B6806
:10589000002B01D1FE2314E07B6800930C4B019395
:1058A00000230293002303930A480B494FF400722C
:1058B000002300F0E9FC0346012B01D1002300E0A6
:1058C000FE235BB218460837BD4680BD6832012012
:1058D0006C3201203D5800204814012080B586B06C
:1058E00000AFF860B9607A603B60FB68002B01D1C3
:1058F000FC2310E000237B6138687968002200F007
:10590000CFF878617B69002B01D1FE2303E0FB68AF
:105910007A691A6000235BB218461837BD4680BD0D
:1059200080B582B000AF78607B68002B01D1FC238A
:1059300005E07B681B68184600F0D8FA00235BB2CC
:1059400018460837BD4680BD80B584B000AFF8600A
:10595000B9607A60FB68002B01D1FC230FE0FB6883
:105960001B681846B968084A002300F0B1F90346DD
:10597000012B03D1FFF764FD002300E0FE235BB29F
:1059800018461037BD4680BD6432012080B584B012
:1059900000AFF860B9607A60FB68002B01D1FC238E
:1059A00014E07B68B3F1FF3F02D14FF0FF337B601F
:1059B000FB681B681846B9687A68002300F0DEF9B6
:1059C0000346012B01D1002300E0FE235BB2184601
:1059D0001037BD4680BD00BF80B500AF00F02AFD86
:1059E00080BD00BF80B584B000AF78607B68FB608D
:1059F000F86800F0E5FC1037BD4680BD80B584B086
:105A000000AF786039607B68FB60FFF729FDFB68B9
:105A10001A68FB68DB6BF968096C01FB03F31A4435
:105A2000FB685A60FB6800229A63FB681A68FB688F
:105A30009A60FB681A68FB68DB6B013BF968096CCC
:105A400001FB03F31A44FB68DA60FB684FF0FF3296
:105A50005A64FB684FF0FF329A643B68002B0ED10A
:105A6000FB681B69002B14D0FB681033184600F04C
:105A70003FFF0346012B0CD1FFF7E2FC09E0FB6876
:105A80001033184601F0EEFCFB682433184601F091
:105A9000E9FCFFF7F5FC012318461037BD4680BD31
:105AA00080B588B000AFF860B9601346FB71002381
:105AB000FB61FB68002B29D0502001F0A9FCB861E4
:105AC000BB69002B22D0FB68BA6802FB03F30133E9
:105AD0007B61786901F09CFC0246BB691A60BB6976
:105AE0001B68002B0FD0BB69FA68DA63BB69BA6820
:105AF0001A64B8690121FFF781FFBB690022DA64EB
:105B0000BB69FB6102E0B86901F09AFCFB691846C9
:105B10002037BD4680BD00BF80B584B000AF0346CE
:105B2000FB71502001F074FCF860FB68002B2FD053
:105B3000FB6800225A60FB6800221A60FB680022A2
:105B40009A60FB680022DA60FB6800229A63FB68B7
:105B50000122DA63FB6800221A64FB684FF0FF320F
:105B60005A64FB684FF0FF329A64FB680022DA64E3
:105B7000FB681033184601F075FCFB6824331846A7
:105B800001F070FCF86800210022002300F006F804
:105B9000FB6818461037BD4680BD00BF80B588B091
:105BA00000AFF860B9607A603B600023FB61FB687E
:105BB000BB61FFF755FCBB699A6BBB69DB6B9A4213
:105BC00002D33B68022B24D1B869B9683A6800F067
:105BD000A5F9BB69DB6C002B09D0B869396800F006
:105BE00029FB0346012B10D1FFF72AFC0DE0BB690E
:105BF0005B6A002B09D0BB692433184600F078FE9D
:105C00000346012B01D1FFF71BFCFFF739FC0123F1
:105C100059E07B68002B03D1FFF732FC002352E0F0
:105C2000FB69002B06D107F11003184600F0B6FE01
:105C30000123FB61FFF724FC00F02EFCFFF710FCB2
:105C4000BB695B6CB3F1FF3F02D1BB6900225A64B0
:105C5000BB699B6CB3F1FF3F02D1BB6900229A6420
:105C6000FFF70EFC07F110023B1D1046194600F02D
:105C7000ABFE0346002B1ED1B86900F04DFA034677
:105C8000002B12D0BB6903F110027B681046194645
:105C900000F0BCFDB86900F0CFF900F00BFC034642
:105CA000002B0FD1FFF7CCFB0CE0B86900F0C4F972
:105CB00000F000FC7DE7B86900F0BEF900F0FAFBE7
:105CC000002300E075E718462037BD4680BD00BFC1
:105CD00080B588B000AFF860B9607A603B60FB685F
:105CE000BB61FFF7DFFB7861BB699A6BBB69DB6B5C
:105CF0009A4202D33B68022B36D1B869B9683A6838
:105D000000F00CF9BB699B6CB3F1FF3F24D1BB6978
:105D1000DB6C002B0DD0B869396800F08BFA0346B4
:105D2000012B1ED17B68002B1BD07B6801221A60DF
:105D300017E0BB695B6A002B13D0BB69243318469C
:105D400000F0D6FD0346002B0BD07B68002B08D05B
:105D50007B6801221A6004E0BB699B6C5A1CBB691A
:105D60009A640123FB6101E00023FB617869FFF77E
:105D7000A3FBFB6918462037BD4680BD80B58AB0BD
:105D800000AFF860B9607A603B6000237B62FB681B
:105D90003B62FFF765FB3B6A9B6B002B3BD03B6A8A
:105DA000DB68FB61386AB96800F020F93B68002BBA
:105DB0001CD13B6A9B6B5A1E3B6A9A633B6A1B6809
:105DC000002B04D100F0B4FF02463B6A5A603B6AE4
:105DD0001B69002B1BD03B6A1033184600F088FD6E
:105DE0000346012B13D1FFF72BFB10E03B6AFA6946
:105DF000DA603B6A5B6A002B09D03B6A24331846A1
:105E000000F076FD0346002B01D0FFF719FBFFF7EA
:105E100037FB012366E07B68002B03D1FFF730FBE3
:105E200000235FE07B6A002B06D107F114031846BC
:105E300000F0B4FD01237B62FFF722FB00F02CFB96
:105E4000FFF70EFB3B6A5B6CB3F1FF3F02D13B6A8D
:105E500000225A643B6A9B6CB3F1FF3F02D13B6A5C
:105E600000229A64FFF70CFB07F114023B1D104659
:105E7000194600F0A9FD0346002B2BD1386A00F02B
:105E800035F90346002B1FD03B6A1B68002B08D155
:105E9000FFF7E6FA3B6A5B68184600F077FFFFF70A
:105EA000EFFA3B6A03F124027B681046194600F0C2
:105EB000ADFC386A00F0C0F800F0FCFA0346002B95
:105EC0000FD1FFF7BDFA0CE0386A00F0B5F800F02A
:105ED000F1FA5EE7386A00F0AFF800F0EBFA002361
:105EE00000E056E718462837BD4680BD80B584B02F
:105EF00000AF78607B68FB60F86800F04DF9FB68E4
:105F00001B68002B04D0FB681B68184601F098FA48
:105F1000F86801F095FA1037BD4680BD80B584B0B1
:105F200000AFF860B9607A60FB681B6C002B0CD185
:105F3000FB681B68002B51D1FB685B68184600F0BA
:105F40009DFFFB6800225A6048E07B68002B1AD155
:105F5000FB689A68FB681B6C1046B9681A4607F024
:105F600051F8FB689A68FB681B6C1A44FB689A60DE
:105F7000FB689A68FB685B689A422FD3FB681A68D3
:105F8000FB689A602AE0FB68DA68FB681B6C1046C5
:105F9000B9681A4607F036F8FB68DA68FB681B6CCC
:105FA0005B421A44FB68DA60FB68DA68FB681B68CE
:105FB0009A4207D2FB685A68FB681B6C5B421A4422
:105FC000FB68DA607B68022B08D1FB689B6B002BB7
:105FD00004D0FB689B6B5A1EFB689A63FB689B6B43
:105FE0005A1CFB689A631037BD4680BD80B582B0ED
:105FF00000AF786039607B681B68002B19D07B6824
:10600000DA687B681B6C1A447B68DA607B68DA6844
:106010007B685B689A4203D37B681A687B68DA60A6
:106020007B68DA687B681B6C386811461A4606F094
:10603000E9FF0837BD4680BD80B582B000AF78600B
:10604000FFF70EFA22E07B68DB6C002B09D0786842
:10605000002100F0EFF80346012B12D100F0F8FC0C
:106060000FE07B685B6A002B0AD07B6824331846FC
:1060700000F03EFC0346002B03D000F0E9FC00E0FA
:1060800008E07B689B6C5A1E7B689A647B689B6CFB
:10609000002BD8DC7B684FF0FF329A64FFF7F0F9F1
:1060A000FFF7DEF914E07B681B69002B0FD07B68DB
:1060B0001033184600F01CFC0346002B01D000F002
:1060C000C7FC7B685B6C5A1E7B685A6400E003E087
:1060D0007B685B6C002BE6DC7B684FF0FF325A6418
:1060E000FFF7CEF90837BD4680BD00BF80B584B04C
:1060F00000AF7860FFF7B4F97B689B6B002B02D18F
:106100000123FB6001E00023FB60FFF7B9F9FB68A6
:1061100018461037BD4680BD80B584B000AF7860AA
:10612000FFF79EF97B689A6B7B68DB6B9A4202D122
:106130000123FB6001E00023FB60FFF7A1F9FB688E
:1061400018461037BD4680BD80B485B000AF78607A
:1061500039600023FB6014E00E4AFB6852F83330CC
:10616000002B0BD10B49FB683A6841F83320094AF0
:10617000FB68DB0013447A685A6005E0FB68013372
:10618000FB60FB68092BE7D91437BD465DF8047B3B
:10619000704700BFB034012080B485B000AF786094
:1061A0000023FB6010E00C4AFB68DB0013445A68D4
:1061B0007B689A4205D1084AFB68002142F83310F7
:1061C00005E0FB680133FB60FB68092BEBD9143752
:1061D000BD465DF8047B7047B034012080B584B0C3
:1061E00000AF786039607B68FB60FFF739F9FB68C6
:1061F0005B6CB3F1FF3F02D1FB6800225A64FB687D
:106200009B6CB3F1FF3F02D1FB6800229A64FFF759
:1062100037F9FB689B6B002B05D1FB6824331846CC
:10622000396800F033FBF868FFF706FF1037BD460A
:1062300080BD00BF80B584B000AF786039607B68F6
:10624000DB6CBB600023FB60BB689A6BBB68DB6BDD
:106250009A4213D23B1DB86819463A68FFF75EFEB2
:10626000BB685B6A002B09D0BB682433184600F07A
:106270003FFB0346002B01D00123FB60FB6818465F
:106280001037BD4680BD00BF80B58AB002AFF86050
:10629000B9603B601346FB80FB881846396B00F001
:1062A000E1FCB861BB69002B67D0BB691A6BFB8846
:1062B00003F18043013B9B0013447B617B6923F026
:1062C00007037B61FB880093B869B968BA6A7B6B86
:1062D00000F0D2FB7869F9683A68FFF741F80246A6
:1062E000BB691A60FB6A002B02D0FB6ABA691A60AC
:1062F000FFF7B6F82C4B1B6801332B4A13602B4B6E
:106300001B68002B09D1294ABB691360264B1B6807
:10631000012B0FD100F0F8FB0CE0254B1B68002B84
:1063200008D1224B1B68DA6ABB6A9A4202D81F4A1C
:10633000BB6913601F4B1B6801331E4A1360BB69A6
:10634000DB6A1A46012303FA02F21B4B1B68134354
:10635000194A1360BB69DA6A13469B0013449B0019
:10636000164A1A44BB6904331046194601F0A6F8D0
:106370000123FB61FFF784F802E04FF0FF33FB617C
:10638000FB69012B0BD10A4B1B68002B07D0074B75
:106390001B68DA6ABB6A9A4201D2FFF751F8FB69BF
:1063A00018462037BD4680BDB03301207032012031
:1063B000BC330120CC330120B833012074320120DA
:1063C00080B584B000AF78600023FB607B68002B51
:1063D00021D000F061F8144B1A687B681344BB604D
:1063E000124B1B680433184601F0C4F80346002B17
:1063F0000BD10E4B1B68DB6A1A4601239340DA432C
:106400000B4B1B6813400A4A1360B86800F0F4FB9A
:1064100000F050F8F860FB68002B01D1FFF710F88E
:106420001037BD4680BD00BFB4330120703201205B
:10643000B833012080B586B004AF00230093114B20
:10644000019300230293002303930F480F49462230
:106450000023FFF719FF78607B68012B02D100F061
:1064600069FD78607B68012B09D1FFF71BF8084BA9
:1064700001221A60074B00221A60FEF7C3FF08379B
:10648000BD4680BDAC330120696A00205014012054
:10649000BC330120B433012080B400AF044B1B682F
:1064A0000133034A1360BD465DF8047B704700BFAB
:1064B000D033012080B582B000AF00237B60FEF7AF
:1064C000CFFF344B1B68013B324A1360314B1B68D2
:1064D000002B57D1304B1B68002B53D030E02F4B93
:1064E000DB68DB683B603B681833184601F042F814
:1064F0003B680433184601F03DF83B68DB6A1A46F6
:10650000012303FA02F2264B1B681343244A13604B
:106510003B68DA6A13469B0013449B00214A1A44E5
:106520003B6804331046194600F0C8FF3B68DA6A3E
:106530001D4B1B68DB6A9A4202D31C4B01221A6076
:10654000164B1B68002BCAD1194B1B68002B11D0AE
:106550000CE000F041F80346002B02D0134B01225F
:106560001A60134B1B68013B114A1360104B1B68E8
:10657000002BEED10D4B1B68012B03D101237B6057
:10658000FEF75EFFFEF77CFF7B6818460837BD46C6
:1065900080BD00BFD0330120B03301206C33012017
:1065A000B83301207432012070320120C43301203D
:1065B000C033012080B582B000AFFEF751FF054B1C
:1065C0001B687B60FEF75CFF7B6818460837BD469A
:1065D00080BD00BFB433012080B586B000AF00237A
:1065E0007B614A4B1B68002B7FD1494B1B680133F1
:1065F000474A1360464B1B683B613B69002B10D137
:10660000444B1B68FB60444B1B68424A1360424A80
:10661000FB681360414B1B680133404A136000F074
:1066200063FB3F4B1B683A699A424FD3394B1B6857
:106630001B68002B01D1012300E00023002B04D0B4
:10664000374B4FF0FF321A6040E0324B1B68DB687B
:10665000DB68BB60BB685B687B603A697B689A42B9
:1066600003D22F4A7B68136030E0BB6804331846BE
:1066700000F080FFBB689B6A002B04D0BB68183316
:10668000184600F077FFBB68DB6A1A46012303FA5D
:1066900002F2244B1B681343224A1360BB68DA6A78
:1066A00013469B0013449B001F4A1A44BB680433E3
:1066B0001046194600F002FFBB68DA6A1B4B1B68E4
:1066C000DB6A9A4201D301237B61AFE7174B1B685A
:1066D000DA6A154913469B0013449B000B441B6860
:1066E000012B07D901237B6104E0114B1B680133A7
:1066F0000F4A13600F4B1B68002B01D001237B61F5
:106700007B6918461837BD4680BD00BFD0330120D5
:10671000B43301206433012068330120C8330120E1
:10672000B8190120B83301207432012070320120E1
:10673000C0330120C433012080B584B000AF2D4B9D
:106740001B68002B03D02C4B01221A604FE02A4B10
:1067500000221A60294B1B681A68284B1B681B6BA8
:106760009A4208D8254B1A68244B1B6834331046CC
:106770001946FDF749FE214B1B681B6B1846204943
:10678000142206F00DFC0346002B08D01B4B1A68A0
:106790001A4B1B68343310461946FDF735FE194B6A
:1067A0001B687B607B68B3FA83F3FB70FB78C3F1F3
:1067B0001F03FB60FA6813469B0013449B00124AB8
:1067C0001344BB60BB685B685A68BB685A60BB68AF
:1067D0005A68BB6808339A4204D1BB685B685A6840
:1067E000BB685A60BB685B68DB68044A136010379B
:1067F000BD4680BDD0330120C4330120703201205A
:1068000058140120B83301207432012080B584B0BF
:1068100000AF78603960194B1B68183378681946E7
:1068200000F070FE154B1B680433184600F0A2FE02
:106830000346002B0BD1114B1B68DB6A1A46012360
:106840009340DA430E4B1B6813400D4A13603B68BC
:10685000B3F1FF3F07D1094B1B68043309481946C0
:1068600000F02CFE07E0084B1A683B681344FB60FD
:10687000F86800F0C1F91037BD4680BD70320120C4
:10688000B833012098330120B433012080B584B09F
:1068900000AF78603960134B1B681833786819466D
:1068A00000F00CFE0F4B1B680433184600F062FE2C
:1068B0000346002B0BD10B4B1B68DB6A1A460123E6
:1068C0009340DA43084B1B681340074A1360074B99
:1068D0001A683B681344FB60F86800F08DF91037C4
:1068E000BD4680BD70320120B8330120B433012091
:1068F00080B584B000AF78607B68DB68DB68BB6024
:10690000BB681833184600F035FE1E4B1B68002B81
:106910001ED1BB680433184600F02CFEBB68DB6A4E
:106920001A46012303FA02F2174B1B681343164A57
:106930001360BB68DA6A13469B0013449B00134A3A
:106940001A44BB6804331046194600F0B7FD05E051
:10695000BB6818330E48194600F0B0FDBB68DA6A10
:106960000C4B1B68DB6A9A4205D90123FB600A4B7A
:1069700001221A6001E00023FB60FB681846103713
:10698000BD4680BDD0330120B833012074320120D0
:106990006C33012070320120C433012080B483B0F5
:1069A00000AF7860064B1A687B681A60054B1A685E
:1069B0007B685A600C37BD465DF8047B704700BFAA
:1069C000C8330120B433012080B584B000AF7860B3
:1069D0003960FEF745FD1C4B1B68BB603B681B68BC
:1069E000B3F1FF3F02D10023FB6026E07B681A6809
:1069F000164B1B689A4207D07B685A68BB689A425C
:106A000002D80123FB6018E07B685B68BA68D21A81
:106A10003B681B689A420ED23B681A687B685968CB
:106A2000BB68CB1A1A443B681A607868FFF7B6FF58
:106A30000023FB6001E00123FB60FEF721FDFB6802
:106A400018461037BD4680BDB4330120C83301203D
:106A500080B400AF034B01221A60BD465DF8047B91
:106A6000704700BFC433012080B582B000AF7860AA
:106A700000F088F8FCE700BF80B586B000AFF86092
:106A8000B9607A603B6000237B6113E0BA687B6980
:106A900013441978FA687B69134430330A461A7133
:106AA000BA687B6913441B78002B00D105E07B6931
:106AB00001337B617B690B2BE8D9FB68002283F8EB
:106AC0003F207B68092B01D909237B60FB687A682A
:106AD000DA62FB687A681A64FB680433184600F0CF
:106AE000E1FCFB681833184600F0DCFCFB68FA6830
:106AF0001A617B68C3F10A02FB689A61FB68FA6855
:106B00005A621837BD4680BD80B582B000AF002301
:106B10007B600CE07A6813469B0013449B00114A8B
:106B20001344184600F09EFC7B6801337B607B6851
:106B3000092BEFD90C4800F095FC0C4800F092FCB2
:106B40000B4800F08FFC0B4800F08CFC0A4800F06A
:106B500089FC0A4B044A1A60094B044A1A60083738
:106B6000BD4680BD743201203C33012050330120EA
:106B70006C330120803301209833012064330120DD
:106B80006833012080B582B000AF28E0FFF784FCB5
:106B9000164B1B68002B0CBF01230023DBB27B606C
:106BA000FFF788FC7B68002B19D1FEF759FC0F4BCF
:106BB000DB68DB683B603B680433184600F0DAFCB6
:106BC0000B4B1B68013B0A4A13600A4B1B68013BD5
:106BD000084A1360FEF754FC386800F075F8054B5E
:106BE0001B68002BD2D10837BD4680BD8033012001
:106BF000B03301209433012080B582B000AF7860BB
:106C0000134B1B687A685A60124B1B687A689A4269
:106C100009D2114B1A680E4B1B68043310461946F3
:106C200000F070FC10E00D4B1A68094B1B68043330
:106C30001046194600F066FC094B1B687A689A42B8
:106C400002D2074A7B6813600837BD4680BD00BF8B
:106C500070320120B43301206833012064330120F5
:106C6000B819012080B584B000AF03463960FB80BD
:106C7000442000F0CDFBF860FB68002B1FD03B6880
:106C8000002B06D1FB889B00184600F0C1FB034691
:106C900000E03B68FA681363FB681B6B002B05D1AF
:106CA000F86800F0CDFB0023FB6008E0FB681A6B7E
:106CB000FB889B001046A5211A4606F0A1FAFB6846
:106CC00018461037BD4680BD80B582B000AF7860F1
:106CD0007B681B6B184600F0B3FB786800F0B0FBD4
:106CE0000837BD4680BD00BF80B483B000AF0E4BF7
:106CF0001B681B68002B01D1012300E00023002B3F
:106D000004D00A4B4FF0FF321A6008E0064B1B68B4
:106D1000DB68DB687B607B685B68044A13600C3768
:106D2000BD465DF8047B704764330120B81901202B
:106D300080B483B000AF054B1B687B607B6818464E
:106D40000C37BD465DF8047B704700BF70320120F0
:106D500080B483B000AF0B4B1B68002B02D1012322
:106D60007B6008E0084B1B68002B02D102237B608C
:106D700001E000237B607B6818460C37BD465DF858
:106D8000047B7047BC330120D033012080B584B030
:106D900000AF78607B68FB607B68002B64D0FB6889
:106DA000DA6A334B1B68DB6A9A425DD2FB689B69E7
:106DB000002B06DB2E4B1B68DB6AC3F10A02FB6863
:106DC0009A61FB685969FB68DA6A13469B001344B1
:106DD0009B00284A1344994201D1012300E000237B
:106DE000002B3CD0FB680433184600F0C3FB03467D
:106DF000002B15D1FB68DA6A1E4913469B00134429
:106E00009B000B441B68002B0AD1FB68DB6A1A4607
:106E100001239340DA43184B1B681340164A136052
:106E2000134B1B68DA6AFB68DA62FB68DB6A1A4696
:106E3000012303FA02F2104B1B6813430E4A13603E
:106E4000FB68DA6A13469B0013449B00094A1A4404
:106E5000FB6804331046194600F030FB04E0044B95
:106E60001B68DA6AFB68DA621037BD4680BD00BF76
:106E70007032012074320120B833012080B584B013
:106E800000AF78607B68FB607B68002B4AD0FB68B2
:106E9000DA6AFB681B6C9A4244D0FB6804331846DC
:106EA00000F068FB0346002B15D1FB68DA6A1F4926
:106EB00013469B0013449B000B441B68002B0AD114
:106EC000FB68DB6A1A4601239340DA43184B1B68C0
:106ED0001340174A1360FB681A6CFB68DA62FB68A0
:106EE0009B69002B05DBFB68DB6AC3F10A02FB68C8
:106EF0009A61FB68DB6A1A46012303FA02F20C4B23
:106F00001B6813430A4A1360FB68DA6A13469B0046
:106F100013449B00054A1A44FB6804331046194683
:106F200000F0CCFA1037BD4680BD00BF743201209E
:106F3000B833012080B586B004AF00237B6000F039
:106F400031FA0C4B1B68002B0ED002230093002358
:106F500001930023029300230393074807498C22DF
:106F60000023FFF791F978607B6818460837BD4623
:106F700080BD00BF04340120717000206C1401201A
:106F800080B588B000AFF860B9607A603B600023DC
:106F9000FB611D4B1B68002B30D0BB683B617B68DD
:106FA0007B61FB68BB61BB68052B1CDCFFF7D0FE77
:106FB0000346022B0BD1144B1A6807F1100310463D
:106FC0001946BA6A0023FEF7E9FDF86116E00E4B98
:106FD0001A6807F110031046194600220023FEF735
:106FE000DDFDF8610AE0084B1A6807F1100310464E
:106FF00019463A680023FEF76BFEF861FB691846F4
:107000002037BD4680BD00BF0434012080B586B066
:1070100002AF78603960154B1B68DB68DB68FB608A
:10702000FB680433184600F0A5FAFB68DB69012B06
:1070300015D1FB689A697B681344F86819463A6869
:107040007B6800F0A1F80346012B08D100230093D0
:10705000F86800217A680023FFF792FFB860FB68A8
:107060005B6AF86898471037BD4680BDFC33012045
:1070700080B584B000AF786007F10803184600F0CF
:107080003FF8F860BB68F868194600F003F800F0B4
:10709000BDF8F1E780B584B000AF78603960FFF7E4
:1070A000FBF907F10803184600F04EF8F860BB68DA
:1070B000002B1ED13B68002B0AD17A68FB689A42EC
:1070C00006D8FFF7F7F97868F968FFF79FFF12E035
:1070D0000A4B19687A68FB68D31A08461946FFF705
:1070E0007DF8FFF7E7F90346002B04D1FEF7A8F976
:1070F00001E0FFF7DFF91037BD4680BD0434012001
:1071000080B485B000AF78600E4B1B681B68002B05
:107110000CBF01230023DBB21A467B681A607B6830
:107120001B68002B05D1074B1B68DB681B68FB60E5
:1071300001E00023FB60FB6818461437BD465DF88C
:10714000047B7047FC33012080B584B000AF7860C9
:10715000FFF730FAF8600B4B1B68FA689A4205D2C9
:1071600000F0CEF87B6801221A6002E07B68002202
:107170001A60044AFB681360FB6818461037BD4666
:1071800080BD00BF0834012080B586B000AFF86034
:10719000B9607A603B6000237B61FB68BA685A6023
:1071A000FB68FA681A61BA687B689A4212D87A68F2
:1071B0003B68D21AFB689B699A4202D301237B6128
:1071C0001BE0104B1A68FB6804331046194600F0A8
:1071D00099F912E07A683B689A4206D2BA683B682D
:1071E0009A4202D301237B6107E0074B1A68FB68D0
:1071F00004331046194600F085F97B6918461837A4
:10720000BD4680BD00340120FC33012080B58AB02A
:1072100002AF62E0BB68002B5FDB3B69FB61FB698F
:107220005B69002B04D0FB690433184600F0A2F917
:107230003B1D1846FFF788FFB861BB68092B4BD888
:1072400001A252F823F000BF717200207172002079
:1072500071720020DB720020B5720020D172002014
:107260007172002071720020DB720020B572002064
:10727000FA68FB699B691A44FB68F8691146BA69A8
:10728000FFF782FF0346012B13D1FB695B6AF869A4
:107290009847FB69DB69012B0BD1FA68FB699B6995
:1072A0001A4400230093F86900210023FFF768FEC9
:1072B000786112E0FA68FB699A61FB699A69BB69B7
:1072C0001344F8691946BA69BB69FFF75DFF04E02A
:1072D000F86900F0B5F800E000BF084B1A6807F144
:1072E00008031046194600220023FEF747FD034617
:1072F000002B8FD12037BD4680BD00BF0434012054
:1073000080B588B002AF37E0244B1B68DB681B6890
:107310007B61224B1B68DB68DB683B613B690433A4
:10732000184600F027F93B695B6A386998473B6962
:10733000DB69012B20D13B699A697B691344FB60AF
:10734000FA687B699A420ED93B69FA685A603B69D0
:107350003A691A61114B1A683B69043310461946A1
:1073600000F0D0F808E000230093386900217A6922
:107370000023FFF705FEB860084B1B681B68002B55
:10738000C2D1064B1B687B60054B1B68034A136028
:10739000034A7B6813601837BD4680BDFC3301206B
:1073A0000034012080B500AFFEF75AF8124B1B687D
:1073B000002B1DD1114800F055F8114800F052F88B
:1073C000104B0E4A1A60104B0D4A1A6014200C2103
:1073D0000022FEF765FB0246074B1A60064B1B684E
:1073E000002B05D0044B1B6818460849FEF7ACFE7D
:1073F000FEF746F880BD00BF04340120D4330120DD
:10740000E8330120FC3301200034012074140120F2
:1074100080B584B000AF7860FFF73EF8786805F07B
:1074200021FB0346FB60FFF745F8FB68002B01D109
:10743000FCF7E6FFFB6818461037BD4680BD00BF6D
:1074400080B582B000AF78607B68002B06D0FFF774
:1074500023F8786805F00EFBFFF72CF80837BD46D7
:1074600080BD00BF80B483B000AF78607B6803F15B
:1074700008027B685A607B684FF0FF329A607B6835
:1074800003F108027B68DA607B6803F108027B681D
:107490001A617B6800221A600C37BD465DF8047BD8
:1074A000704700BF80B483B000AF78607B68002273
:1074B0001A610C37BD465DF8047B704780B485B017
:1074C00000AF786039607B685B68FB603B68FA6896
:1074D0005A60FB689A683B689A60FB689B683A68E8
:1074E0005A60FB683A689A603B687A681A617B6800
:1074F0001B685A1C7B681A601437BD465DF8047B14
:10750000704700BF80B485B000AF786039603B68D9
:107510001B68BB60BB68B3F1FF3F03D17B681B698D
:10752000FB600CE07B680833FB6002E0FB685B6893
:10753000FB60FB685B681A68BB689A42F6D9FB6817
:107540005A683B685A603B685B683A689A603B6877
:10755000FA689A60FB683A685A603B687A681A6110
:107560007B681B685A1C7B681A601437BD465DF83F
:10757000047B704780B485B000AF78607B681B697E
:10758000FB607B685B687A6892689A607B689B683E
:107590007A6852685A60FB685A687B689A4203D1DD
:1075A0007B689A68FB685A607B6800221A61FB68F6
:1075B0001B685A1EFB681A60FB681B681846143764
:1075C000BD465DF8047B704780B582B000AF0346CE
:1075D000FB71FB7903F00103002B04D009200D4956
:1075E0000D4A00F053F9FB7903F00203002B04D09D
:1075F0000A200A490A4A00F049F9FB7903F004031A
:10760000002B04D00B200749074A00F03FF9083748
:10761000BD4680BD0C34012000350120103401200E
:1076200001350120143401200235012080B582B0DB
:1076300000AF0346FB71FB79013B0B2B5AD801A22B
:1076400052F823F08B760020A1760020A17600204E
:10765000A1760020A17600207576002075760020A6
:107660008B760020A17600208B7600207576002096
:10767000B7760020214B1A68214B1B780B2011464E
:107680001A46012300F026F935E01E4B1A681E4BFE
:107690001B780A2011461A46012300F01BF92AE044
:1076A0001A4B1A681A4B1B78092011461A460123F7
:1076B00000F010F91FE0114B1A68114B1B780B20DA
:1076C00011461A46012300F005F90E4B1A680E4BBD
:1076D0001B780A2011461A46012300F0FBF80B4BD9
:1076E0001A680B4B1B78092011461A46012300F03B
:1076F000F1F800E000BF0837BD4680BD143401201A
:107700000235012010340120013501200C34012004
:107710000035012080B582B000AF0346FB71FB79D4
:10772000013B0B2B5AD801A252F823F073770020AB
:1077300089770020897700208977002089770020C9
:107740005D7700205D770020737700208977002027
:10775000737700205D7700209F770020214B1A6807
:10776000214B1B780B2011461A46002300F0B2F87B
:1077700035E01E4B1A681E4B1B780A2011461A462C
:10778000002300F0A7F82AE01A4B1A681A4B1B785E
:10779000092011461A46002300F09CF81FE0114B07
:1077A0001A68114B1B780B2011461A46002300F073
:1077B00091F80E4B1A680E4B1B780A2011461A4698
:1077C000002300F087F80B4B1A680B4B1B7809203D
:1077D00011461A46002300F07DF800E000BF08378C
:1077E000BD4680BD14340120023501201034012033
:1077F000013501200C3401200035012080B584B012
:1078000000AF0346FB71FB790A2B11D00B2B02D082
:10781000092B1AD026E0174B1A68174B1B78F979F9
:10782000084611461A4600F073F80346FB731BE046
:10783000124B1A68124B1B78F979084611461A4602
:1078400000F066F80346FB730EE00E4B1A680E4B11
:107850001B78F979084611461A4600F059F8034694
:10786000FB7301E00023FB73FB7B18461037BD461A
:1078700080BD00BF143401200235012010340120E6
:10788000013501200C3401200035012080B485B081
:1078900000AF0346B9607A60FB73FB7B03F007031C
:1078A000012202FA03F3DAB27B681A70FB7BDB0871
:1078B000DBB21A46BB681A60BB681B68044A52F800
:1078C0002320BB681A601437BD465DF8047B7047FF
:1078D000BC19012080B582B000AF396011461A464C
:1078E0000346FB710B46BB7113467B717A79FB79BA
:1078F00003F0070302FA03F37B71BA797B793868E6
:1079000011461A4603F0CCFD0837BD4680BD00BFC6
:1079100080B584B000AF03463960FB711346BB717C
:10792000BB793868194603F0A9FDF860FB7903F0CC
:107930000703FA6842FA03F3FB72FB7A1846103722
:10794000BD4680BD80B582B000AF78607B68002BFB
:107950000CD007E07B685A1C7A601B7805481946F2
:1079600004F024FC7B681B78002BF3D10837BD465C
:1079700080BD00BF00C000400FB480B586B000AF2E
:1079800000237B614FF48073FB60FB68184605F0B1
:1079900069F803463B613B69002B02D14FF0FF338E
:1079A0002EE007F124037B60FB68386919463A6AC8
:1079B0007B6805F0EFFE78617B69002B03DB7A6959
:1079C000FB689A4215DBFB685B00FB60FB6838696B
:1079D000194605F067FCB860BB68002B06D10C485F
:1079E000FFF7B0FF4FF0FF337B6102E0BB683B6104
:1079F000D7E73869FFF7A6FF386905F03BF87B69E0
:107A000018461837BD46BDE8804004B0704700BF37
:107A10008414012080B483B000AF78607B68B3F138
:107A2000333F18D0B3F1333F06D8B3F1113F0DD037
:107A3000B3F1223F0CD018E0B3F1553F10D0B3F1B1
:107A4000663F0FD0B3F1443F07D00EE000230EE0B5
:107A50004FF6FF730BE0022309E04FF6FE7306E0DA
:107A6000032304E04FF6FD7301E07B689BB21BB279
:107A700018460C37BD465DF8047B704790B589B059
:107A800000AFF860B9607A600A23FB8303F01EFC44
:107A900000F062FAFB68002B08D1434B1C68B86801
:107AA000002103F03BFA0346236003E03E4B1B68D2
:107AB000FA681A600E20082101F0E8FE0346FB83F5
:107AC000B7F91E300A2B02D14FF6300366E0364B71
:107AD0001B68903318464FF0FF31FDF749FE03460F
:107AE000BB83B7F91C30002B00D0FEE72E4B196882
:107AF000B7F91E2013465B0013449B000B44103360
:107B000007F114025A60284B1B6890331846FDF7A2
:107B10004DFE03467B83B7F91A30002B00D0FEE7F9
:107B2000214B1B681B68002B34DB03F02DFC1F4826
:107B3000002103F099FB7B68002B03D01A4B1B68D4
:107B40007A68DA6003F008FC7B68002B22D1164BC0
:107B50001968B7F91E2013465B0013449B001033CD
:107B60000B4418464FF0FF31FDF796FD03463B836B
:107B7000B7F91830002B00D0FEE70B4B1B6893F8C9
:107B8000C030184601F09AFF7B691846FFF742FFA4
:107B9000034603E0044B1B681B689BB21BB21846EC
:107BA0002437BD4690BD00BF18340120F980002065
:107BB00090B587B000AF78607B6808337B61334B4A
:107BC0001B68903318464FF0FF31FDF7D1FD034697
:107BD0007B82B7F91230002B00D0FEE72B4B1B68DD
:107BE000DB68002B0BD0294B1B68DC687B691B68AA
:107BF0001846FFF70FFF03461846A04729E0234B1E
:107C00001A68224B1B6893F8C03019460B465B007C
:107C10000B449B00134410335B68184679690422B7
:107C200005F0F0F9194B1A68184B1B6893F8C0302F
:107C300019460B465B000B449B0010331344184657
:107C4000FDF7E6FC03463B82B7F91030002B00D06D
:107C5000FEE70E4B1B6890331846FDF7A7FD034661
:107C6000FB81B7F90E30002B00D0FEE7074B1B68F5
:107C7000DB68002B06D0054B1B6893F8C030184614
:107C800001F01CFF1C37BD4690BD00BF1834012019
:107C900080B586B000AF78607B6808337B61254B88
:107CA0001B68903318464FF0FF31FDF761FD034626
:107CB0007B82B7F91230002B00D0FEE71D4B1A680B
:107CC0001C4B1B6893F8C03019460B465B000B44F5
:107CD0009B00134410335B6818467969042205F051
:107CE00091F9144B1A68134B1B6893F8C03019466E
:107CF0000B465B000B449B00103313441846FDF702
:107D000087FC03463B82B7F91030002B00D0FEE71A
:107D1000084B1B6890331846FDF748FD0346FB816E
:107D2000B7F90E30002B00D0FEE700BF1837BD4674
:107D300080BD00BF1834012080B588B000AF034675
:107D4000FB800023FB830A23BB83FB88002B0ED11F
:107D50000020002103F088FA03F016FB424B1B6859
:107D60001B68184603F082F90346FB8373E0FB8827
:107D70003B820E20082101F089FD0346BB83B7F941
:107D80001C300A2B02D14FF6300367E0364B1B68DC
:107D9000903318464FF0FF31FDF7EAFC03467B8332
:107DA000B7F91A30002B00D0FEE72F4B1968B7F94E
:107DB0001C2013465B0013449B000B44103307F157
:107DC0000C025A60284B1B6890331846FDF7EEFCF6
:107DD00003463B83B7F91830002B00D0FEE707F1CC
:107DE000100322481946002200F0B6F90346FB8230
:107DF000B7F91630002B00D0FEE73B8A002B19D1D3
:107E0000194B1968B7F91C2013465B0013449B00FB
:107E100010330B4418464FF0FF31FDF73DFC03468D
:107E2000BB82B7F91430002B00D0FEE7BB893B8240
:107E30003B8AFB83BB8BDBB2184601F03FFE002080
:107E4000002103F011FA03F09FFA074B1B681B682F
:107E5000184603F00BF900F0F9F8FB8B1BB218463B
:107E60002037BD4680BD00BF18340120A414012076
:107E700080B58CB000AFB9607A603B600346FB739D
:107E80007B681B78002B01D1234B41E0BB68002BA2
:107E90003CD00023BB827B681B789BB2FB82002313
:107EA000FB613B683B6200233B83FB7B9BB2FB8413
:107EB000BB681B789BB23B8507F1240207F11403D2
:107EC000164811461A4600F047F90346FB85B7F9F4
:107ED0002E30002B00D0FEE7BB68002B03D03B8D7B
:107EE000DAB2BB681A70FA8A3B8B9A4206D2FB8AD6
:107EF000DAB27B681A706FF4FA6309E03B8BDAB28E
:107F00007B681A70BB8C9BB21BB201E04FF0FF3351
:107F100018463037BD4680BD2EF8FFFFA81401205B
:107F200080B584B000AF78607B68FB60FB681B881D
:107F3000732B07D0782B0AD0082B07D1F868FFF7EE
:107F400037FE05E0F868FFF7A3FE01E0FEE700BF9B
:107F50001037BD4680BD00BF80B584B000AF384B40
:107F6000384A1A60364B1B68002B00D1FEE7344BB1
:107F70001B6818460021CC2205F042F9304B1B68E3
:107F800094331846FDF710FB0346BB81B7F90C305C
:107F9000002B00D0FEE72A4B1B68943318460021C3
:107FA000FDF77AFB264B1B6804331846FDF792FB5E
:107FB00003467B81B7F90A30002B00D0FEE7204B47
:107FC0001B6890331846FDF785FB03463B81B7F9E4
:107FD0000830002B00D0FEE701F090FE0023FB7379
:107FE00022E0174B1968FA7B13465B0013449B0091
:107FF00010330B441846FDF7D7FA0346FB80B7F958
:108000000630002B00D0FEE70D4B1968FA7B1346B3
:108010005B0013449B0010330B4418460021FDF70E
:108020003BFBFB7B0133FB73FB7B092BD9D901F0B5
:10803000DDFF054B00221A701037BD4680BD00BF22
:1080400018340120083501202034012080B584B087
:1080500000AF01F0F3FF274B1B6894331846FDF780
:10806000C3FA0346BB81B7F90C30002B00D0FEE702
:10807000204B1B6804331846FDF76AFB03467B81DF
:10808000B7F90A30002B00D0FEE71A4B1B6890337B
:108090001846FDF75DFB03463B81B7F90830002B1E
:1080A00000D0FEE70023FB7315E0124B1968FA7B42
:1080B00013465B0013449B0010330B441846FDF736
:1080C00093FA0346FB80B7F90630002B00D0FEE799
:1080D000FB7B0133FB73FB7B092BE6D901F050FEE0
:1080E000044B00221A60034B00221A601037BD4671
:1080F00080BD00BF1834012080B584B000AF786027
:1081000003F0CCF8124B1B6893F8A920D2B20132CD
:10811000D2B283F8A9200E4B1B6893F89830012B3C
:108120000DD10B4B1B6894331846FDF78DFA0346AF
:10813000FB81B7F90E30002B00D0FEE704E00548C4
:1081400000210022FDF74EFB1037BD4680BD00BF69
:1081500018340120A193002080B588B000AFF860EA
:10816000B9607A602A4B1B68043318464FF0FF3120
:10817000FDF7FEFA0346BB83B7F91C30002B00D095
:10818000FEE7234B1B68012283F89820204B1B68D5
:10819000FA68C3F8B0201E4B1B68BA68C3F8B42055
:1081A0001B4B1B687A68C3F8B82000F05BF80346E5
:1081B000FB83B7F91E30002B16D1164B1B78002B12
:1081C0000DD100237B61134B01221A704FF47A63A7
:1081D0007B6100BF7B695A1E7A61002BFAD101F0E6
:1081E00053F80346FB830CE0094B1B680433184625
:1081F000FDF7DCFA03467B83B7F91A30002B00D079
:10820000FEE7FB8B1BB218462037BD4680BD00BF82
:10821000183401202034012080B586B000AFF8600A
:10822000B9607A600E4B1B68002283F898200C4BD3
:108230001B68FA68C3F8B020094B1B68BA68C3F81A
:10824000B420074B1B687A68C3F8B82000F00AF81E
:108250000346FB82FB8A1BB218461837BD4680BD19
:108260001834012080B586B000AF8D4B1B68D3F861
:10827000B030002B00D1FEE7894B1B68884A12689A
:10828000D2F8B02012881A81854B1A68844B1B687B
:10829000D3F8B830002B17D0814B1B68D3F8B0301F
:1082A0009B789BB203339BB223F0030399B27C4BC0
:1082B0001B68D3F8B8301B8803339BB223F0030349
:1082C0009BB20B449BB20AE0754B1B68D3F8B030ED
:1082D0009B789BB203339BB223F003039BB2538181
:1082E0006F4B1B6893F8AD30012B0CD16C4B1B68A6
:1082F0006B4A126851896A4A1268D2F8B8205288CB
:108300000A4492B25A810423FB82654B1B681A68A7
:10831000B7F91630104663491A4602F05BFF034670
:10832000BB82B7F91620B7F914309A4200D0FEE7A5
:1083300004237B825A4B1B681968594B1B6803F155
:108340000802B7F91230084611461A4602F042FFF9
:1083500003463B82B7F91220B7F910309A4200D099
:10836000FEE74F4B1B68D3F8B430002B29D04C4BA1
:108370001B68D3F8B0309B78002B22D0484B1B6889
:10838000D3F8B0309B789BB203339BB29BB223F0FF
:108390000303FB81424B1B681968414B1B68D3F8F0
:1083A000B420B7F90E30084611461A4602F012FF03
:1083B0000346BB81B7F90E20B7F90C309A4200D0C2
:1083C000FEE7374B1B6893F8AD30012B27D1344BB8
:1083D0001B68002283F8AD20314B1B68D3F8B830FE
:1083E0005B8803339BB29BB223F003037B812C4B4E
:1083F0001B6819682A4B1B68D3F8B830DA68B7F9DC
:108400000A30084611461A4602F0E4FE03463B8154
:10841000B7F90A20B7F908309A4200D0FEE7204B9E
:108420001B68D3F8B830002B33D01D4B1B68D3F832
:10843000B8301B88002B2CD0194B1B68D3F8B030F8
:108440009B7803F00303002B00D0FEE7144B1B685E
:10845000D3F8B8301B8803339BB29BB223F00303DD
:10846000FB800F4B1B6819680D4B1B68D3F8B830A5
:108470009A68B7F90630084611461A4602F0AAFE75
:108480000346BB80B7F90620B7F904309A4200D002
:10849000FEE700231BB218461837BD4680BD00BF5B
:1084A00018340120B014012080B596B000AF07F158
:1084B0000C02FB1D1046194601F098F80346A7F878
:1084C0004E30B7F94E30002B00D0FEE707F10C0319
:1084D0001B88082B28D0B74B1B6807F10C021279B8
:1084E00083F89C20B34B1B6807F10C02D27983F808
:1084F000AB20B04B1B6807F10C02927983F8AC20DB
:10850000AC4B1B6893F89C30012B0DD9A94B1B6811
:10851000A4331846FDF77CF80346A7F84C30B7F9AA
:108520004C30002B00D0FEE707F10C031B881846E7
:1085300000F0B4FF9F4B1B6893F8C830012B00F08C
:108540001C82022B03D0002B00F0D8801CE3994B37
:108550001B68D3F8BC30002B00D0FEE7954B1B689E
:10856000954AC3F8BC20934B1B68D3F8BC30002B52
:1085700000D1FEE78F4B1B68D3F8BC301A4607F1D9
:108580000C0303CB1060516007F10C035B88013BC7
:1085900023F00303A02B09D807F10C035B88013BF0
:1085A0009BB223F00303A7F8543002E0A023A7F8FE
:1085B000543007F10C035B88042B1DD0B7F85430FE
:1085C000A7F84A307B4B1B6819687A4B1B68D3F8B5
:1085D000BC3003F10802B7F94A30084611461A4682
:1085E00002F086FD0346A7F84830B7F94A20B7F9EC
:1085F00048309A4200D0FEE707F10C035B88013B4C
:1086000023F00303A02B2DD907F10C035B88013B5A
:108610009BB223F003039BB2A03BA7F854301DE0AC
:108620000423A7F84630634B1B681968B7F9463036
:1086300007F10802084611461A4602F059FD0346A2
:10864000A7F84430B7F94620B7F944309A4200D031
:10865000FEE7B7F85430043BA7F85430B7F854306D
:10866000002BDDD1534B1B68903318464FF0FF3180
:10867000FDF77EF80346A7F84230B7F94230002BE9
:1086800000D0FEE707F10C031B8841F2030293427E
:108690000DD007F10C031B8841F20322934206D050
:1086A00007F10C031B8841F20602934210D107F137
:1086B0000C031A883F4B1B68D3F8BC3008339B78F7
:1086C00003F00F03DBB21046194601F0D7FB06E0BA
:1086D00007F10C031B881846082101F0CFFB354B2E
:1086E0001B6890331846FDF761F80346A7F8403041
:1086F000B7F94030002B00D0FEE745E207F10C034C
:108700001B8841F20B02934204D041F20B229342A8
:1087100004D007E00C2387F8533006E0182387F8CD
:10872000533002E0042387F853300423FB87214BA6
:108730001B681968B7F93E2007F10C03043308469B
:10874000194602F0D5FC0346BB87B7F93E20B7F9BE
:108750003C309A4200D0FEE707F10C0304339B78CB
:1087600003F00F03072B00DDFEE7124B1B6890336D
:1087700018464FF0FF31FCF7FBFF03467B87B7F944
:108780003A30002B00D0FEE707F10C031A8807F1FE
:108790000C0304339B7803F00F03DBB21046194639
:1087A00001F06CFB03463B87B7F93830002B05D04E
:1087B000FEE700BF18340120D4350120BC4B1A68F5
:1087C000BB4B1B6893F8C03019460B465B000B444B
:1087D0009B00134410335B681A6807F10C030433E1
:1087E00010461946042204F00DFC97F85330042B70
:1087F00027D997F853309BB2043B9BB2FB86AC4B16
:108800001B681868AA4B1A68A94B1B6893F8C030FC
:1088100019460B465B000B449B00134410335B6806
:108820001B681A1DB7F9363011461A4602F060FC73
:108830000346BB86B7F93620B7F934309A4200D0E8
:10884000FEE707F10C0304331B881BB2002B6FDD1E
:1088500007F10C0304331B889BB203F00303A7F852
:10886000563007F10C0304331B889BB223F003033B
:10887000A7F85430B7F85430032B23D9B7F8543045
:108880007B868B4B1B681868894B1A68884B1B6862
:1088900093F8C03019460B465B000B449B00134411
:1088A00010335B685A68B7F9323011461A4602F045
:1088B0001FFC03463B86B7F93220B7F930309A42A5
:1088C00000D0FEE7B7F85630002B31D00423FB85EB
:1088D000774B1B681968B7F92E3007F10802084674
:1088E00011461A4602F004FC0346BB85B7F92E2058
:1088F000B7F92C309A4200D0FEE76D4B1A686C4BEA
:108900001B6893F8C03019460B465B000B449B0074
:10891000134410335B685A68B7F85430D118B7F86D
:10892000563007F10802084611461A4604F06AFB61
:108930005F4B1A685E4B1B6893F8C03019460B46B4
:108940005B000B449B00103313441846FCF760FE99
:1089500003467B85B7F92A30002B00D0FEE7544B45
:108960001B6890331846FCF721FF03463B85B7F997
:108970002830002B00D0FEE706E14D4B1B68D3F8F2
:10898000B030DB789BB203339BB29BB223F003037E
:10899000FB84474B1B681968454B1B68D3F8B42010
:1089A000B7F92630084611461A4602F0A1FB0346E5
:1089B000BB84B7F92620B7F924309A4200D0FEE7ED
:1089C0003B4B1B68D3F8B830002B00F0DC80384BF1
:1089D0001B68D3F8B8305B88002B00F0D48007F117
:1089E0000C035A88324B1B68D3F8B030DB789BB24B
:1089F000D31A9BB2043B9BB2A7F850302C4B1B6898
:108A0000D3F8B830B7F850209A80B7F95030002B1F
:108A100006DC274B1B68D3F8B83000225A80B2E03E
:108A2000B7F95030224A1268D2F8B82052889342DF
:108A300012DD1F4B1B68D3F8B8305B8803F00303CB
:108A4000A7F856301A4B1B68D3F8B8305B8823F070
:108A50000303A7F854300BE0B7F8503003F00303DA
:108A6000A7F85630B7F8503023F00303A7F8543076
:108A7000B7F85430032B1DD9B7F854307B840C4B16
:108A80001B6819680A4B1B68D3F8B830DA68B7F965
:108A90002230084611461A4602F02AFB03463B8460
:108AA000B7F92220B7F920309A4203D0FEE700BF81
:108AB00018340120B7F85630002B2DD00423FB8347
:108AC000424B1B681968B7F91E3007F108020846C7
:108AD00011461A4602F00CFB0346BB83B7F91E2071
:108AE000B7F91C309A4200D0FEE7384B1B68D3F828
:108AF000B830DA68B7F85430D118B7F8563007F103
:108B00000802084611461A4604F07CFAB7F85030BD
:108B1000043B9BB2A7F85030B7F950302B4A12688B
:108B2000D2F8B820528893422DDDB7F85020274B59
:108B30001B68D3F8B8305B8823F003039BB2D31AC9
:108B4000A7F854301BE004237B83204B1B68196873
:108B5000B7F91A3007F10802084611461A4602F022
:108B6000C7FA03463B83B7F91A20B7F918309A427F
:108B700000D0FEE7B7F85430043BA7F85430B7F8FC
:108B80005430002BDFD100BFFB79002B16D0FB79CE
:108B9000FB820E4B1B681968B7F9163007F10C02FF
:108BA000084611461A4602F0A3FA0346BB82B7F9FB
:108BB0001620B7F914309A4200D0FEE702F07AFB93
:108BC00000231BB218465837BD4680BD183401201B
:108BD00090B5B7B000AFCD4B1B68D3F8BC30C7F829
:108BE000D430CA4B1B68D3F8C430002B00F0478345
:108BF000D7F8D4301B8840F6B202934200F03F828F
:108C000040F6B202934224DC40F63102934200F077
:108C1000B98040F6310293420DDC40F62F029342B8
:108C200000F0E282B3F5036F46DA40F62E0293427B
:108C300000F0898218E3B3F5086F00F0BA8040F6BF
:108C40008102934200F0088140F63202934263D0E1
:108C50000AE341F62202934200F0FE8241F622022C
:108C600093420FDC41F20E02934200F0D28141F2B6
:108C70000F02934200F0E68140F6B302934200F007
:108C80004B82F1E241F62C02934200F07C8141F6E6
:108C90002C02934205DC41F62502934200F0388114
:108CA000E2E241F62D02934200F0908141F6252246
:108CB000934200F04B81D7E2944B1B68D3F8BC3051
:108CC0000833C7F8D0300723BB64D7F8D02007F1AA
:108CD0006C0320321068186092889A80D7F8D020F0
:108CE000D7F8D03093F826301C4607F148030433F8
:108CF00018461146224604F085F9D7F8D03093F88B
:108D0000263087F87230814B1B68D3F8C43007F1E6
:108D1000480210469847B2E27C4B1B68D3F8BC303F
:108D20000833C7F8CC300823BB64D7F8CC2007F150
:108D30006C0320321068186092889A80D7F8CC2093
:108D4000D7F8CC3093F826301C4607F1480304339B
:108D500018461146224604F055F9D7F8CC3093F85E
:108D6000263087F87230D7F8CC3093F8273087F860
:108D70007330664B1B68D3F8C43007F148021046C5
:108D800098477CE2614B1B68D3F8BC300833C7F8C6
:108D9000C8300923BB64D7F8C8301B88A7F84C300B
:108DA0005A4B1B68D3F8C43007F148021046984765
:108DB00065E2564B1B68D3F8BC300833C7F8C430A3
:108DC00007F148030433184600214C2204F018FA36
:108DD0000123BB64D7F8C4301B7887F84C30D7F830
:108DE000C42007F18F0343321168196092889A807A
:108DF000D7F8C43003F12302D7F8C43093F82230F7
:108E00001C4607F14803273318461146224604F052
:108E1000F9F8D7F8C4309A1CD7F8C4305B781C46F0
:108E200007F14803063318461146224604F0EAF8D3
:108E3000D7F8C4305B7887F84D30D7F8C43093F852
:108E4000223087F86E30314B1B68D3F8C43007F1FD
:108E500048021046984712E22C4B1B68D3F8BC30EE
:108E60000833C7F8C03007F148030433184600211F
:108E70004C2204F0C5F90223BB64D7F8C0301B783C
:108E800087F84C30D7F8C02007F18F0343321168C0
:108E9000196092889A80D7F8C03003F12302D7F87E
:108EA000C03093F822301C4607F148032733184698
:108EB0001146224604F0A6F8D7F8C0309A1CD7F81D
:108EC000C0305B781C4607F148030633184611464C
:108ED000224604F097F8D7F8C0305B7887F84D3019
:108EE000D7F8C03093F8493087F89530D7F8C030BC
:108EF00093F8223087F86E30044B1B68D3F8C430E7
:108F000007F1480210469847B9E100BF1834012024
:108F1000B44B1B68D3F8BC300833C7F8BC3001230E
:108F20003B61D7F8BC301B687B61D7F8BC305B680D
:108F3000BB61D7F8BC309B68FB61AA4B1B68D3F8B8
:108F4000C43007F110021046984798E1A54B1B6802
:108F5000D3F8BC300833C7F8B83002233B61D7F8E8
:108F6000B8301A1D07F110030833184611461022B5
:108F700004F048F89B4B1B68D3F8C43007F110028B
:108F8000104698477BE1974B1B68D3F8BC300833F9
:108F9000C7F8B43003233B61D7F8B4301B687B615A
:108FA000D7F8B4305B68BB61D7F8B42007F11C0375
:108FB00008321068186092889A808A4B1B68D3F830
:108FC000C43007F110021046984758E1854B1B68E2
:108FD000D3F8BC300833C7F8B03004233B61D7F86E
:108FE000B0301B687B61D7F8B0305B89FB83D7F862
:108FF000B02007F1180304321068186092889A8034
:10900000784B1B68D3F8C43007F11002104698471C
:1090100035E1744B1B68D3F8BC300833C7F8AC306B
:1090200001237B603B1D04331846D7F8AC1008229F
:1090300003F0E8FF6B4B1B68D3F8C4303A1D1046B1
:1090400098471CE1674B1B68D3F8BC300833C7F85E
:10905000A83002237B60D7F8A8301B793B73D7F880
:10906000A8305B797B73D7F8A830DB88FB815D4B38
:109070001B68D3F8C4303A1D10469847FFE0594B9F
:109080001B68D3F8BC300833C7F8A4300323BB6493
:10909000D7F8A4301B68FB64D7F8A4305B683B6545
:1090A000D7F8A4309B6A7B6707F148030C33184656
:1090B0000021202204F0A4F8D7F8A43003F108011D
:1090C000D7F8A4305A6807F148030C33184603F068
:1090D00099FFD7F8A4309B6A002B14D007F14803FE
:1090E000303318460021202204F08AF8D7F8A43043
:1090F00003F12C01D7F8A4309A6A07F14803303302
:10910000184603F07FFF374B1B68D3F8C43007F1D4
:10911000480210469847B2E0324B1B68D3F8BC3087
:109120000833C7F8A0300423BB64D7F8A0301B88ED
:10913000A7F84C302B4B1B68D3F8C43007F148021A
:10914000104698479BE0274B1B68D3F8BC30083388
:10915000C7F89C3007F148030433184600214C221D
:1091600004F04EF80523BB64D7F89C2007F16C038C
:1091700020321068186092889A80D7F89C20D7F81F
:109180009C3093F826301C4607F1480304331846F8
:109190001146224603F036FFD7F89C3093F826306C
:1091A00087F87230D7F89C3003F12802D7F89C304A
:1091B00093F848301C4607F148032C3318461146F3
:1091C000224603F01FFFD7F89C3093F8483087F809
:1091D0009430044B1B68D3F8C43007F148021046A2
:1091E00098474CE018340120264B1B68D3F8BC305C
:1091F0000833C7F8983007F14803043318460021B4
:109200004C2203F0FDFF0623BB64D7F8982007F13A
:109210006C0320321068186092889A80D7F89820E2
:10922000D7F8983093F826301C4607F148030433EA
:1092300018461146224603F0E5FED7F8983093F819
:10924000263087F872300F4B1B68D3F8C43007F113
:1092500048021046984712E00A4B1B68D3F8BC300E
:10926000184601F005F90AE0064B1B68D3F8C43034
:10927000044A1268D2F8BC201046984700BFDC3779
:10928000BD4690BD1834012080B582B000AF5AE0D1
:10929000414B1B6893F8A930DAB23F4B1B6893F837
:1092A000AA309A4240D03C4B1B680022C3F8BC2035
:1092B000394B1B680022C3F8C420374B1B68FF22C0
:1092C00083F8C820FFF7F0F80346FB80B7F90630B3
:1092D000002B00D0FEE7304B1B6893F8AA20013228
:1092E000D2B283F8AA202C4B1B6893F8C830012B0C
:1092F0000CD1294B1B68002283F89820264B1B6851
:10930000943318460021FCF7C7F91CE0224B1B6878
:1093100093F8C830022B16D1FFF75AFC1E4B1B687E
:109320000022C3F8BC200EE01B4B1B689433184688
:109330004FF0FF31FCF7B0F90346BB80B7F90430BA
:10934000002B00D0FEE7144B1B6893F89830012BDC
:109350009ED0114B1B6804331846FCF727FA0346CE
:109360007B80B7F90230002B00D0FEE70A4B1B6868
:1093700093F8A930DAB2084B1B6893F8AA309A42E6
:1093800004D0064800210022FCF72CFA00231BB26F
:1093900018460837BD4680BD18340120A19300202F
:1093A00080B584B000AF78603B4B1B68043318462F
:1093B0004FF0FF31FCF7DCF90346FB81B7F90E30C3
:1093C000002B00D0FEE7344B1B680022C3F8BC2002
:1093D000314B1B680022C3F8C4202F4B1B680122AD
:1093E00083F8C8202C4B1B6893F8A930DAB22A4BBB
:1093F0001B6893F8AA309A420ED1274B1B6804339E
:109400001846FCF7D3F90346BB81B7F90C30002BA3
:1094100000D0FEE700233AE0FFF746F803467B81E1
:10942000B7F90A30002B00D0FEE71B4B1B6893F8FE
:10943000AA200132D2B283F8AA20174B1B6893F8F6
:10944000C830022B04D0032B12D0002B10D00EE01A
:10945000114B1B68D3F8BC30002B00D1FEE7FFF79F
:10946000B7FB0D4B1B680022C3F8BC2001E0FEE7F0
:1094700000BF094B1B6804331846FCF797F90346F5
:109480003B81B7F90830002B00D0FEE700231BB268
:1094900018461037BD4680BD1834012080B483B013
:1094A00000AF0346FB803B4B1B680022C3F8C4207F
:1094B000FB8803F480639BB2002B61D1FB88632B94
:1094C00005D1344B1B68032283F8C8205DE0FB887C
:1094D00041F20A02934209D0FB8841F20B02934207
:1094E00004D0FB8841F20B22934205D1294B1B6823
:1094F000002283F8C82048E0264B1B68022283F82C
:10950000C820FB8803F4F043002B05D1214B1B68D6
:10951000214AC3F8C42038E0FB8803F4F043B3F5D4
:10952000006F05D11B4B1B681C4AC3F8C4202CE0FC
:10953000FB8803F4F043B3F5805F05D1154B1B683E
:10954000174AC3F8C42020E0FB8803F4F043B3F5C6
:10955000C05F1AD1FB8841F62E02934204D0FB88EB
:1095600041F63002934205D10A4B1B680D4AC3F8FD
:10957000C4200AE0074B1B680B4AC3F8C42004E070
:10958000044B1B68012283F8C8200C37BD465DF8E8
:10959000047B704718340120217F002015440020EF
:1095A000A9460020DDA500201D46002080B485B01E
:1095B00000AF78600023FB730BE0FB7B7A681344F9
:1095C000FA7B013279680A4412781A70FB7B013306
:1095D000FB73FB7B062BF0D97B68073300221A70E4
:1095E0001437BD465DF8047B704700BF80B58AB074
:1095F00000AF7860396000237B6204237B848D4B4D
:109600001B681A68B7F9223010468B491A4601F0D8
:10961000E1FD03463B84B7F92220B7F920309A4296
:1096200000D0FEE70423FB83824B1B681A68B7F95E
:109630001E30104679681A4601F05AFD0346BB8376
:10964000B7F91E20B7F91C309A4200D0FEE726E099
:109650007B6AB3F5FA6F00D3FEE77B6A03F003037E
:10966000002B16D104237B83724B1B6819687B681F
:109670001A1DB7F91A30084611461A4601F038FD8E
:1096800003463B83B7F91A20B7F918309A4200D045
:10969000FEE77868FFF78AFF7B6A01337B627B68AD
:1096A0001B6803F00403002B0FD07B681B6823F0BA
:1096B000802323F080035F4A126892F8A82002F00A
:1096C00003015E4A0A4393420ED07B681B6803F095
:1096D0000403002BBCD17B681B6823F0802323F09C
:1096E0008003574A9342B3D17B6A03F003037B6242
:1096F0007B6A002B1ED07B685A687B681A607B6A85
:10970000FB824C4B1B6819687B6AC3F104037A68BF
:109710001A44B7F91630084611461A4601F0E8FC1B
:109720000346BB82B7F91620B7F914309A4200D02D
:10973000FEE714E004237B823E4B1B681A68B7F9EE
:109740001230104679681A4601F0D2FC03463B827B
:10975000B7F91220B7F910309A4200D0FEE714E0B2
:109760000423FB81334B1B681A68B7F90E3010468F
:1097700079681A4601F0BCFC0346BB81B7F90E209C
:10978000B7F90C309A4200D0FEE77B681B6803F003
:109790000403002B0FD07B681B6823F0802323F089
:1097A0008003244A126892F8A82002F00301234A99
:1097B0000A439342D4D07B681B6803F00403002B58
:1097C00008D17B681B6823F0802323F080031C4AA8
:1097D0009342C5D0174B1B6893F8A8200132D2B230
:1097E00083F8A82004237B81124B1B6819687B68CF
:1097F0001A1DB7F90A30084611461A4601F078FCDE
:1098000003463B81B7F90A20B7F908309A4200D0E5
:10981000FEE77B6A002B04D07B6AC3F10403DAB253
:1098200000E000223B681A7000231BB2184628375C
:10983000BD4680BD18340120B81401203C5CCD2BFE
:109840003A5CCD2B80B586B000AF0346FB80002389
:109850003B61FB88BB810023BB730423FB7307F1CF
:109860000C0207F11003104619460022FEF774FCA3
:109870000346FB82B7F91630002B00D0FEE73B8A87
:109880001BB218461837BD4680BD00BF80B586B0F4
:1098900000AF78600B46FB700A23FB75864B1B6894
:1098A000903318464FF0FF31FBF762FF0346BB824F
:1098B000B7F91430002B00D0FEE77F4B1B6893F8FC
:1098C0008830092B25D87C4B1B6893F88830FB75B2
:1098D000794B1968FA7D13465B0013449B000B44D7
:1098E00018339B78092B0ED8734B1968724B186884
:1098F000FA7D13465B0013449B00034418339B78A6
:1099000081F8883015E06C4B1B680A2283F88820A8
:109910000FE0694B1B6890331846FBF747FF03467F
:109920007B82B7F91230002B00D0FEE7FB7D9BB2A3
:10993000BDE0614B1968FA7D7B68D8B213465B00C5
:1099400013449B000B44183302461A70FB78072B14
:109950000AD8594B1968FA7D13465B0013449B00E3
:109960000B441833FA785A7044E0534B1968FA7D67
:10997000514B1B6893F8890013465B0013449B000E
:109980000B44183302469A704B4B1B68FA7D83F8E0
:109990008920494B1B6890331846FBF707FF0346A5
:1099A0003B82B7F91030002B00D0FEE7424B19681C
:1099B000FA7D13465B0013449B0010330B4418469A
:1099C0004FF0FF31FBF768FE0346FB81B7F90E301D
:1099D000002B00D0FEE7384B1B68903318464FF041
:1099E000FF31FBF7C5FE0346BB81B7F90C30002BF6
:1099F00000D0FEE7FB78072B0AD82F4B1B68D3F863
:109A00008C30FA78012101FA02F21340002BACD11C
:109A1000294B1B68D3F88C307A68012101FA02F2D5
:109A20001340002B02D0FB78082B9ED0FB78072B2D
:109A30000DD8214B1B68204A1268D2F88C20F97887
:109A4000012000FA01F10A43C3F88C200CE01A4B04
:109A50001B68194A1268D2F88C207968012000FA34
:109A600001F10A43C3F88C20134B1968FA7D124B9D
:109A70001B6893F88A0013465B0013449B000B4459
:109A8000183302469A700C4B1B68FA7D83F88A20C3
:109A9000094B1B6890331846FBF788FE03467B8111
:109AA000B7F90A30002B00D0FEE7FB7D9BB21BB25A
:109AB00018461837BD4680BD1834012090B585B0D2
:109AC00000AF0346FB718C4B1B68903318464FF078
:109AD000FF31FBF74DFE0346BB81B7F90C30002B7D
