:020000042000DA
:10400000F46300205D450020B5450020BD4500203B
:10401000CD450020C5450020CD4500200000000012
:10402000000000000000000000000000CD4500205E
:10403000CD45002000000000CD450020CD450020EA
:10404000CD450020CD450020CD450020CD450020A8
:1040500000000000CD450020CD45002000000000FC
:10406000CD4500200000000000000000000000001E
:104070000000000000000000CD450020CD450020DC
:10408000CD450020CD450020CD450020CD45002068
:10409000CD450020CD450020CD450020CD45002058
:1040A000CD450020000000000000000000000000DE
:1040B00000000000CD4500200000000000000000CE
:1040C000000000000000000000000000CD450020BE
:1040D000CD450020000000000000000000000000AE
:1040E00000000000000000000000000000000000D0
:1040F0000000000000000000CD450020CD4500205C
:1041000000000000000000000000000000000000AF
:10411000000000000000000000000000000000009F
:10412000000000000000000000000000000000008F
:10413000000000000000000000000000000000007F
:10414000000000000000000000000000000000006F
:10415000000000000000000000000000000000005F
:10416000000000000000000000000000000000004F
:10417000000000000000000000000000000000003F
:10418000000000000000000000000000000000002F
:10419000000000000000000000000000000000001F
:1041A000000000000000000000000000000000000F
:1041B00000000000000000000000000000000000FF
:1041C00000000000000000000000000000000000EF
:1041D00000000000000000000000000000000000DF
:1041E00000000000000000000000000000000000CF
:1041F00000000000000000000000000000000000BF
:1042000000000000000000000000000000000000AE
:10421000000000000000000000000000000000009E
:10422000000000000000000000000000000000008E
:10423000000000000000000000000000000000007E
:10424000000000000000000000000000000000006E
:10425000000000000000000000000000000000005E
:10426000000000000000000000000000000000004E
:10427000000000000000000000000000000000003E
:10428000000000000000000000000000000000002E
:10429000CD4500200000000000000000CD450020BA
:1042A00000000000CD4500200000000000000000DC
:1042B000000000000000000000000000CD450020CC
:1042C00000000000CD45002000000000CD4500208A
:1042D00000000000000000000000000000000000DE
:1042E000000000000000000000000000CD4500209C
:1042F000CD4500200000000000000000CD4500205A
:10430000CD450020CD450020000000000000000049
:10431000000000000000000000000000000000009D
:10432000000000000000000000000000000000008D
:10433000000000000000000000000000000000007D
:10434000000000000000000000000000000000006D
:10435000000000000000000000000000000000005D
:10436000000000000000000000000000000000004D
:10437000000000000000000000000000000000003D
:10438000000000000000000000000000000000002D
:10439000000000000000000000000000000000001D
:1043A000000000000000000000000000000000000D
:1043B00000000000000000000000000000000000FD
:1043C00000000000000000000000000000000000ED
:1043D00000000000000000000000000000000000DD
:1043E00000000000000000000000000000000000CD
:1043F00000000000000000000000000000000000BD
:1044000080B500AF064B1B68184600F0F9FA054B63
:104410001B680133034A13600B2000F03DFA80BD96
:10442000E85300200064002080B500AF064B1B68F5
:10443000184600F0E5FA054B1B680133034A136088
:10444000092000F029FA80BDEC530020F053002031
:1044500080B500AF054B184600F048FB00F03EFB6E
:104460000F2000F067FB00F005FD80BD004000203C
:1044700080B582B002AFFFF7EBFF00F051F80520E6
:1044800000F0A8F8092000F04BF90B2000F048F9E3
:104490001B4B1C4A1A601C4B1C4A1A60184B1A68AA
:1044A000002300930E2011462222FF2300F06AFA17
:1044B000154B1A68002300930F2011462222FF2378
:1044C00000F060FA0E4B1B681846FF21104A00F0FE
:1044D00073FA0D4B1B681846FF210E4A00F06CFA68
:1044E000074B1B681846FF210B4A00F099FA064B50
:1044F0001B681846FF21094A00F092FAFEE700BF48
:10450000E853002000000340EC530020001003405B
:104510000144002029440020005A6202002D31018C
:1045200080B500AF0720012100F00EFC3F200021E4
:10453000002200F0CFFB08480221012200F082FA9D
:1045400001200021002200F0C5FB034808210122C0
:1045500000F078FA80BD00BF0050004080B582B006
:1045600000AF0F4B7B600F4B3B6007E03B681A1DB1
:104570003A607A68111D796012681A603B680A4ACD
:104580009342F3D309480A494FF000028842B8BF6A
:1045900040F8042BFADBFFF76BFF0837BD4680BD00
:1045A000D0530020D0530020E8530020E8530020CF
:1045B0000764002080B400AFFEE700BF80B400AF06
:1045C000FEE700BF80B400AFFEE700BF80B400AFDD
:1045D000FEE700BF80B582B000AF0346FB71FB79F8
:1045E00003F00103002B04D009200D490D4A00F00F
:1045F0006DF9FB7903F00203002B04D00A200A496D
:104600000A4A00F063F9FB7903F00403002B04D09D
:104610000B200749074A00F059F90837BD4680BD0D
:10462000F463002004640020F86300200564002087
:10463000FC6300200664002080B582B000AF034612
:10464000FB71FB79013B0B2B5AD801A252F823F0E6
:1046500097460020AD460020AD460020AD46002024
:10466000AD4600208146002081460020974600206C
:10467000AD4600209746002081460020C34600201A
:10468000214B1A68214B1B780B2011461A46012337
:1046900000F040F935E01E4B1A681E4B1B780A20CB
:1046A00011461A46012300F035F92AE01A4B1A6820
:1046B0001A4B1B78092011461A46012300F02AF9EB
:1046C0001FE0114B1A68114B1B780B2011461A463C
:1046D000012300F01FF90E4B1A680E4B1B780A20BD
:1046E00011461A46012300F015F90B4B1A680B4BC3
:1046F0001B78092011461A46012300F00BF900E04F
:1047000000BF0837BD4680BDFC6300200664002062
:10471000F863002005640020F46300200464002096
:1047200080B582B000AF0346FB71FB79013B0B2BD8
:104730005AD801A252F823F07F4700209547002065
:1047400095470020954700209547002069470020A5
:10475000694700207F470020954700207F470020C1
:1047600069470020AB470020214B1A68214B1B787A
:104770000B2011461A46002300F0CCF835E01E4B02
:104780001A681E4B1B780A2011461A46002300F0B7
:10479000C1F82AE01A4B1A681A4B1B7809201146F7
:1047A0001A46002300F0B6F81FE0114B1A68114BAF
:1047B0001B780B2011461A46002300F0ABF80E4B75
:1047C0001A680E4B1B780A2011461A46002300F087
:1047D000A1F80B4B1A680B4B1B78092011461A469F
:1047E000002300F097F800E000BF0837BD4680BD09
:1047F000FC63002006640020F863002005640020AC
:10480000F46300200464002080B584B000AF034648
:10481000FB71FB790A2B11D00B2B02D0092B1AD07C
:1048200026E0174B1A68174B1B78F9790846114692
:104830001A4600F08DF80346FB731BE0124B1A6812
:10484000124B1B78F979084611461A4600F080F899
:104850000346FB730EE00E4B1A680E4B1B78F9797A
:10486000084611461A4600F073F80346FB7301E050
:104870000023FB73FB7B18461037BD4680BD00BF8D
:10488000FC63002006640020F8630020056400201B
:10489000F46300200464002080B584B000AF0346B8
:1048A000FB71FB791846FFF7AFFF0346FB73FB7BF9
:1048B000012B04D1FB791846FFF732FF03E0FB79A7
:1048C0001846FFF7B9FE1037BD4680BD80B485B0ED
:1048D00000AF0346B9607A60FB73FB7B03F007030C
:1048E000012202FA03F3DAB27B681A70FB7BDB0861
:1048F000DBB21A46BB681A60BB681B68044A52F8F0
:104900002320BB681A601437BD465DF8047B7047EE
:10491000D053002080B582B000AF396011461A46EE
:104920000346FB710B46BB7113467B717A79FB79A9
:1049300003F0070302FA03F37B71BA797B793868D5
:1049400011461A4600F0B4F80837BD4680BD00BFD6
:1049500080B584B000AF03463960FB711346BB716C
:10496000BB793868194600F091F8F860FB7903F0DC
:104970000703FA6842FA03F3FB72FB7A1846103712
:10498000BD4680BD80B584B000AFF860B9607A6084
:104990003B60F868012100F0D7F9F86800F024FACC
:1049A000B868796800F044FBB8683968BA6900F003
:1049B0006BFB1037BD4680BD80B584B000AFF8609A
:1049C000B9607A60F868B9687A6800F099FBBB68EA
:1049D0004FF6FF72934205D1F86840F2011100F0E2
:1049E000CDFB0AE0BB68FF2B01D1012301E04FF4AE
:1049F0008073F868194600F0C1FB1037BD4680BDD2
:104A000080B584B000AF78607868012100F0CAFBFF
:104A1000F8607868F96800F0DBFB1037BD4680BDB0
:104A200080B584B000AFF860B9607A60F868B968A2
:104A30007A6800F047FBF868B96800F0E3FA1037CD
:104A4000BD4680BD80B485B000AFF8600B467A608B
:104A5000FB72FB6803F5806319467B6803F0010372
:104A6000002B06D0FB6803F580631A68FB7A1343BA
:104A700006E0FB6803F580631B68FA7AD2431340B3
:104A80000B601437BD465DF8047B704780B483B07B
:104A900000AF78600B46FB70FB789B001A467B6882
:104AA00013441B6818460C37BD465DF8047B7047FD
:104AB00080B483B000AF78600B46FB701346BB70C8
:104AC000FB789B001A467B6813441A46BB78136038
:104AD0000C37BD465DF8047B704700BF80B500AF62
:104AE00000F08AFB0346DBB2184680BD80B483B079
:104AF00000AF7860034A7B6813600C37BD465DF8F1
:104B0000047B704708ED00E080B485B000AF7860AA
:104B10003960074B1B68FB607B689B00FA68134495
:104B20003A681A601437BD465DF8047B704700BFD1
:104B300008ED00E080B483B000AF78607B68042BA0
:104B40000AD1284A274B1B6843F480331360BFF314
:104B50004F8FBFF36F8F3FE07B68052B0AD1214A4F
:104B6000204B1B6843F400331360BFF34F8FBFF338
:104B70006F8F31E07B68062B0AD11A4A194B1B68EC
:104B800043F480231360BFF34F8FBFF36F8F23E095
:104B90007B680F2B0AD1144A134B1B6843F00203A6
:104BA0001360BFF34F8FBFF36F8F15E07B680F2B40
:104BB00012D97B68103B5B090C4A52F82330194626
:104BC0007B68103B03F01F03012202FA03F30B6022
:104BD000BFF34F8FBFF36F8F0C37BD465DF8047B7B
:104BE000704700BF24ED00E010E000E0105200200C
:104BF00080B485B000AF786039607B6803F03F0314
:104C00000B4A52F82330FB60FB689A00094B1344AF
:104C1000FB60FB68FA68126822F00F013A680A43E9
:104C200022F440621A601437BD465DF8047B704779
:104C300028520020A0E0024480B487B000AFF860A2
:104C4000B9607A60FB6803F03F031F4A52F82330D3
:104C50007B617B68B3F1805F16D11C491B4B1A68DE
:104C60007B69802000FA03F303F4F05313430B60D5
:104C70007B699A00164B13447B617B697A691268E1
:104C800042F440621A601AE01049104B1B687A69BE
:104C9000802000FA02F202F4F052D24313400B607B
:104CA0007B699A000A4B13447B617B697A691268BD
:104CB00022F47C71B8687A6802430A431A601C3790
:104CC000BD465DF8047B70472852002044E1024451
:104CD000A0E0024480B584B000AFF860B96013462C
:104CE000FB71FB79002B05D0F86820211022FFF71B
:104CF000A3FF04E0F86820210022FFF79DFFF86879
:104D0000B968FFF775FF1037BD4680BD80B582B02A
:104D100000AF0B4B1B68DBB27B607B68002B09D1BB
:104D2000084800F04FF9034603F00103002B01D0BF
:104D300007237B607B6818460837BD4680BD00BFEF
:104D40000CD0024468FC024480B483B000AF7860A9
:104D500039607B68FF2B14D0104A7B6852F83330DF
:104D600003F1884303F5143319460C4A7B6852F863
:104D7000333003F1884303F514331A683B68134357
:104D80000B607B68002B03D1054B40F204421A6094
:104D90000C37BD465DF8047B704700BF28530020E8
:104DA0000050024480B483B000AF786039600D4A8F
:104DB0007B6852F8333003F1884303F51433194606
:104DC000084A7B6852F8333003F1884303F5143303
:104DD0001A683B68DB4313400B600C37BD465DF837
:104DE000047B70472853002080B485B000AF786002
:104DF0007B68122B36D01E4A7B68DB0013445B684D
:104E000003F1884303F514331946194A7B68DB0024
:104E100013445B6803F1884303F514331B6843F0C4
:104E200001030B600023FB6002E0FB680133FB60C1
:104E3000FB680F2BF9D90E4A7B68DB0013445B68D3
:104E400003F1884303F514331946094A7B68DB00F4
:104E500013445B6803F1884303F514331B6823F0A4
:104E600001030B601437BD465DF8047B704700BF3B
:104E70002853002080B582B000AF444A434B1B68E2
:104E800043F400031360424800F09CF878607B68AC
:104E900043F010033E48194600F0A4F83D4A3D4B4C
:104EA0001B6843F03C03136005200121FFF74CFF12
:104EB0000520FFF799FF05200121FFF773FFFFF79A
:104EC00025FF0346002B03D13348012100F08AF867
:104ED000324B1B68DBB2022B13D1314A304B1B68BB
:104EE00023F4406323F00F0343F0020313602D4AC1
:104EF0002B4B1B6823F4406323F00F0343F00203A2
:104F00001360294A284B1B6843F002031360274BA8
:104F10001B6803F00F03012B05D1244A234B1B68A8
:104F200023F00F031360224B1B6803F00F03012BC8
:104F300005D11F4A1E4B1B6823F00F0313601D4B46
:104F40001B689B0D03F00F030E2B08D11A4A1A4B56
:104F50001B6823F47C0343F44803136007E0164AFC
:104F6000154B1B6823F47C0343F424031360134A9A
:104F7000124B1B6823F080531360114A104B1B68BF
:104F800043F0040313600837BD4680BD64F002445B
:104F900018FC02446CE1024404F80244C8F00244E4
:104FA00010E1024414E1024484E10244A4E002441A
:104FB000A8E0024478DC0244B0F0024474FC0244ED
:104FC000A8F0024480B584B000AF78607B681B68AD
:104FD000FB6041F2D54000F00BF9FB681846103732
:104FE000BD4680BD80B582B000AF786039607B6817
:104FF0003A681A6041F2D54000F0FAF80837BD4629
:1050000080BD00BF80B483B000AF786039607B683A
:105010000C3318467B680C331A68396840F2011368
:105020000B40134303600C37BD465DF8047B7047AB
:1050300080B483B000AF78603960124BFF221A60F1
:105040007B680C331A467B680C331B6823F480732F
:1050500023F0010313607B683A68120E1A607B68C4
:1050600004331A463B68DBB213607B6808331A4688
:105070003B681B0ADBB213600C37BD465DF8047B4E
:10508000704700BFB060024480B485B000AFF860E4
:10509000B9607A60BB68DBB2002B04D0FB683833A0
:1050A0001A467B681360BB6803F47F43002B04D06F
:1050B000FB683C331A467B6813601437BD465DF8C5
:1050C000047B704780B485B000AFF860B9607A6047
:1050D000BB68DBB2002B04D0FB6828331A467B6820
:1050E0001360BB6803F47F43002B04D0FB682C33B0
:1050F0001A467B6813601437BD465DF8047B704721
:1051000080B584B000AFF860B9607A60FB68184A77
:1051100093420DD0FB68174A934207D0FB68164AAA
:10512000934201D1272304E0332302E0252300E04A
:105130002323FB60BB68DBB2002B06D0F8687968DC
:10514000FFF7E2FCF868FFF7F5FCBB6803F47F4368
:10515000002B0AD0FB68013318467968FFF7D4FCAE
:10516000FB6801331846FFF7E5FC1037BD4680BDEC
:1051700000000340001003400020034080B483B0CF
:1051800000AF786039607B68183319467B68183344
:105190001A683B6813430B600C37BD465DF8047B0F
:1051A000704700BF80B483B000AF78600B46FB70DF
:1051B000FB78002B03D07B6820331B6802E07B6800
:1051C0001C331B6818460C37BD465DF8047B7047DE
:1051D00080B483B000AF786039607B6824331A46AE
:1051E0003B6813600C37BD465DF8047B704700BF19
:1051F00001387FF4FDAF7047EFF3108062B6BFF364
:105200004F8FBFF36F8F70471C462346184600BF71
:1052100000E100E004E100E008E100E00CE100E072
:1052200010E100E014E100E00A0000000B000000C3
:105230000C0000000D0000000E0000000F00000038
:105240001000000011000000FF000000FF0000003F
:105250001200000013000000140000001500000000
:1052600016000000170000001800000028000000D1
:105270001C0000001D00000019000000FF000000DD
:10528000FF000000FF000000FF000000FF00000022
:10529000FF000000FF000000FF000000FF00000012
:1052A000FF000000FF000000FF000000FF00000002
:1052B000FF000000FF000000FF000000FF000000F2
:1052C000FF000000FF000000FF000000FF000000E2
:1052D000FF000000FF0000001F000000FF000000B2
:1052E000FF000000FF000000FF00000000000000C1
:1052F000FF000000200000001E000000FF00000072
:1053000001000000FF000000020000000300000098
:105310000400000005000000060000000700000077
:105320000800000009000000040000000800000060
:1053300014000000180000002400000028000000F5
:105340003000000034000000400000004400000075
:10535000480000004C000000500000005400000015
:10536000580000005C0000006000000064000000C5
:10537000680000006C000000700000007400000075
:10538000780000007C000000800000008400000025
:10539000880000008C0000009000000094000000D5
:1053A000980000009C000000A0000000A400000085
:1053B000A8000000AC000000B8000000BC00000025
:1053C000C8000000CC000000D8000000DC00000095
:1053D000004000400050004000600040007000406D
:0853E000004002400000000043
:040000052000455D35
:00000001FF
