:020000042000DA
:104000007CC00020F148002049490020514900208F
:10401000614900205949002061490020000000004A
:1040200000000000000000000000000061490020C6
:104030006149002000000000614900206149002022
:104040006149002061490020614900206149002048
:1040500000000000614900206149002000000000CC
:104060006149002000000000000000000000000086
:1040700000000000000000006149002061490020AC
:104080006149002061490020614900206149002008
:1040900061490020614900206149002061490020F8
:1040A0006149002000000000000000000000000046
:1040B0000000000061490020000000000000000036
:1040C0000000000000000000000000006149002026
:1040D0006149002000000000000000000000000016
:1040E00000000000000000000000000000000000D0
:1040F000000000000000000061490020614900202C
:1041000000000000000000000000000000000000AF
:10411000000000000000000000000000000000009F
:10412000000000000000000000000000000000008F
:10413000000000000000000000000000000000007F
:10414000000000000000000000000000000000006F
:10415000000000000000000000000000000000005F
:10416000000000000000000000000000000000004F
:10417000000000000000000000000000000000003F
:10418000000000000000000000000000000000002F
:10419000000000000000000000000000000000001F
:1041A000000000000000000000000000000000000F
:1041B00000000000000000000000000000000000FF
:1041C00000000000000000000000000000000000EF
:1041D00000000000000000000000000000000000DF
:1041E00000000000000000000000000000000000CF
:1041F00000000000000000000000000000000000BF
:1042000000000000000000000000000000000000AE
:10421000000000000000000000000000000000009E
:10422000000000000000000000000000000000008E
:10423000000000000000000000000000000000007E
:10424000000000000000000000000000000000006E
:10425000000000000000000000000000000000005E
:10426000000000000000000000000000000000004E
:10427000000000000000000000000000000000003E
:10428000000000000000000000000000000000002E
:10429000614900200000000000000000614900208A
:1042A0000000000061490020000000000000000044
:1042B0000000000000000000000000006149002034
:1042C000000000006149002000000000614900205A
:1042D00000000000000000000000000000000000DE
:1042E0000000000000000000000000006149002004
:1042F000614900200000000000000000614900202A
:104300006149002061490020000000000000000019
:10431000000000000000000000000000000000009D
:10432000000000000000000000000000000000008D
:10433000000000000000000000000000000000007D
:10434000000000000000000000000000000000006D
:10435000000000000000000000000000000000005D
:10436000000000000000000000000000000000004D
:10437000000000000000000000000000000000003D
:10438000000000000000000000000000000000002D
:10439000000000000000000000000000000000001D
:1043A000000000000000000000000000000000000D
:1043B00000000000000000000000000000000000FD
:1043C00000000000000000000000000000000000ED
:1043D00000000000000000000000000000000000DD
:1043E00000000000000000000000000000000000CD
:1043F00000000000000000000000000000000000BD
:1044000080B584B000AF786039607868734902F095
:1044100005FAF860FB68002B00F0DB80F868704953
:1044200002F062F80346002B40F0D38000206B4975
:1044300002F0F4F9F860FB68002B11D0F8686949C4
:1044400002F052F80346002B06D0F868664902F0E5
:104450004BF80346002B03D13B6800221A6058E05A
:10446000FB68002B11D0F868604902F03DF8034664
:10447000002B06D0F8685E4902F036F80346002BA0
:1044800003D13B6801221A6043E0FB68002B11D086
:10449000F868584902F028F80346002B06D0F8685F
:1044A000554902F021F80346002B03D13B68022254
:1044B0001A602EE0FB68002B11D0F8684F4902F01B
:1044C00013F80346002B06D0F8684D4902F00CF8AB
:1044D0000346002B03D13B6803221A6019E0FB68F6
:1044E000002B11D0F868474901F0FEFF0346002B6E
:1044F00006D0F868444901F0F7FF0346002B03D1CA
:104500003B6808221A6004E0404800F0D1FA00231A
:1045100060E03F4800F0CCFA3E4800F0D5FE03468C
:10452000FB72FB7A3B48194600F0E2FE3A4800F085
:10453000BFFA97F90B30312B04D13B681A683B68FE
:104540001A601AE097F90B30322B06D13B681B68D2
:1045500043F480423B681A600FE097F90B30332B2D
:1045600006D13B681B6843F4C0423B681A6004E014
:104570002A4800F09DFA00232CE0294800F098FA20
:10458000244800F0A1FE0346FB72FB7A214819463D
:1045900000F0AEFE204800F08BFA97F90B30312B7B
:1045A00006D13B681B6843F480523B681A600DE0FB
:1045B00097F90B30322B04D13B681A683B681A60BC
:1045C00004E0164800F074FA002303E000BF012362
:1045D00000E0002318461037BD4680BDFCA0002037
:1045E00000A1002004A100200CA1002014A10020A3
:1045F0001CA1002024A1002030A100203CA100200B
:1046000048A1002054A1002060A100206CA100203E
:1046100084A1002000C00040E8A10020ECA10020FF
:1046200000A2002080B500AF0D4800F041FA0D480F
:1046300000F03EFA0C4800F03BFA0C4800F038FA63
:104640000B4800F035FA0B4800F032FA0A4800F047
:104650002FFA0A4800F02CFA044800F029FA80BD2D
:1046600034A2002048A200205CA20020E8A1002083
:1046700088A2002098A20020A8A2002008A3002061
:1046800080B5ADF5087D00AF07F10C03186007F1A8
:10469000080319603B1D1A601A4BC7F81C32FFF75C
:1046A000C1FF194800F004FA07F1100318464FF44F
:1046B000027100F0B3F907F1100207F10C03104684
:1046C0001968FFF79DFE0346002B14D007F108027E
:1046D00007F10C03D7F81C0211681A6800F016F8ED
:1046E000C7F818023B1D18680021042201F08EFC57
:1046F000D7F8183200E00023184607F50877BD46C2
:1047000080BD00BFB4C0002060A3002080B588B089
:1047100000AFF860B9607A60224800F0C9F9F86823
:104720004FF4027100F07AF9B8617B681B6803F4FA
:104730008053002B02D00823FB6101E02023FB61A2
:10474000BB69FA6993FBF2F2F96901FB02F29B1A69
:10475000002B0BD0BA69FB6992FBF3F30133FA69C2
:1047600002FB03F31A46BB681A6002E0BA69BB6831
:104770001A60BB681B68184601F0ACF803467B6101
:10478000BB681B68786900211A4601F03FFCBB69D1
:104790007869F9681A4601F03BFB7B6918462037B7
:1047A000BD4680BD68A3002080B584B000AFF8602E
:1047B000B9607A603B60122000F0EAFB0948F968B2
:1047C00000F0C4F90748796800F0D0F90548396865
:1047D000BA68FB6800F0E8F90246BB691A60103756
:1047E000BD4680BD0000034480B582B000AF786054
:1047F000094800F05DF9094800F05AF9084879685D
:1048000000F056F9054800F053F9034800F050F95C
:104810000837BD4680BD00BF80A3002088A30020CC
:10482000C0A3002080B500AF054B184600F0FCF98E
:1048300000F0F2F90F2000F005FA00F0EFFB80BD68
:104840000040002080B588B002AF4AF2A5537B61DA
:10485000FFF7E8FF00F03CF800F0B0F81748FFF76A
:10486000C3FF1220012100F0EDFA07F10C0107F15E
:1048700008023B1D084611461A46FFF701FF386142
:104880003B69002B03D10E4800F012F914E00D48EB
:1048900000F00EF9F968BA683B1D0093084611460E
:1048A0007A693B69FFF780FF074800F001F97B68F0
:1048B0000648194600F0FCF8D7E700BFE8A300203F
:1048C000F8A3002020A4002044A4002064A4002019
:1048D00080B500AF0C20012100F0B4FA362003218E
:1048E00000F080FA3820032100F07CFA80BD00BF80
:1048F00080B582B000AF0F4B7B600F4B3B6007E091
:104900003B681A1D3A607A68111D796012681A6056
:104910003B680A4A9342F3D309480A494FF0000220
:104920008842B8BF40F8042BFADBFFF78BFF08374B
:10493000BD4680BD00A8002000A8002078B000205F
:1049400078B00020D8C8002080B400AFFEE700BFD8
:1049500080B400AFFEE700BF80B400AFFEE700BF49
:1049600080B400AFFEE700BF80B485B000AF7860D0
:104970000F4B1B68002B02D10D4B0E4A1A600C4BDB
:104980001B68FB600A4B1A687B6813440A4A93420F
:1049900001D9002306E0064B1A687B681344044AD9
:1049A0001360FB6818461437BD465DF8047B7047FA
:1049B00078B00020D8C80020D8C8012080B500AF4A
:1049C0000C2000F08FFA0346054819464FF4E132F7
:1049D000602300F0EBFB034B00221A6080BD00BF98
:1049E00000C000407CC0002080B582B000AF78607D
:1049F0007B68002B0CD007E07B685A1C7A601B7820
:104A00000548194600F074FC7B681B78002BF3D135
:104A10000837BD4680BD00BF00C0004080B584B0EF
:104A200000AF786039600023BB60204800F04CFC88
:104A30000346FB73FB7B1D48194600F059FC00231D
:104A4000BB6022E0BA683B689A4202D34FF0FF3362
:104A500027E0FB7B082B08D0BB687A681344FA7BFD
:104A60001A70BB680133BB6005E0BB68002B02D045
:104A7000BB68013BBB600D4800F026FC0346FB739E
:104A8000FB7B0A48194600F033FCFB7B0D2B02D060
:104A9000FB7B0A2BD6D1BB687A68134400221A70BC
:104AA000BB6818461037BD4680BD00BF00C000403F
:104AB0000FB480B586B000AF00237B614FF48073E4
:104AC000FB60FB68184600F005FF03463B613B694D
:104AD000002B02D14FF0FF332EE007F124037B605F
:104AE000FB68386919463A6A7B6801F00BFF786108
:104AF0007B69002B03DB7A69FB689A4215DBFB6854
:104B00005B00FB60FB683869194601F0D1FAB860B8
:104B1000BB68002B06D10C48FFF766FF4FF0FF3350
:104B20007B6102E0BB683B61D7E73869FFF75CFF58
:104B3000386900F0D7FE7B6918461837BD46BDE8D6
:104B4000804004B0704700BF94A4002080B483B0BC
:104B500000AF786039607B6803F540631A463B68B4
:104B600013600C37BD465DF8047B704780B483B09A
:104B700000AF786039607B6803F541631A463B6893
:104B800013600C37BD465DF8047B704780B483B07A
:104B900000AF7860034B1B6818460C37BD465DF8C4
:104BA000047B7047180C034480B586B000AFF860F2
:104BB000B9607A603B603B6803F48053002B11D0EE
:104BC000BB687B6108E0FB6803F6144319467B6908
:104BD0005A1C7A611B780B607B685A1E7A60002B26
:104BE000F1D110E0BB683B6108E0FB6803F61443B9
:104BF00019463B691A1D3A611B680B607B685A1E97
:104C00007A60002BF1D1F868FFF7C0FF0346184621
:104C10001837BD4680BD00BF80B500AF00F082FBF5
:104C20000346DBB2184680BD80B483B000AF786025
:104C3000034A7B6813600C37BD465DF8047B704700
:104C400008ED00E080B483B000AF78607B68042B8F
:104C50000AD1284A274B1B6843F480331360BFF303
:104C60004F8FBFF36F8F3FE07B68052B0AD1214A3E
:104C7000204B1B6843F400331360BFF34F8FBFF327
:104C80006F8F31E07B68062B0AD11A4A194B1B68DB
:104C900043F480231360BFF34F8FBFF36F8F23E084
:104CA0007B680F2B0AD1144A134B1B6843F0020395
:104CB0001360BFF34F8FBFF36F8F15E07B680F2B2F
:104CC00012D97B68103B5B090C4A52F82330194615
:104CD0007B68103B03F01F03012202FA03F30B6011
:104CE000BFF34F8FBFF36F8F0C37BD465DF8047B6A
:104CF000704700BF24ED00E010E000E0B4A4002005
:104D000080B485B000AF786039607B6803F03F0302
:104D10000B4A52F82330FB60FB689A00094B13449E
:104D2000FB60FB68FA68126822F00F013A680A43D8
:104D300022F440621A601437BD465DF8047B704768
:104D4000CCA40020A0E0024480B487B000AFF8609B
:104D5000B9607A60FB6803F03F031F4A52F82330C2
:104D60007B617B68B3F1805F16D11C491B4B1A68CD
:104D70007B69802000FA03F303F4F05313430B60C4
:104D80007B699A00164B13447B617B697A691268D0
:104D900042F440621A601AE01049104B1B687A69AD
:104DA000802000FA02F202F4F052D24313400B606A
:104DB0007B699A000A4B13447B617B697A691268AC
:104DC00022F47C71B8687A6802430A431A601C377F
:104DD000BD465DF8047B7047CCA4002044E102444A
:104DE000A0E0024480B582B000AF78603960786896
:104DF0003968FFF785FF786820210022FFF7A4FFBC
:104E00000837BD4680BD00BF80B582B000AF0B4BF8
:104E10001B68DBB27B607B68002B09D1084800F07F
:104E2000A5F9034603F00103002B01D007237B60A3
:104E30007B6818460837BD4680BD00BF0CD00244D1
:104E400068FC024480B483B000AF786039607B684E
:104E5000FF2B14D0104A7B6852F8333003F188439B
:104E600003F5143319460C4A7B6852F8333003F1CA
:104E7000884303F514331A683B6813430B607B685F
:104E8000002B03D1054B40F204421A600C37BD469B
:104E90005DF8047B704700BFCCA5002000500244A1
:104EA00080B483B000AF786039600D4A7B6852F8F7
:104EB000333003F1884303F514331946084A7B68FD
:104EC00052F8333003F1884303F514331A683B6812
:104ED000DB4313400B600C37BD465DF8047B704725
:104EE000CCA5002080B487B000AF78607B68132B1E
:104EF0000CBF01230023DAB27B68042B0CBF012313
:104F00000023DBB21343DBB21A467B68032B0CBFD2
:104F100001230023DBB21343002B01D0174B26E003
:104F20007B68002B0AD1164B1B681B0A03F0070392
:104F30007B61134B1B68DBB23B610FE07B68022B8C
:104F40000AD1104B1B681B0A03F007037B610D4B52
:104F50001B68DBB23B6101E00B4B08E07A693B69FF
:104F600013440233094AB2FBF3F3FB60FB681846B3
:104F70001C37BD465DF8047B704700BF005A6202D3
:104F8000005002442050024400B4C404001C4E0EE1
:104F900080B485B000AF78607B68122B36D01E4A93
:104FA0007B68DB0013445B6803F1884303F514332B
:104FB0001946194A7B68DB0013445B6803F1884398
:104FC00003F514331B6843F001030B600023FB60FF
:104FD00002E0FB680133FB60FB680F2BF9D90E4A36
:104FE0007B68DB0013445B6803F1884303F51433EB
:104FF0001946094A7B68DB0013445B6803F1884368
:1050000003F514331B6823F001030B601437BD460E
:105010005DF8047B704700BFCCA5002080B582B04E
:1050200000AF444A434B1B6843F4000313604248FB
:1050300000F09CF878607B6843F010033E48194606
:1050400000F0A4F83D4A3D4B1B6843F03C0313605D
:1050500005200121FFF7F6FE0520FFF799FF052047
:105060000121FFF71DFFFFF7CFFE0346002B03D101
:105070003348012100F08AF8324B1B68DBB2022B67
:1050800013D1314A304B1B6823F4406323F00F03E4
:1050900043F0020313602D4A2B4B1B6823F440633B
:1050A00023F00F0343F002031360294A284B1B68C7
:1050B00043F002031360274B1B6803F00F03012B1F
:1050C00005D1244A234B1B6823F00F031360224BA6
:1050D0001B6803F00F03012B05D11F4A1E4B1B68F1
:1050E00023F00F0313601D4B1B689B0D03F00F0390
:1050F0000E2B08D11A4A1A4B1B6823F47C0343F485
:105100004803136007E0164A154B1B6823F47C0321
:1051100043F424031360134A124B1B6823F080539B
:105120001360114A104B1B6843F0040313600837E7
:10513000BD4680BD64F0024418FC02446CE10244A8
:1051400004F80244C8F0024410E1024414E10244AD
:1051500084E10244A4E00244A8E0024478DC024472
:10516000B0F0024474FC0244A8F0024480B584B05C
:1051700000AF78607B681B68FB6041F2D54000F0AF
:10518000CDF8FB6818461037BD4680BD80B582B0AB
:1051900000AF786039607B683A681A6041F2D540A8
:1051A00000F0BCF80837BD4680BD00BF80B586B0B2
:1051B00000AFF860B9607A603B60F86800F05EF8B4
:1051C0007B681A01BB689A420CD9FB6830331A46D7
:1051D000FB6830331B6843F0200313607B685B0877
:1051E0007B6008E0FB6830331A46FB6830331B688D
:1051F00023F020031360BB68DA007B68B2FBF3F393
:1052000001335B087B61FB6824331A467B699B0989
:105210001360FB6828331A467B6903F03F03136071
:10522000FB682C331A463B681360FB6818331A4638
:1052300000231360F86800F003F81837BD4680BDFE
:1052400080B483B000AF78607B682C331A467B68EB
:105250002C331B6843F0100313607B6830331A460D
:105260007B6830331B6843F4407343F001031360E1
:105270000C37BD465DF8047B704700BF80B483B037
:1052800000AF786000BF7B6818331B6803F0080329
:10529000002BF8D17B682C331A467B682C331B68B3
:1052A00023F0100313607B6830331A467B68303379
:1052B0001B6823F4407323F0010313600C37BD46D1
:1052C0005DF8047B704700BF80B483B000AF7860A6
:1052D00000BF7B6818331B6803F01003002BF8D164
:1052E0007B681B6818460C37BD465DF8047B704729
:1052F00080B483B000AF78600B46FB7000BF7B6862
:1053000018331B6803F02003002BF8D17B68FA7870
:105310001A600C37BD465DF8047B704701387FF496
:10532000FDAF7047EFF3108062B6BFF34F8FBFF34E
:105330006F8F70471C462346184600BF4BB942B9D1
:10534000002908BF002802D04FF0FF31084600F0C6
:105350003BB882B0EC462DE9005000F01DF8DDF8B6
:1053600004E002B00CBC70472DE9F041069C1546E4
:1053700006460F46984600F029F805FB01F300FBAE
:105380000838A5FB0023B21A434467EB0303C4E9C2
:105390000023BDE8F08100BF2DE9F041069C904656
:1053A00006460F461D4600F05FF900FB05F5A0FB21
:1053B000082308FB0155B21A2B4467EB0303C4E929
:1053C0000023BDE8F08100BF704700BF00292DE930
:1053D000F043C0F2A6800026002BC0F29C808846D5
:1053E00094469E46154604460F46002B3DD18A4200
:1053F00059D9B2FA82F33BB1C3F120029F4020FA9F
:1054000002F29D4017439C40290C220CB7FBF1FE91
:10541000A8B201FB1E7742EA074700FB0EF3BB422E
:105420000AD97F190EF1FF3280F00581BB4240F2AC
:105430000281AEF1020E2F44FF1AA4B2B7FBF1F3C2
:1054400001FB137744EA074700FB03F0B84208D991
:105450007F1903F1FF3280F0F080B84240F2ED8016
:10546000023B43EA0E43002203E08B420FD90022A5
:105470001346341C18BF012460424FF0000565EB51
:1054800045015840514000196941BDE8F083B3FA25
:1054900083F2002A40F086808B4202D3844500F2DA
:1054A000DB800123E5E712B90123B3FBF2F5B5FA7E
:1054B00085F000283BD1781B4FEA154E1FFA85FC7A
:1054C0000122B0FBFEF8210C0EFB180741EA07474A
:1054D0000CFB08F3BB4207D97F1908F1FF3102D258
:1054E000BB4200F2BD808846FF1AA4B2B7FBFEF3B0
:1054F0000EFB137744EA07470CFB03FCBC4507D9B6
:105500007F1903F1FF3102D2BC4500F2A7800B46A0
:1055100043EA0843ADE752426FEA060663EB4303F2
:105520005DE7404261EB41014FF0FF3654E7C0F1C7
:10553000200224FA02F107FA00F385404FEA154EE3
:10554000D7401943B7FBFEF20B0C0EFB12771FFA84
:1055500085FC43EA07430CFB02F79F4204FA00F480
:1055600007D95B1902F1FF3074D29F4272D9023A17
:105570002B44DF1B89B2B7FBFEF80EFB187341EA20
:1055800003430CFB08F79F4208D95B1908F1FF3170
:105590005CD29F425AD9A8F102082B44D81B48EA92
:1055A00002428EE7C2F120032CFA03F10EFA02FE4A
:1055B00020FA03F741EA0E0E08FA02F028FA03F186
:1055C0004FEA1E453843B1FBF5F8030C05FB1811F3
:1055D0001FFA8EF743EA014107FB08F38B420CFAEE
:1055E00002FC09D911EB0E0108F1FF3930D28B42D0
:1055F0002ED9A8F102087144C91A80B2B1FBF5F3A3
:1056000005FB131140EA014107FB03F78F4208D95C
:1056100011EB0E0103F1FF3016D28F4214D9023B79
:10562000714443EA0843C91BA3FB0C89494509D3CC
:1056300005D000221DE79646FEE6134611E794408A
:105640004445F6D2013BF4E70346EAE78846A5E77E
:10565000C846D1E702468CE713460AE7023B57E704
:10566000A8F102082F443FE72DE9F041002B44D177
:105670008A42154604464FD9B2FA82F70E464FB118
:10568000C7F12003B94020FA03F602FA07F50E43EA
:1056900000FA07F44FEA154E230CB6FBFEF0AFB24A
:1056A0000EFB106143EA014307FB00F1994209D95F
:1056B0005B1900F1FF3280F0EC80994240F2E98002
:1056C00002382B445A1AA4B2B2FBFEF30EFB13228B
:1056D00044EA024207FB03F7974208D9521903F143
:1056E000FF3180F0D880974240F2D580023B43EAF8
:1056F000004000263146BDE8F0818B4247D8B3FA1E
:1057000083F6002E48D18B4202D3824200F2CD8034
:1057100001203146BDE8F08112B90125B5FBF2F553
:10572000B5FA85F8B8F1000F77D14A1B4FEA154E4C
:10573000AFB20126B2FBFEF0230C0EFB102143EAB0
:10574000014107FB00F38B4207D9491900F1FF32F1
:1057500002D28B4200F2BA801046C91AA4B2B1FB41
:10576000FEF30EFB131144EA014407FB03F7A742C3
:1057700008D9641903F1FF3280F08F80A74240F20C
:105780008C80023B43EA00403146BDE8F0810026B0
:1057900030463146BDE8F081C6F1200422FA04F516
:1057A000B3402B4320FA04FC01FA06F721FA04F572
:1057B0004FEA134E4CEA0707B5FBFEF8390C0EFB17
:1057C00018551FFA83FC41EA05450CFB08F1A94274
:1057D00002FA06F204D9ED1808F1FF3467D3A046A7
:1057E0006D1ABFB2B5FBFEF40EFB145547EA054136
:1057F0000CFB04FC8C4504D9C91804F1FF355CD3BB
:105800002C4644EA0844CCEB0101A4FB0223994254
:1058100048D344D0204600266CE7C8F1200401FAA2
:1058200008F305FA08F520FA04F7E1404FEA154EAF
:105830001F43B1FBFEF63A0C0EFB16111FFA85FC56
:1058400042EA01430CFB06F29A4200FA08F407D937
:105850005B1906F1FF3137D29A4235D9023E2B440B
:105860009B1ABFB2B3FBFEF00EFB103347EA0343B3
:105870000CFB00F1994207D95B1900F1FF3221D2EC
:1058800099421FD902382B445A1A40EA0646674605
:1058900050E7104616E70B4629E7134672E7B0407B
:1058A0009042B7D2601E002624E7304622E7A94284
:1058B00095D9A8F102081D4492E78C45A0D9023C75
:1058C00019449EE71046DFE70E46C9E7023829442F
:1058D00043E700BF024B0146186800F00BB800BF59
:1058E00028AC0020024B0146186801F069B800BFDF
:1058F00028AC00202DE9F04F01F10B05162D83B0E7
:10590000064627D935F0070500F1B680A94200F216
:10591000B38000F0C9FBB5F5FC7F22D2C24FE80886
:1059200007EBC003DC689C4200F0C9816368E16852
:10593000A56823F00303234430465A68E96042F027
:1059400001028D605A6000F0B1FB0834204603B0BC
:10595000BDE8F08F102900F28F8000F0A5FB102524
:10596000DCE7680A00F08F80042800F25481A8095F
:1059700038304100AC4F07EB8101CC68A14206D121
:105980000CE0002A80F28280E468A14206D06368BD
:1059900023F003035A1B0F2AF3DD01380130A2491B
:1059A0003C6901F1080E744500F07E81636823F0C4
:1059B00003035A1B0F2A00F36481002AC1F814E084
:1059C000C1F810E073DAB3F5007F80F03981DB08AD
:1059D00001EBC3084FEAA30C4A68D8F80890C4F852
:1059E0000890012303FA0CF31343C4F80C804B60B6
:1059F000C8F80840C9F80C408210012494409C4229
:105A000062D8234206D120F003006400234200F153
:105A10000400FAD007EBC008C4468146DCF80C301D
:105A20009C4507D142E1002980F25281DB689C4508
:105A300000F03C815A6822F00302511B0F29F2DD6D
:105A40001C46D3F80CC054F8088F5A1945F00109C8
:105A500041F00105C3F804903046C8F80CC0CCF8FA
:105A600008807A613A61C2F80CE0C2F808E055603B
:105A7000515000F01BFB69E700240C2320463360E3
:105A800003B0BDE8F08F7E213F2073E72344E16837
:105A90005A68A56842F00102E96030468D605A609C
:105AA00000F004FB0834204603B0BDE8F08F234427
:105AB00030465A6842F001025A6000F0F7FA0834A2
:105AC000204603B0BDE8F08FBC68636823F003088C
:105AD000454504D8C5EB08030F2B00F38C80534BCE
:105AE000DFF858A11A68DAF8003001332A4404EBD1
:105AF000080B00F0508102F580520F3222F47F62D1
:105B000022F00F0211463046019200F0CFFCB0F1B6
:105B1000FF3F8146019A00F0F580834500F2EF8057
:105B2000434B1968CB451144196000F03D81DAF808
:105B30000000DFF808E101301BBFCBEB090B594433
:105B4000CEF80090196019F0070100F00781C1F14B
:105B50000800C1F58051814408314A44C2F30B0268
:105B6000C2EB010A51463046019300F09FFC431CF2
:105B7000019B00F02781C9EB0002524442F0010270
:105B80001968C7F808905144BC42C9F8042019604C
:105B9000DFF89CA016D0B8F10F0F40F2E2806268E7
:105BA000A8F10C0323F00703E01802F001024FF004
:105BB000050E1A430F2B6260C0F804E0C0F808E03D
:105BC00000F204811B4BBC681A68914288BF1960BF
:105BD000194B1A689142626888BF196022F003026B
:105BE0009542A2EB050301D80F2B04DC304600F0F0
:105BF0005DFA0024AAE6621943F0010345F00105AD
:105C000065603046BA60536000F050FA08342046B0
:105C100003B0BDE8F08F142869D9542800F29780AA
:105C2000280B6E304100A5E62CAC002088C0002077
:105C30008CC0002084C0002080C0002038B000202C
:105C40005A0A042A56D9142A00F2A7805B324FEA76
:105C5000420C07EB8C0CDFF8B481DCF808106145CE
:105C600000F085804A6822F00302934202D28968DC
:105C70008C45F7D1CA687B68E260A1609460CC6013
:105C8000BAE6631942F0010745F001056560304648
:105C90004B610B61C3F80CE0C3F808E05F609A50F9
:105CA000083400F003FA51E64B68A5E609F1010952
:105CB00019F0030F0CF1080C7FF4B0AE2BE004F1E7
:105CC00008036469A34208BF02303FF468AE2DE6C2
:105CD0001A441C465168DB6854F8085F41F0010122
:105CE00051603046EB609D6000F0E0F92EE65B30DD
:105CF00041003FE69A0938324FEA420CA9E7BC421C
:105D00003FF40EAFBC68626822F0030268E7D8F87F
:105D10000080984577D110F0030FA8F1080300F137
:105D2000FF30F4D17B6823EA04037B6064009C426B
:105D30003FF6CAAE002C3FF4C7AE234248467FF47C
:105D400069AE6400234200F10400FAD062E6B0F5C7
:105D5000AA7F18D8E80B773041000BE64FF480514A
:105D6000FBE60123C9F804304C46002238E7D8F896
:105D7000043092104FF0010C0CFA02F21343C8F8F1
:105D800004300A4678E740F25453984217D8A80CDA
:105D90007C304100EEE51032B4E6542A1ED81A0BCE
:105DA0006E324FEA420C54E7CBF30B0000287FF42D
:105DB000BEAE4244BB6842F001025A6002E7FC21D9
:105DC0007E20D7E501224FF0000AD9E604F1080150
:105DD000304600F0F5FDDAF80010F3E6B2F5AA7FE0
:105DE00004D8DA0B77324FEA420C32E740F25451D2
:105DF0008A4204D89A0C7C324FEA420C29E74FF0D1
:105E0000FC0C7E2225E77B6890E700BF2CAC0020CD
:105E1000844641EA000313F003036DD1403A41D3B5
:105E200051F8043B40F8043B51F8043B40F8043B74
:105E300051F8043B40F8043B51F8043B40F8043B64
:105E400051F8043B40F8043B51F8043B40F8043B54
:105E500051F8043B40F8043B51F8043B40F8043B44
:105E600051F8043B40F8043B51F8043B40F8043B34
:105E700051F8043B40F8043B51F8043B40F8043B24
:105E800051F8043B40F8043B51F8043B40F8043B14
:105E900051F8043B40F8043B51F8043B40F8043B04
:105EA000403ABDD2303211D351F8043B40F8043BA4
:105EB00051F8043B40F8043B51F8043B40F8043BE4
:105EC00051F8043B40F8043B103AEDD20C3205D3B4
:105ED00051F8043B40F8043B043AF9D2043208D0AC
:105EE000D2071CBF11F8013B00F8013B01D30B881E
:105EF00003806046704700BF082A13D38B078DD0FC
:105F000010F003038AD0C3F10403D21ADB071CBFCD
:105F100011F8013B00F8013B80D331F8023B20F837
:105F2000023B7BE7043AD9D3013A11F8013B00F870
:105F3000013BF9D20B7803704B7843708B788370F8
:105F4000604670478842F0B50DD98B1898420AD246
:105F50008118002A54D09A1A13F8014D01F8014D06
:105F60009342F9D1F0BD0F2A48D940EA01039B07BB
:105F700047D100F1100401F11003154653F8106CDD
:105F800044F8106C53F80C6C44F80C6C53F8086C23
:105F900044F8086C103D53F8046C44F8046C0F2D61
:105FA00003F1100304F11004E8D8A2F1100323F068
:105FB0000F0302F00F0E1033BEF1030F1944034418
:105FC00021D91E1F0D467446043C55F8047B46F843
:105FD000047F032CF8D8AEF1040424F00304043445
:105FE0002344214402F0030252B1013B0A4411F858
:105FF000014B03F8014F9142F9D1F0BD0346F3E79D
:10600000F0BD0346F1E77246EEE700BF70B48407C7
:1060100046D0541E002A41D0CDB2034602E0621E93
:10602000E4B3144603F8015B9A07F8D1032C2ED988
:10603000CDB245EA05250F2C45EA054519D903F1EE
:1060400010022646103E0F2E42F8105C42F80C5CFF
:1060500042F8085C42F8045C02F11002F2D8A4F1A4
:10606000100222F00F0204F00F041032032C13442C
:106070000DD91E462246043A032A46F8045BFAD894
:10608000221F22F003020432134404F003042CB153
:10609000C9B21C4403F8011BA342FBD170BC70477A
:1060A00014460346C2E700BF704700BF704700BFF9
:1060B000024B0A460146186800F002B828AC0020DE
:1060C0002DE9F04F174683B00E46002900F0E78017
:1060D000814607F10B05FFF7E7FF56F8043C162D44
:1060E00023F00304A6F108084CD810221546AF424D
:1060F0004DD8944280F28480DFF8ACB3DBF808001E
:1061000008EB0401884200F0D680486820F0010EB8
:106110008E44DEF804E01EF0010F3FD120F00300B2
:106120002044904280F2C180DB0700F18F8056F856
:10613000083CC3EB080ADAF8043023F0030300EB51
:10614000030E964534DBCB688A685746D3609A6065
:1061500057F8081FDAF80C30CB60221F242A996008
:1061600000F23681132A40F2FD803368CAF8083005
:106170007368CAF80C301B2A00F2408108360AF115
:106180001003F0E025F00705002D2A46AFDA0C23B6
:106190000020C9F8003003B0BDE8F08FD90755D40E
:1061A00056F8083CC3EB080ADAF8043023F003037E
:1061B000234493424ADB5746DAF80C1057F8080F8D
:1061C000221F242AC160886000F20E81132A40F247
:1061D00009813168CAF808107168CAF80C101B2AC6
:1061E00000F2218108360AF11002316811607168ED
:1061F0005160B16891601C46DAF804303E46D046E2
:10620000621B0F2A03F001030ED823434444C8F84D
:106210000430636843F0010363604846FFF746FFBC
:10622000304603B0BDE8F08F08EB05011D4342F096
:1062300001030A44C8F804504B60536843F001035B
:1062400008315360484600F0BBFBE6E73946484654
:10625000FFF750FB0746D8B156F8043C23F0010283
:106260004244A0F10801914200F0AC80221F242A90
:1062700000F29980132A6AD80346324611681960E1
:106280005168596092689A603146484600F098FB20
:106290004846FFF70BFF384603B0BDE8F08F1146C4
:1062A00003B0BDE8F04FFFF725BBCA688968044614
:1062B000CA609160A4E7416821F00301214405F11F
:1062C000100081425BDADB07C0D456F8083CC3EB10
:1062D000080ADAF8043023F0030301EB030C6045ED
:1062E0003FF766AF5746DAF80C3057F8081F221F01
:1062F000242ACB60996000F2B880132A40F2A9806A
:106300003368CAF808307368CAF80C301B2A00F2E8
:10631000B58008360AF1100332681A6072685A6054
:10632000B2689A600AEB0502C5EB0C0343F0010367
:10633000CBF808205360DAF8043003F001031D4362
:106340004846CAF80450FFF7B1FE384669E733689B
:106350000360736843601B2A29D800F1080306F123
:1063600008028BE73B4632681A6072685A60B2686E
:106370009A603E467446DAF80430D04640E708EBAF
:1063800005024B1B43F00103CBF80820536056F87D
:10639000043C03F001031D43484646F8045CFFF744
:1063A00085FE30463DE73146FFF7CCFD6CE7B3682C
:1063B0008360F368C360242A2CD000F1100306F137
:1063C00010025BE750F8042C22F00302144417E794
:1063D0003146384674463E46FFF7B4FDD046DAF8FB
:1063E00004300DE73A4600E7314638461C463E4643
:1063F000FFF7A8FDD046DAF8043001E7B368CAF821
:106400001030F368CAF81430242A18D010360AF174
:106410001803A8E7336903617369436106F1180241
:1064200000F118032AE7B168CAF81010F168CAF839
:106430001410242A0FD010360AF11802D5E6336959
:10644000CAF818307369CAF81C3018360AF12003EC
:1064500089E73B4660E73269CAF818207269CAF8D2
:106460001C2018360AF12002BFE631463846CDF826
:1064700004C0FFF767FDDDF804C053E7B368CAF84E
:106480001030F368CAF81430242A03D010360AF109
:10649000180341E73369CAF818307369CAF81C3029
:1064A00018360AF1200337E72CAC002038B5074C2A
:1064B0000023054608462360FEF756FA431C00D029
:1064C00038BD2368002BFBD02B6038BDD4C800201A
:1064D00000000000000000000000000000000000BC
:1064E000A2EB0300704700BF02780B78012A28BF97
:1064F0009A42F5D16DE9044540EA0104CDE902670D
:106500006FF0000C4FEA447212B380EA010414F0F9
:10651000070F6AD100F0070420F0070004F003051C
:1065200021F007014FEAC505F0E8042314F0040F39
:10653000F1E804670CFA05F462EA040266EA04066C
:106540000AD063EA0403624667EA0407664603E08A
:10655000F0E80423F1E8046782FA4CF582EA0604C5
:10656000A4FA8CF46CBB83FA4CF583EA0705A5FA10
:106570008CF595B950E9022351E9026782FA4CF58E
:1065800082EA0604A4FA8CF483FA4CF583EA070540
:10659000A5FA8CF52543DBD09CB92DBAB5FA85F464
:1065A00024F0070427FA04F1DDE9026723FA04F373
:1065B00003F0FF0001F0FF01FDE80445A0EB01003E
:1065C000704724BAB4FA84F424F0070426FA04F1DC
:1065D000DDE9026722FA04F202F0FF0001F0FF0198
:1065E000FDE80445A0EB0100704714F0030F3CD117
:1065F00010F0030428D150F8082B51F8083B82FA18
:106600004CF582EA0305A5FA8CF55DB950F8042C27
:1066100051F8043C82FA4CF582EA0305A5FA8CF5A0
:10662000002DE8D02DBAB5FA85F424F0070423FA3A
:1066300004F122FA04F202F0FF0001F0FF01FDE88C
:106640000445A0EB010070474FEAC40420F00300AA
:1066500050F8082B21F0030151F8083B0CFA04F420
:1066600062EA040263EA0403C9E710F003041AD0E3
:10667000A1EB040120F00300E40750F8042B06D03E
:106680000FD28B785FFAA2F4E41A06D12BB1CB7843
:106690005FFAB2F4E41A00D11BB920465DF8104B42
:1066A000704701F1040150F8042BCC0721F00301DD
:1066B00051F8043B48D824D222F07F4482FA4CF5AA
:1066C00094EA1325A5FA8CF50AD165B951F8043B73
:1066D00084EA0204B4EB036F0ED150F8042BEBE70D
:1066E0004FEA132355E035F07F454DD10878FDE89A
:1066F0000445C0F1000070474FEA126203F0FF0347
:1067000047E002EA1C4482FA4CF594EA1345A5FAE4
:106710008CF50AD165B951F8043B84EA0204B4EB64
:10672000034F0CD150F8042BEBE74FEA134330E052
:1067300015EA1C4528D10B884FEA124229E04FEA9E
:10674000124203EA1C4324E002F0FF0482FA4CF5F3
:1067500094EA1365A5FA8CF50AD165B951F8043BA2
:1067600084EA0204B4EB032F09D150F8042BEBE7C1
:106770004FEA13630DE015F0FF0F05D10B684FEAE8
:10678000122223F07F4304E04FF00000FDE80445AF
:10679000704712BA1BBA82FA4CF482EA0304A4FAD4
:1067A0008CF5B5FA85F402FA04F203FA04F34FEA21
:1067B0001260FDE80445A0EB13607047AFF3008062
:1067C00020F0030110F00300C0F1000051F8043B79
:1067D00000F1040C4FEACC0C6FF000021CBF22FA4F
:1067E0000CF213434FF0010C4CEA0C2C4CEA0C4C0D
:1067F000A3EB0C0222EA030212EACC1204BF51F806
:10680000043B0430F4D0C2F1000102EA0102B2FA02
:1068100082F2C2F11F0200EBD2007047024B1A68ED
:1068200001235C3200F002B828AC0020F0B420B3A1
:1068300007460D4617F8016B01E0A64216D015F881
:10684000014B002CF9D1EEB13E460C4616F8015B27
:1068500000E073B114F8013BAB42FAD15DB1002303
:106860003B70166006463046F0BC704763B1384650
:10687000DEE73746E8E72E46F3E710680028D7D171
:106880000646F0E71660EEE7176006460370EAE793
:1068900070B5002A9AB005462FDB14461A464FF40D
:1068A000027300910491ADF80C3011D0013C4FF609
:1068B000FF7669461E9B02940594ADF80E6000F0C9
:1068C00057F9421C16DB009B00221A701AB070BDEB
:1068D0001E9B02944FF6FF7669460594ADF80E6054
:1068E00000F046F9431C01DB1AB070BD8B232B600E
:1068F0001AB070BD8B232B60E5E78B2303604FF04C
:10690000FF30F1E730B583B0054C009324680D46A5
:10691000134601462A462046FFF7BAFF03B030BDB2
:1069200028AC0020F8B5234F0C460646FFF7BCFB09
:10693000BB685D6825F00305291B01F6EF7121F4A2
:106940007F6121F00F01A1F58054B4F5805F07DB72
:1069500030460021FFF7AAFDBB682B44984204D0C3
:106960003046FFF7A3FB0020F8BD30466142FFF739
:106970009DFD01300DD0104BBA6819682D1B45F0F4
:1069800001053046091B55601960FFF78FFB012098
:10699000F8BD30460021FFF789FDBA68831A0F2B36
:1069A000DEDD064C0449246843F00103001B5360FC
:1069B0000860D5E72CAC00208CC0002038B0002047
:1069C00000294ED02DE9F0410C468046FFF76CFBC4
:1069D00054F8047C624927F00102A4F10805AB18C1
:1069E0008E6858689E4220F003005AD0FE07586017
:1069F0000BD454F8087CED1B01F1080EAC6874450B
:106A00003A4467D0EF68E760BC601C186468E4072C
:106A10000CD4544F9C68BC4202447CD0D868E060DF
:106A200042F0010384606B60AA5003E042F001036E
:106A30006B60AA50B2F5007F14D2D20801EBC203FA
:106A400048689F68AF609210012404FA02F2104374
:106A5000EB6048609D60FD604046BDE8F041FFF797
:106A600025BB7047530A042B47D8930903F1380418
:106A7000600001EB80003A498368834243D0596843
:106A800021F00301914202D99B689842F7D1DA685C
:106A9000EA60AB6040469560DD60BDE8F041FFF71D
:106AA00005BBFF07024407D454F8083CED1A1A440A
:106AB000A868EB68C36098602B4B1B6842F001002C
:106AC0009A4268608D60C7D3284B40461968FFF72B
:106AD00029FFC1E719184968C90709D4D9689B6813
:106AE000024442F00100D9608B606860AA50B3E7AD
:106AF00042F001036B60AA50AEE7142B14D803F1E7
:106B00005B046000B5E74A68A4100120A04002437E
:106B10004A601A46BCE742F001034D610D61EC602A
:106B2000AC606B60AA5097E7542B04D8130B03F1A9
:106B30006E0460009DE7B3F5AA7F04D8D30B03F180
:106B40007704600095E740F25450834204D8930CD8
:106B500003F17C0460008CE7FC207E2489E700BF01
:106B60002CAC002034AC002034B0002088C00020C1
:106B70002DE9F04FC1B089460A920E93089002F0B9
:106B800023FA036817931846FFF71AFEB9F80C307A
:106B900018901A0604D5D9F81030002B01F08C801B
:106BA000002330AF139325932493169319930B93DB
:106BB0002397149315933C464E460A9D2B78002B41
:106BC00000F0A980252B02D1A5E0252B03D015F8D4
:106BD000013F002BF9D10A9BEB1A73B1249A259936
:106BE0000A98206001321944072A63602591249293
:106BF00072DC08340B9A1A440B922B78002B00F0AD
:106C0000B5870023691C6D788DF86F301A460C9398
:106C100007934FF0FF3A4B1CA5F12001582900F2D1
:106C2000D983DFE811F07002D703D7037403D703C9
:106C3000D703D703D703D703D703F0020D02D70337
:106C4000F4011102D7037B03BA02BA02BA02BA02F4
:106C5000BA02BA02BA02BA02BA02D703D703D703FA
:106C6000D703D703D703D703D703D703D703C90263
:106C70008B03D7038B03D703D703D703D7036D0346
:106C8000D703D7030503D703D703D703D703D70306
:106C90002303D703D7033D03D703D703D703D70372
:106CA000D703D703D703D703D703D70358032C023F
:106CB0008B038B038B03FE022C02D703D703E60260
:106CC000D7037E02FB01C0037702D7039202D703EA
:106CD0007A00D703D7034A0208980793314623AABC
:106CE00002F0E0FC50B93C46079B83E70898314628
:106CF00023AA02F0D7FC002800F08581B146B9F83C
:106D00000C3013F0400F0B9B18BF4FF0FF331846A9
:106D100041B0BDE8F08F0A9D6FE70A93079B980684
:106D200040F1AD820E9B03F1070929F0070303F13F
:106D30000802D3E900890E9201234FF0000C8DF870
:106D40006FC0CDF844A0BAF1000F03DB079A22F020
:106D50008002079258EA090240F04C83BAF1000F12
:106D600000F05184012B00F04F83022B00F090843F
:106D700039464FEAD80242EA49724FEAD90008F090
:106D8000070381469046303358EA090201F8013D75
:106D9000EFD1079A1091D20700F144857B1A0D9329
:106DA0000D9A92455346B8BF134609930023129398
:106DB000BCF1000F02D0099B01330993079B13F02C
:106DC00002030F9302D0099B02330993079B13F030
:106DD000840940F00C830C9B099AC2EB0308B8F1BC
:106DE000000F40F30483B8F1100F2599249ADFF8BF
:106DF00044A529DD53464FF0100BC246A8461D4658
:106E000006E0AAF1100ABAF1100F04F1080417DD28
:106E100001321031072A2591249284E82008F0DD00
:106E20000898314623AA02F03DFC00287FF466AFA3
:106E3000AAF1100ABAF1100F2599249A3C46E7DC12
:106E40002B464546D0469A46013208EB010B072AED
:106E5000CDF894B02492C4F800A0C4F8048000F3E4
:106E60007B849DF86FC00834BCF1000F0FD0249BC9
:106E700001330BF1010B0DF16F010122072BCDF84E
:106E800094B0249384E8060000F3DA8308340F9B5F
:106E900073B1249B01330BF1020B1CA90222072BB7
:106EA000CDF894B0249384E8060000F3D583083429
:106EB000B9F1800F00F01183119B0D9AC2EB030A08
:106EC000BAF1000F3CDDBAF1100F249ADFF8689494
:106ED0002BDD49465B46A9464FF01008DDF820B08F
:106EE0000D4606E0AAF1100ABAF1100F04F10804E9
:106EF00017DD01321033072A2593249284E82001FC
:106F0000F0DD5846314623AA02F0CCFB00287FF47E
:106F1000F5AEAAF1100ABAF1100F259B249A3C464F
:106F2000E7DC9B462B464D4699460132D344072A5F
:106F3000CDF894B0249284E8000600F375830834F9
:106F4000079BD90500F16C82249B0D99109A226051
:106F500001338B44072BCDF894B06160249300F388
:106F600046830834079B5A0741D50C9B099A9D1A02
:106F7000002D3CDD102D249BDFF8B8A323DD4FF05E
:106F800010085A46DDF8209004E0103D102D04F161
:106F9000080417DD01331032072B25922493C4F81F
:106FA00000A0C4F80480F0DD4846314623AA02F070
:106FB00079FB00287FF4A2AE103D102D259A249B6A
:106FC0003C46E7DC93460133AB44072BCDF894B045
:106FD0002493C4F800A0656009DD0898314623AA0F
:106FE00002F060FB00287FF489AEDDF894B00B9BC3
:106FF000099A0C998A42ACBF9B185B180B93BBF1A2
:10700000000F7FF473AE002324933C46D5E5194668
:1070100007981D7840F004000790FCE50A93079B51
:1070200013F0200300F00E810E9B03F1070929F0F5
:10703000070303F10802D3E900890E9200237CE6DE
:107040001D7819462B22E6E51D782A2D03F1010152
:1070500000F0AD87A5F1300009280B464FF0000A7B
:107060003FF6DAAD13F8015B0AEB8A0A00EB4A0A35
:10707000A5F130000928F5D94AEAEA7ACCE50A9365
:10708000079B8DF86F209B0640F1A1800E9B03F1BA
:10709000070929F00709D9E9002309F108010E9130
:1070A00090469946002A73F10003C0F20B849DF8C4
:1070B0006FC0CDF844A0012345E60A939B4B16937D
:1070C000079B8DF86F209B0640F1F3800E9B03F128
:1070D000070929F00703D3E9008903F108020E929A
:1070E000079BD90740F1F58058EA090300F0F180C9
:1070F000079A8DF87150302342F002028DF87030FB
:107100000792022319E61D781946002A7FF483AD01
:10711000202280E5079941F0200107911D7819464A
:1071200079E50A93079B8DF86F209A0640F1A184B8
:107130000B990E9A4FEAE1791368084688460432A3
:1071400049460E92C3E9000137E50E9A0A93136887
:1071500010934FF0000B8DF86FB002F10409002B73
:1071600000F03B86BAF1000F1098C0F2E98559464D
:10717000524601F02DFF002800F06C86109BCDF8E0
:1071800044B0C31A0D93CDF8389023EAE373099302
:10719000CDF848B09DF86FC00AE6A5F13000002197
:1071A00013F8015B01EB810100EB4101A5F1300017
:1071B0000928F5D90C912FE50A93079B8DF86F20CC
:1071C00043F010030793079B9B063FF55FAF079BB8
:1071D000D80600F16883079B590640F164830E9935
:1071E000B1F9008004314FEAE87942464B460E91EE
:1071F00058E71D7807996C2D00F0CB8441F0100101
:107200000791194607E50E9D29680C91084600284C
:10721000294601F10401C0F2B5840E911D7819468A
:10722000F9E4079941F0400107911D781946F2E40D
:107230000A93079B43F010030793079B13F0200367
:107240007FF4F2AE079A12F0100240F01983079B08
:1072500013F0400300F014830E9913460A460432DB
:10726000B1F800800E924FF0000966E50A93079B83
:1072700043F010030793079B98063FF553AD079B18
:10728000D90600F10683079B5A0640F102830E9A45
:10729000B2F8008004324FF0000901230E924CE551
:1072A0000A93234B1693079B8DF86F209B063FF59F
:1072B0000DAF079BD80640F1CD830E9A13461B688D
:1072C0009846079B0432D9070E924FF000093FF50C
:1072D0000BAF022331E50E990A930A688DF89820C6
:1072E0000023012204319C4609920E918DF86F30E3
:1072F00026ABCDF844C0CDF848C00D9210935DE5A3
:10730000079941F0080107911D78194683E4079910
:1073100041F0010107911D7819467CE4079941F07D
:10732000800107911D78194675E400BFACA60020C6
:1073300098A6002078A60020CCA600200A930E9BD9
:107340008DF86F2003F1070929F0070303F1080204
:107350000E921A6814925B6815931599149802F0AE
:1073600075F90128D3461498159940F059830022E5
:10737000002302F073FE002840F064859DF86FC082
:10738000079BBE4ADFF800E323F080030793134610
:1073900003210020472DD8BF734609911190109307
:1073A0000D91129004E50E9807990A933022036814
:1073B0008DF870200246782541F00201043298468B
:1073C000AF4B169307910E924FF000098DF8715054
:1073D0000223B2E40A938DF86F20002D00F0C683DB
:1073E000002301229C4609928DF898507EE7DDF833
:1073F00094B039E5012B7FF4B8ACB9F1000F08BFA8
:10740000B8F10A0F80F01C820DF5807B08F130087E
:107410000BF8418DCBEB07030D93CDF840B0BFE4E3
:10742000652D40F3A080149815990022002302F0E6
:107430000BFE002800F04581249B924A2260013314
:107440000BF1010B0122072BCDF894B0249362605D
:1074500000F3348308341D9B139A934203DB079B8C
:10746000DA077FF57FAD249B1899179A22600133C4
:107470008B44072BCDF894B06160249300F3908384
:107480000834139B5D1E002D7FF76CAD102D249BDF
:10749000DFF8F89140F3BA814FF010085A46DDF852
:1074A00020A004E00834103D102D40F3AE810133DC
:1074B0001032072B25922493C4F80090C4F804805E
:1074C000F0DD5046314623AA02F0ECF800287FF4A4
:1074D00015AC259A249B3C46E5E70C9B099AC2EB28
:1074E000030ABAF1000F7FF7E7ACBAF1100F249A44
:1074F000DFF898912BDD49465B46A9464FF010080E
:10750000DDF820B00D4606E0AAF1100ABAF1100F1E
:1075100004F1080417DD01321033072A2593249261
:1075200084E82001F0DD5846314623AA02F0BAF87B
:1075300000287FF4E3ABAAF1100ABAF1100F259BE3
:10754000249A3C46E7DC9B462B464D469946013241
:10755000D344072ACDF894B0249284E8000600F3BF
:1075600052820834A8E4139B249D012B40F320820F
:10757000109B236001350BF101030122072D259398
:107580002495626000F32682083418996160013501
:1075900003EB010B072D179BCDF894B024952360C6
:1075A00000F324820834002314981599002202F075
:1075B0004BFD139B002840F0DE80109A013B013503
:1075C00001329B44072D2495CDF894B0226063606E
:1075D00000F30E810834199A6260013593441FABA1
:1075E000072DCDF894B0249523607FF7BAAC0898A6
:1075F000314623AA02F056F800287FF47FABDDF86D
:1076000094B03C46AEE4002B32D1079BD8072FD56F
:107610000DF5807B30230BF8413DCBEB07030D9339
:10762000CDF840B0FFF7BCBB0898314623AA02F062
:1076300039F800287FF462ABDDF894B03C467FE473
:107640000898314623AA02F02DF800287FF456ABA3
:10765000DDF894B03C461AE40898314623AA02F0BB
:1076600021F800287FF44AABDDF894B03C461FE4D3
:10767000CDF834A01097FFF793BB00BF8CA6002075
:10768000ACA60020C8A6002088A60020CCA600201A
:107690001698BB464FEA181308F00F0143EA097326
:1076A0004FEA191298469146435C0BF8013D58EA9F
:1076B0000903EFD15B46CDF840B0FB1A0D93FFF7FD
:1076C0006FBB1D9D002D40F30582139A12998A42CB
:1076D0001346A8BF0B461D461099002D01EB020A68
:1076E0000BDD249B21600133AB44072BCDF894B014
:1076F0006560249300F34D830834129B002DA8BFCE
:107700005B1B002B1D4640F3F580102D249BDFF8FA
:10771000F49540F3C6815A464FF01008DDF820B0CA
:1077200004E00834103D102D40F3BA8101331032CB
:10773000072B25922493C4F80090C4F80480F0DD50
:107740005846314623AA01F0ADFF00287FF4D6AA9F
:10775000259A249B3C46E5E70898314623AA01F088
:10776000A1FF00287FF4CAAA9DF86FC0DDF894B08D
:107770003C46FFF779BB03F1FF38B8F1000F7FF704
:107780002AAFB8F1100FDFF87C9525DD5B464FF08E
:10779000100ADDF820B006E0A8F11008B8F1100FCB
:1077A00004F1080417DD01351033072D25932495C6
:1077B00084E80006F0DD5846314623AA01F072FF46
:1077C00000287FF49BAAA8F11008B8F1100F259BA0
:1077D000249D3C46E7DC9B460135C344072DCDF88C
:1077E00094B02495C4F80090C4F804807FF7F2AEFA
:1077F0000898314623AA01F055FF00287FF47EAA9D
:10780000DDF894B0249D3C46E5E693460133AB4455
:10781000072BCDF894B02493C4F8009065607FF7EF
:10782000A0ABE4E6302B109B3FF447AF013B1A4678
:107830001093BA1A30230D9201F8013CFFF7B0BA49
:10784000BB46CDF824C0404649460A220023FDF736
:1078500075FD3032404649460BF8012D00230A22BF
:10786000FDF76CFD8046894658EA0903EBD15B467B
:10787000FB1ADDF824C0CDF840B00D93FFF790BAA5
:107880000E990A6804310E9190464FF00009FFF7F7
:1078900054BA0E990A68043101230E9190464FF0B4
:1078A0000009FFF74ABA0E9A136898464FEAE3793F
:1078B0001346043342460E93002A4B4673F10003ED
:1078C000BFF6F5AB4FF02D0CD8F1000869EB490974
:1078D0008DF86FC0CDF844A00123FFF734BA0898A3
:1078E000314623AA01F0DEFE00287FF407AADDF866
:1078F00094B03C46109A12991D9B0A449046139AE4
:10790000934246DB079AD00743D4139AC8EB0A0583
:10791000D31A9D42A8BF1D46002D0CDD249AC4F841
:1079200000800132AB44072ACDF894B06560249200
:1079300000F367820834002DACBF5D1B1D46002D8F
:107940007FF710AB102D249BDFF8B8937FF75EAF65
:107950004FF010085A46DDF820A004E00834103D2E
:10796000102D7FF752AF01331032072B259224934D
:10797000C4F80090C4F80480F0DD5046314623AAD4
:1079800001F090FE00287FF4B9A9259A249B3C467B
:10799000E5E7249A18981799216001328344072A51
:1079A000CDF894B06060249200F30A820834ACE70A
:1079B000079BD9073FF5DCAD109B236001350BF128
:1079C000010B0123072DCDF894B0249563607FF758
:1079D00001AE0DE70898314623AA01F063FE0028A6
:1079E0007FF48CA9259B249D3C46CEE50898314622
:1079F00023AA01F057FE00287FF480A9DDF894B097
:107A0000249D3C46CFE50898314623AA01F04AFE62
:107A100000287FF473A9DDF894B03C46FFF74CBA18
:107A200001F014FE002840F0C7808646B24AB34BEE
:107A3000119007989DF86FC0CDF848E0032120F021
:107A40008000472DD8BF1A460991079010920D91DA
:107A5000FFF7AEB9079B0E9A13F0400F13463FF4A1
:107A60002EAC0433B2F800800E934FF00009FFF7FC
:107A700037BB079BDB060BD4079B5D0608D50E9A28
:107A8000136804320E92BDF82C201A80FFF795B8C7
:107A90000E9A136804320E920B9A1A60FFF78DB893
:107AA00093460133AB44072BCDF894B02493C4F82C
:107AB000009065603FF713AF08341BE70898314624
:107AC00023AA01F0EFFD00287FF418A9DDF894B097
:107AD0003C46C0E4249B8A4A226001330BF1010B2F
:107AE0000122072BCDF894B02493626000F3F48058
:107AF00008342DB9139B1BB9079BDB077FF532AA0E
:107B0000249B1898179A226001330BEB0001072B76
:107B100025916060249300F3F38104F108026D4223
:107B2000002D40F3FC80102DDFF8D89140F33D810B
:107B30001024DDF8208004E00832103D102D40F3C1
:107B4000348101331031072B25912493C2F8009022
:107B50005460F1DD4046314623AA01F0A3FD002820
:107B60007FF4CCA82599249B3A46E6E7259BB146AD
:107B7000002B3FF4C4A80898314623AA01F092FDD7
:107B8000FFF7BDB80C980E9140420C901946FFF7D4
:107B90003FBA41F0200107915D78591CFFF73BB8CF
:107BA0000898314623AA01F07DFD00287FF4A6A89D
:107BB000DDF894B03C4664E425F02003BAF1FF3FC1
:107BC0000D9300F09680472B05D1BAF1000F14BF3A
:107BD000D3464FF0010B079B43F480731193159B21
:107BE000B3F1000A149B0993BBBF534603F1004A4B
:107BF00000232D23662D0F9300F0AC80462D00F05E
:107C0000A9800D9B099A452B0CBF0BF10109D946A0
:107C100002201DA98DE8010202911EA821A903904E
:107C200053460491089800F083FA672D109002D013
:107C3000472D40F09F80079BDB0740F18981109B17
:107C400003EB0908099851460022002302F0FCF9D1
:107C5000002840F0FD80219B984506D930215A1C10
:107C600021921970219B9845F9D8109A9B1A139369
:107C70000D9B472B1D9B00F0DE80652D40F3F880A7
:107C8000662D129300F05781139B129A934200F3D2
:107C90004481079BD90700F1738122EAE2730D92B8
:107CA0000F9A002A40F0BC800993119B0793119210
:107CB0009DF86FC0FFF77CB808984021FDF71AFEC9
:107CC000C9F80000C9F81000002800F08C8140239A
:107CD000C9F81430FEF764BF0898314623AA01F0B2
:107CE000E1FC00287FF40AA81D9DDDF894B03C4615
:107CF000FFE64FF0060B6EE794A6002090A600204A
:107D0000C8A60020CCA600200898314623AA01F07E
:107D1000C9FC00287EF4F2AF2599249B3A46139CB7
:107D20005460013301EB040B072B1099CDF894B08C
:107D3000249311603FF75BAC02F10804FFF712B91E
:107D4000CDF844B0FEF73CFDCDF838900D900346D9
:107D5000FFF71BBA03201DA98DE8010802911EA898
:107D600021A90390099A04915346089800F0E0F97C
:107D7000D9461090109B03EB09080D9B462B7FF40E
:107D800061AF109B1B78302B00F0E4801D9B984462
:107D900058E70898314623AA01F084FC00287EF4B5
:107DA000ADAFDDF894B03C46A7E401332944072B7E
:107DB00025912493C2F800905560A5DC0832AEE707
:107DC0000898314623AA01F06DFC00287EF496AF96
:107DD0001D9BDDF894B03C4697E55346062B28BF23
:107DE00006230D9323EAE373DDF840C00993834B28
:107DF000CDF83890CDF844C0CDF848C01093FEF7C8
:107E0000D7BF0898314623AA01F04CFC00287EF425
:107E100075AF1D9B139ADDF894B0D31A3C468AE5E2
:107E20000993119B07934FF02D0C00238DF86FC021
:107E30001193FEF7C0BFDA1C19DB9B4517DB1293C9
:107E4000672521E74FF02D0C8DF86FC0FFF798BA2A
:107E500043460AE72AEAEA731190CDF83890129067
:107E60009DF86FC00993CDF834A0FEF7A1BF023D85
:107E7000013B002B1D93BABF5B422D222B22092B05
:107E80008DF87C508DF87D2072DD0DF18B0E7046E3
:107E90005B4A82FB0321DA17C2EBA10202EB8201EB
:107EA000A3EB410303F13001092A134600F8011D39
:107EB000EEDC02463033D9B202F8011D964540F29D
:107EC00099800DF17E02034601E013F8011B02F8D0
:107ED000011B7345F9D123AB1B1A0DF17E0213442C
:107EE0001FAA9B1A139A1993012A13440D936BDD51
:107EF0000D9B002201330D93129223EAE373CFE628
:107F00000898314623AA01F0CDFB00287EF4F6AE96
:107F10001D9D2599249B3A4601E6129B002BD8BF54
:107F2000C3F10208139BC8BF4FF0010843440D93EF
:107F300023EAE373B4E6002B30DDBBF1000F25D15B
:107F4000079BDB0722D4129A0D9222EAE273A7E67E
:107F5000219B8AE6099851460022002302F074F81A
:107F600000287FF413AFC9F101031D93984469E61B
:107F7000303330228DF87F308DF87E2020ABAFE794
:107F8000129B01330D9323EAE37389E6129B0BF1F5
:107F9000010843440D9323EAE37381E6BBF1000F2C
:107FA0001BD1079BD80718D401230D9378E60E9DAB
:107FB000D5F800A028460430BAF1000F5D780E9085
:107FC000BEF629AEFEF725BE079B13F001038FD145
:107FD00012930D9B23EAE37362E60BF102030D9308
:107FE00023EAE3735CE6089A0C2313604FF0FF303A
:107FF000FEF78EBE0DF17E0372E700BFC0A6002023
:108000006766666602690B69934200F38F802DE90B
:10801000F04F03F1FF3801F1140700F1140B57F88A
:1080200028205BF828304FEA880483B00132B3FB84
:10803000F2F90BEB0403009407EB040A0193B9F186
:10804000000F3BD000263246BC46DE4634465CF884
:10805000046BDEF80050B3B2360C03FB094406FB98
:1080600009F606EB1446A3B2D31AB4B213FA85F399
:10807000C4EB154404EB23449BB243EA0443E245BA
:108080004FEA24424EF8043B4FEA1644DFD2009BED
:108090005BF8033093B9019C231F9B450CD254F825
:1080A000043C4BB9A4F1080302E01A68043B1AB976
:1080B0009B4508F1FF38F8D3C0F81080044601F062
:1080C000DBF900282EDB09F101095D46002357F892
:1080D000041B28688AB29A1A090C12FA80F2C1EBC2
:1080E000104303EB224391B241EA0341BA4545F8FC
:1080F000041B4FEA2343EAD25BF828200BEB8803EA
:1081000082B91A1F93450BD253F8042C42B9083B8D
:1081100002E01A68043B1AB99B4508F1FF38F8D30E
:10812000C4F81080484603B0BDE8F08F00207047C7
:108130002DE9F04F016C97B00446239DCDE9022351
:1081400041B1426C4A60012393408B6000F0B0FF64
:1081500000232364DDE90223002B994636DB00234C
:108160002B60A54B1A4609EA0303934217D0DDE9B9
:108170000267002230463946002301F065FF804641
:1081800000282BD0229A01231360249B002B00F09F
:10819000CB809A481860013817B0BDE8F08F229A5A
:1081A00042F20F731360029B002B00F0A6809448EC
:1081B000249B002BF0D0C378002B00F0B78000F197
:1081C0000803249A136017B0BDE8F08F039A0123C7
:1081D00022F000492B60CDF80C90C2E715AA14AB31
:1081E0008DE80C00204632463B4601F0D3F95FEAA9
:1081F0001955834640F08A80DDF85080159D6FF454
:10820000826345449D42C0F297827E4A521B09FA1E
:1082100002F9029A05F2124322FA03F049EA000039
:1082200001F034FC0123013DA1F1F8710D9300220E
:10823000754B01F0EDFA6AA3D3E9002301F09CFC31
:1082400069A3D3E9002301F0E5FA064628460F4664
:1082500001F02CFC66A3D3E9002301F08DFC02465B
:108260000B463046394601F0D5FA06460F4601F076
:108270001DFF3946049000223046002301F0EEFE37
:10828000002840F0A681049B162B00F29F81049ADF
:108290005E4B03EBC203D3E90001DDE9022301F0E9
:1082A000FBFE002800F04E82049B013B0493002358
:1082B0000B93C5EB0805B5F1010A00F1A18100237C
:1082C0000593049B002BC0F292819A440A930023E9
:1082D0000893209B092B2BD8052B40F37086043B79
:1082E00020930025209B023B032B00F24E86DFE803
:1082F00013F0CC03BE03B2026306414B444AC9F3F8
:108300001300002814BF1846104651E7C7F31303A3
:1083100043F07F51CDF834803046A5F2FF3541F46B
:108320004011DDF8508082E73A4835E7C31C48E742
:10833000002161642046209100F094FE4FF0FF334D
:108340000693209A0C9301230790219220640993AD
:10835000159B002BC0F2D280049A0E2A00F3CE8027
:108360002A4B03EBC203D3E90089219B002BC0F207
:108370008F83DDE9026742464B463046394601F0BD
:1083800025FD01F093FE824601F090FB42464B46EC
:1083900001F0F2FB0B4602463946304601F038FA4E
:1083A000079D0AF130032B70069B012B06460F46F2
:1083B00005F1010562D00022174B01F0DDFB002220
:1083C000002306460F4601F03FFE002840F0838060
:1083D000CDF808B00594DDF81CB0069C29E000BF7C
:1083E00061436F63A787D23FB3C8608B288AC63FBB
:1083F000FB799F501344D33F0000F07FC9A60020B3
:10840000E8A600200EFCFFFF0000F83FF8A60020C1
:10841000DCA60020C8A600200000244001F0ACFB30
:108420000022002306460F4601F00EFE002840F011
:10843000DE8342464B463046394601F0C7FC01F028
:1084400035FE824601F032FB42464B4601F094FB7A
:1084500002460B463046394601F0DAF90AF1300E91
:1084600005F801EBCBEB050E744506460F464FF0C1
:108470000002B54BD2D1DDF808B0059C32463B4630
:108480003046394601F0C6F906460F464046494691
:1084900032463B4601F0E2FD48B940464946324685
:1084A0003B4601F0D1FDB0B11AF0010F13D015F821
:1084B000018C07996B1E04E08B4200F0408413F896
:1084C000018DB8F1390F03F101051A46F4D008F116
:1084D0000103DBB213702046594600F0E9FD00228B
:1084E000049B2A70229A01331360249B002B00F016
:1084F000458307981D6017B0BDE8F08F099A002AE0
:1085000000F08480209A012A40F30483069B5F1EBA
:10851000089BBB42C0F2A983DF1B069B002BC0F265
:108520009C84059D069B059A20461A4401210592CC
:108530009A4400F057FE064665B1BAF1000F09DD16
:10854000AA45059A5346A8BF2B46D21A0592ED1AA2
:10855000C3EB0A0A089B002B1ADD099B002B00F0D5
:108560007D83002F10DD31463A46204600F0DEFEC6
:1085700006465A463146204600F03EFE59468046A1
:10858000204600F095FDC346089BDA1B40F0A2820E
:108590002046012100F026FE0A9B002B804639DD93
:1085A00001461A46204600F0C1FE209B012B804662
:1085B00040F396824FF00009D8F8103008EB83039F
:1085C000186900F0C1FDC0F120002DE001230B93DC
:1085D0006FE6049801F06AFA32463B4601F034FD3A
:1085E00000287FF450AE049B013B04934BE6059AB0
:1085F000049BD21A5B420893002305920A9368E613
:10860000CAF1000305934FF0000A5AE6089F059D42
:10861000099E91E7209B012B40F3B3824FF00009A4
:108620000A9B002BC8D10120504410F01F0000F01D
:108630008180C0F12003042B40F3B884C0F11C00FA
:10864000059B0344059305448244059B002B05DDEF
:1086500059461A46204600F0B9FE8346BAF1000F8B
:1086600005DD41465246204600F0B0FE80460B9B99
:10867000002B40F06882069B002B40F39582099BFB
:10868000002B71D1DDF81C90069F4D4602E000F0F2
:1086900019FD834641465846FFF7B4FC00F1300C03
:1086A00005F801CBC9EB0503BB42204659464FF004
:1086B0000A024FF00003EADB079B069A012AACBFCF
:1086C0009B1801331D464FF0000A594601222046EF
:1086D000CDF808C000F07AFE4146834600F0CCFE9B
:1086E0000028DDF808C040F3F68215F8012C079940
:1086F0006B1E04E08B4200F0738213F8012D392ABF
:1087000003F10105F6D001321A704146204600F00F
:10871000CFFC002E3FF4DFAEBAF1000F05D0B2451A
:1087200003D05146204600F0C3FC3146204600F0FD
:10873000BFFCD0E61C2083E7044B029A5B1B02FAC5
:1087400003F06DE50B90B4E500002440EEFBFFFF65
:108750003146002320460A2200F0B4FC0C9B002B7B
:10876000064640F30C840693002D05DD31462A466B
:10877000204600F02BFE0646B9F1000F40F0E982DA
:10878000B146069B079A013BD3180893029B03F05E
:1087900001030993174641465846FFF733FC31461B
:1087A0000546584600F068FE4A4682464146204645
:1087B00000F086FEC268034605F1300C002A40F046
:1087C000B88119465846CDF818C0059300F054FEFC
:1087D000059B02901946204600F06AFC029ADDF8DB
:1087E00018C02AB9209B1BB9099B002B00F0A78356
:1087F000BAF1000FC0F2518205D1209B1BB9099B31
:10880000002B00F04A82002A00F3B782089B87F809
:1088100000C007F1010A9F42554600F0BA8259464E
:108820000A220023204600F04DFC4E458346314687
:1088300020464FF00A024FF0000300F0748100F070
:1088400041FC494606460A222046002300F03AFC35
:10885000574681469FE701230993219B002B40F354
:1088600013821F461E460C9306930021172F616446
:108870000AD9012204235B0003F114008742114648
:1088800002F10102F7D26164204600F0EBFB0E2EEC
:10889000079020643FF65CAD002D3FF459ADDDE953
:1088A000022304990029CDE90E2340F32182B74B1E
:1088B00001F00F020D1103EBC203E906D3E90067D3
:1088C00040F1DB81B24BDDE90E01D3E9082301F071
:1088D0007DFACDE9020105F00F054FF003088DB1D7
:1088E000DFF8AC9230463946EA0705D5D9E90023CE
:1088F00008F1010801F040F96D1009F10809F3D100
:1089000006460F46DDE9020132463B4601F05EFABB
:10891000CDE902010B9B43B1DDE9020100229D4B31
:1089200001F09CFB002840F0AC82404601F0BEF80C
:10893000DDE9022301F020F9974B002200F06AFFE5
:10894000069B0646A1F15077002B00F06281049B44
:10895000DDF818901293099B002B00F021828B4BBD
:108960008E4903EBC90353E90223002001F02EFADC
:1089700032463B4600F04CFFDDE90267CDE91001CD
:108980003946304601F092FB054601F08FF830354C
:1089900002460B463046394600F03AFF5FFA85F84A
:1089A000079DDDE9102385F8008006460F46013556
:1089B00001F054FB002840F0B28232463B460020D2
:1089C000744900F025FF02460B46DDE9100101F075
:1089D00063FB002840F0AC82B9F1010F40F338810D
:1089E000079BCDF84CA0CDF808B09944DDE910AB59
:1089F000A0460DE00020674900F00AFF52465B46A2
:108A000001F02CFB002840F08E824D4500F01B81C8
:108A1000504659460022624B01F0AEF80022604BEE
:108A200082468B463046394601F0A6F80F46064688
:108A300001F03CFB044601F039F802460B46304693
:108A4000394600F0E5FE3034E4B252465B4605F8A4
:108A5000014B06460F4601F001FB32463B4600281B
:108A6000C8D0129BDDF808B00493444633E50023D8
:108A70000993219B049A13440C930133002B069312
:108A800040F30981069E3746EFE600230993E4E6AA
:108A9000069B002B3FF76DAC40F0628240460022FF
:108AA000404B494601F068F8DDE9022301F0EAFA9B
:108AB000DDF818804646002800F08A80219B079D3B
:108AC000DB4304934146204600F0F2FA002E7FF487
:108AD0002CAE00E55946204600F028FC834657E5B9
:108AE000029B002B7FF466AD039BC3F31303002BA3
:108AF0007FF494AD039B23F000473F0D3F05002F0B
:108B000000F01A82059B013305930AF1010A4FF028
:108B1000010985E50D9A002A00F0A58103F233438F
:108B2000089F059DFFE400F0CDFA574606468146B2
:108B300031E601462046CDF808C000F0B9FA01221E
:108B4000DDF808C054E65846414600F095FC002880
:108B5000BFF691AD049F5946002320460A22013FEB
:108B6000049700F0AFFA099B8346002B7FF4F0AD29
:108B70000C9B002B40F3F881069383E50798FFF7E1
:108B80000BBB029B002B7FF449ADADE7F8A600209C
:108B9000C0A700200000F03F00001C400000E03FA4
:108BA0000000244000001440209B022B7FF767AD9B
:108BB000069B002B82D141460522204600F082FA16
:108BC00080464146584600F057FC00287FF776AFB4
:108BD000049A07993123013204920B704D1C71E7FE
:108BE000049A01320492079A312313708DE5DDF85F
:108BF00008B0059C6FE4404600F058FFDDE9022311
:108C000000F0BAFF0022BC4B00F004FE0646A1F1C2
:108C10005077DDE902010022B84B00F0F9FD324641
:108C20003B46CDE9020101F037FA8046002840F0CA
:108C3000B380324607F10043DDE9020101F00EFA8C
:108C400030B146463AE7DDF84CA0DDF808B04446BE
:108C5000DDE90E23CDE90223FFF77ABB5946089AD6
:108C6000204600F063FB834692E4089B0A9A08972B
:108C7000FB1A1A440A9200274FE4DDE90E234FF055
:108C80000208CDE902232AE6012621960C960696D3
:108C900000216164F8E51E46FAE7002A15DD594611
:108CA00001222046CDF808C000F090FB41468346E3
:108CB00000F0E2FB0028DDF808C040F34A81BCF177
:108CC000390F00F006810CF1010CB24687F800C0A4
:108CD0007D1C4E4619E504D11CF0010F01D004E5BE
:108CE000154615F8013C302B05F1FF32F8D00CE5A4
:108CF000049B5D42002D00F0BD80814B05F00F020A
:108D000003EBC203D3E90023DDE90E0100F034FFD9
:108D10002D11CDE9020100F02C817A4E4FF00208AE
:108D2000EB0705D5D6E9002308F1010800F024FF80
:108D30006D1006F10806F3D1CDE90201EAE5049AC7
:108D400001320492079A3023137031231370FFF716
:108D5000C2BB7168204600F085F933699A1C05464C
:108D6000920006F10C010C30FDF752F8204629461E
:108D7000012200F02BFB814603E5BCF1390F00F026
:108D8000A8800CF1010CB24687F800C07D1C4E464D
:108D9000BBE4B2464E4698E44FF00008464617E75B
:108DA000574909F1FF3301EBC30132461393D1E96F
:108DB00000013B4600F0E0FEDDE90267CDE910016D
:108DC0003946304601F072F9054600F06FFE024662
:108DD0000B463046394600F01BFD079A3035B9F195
:108DE000010F157006460F4602F1010523D0079BBF
:108DF000CDF808A04B445E469A46AB460022424B53
:108E000000F0BAFE8946804601F050F9074600F0AE
:108E10004DFE303702460B464046494600F0F8FC0E
:108E20000BF8017BD345E9D1139BDDF808A0B346CD
:108E30000F4606461D440022344BDDE9100100F0C8
:108E4000E9FC32463B4601F009F9002847D0129B65
:108E5000049315F8018CFFF72CBB059B069A9D1A0D
:108E60000023FFF760BB149B089F059DC3F13603E9
:108E7000FFF759BBDDE90E234FF00208CDE90223CD
:108E800048E5069B002B3FF4B6AE0C9D002D7FF706
:108E9000DFAE00221C4BDDE9020100F06DFE06464C
:108EA0000F4608F10100CDE9026700F0FFFD024620
:108EB0000B463046394600F05FFE0F4B002200F0B3
:108EC000A9FC049B013B0646A1F150771293A946E9
:108ED00041E53922B2463A704E467D1C07E4DDE991
:108EE00010230020094900F093FC32463B4601F074
:108EF000D3F870B9ACE600BF00001C40000014407D
:108F0000F8A60020C0A70020000024400000E03F99
:108F1000154615F8013C302B05F1FF32F8D0129BB5
:108F20000493FFF7D8BA4346DDF808B0A0461C46C4
:108F3000129B0493FFF7BDBAB946FFF771BBBCF1B2
:108F4000390FC6D0BAF1000F7FF7BFAE05F1310C73
:108F5000BBE67FF4BAAE1CF0010F3FF4B6AEAEE64E
:108F60004FF000084646A9E5209B022B04DC0C9B31
:108F700002E64FF00208CDE40C9B069318E6209B16
:108F8000022BF9DC0C9BFFF7EEBB0025656429463C
:108F9000204600F067F84FF0FF3306930C9301234F
:108FA0000790219520640993FFF7D2B93FF44DABA8
:108FB000C0F13C00FFF744BB0123099359E50125AB
:108FC000FFF790B9AFF30080004870473CB0002035
:108FD000830770B4C9B240D0541E002A3FD0037832
:108FE0008B4218BF431C06D11DE0F4B102788A42BF
:108FF00004F1FF3417D013F0030F184603F10103F7
:10900000F3D1032C14D884B103788B420BD005190B
:10901000431C02E002788A4205D0AB42184603F1B5
:109020000103F7D1002070BC7047204670BC704728
:1090300041EA0126024646EA064610460432036823
:109040007340A3F1013525EA030313F0803FDAD121
:10905000043C032C1046F0D8D5E71446D1E710465F
:10906000E1E700BFC36C70B505460C464BB153F841
:10907000240080B1026843F8242000230361C36008
:1090800070BD0421212200F08FFBE8640346002814
:10909000EDD1002070BD012101FA04F6721D2846B1
:1090A000920000F081FB0028F3D044608660E4E782
:1090B00031B1C36C4A6853F82200086043F82210AB
:1090C000704700BFF0B50C6983B00D46064601F14C
:1090D000140E0027DEF8001088B2090C02FB0033E2
:1090E00002FB01F101EB134101379BB203EB01439A
:1090F000BC424EF8043B4FEA1143EBDC3BB1AA689B
:10910000944207DA05EB8402013453612C6128464E
:1091100003B0F0BD6968019301313046FFF7A2FF4B
:109120002A69023205F10C01074692000C30FCF767
:109130006FFEF26C6968019B52F82100286042F8CA
:1091400021503D46DEE700BF030C1B04B3B9000409
:10915000102310F07F4F04BF0002083310F0704F4F
:1091600004BF0001043310F0404F04BF80000233FD
:10917000002807DB420003D4202070470023E8E7E3
:10918000581C704718467047036813F0070207D051
:10919000D90720D49A0720D49B0803600220704787
:1091A00099B209B91B0C102213F0FF0F04BF1B0A60
:1091B0000832190704BF1B090432990704BF9B0832
:1091C0000232D90704D45B0801D120207047013254
:1091D000036010467047002070475B080360012061
:1091E000704700BF10B50C460121FFF73BFF01227D
:1091F0004461026110BD00BF2DE9F04F0F6916698F
:10920000B74283B00D461446C0F28D8033463E46C9
:109210001F46AB68696806EB07089845C8BF01316F
:10922000FFF720FF00F1140C0CEB8809CC450090EF
:1092300005D26346002143F8041B9945FBD804F18D
:10924000140202EB870A05F11403524503EB860E64
:1092500054D2CDF80490994652F8043B1FFA83FB90
:10926000BBF1000F20D000204F466646054600E0C7
:109270001E4657F8044B3068A1B283B20BFB013194
:10928000240C000C4B190BFB040000EB134099B2AB
:10929000334641EA0041BE454FEA104543F8041BFE
:1092A000E6D8756052F8043C5FEA134B20D0DCF836
:1092B0000030674618464D46002100E037462C88AE
:1092C000000C0BFB040001449CB23E4644EA0143FF
:1092D00046F8043B786855F8044B83B2240C0BFB2A
:1092E000043404EB1143AE454FEA1341E6D87B60EA
:1092F00092450CF1040CAFD8DDF80490B8F1000FE2
:109300000BDD59F8043CA9F104091BB105E059F83B
:10931000043D13B9B8F10108F9D10098C0F81080E4
:1093200003B0BDE8F08F15460C4672E712F0030358
:109330002DE9F041144607460E462DD1A4101CD04D
:10934000BD6C95B3E3074FF0000806D4641014D049
:109350002868A8B10546E307F8D5384631462A46BD
:10936000FFF74AFFB6B17268FB6C641053F8221025
:10937000316043F822600646EAD13046BDE8F0810C
:1093800029462A463846FFF737FF2860C0F8008094
:109390000546E0E70646D9E75A1E0B4D002355F86F
:1093A0002220FFF78FFE0646C8E701213846FFF767
:1093B00059FE40F2712101220023416102610546FC
:1093C000B8640360BEE700BFE8A700202DE9F047BE
:1093D0000F698B684FEA62194F447D1C9D420E460F
:1093E00014464968804604DD5B009D4201F101019D
:1093F000FADC4046FFF736FEB9F1000F00F1140128
:1094000009DD00239E460A4601334B4542F804EB32
:10941000FAD101EB8301326906F1140314F01F0C39
:1094200003EB820E1FD0CCF1200900221C6804FA45
:109430000CF414438A4641F8044B53F8044B9E4500
:1094400024FA09F2F2D8CAF8042002B1BD1CD8F8F7
:109450004C307268013D53F822100561316043F8C9
:109460002260BDE8F087043953F8042B41F8042F3B
:109470009E45F9D8EBE700BF02690B69D21A13D1F8
:109480009B0014301431194410B4034401E0984295
:109490000CD253F8044D51F8042D9442F7D009D35F
:1094A00001205DF8044B70471046704700205DF8BE
:1094B000044B70474FF0FF305DF8044B704700BF1E
:1094C0002DE9F0410E460546114630461446FFF799
:1094D000D3FF071E54D04DDB4FF0000871682846BB
:1094E000FFF7C0FD37692369C0F80C80143604F11A
:1094F000140202EB830C00F1140506EB870E002327
:1095000056F8048B52F8044B13FA88F3A1B2240CDA
:10951000591AC4EB184303EB214389B241EA0341D2
:10952000944545F8041B4FEA23433446E8D8B64532
:10953000AC4615D954F8042B13FA82F1130C03EB43
:10954000214389B241EA0341A64545F8041B4FEA8D
:109550002343EFD8F643764426F0030504356544EB
:10956000043D21B955F8043D013F002BFAD00761B5
:10957000BDE8F08133464FF0010826461C46ADE7B2
:1095800028463946FFF76EFD012347610361BDE8B8
:10959000F08100BF2DE9F04182B001211C46C3F3E8
:1095A0000A571546089EFFF75DFDC4F31304804675
:1095B0000FB144F4801401941DB302A840F8085D73
:1095C000FFF7E2FD002834D19DE80C00C8F8142014
:1095D000002B14BF02240124C8F81830C8F810402A
:1095E000DFB908EB8403A0F2324030601869FFF75E
:1095F000ABFD099BC0EB44101860404602B0BDE8CB
:10960000F08101A8FFF7C0FD0124019BC8F81430C8
:109610002030C8F81040002FE3D0099BA7F2334751
:109620000744C0F1350037601860404602B0BDE81D
:10963000F0819DE80C00C0F1200103FA01F10A431A
:10964000C3400193C8F81420C2E700BF10B431F042
:10965000004408D0114BA1F580129A4208D804208A
:109660005DF8044B704718B902205DF8044B704751
:1096700001F1FF41094B01F5E0019942EFD9B4F541
:10968000801F01D20320EBE7054B9C4201D0002054
:10969000E6E7B0FA80F04009E2E700BFFFFFDF7FB6
:1096A0000000F07F2DE9F04F9368D2F8008083B07E
:1096B0009146002B72D007464FF0000B08688B686C
:1096C0000D465C46002C45D09C421E469A4648D327
:1096D000AB8913F4906F2DD06E69296906EB4606AD
:1096E000C1EB000A06EBD676601C76105044864229
:1096F00032463CBF064632465B0535D511463846F4
:10970000FCF7F8F8002839D0524629690190FCF797
:109710007FFBAA89019B22F4906242F08002AA8119
:10972000CAEB060203EB0A006E612B612860AA6097
:109730002646A24652465946FCF704FCD9F80820B2
:10974000AB6828689B1B5044141BAB602860C9F8A9
:1097500008401CB3D8F800B0D8F8044008F1080855
:10976000B0E72646A246E5E73846FCF7A9FC0346E3
:109770000028D5D138462969FDF722F90C233B6032
:10978000AB89002243F040034FF0FF30AB81C9F8B2
:109790000820C9F8042003B0BDE8F08F0020C9F804
:1097A000040003B0BDE8F08F10B502FB01F1FCF737
:1097B000A1F8044668B150F8042C22F00302043AE0
:1097C000242A18D8132A06D8034600221A605A60A1
:1097D0009A60204610BD00231B2A036043600FD906
:1097E000242A8360C36005BF0361436100F1100355
:1097F00000F11803E9E70021FCF708FC204610BD42
:1098000000F10803E1E700BF81F0004102E000BF82
:1098100083F0004330B54FEA41044FEA430594EA30
:10982000050F08BF90EA020F1FBF54EA000C55EA6B
:10983000020C7FEA645C7FEA655C00F0E2804FEA3C
:109840005454D4EB5555B8BF6D420CDD2C4480EA1E
:10985000020281EA030382EA000083EA010180EA4E
:10986000020281EA0303362D88BF30BD11F0004F9C
:109870004FEA01314FF4801C4CEA113102D04042D2
:1098800061EB410113F0004F4FEA03334CEA13330D
:1098900002D0524263EB430394EA050F00F0A78025
:1098A000A4F10104D5F1200E0DDB02FA0EFC22FA20
:1098B00005F2801841F1000103FA0EF2801843FA14
:1098C00005F359410EE0A5F120050EF1200E012A05
:1098D00003FA0EFC28BF4CF0020C43FA05F3C01843
:1098E00051EBE37101F0004507D54FF0000EDCF1BC
:1098F000000C7EEB00006EEB0101B1F5801F1BD365
:10990000B1F5001F0CD349085FEA30004FEA3C0C68
:1099100004F101044FEA445212F5800F80F09A805E
:10992000BCF1004F08BF5FEA500C50F1000041EB62
:10993000045141EA050130BD5FEA4C0C404141EB66
:10994000010111F4801FA4F10104E9D191F0000F8D
:1099500004BF01460020B1FA81F308BF2033A3F110
:109960000B03B3F120020CDA0C3208DD02F1140C07
:10997000C2F10C0201FA0CF021FA02F10CE002F142
:109980001402D8BFC2F1200C01FA02F120FA0CFC3B
:10999000DCBF41EA0C019040E41AA2BF01EB045184
:1099A000294330BD6FEA04041F3C1CDA0C340EDC82
:1099B00004F11404C4F1200220FA04F001FA02F3C5
:1099C00040EA030021FA04F345EA030130BDC4F183
:1099D0000C04C4F1200220FA02F001FA04F340EA78
:1099E0000300294630BD21FA04F0294630BD94F029
:1099F000000F83F4801306BF81F480110134013D10
:109A00004EE77FEA645C18BF7FEA655C29D094EA80
:109A1000050F08BF90EA020F05D054EA000C04BFFE
:109A20001946104630BD91EA030F1EBF00210020E9
:109A300030BD5FEA545C05D14000494128BF41F088
:109A4000004130BD14F580043CBF01F5801130BDEC
:109A500001F0004545F0FE4141F470014FF0000077
:109A600030BD7FEA645C1ABF194610467FEA655C28
:109A70001CBF0B46024650EA013406BF52EA0335CA
:109A800091EA030F41F4002130BD00BF90F0000FB8
:109A900004BF0021704730B54FF4806404F13204F4
:109AA0004FF000054FF0000150E700BF90F0000FAD
:109AB00004BF0021704730B54FF4806404F13204D4
:109AC00010F0004548BF40424FF000013EE700BFA4
:109AD00042004FEAE2014FEA31014FEA02701FBF34
