:020000042000DA
:10400000DC4F0120854E0020DD4E0020E54E0020D3
:10401000F54E0020ED4E0020F54E0020000000007F
:10402000000000000000000000000000B54F00206C
:10403000F54E002000000000B1500020F550002097
:10404000F54E0020F54E0020F54E0020F54E0020E4
:1040500000000000F54E0020F54E0020000000009A
:10406000F54E0020000000000000000000000000ED
:104070000000000000000000F54E0020F54E00207A
:10408000F54E0020F54E0020F54E0020F54E0020A4
:10409000F54E0020F54E0020F54E0020F54E002094
:1040A000F54E0020000000000000000000000000AD
:1040B00000000000F54E002000000000000000009D
:1040C000000000000000000000000000F54E00208D
:1040D000F54E00200000000000000000000000007D
:1040E00000000000000000000000000000000000D0
:1040F0000000000000000000F54E0020F54E0020FA
:1041000000000000000000000000000000000000AF
:10411000000000000000000000000000000000009F
:10412000000000000000000000000000000000008F
:10413000000000000000000000000000000000007F
:10414000000000000000000000000000000000006F
:10415000000000000000000000000000000000005F
:10416000000000000000000000000000000000004F
:10417000000000000000000000000000000000003F
:10418000000000000000000000000000000000002F
:10419000000000000000000000000000000000001F
:1041A000000000000000000000000000000000000F
:1041B00000000000000000000000000000000000FF
:1041C00000000000000000000000000000000000EF
:1041D00000000000000000000000000000000000DF
:1041E00000000000000000000000000000000000CF
:1041F00000000000000000000000000000000000BF
:1042000000000000000000000000000000000000AE
:10421000000000000000000000000000000000009E
:10422000000000000000000000000000000000008E
:10423000000000000000000000000000000000007E
:10424000000000000000000000000000000000006E
:10425000000000000000000000000000000000005E
:10426000000000000000000000000000000000004E
:10427000000000000000000000000000000000003E
:10428000000000000000000000000000000000002E
:10429000F54E00200000000000000000F54E002058
:1042A00000000000F54E00200000000000000000AB
:1042B000000000000000000000000000F54E00209B
:1042C00000000000F54E002000000000F54E002028
:1042D00000000000000000000000000000000000DE
:1042E000000000000000000000000000F54E00206B
:1042F000F54E00200000000000000000F54E0020F8
:10430000F54E0020F54E00200000000000000000E7
:10431000000000000000000000000000000000009D
:10432000000000000000000000000000000000008D
:10433000000000000000000000000000000000007D
:10434000000000000000000000000000000000006D
:10435000000000000000000000000000000000005D
:10436000000000000000000000000000000000004D
:10437000000000000000000000000000000000003D
:10438000000000000000000000000000000000002D
:10439000000000000000000000000000000000001D
:1043A000000000000000000000000000000000000D
:1043B00000000000000000000000000000000000FD
:1043C00000000000000000000000000000000000ED
:1043D00000000000000000000000000000000000DD
:1043E00000000000000000000000000000000000CD
:1043F00000000000000000000000000000000000BD
:1044000080B400AFFEE700BF80B483B000AF786037
:104410003960FEE7B0B588B004AF78607B68002BE8
:1044200000D197E07B681B68012B02D0022B32D0B1
:1044300089E04A4B1B6843F00203484A13607B68DB
:104440009A1D7B685B79464811461A4609F092FF2F
:10445000444A7B684733196811609B889380414BBD
:104460001B781D463F4B5B781C463E4B9B7818469D
:104470003C4BDB7819463B4B1B791A46394B5B7931
:104480000090019102920393374835492A4623460A
:1044900002F0D8FF5EE00023FB60304B1B6823F086
:1044A00002032E4A13602D4B1B6823F008032B4A8E
:1044B00013607B680433FB60FB6893F84930C82BBA
:1044C0001BD1284B1B781D46264B5B781C46254B81
:1044D0009B781846234BDB781946224B1B791A46EA
:1044E000204B5B7900900191029203931F481C4975
:1044F0002A46234602F0A6FF1AE01A4B1B781D46F7
:10450000184B5B781C46174B9B781846154BDB788D
:104510001946144B1B791A46124B5B790090019196
:104520000292039312480E492A46234602F08AFF5C
:104530000B48002121220AF01BF80A48002106221C
:104540000AF016F806E07B681B680A48194602F074
:1045500079FF00BF1037BD46B0BD00BFD03F01207E
:10456000F0510120E8510120302901208829012043
:10457000F0290120502A0120F0B58BB006AF7860F9
:104580007B68002B00D142E07B681B68012B37D190
:104590000023FB601F4B1B6843F008031D4A136098
:1045A0007B680433FB60FB685B681B4A13607B68B5
:1045B0005B684FEA136E7B685B681B0CDEB27B683E
:1045C0005B681B0ADDB27B685B68DCB27B689B685A
:1045D000180E7B689B681B0CD9B27B689B681B0A12
:1045E000DAB27B689B68DBB200940190029103927F
:1045F00004930A48714632462B4602F023FF06E038
:104600007B681B680648194602F01CFF00BF143780
:10461000BD46F0BDD03F0120D43F0120782A0120C3
:10462000BC2A012080B483B000AF786039600C37B9
:10463000BD465DF8047B704780B582B000AF7860FE
:104640007B68002B00D123E07B681B68012B19D10C
:104650007B689B881BB213F10F0F07D17B68DB8847
:104660000D48194602F0EEFE00BF11E07B68DB88C2
:104670001A467B689B881BB2084811461A4602F00E
:10468000E1FE05E07B681B680548194602F0DAFE8A
:104690000837BD4680BD00BF102B0120642B0120D0
:1046A0009C2B012080B500AF084B00221A60084BFC
:1046B00000221A6007480021212209F059FF06480C
:1046C0000021062209F054FF80BD00BFD03F012029
:1046D000D43F0120F0510120E85101202DE9F0479D
:1046E0009EB00AAF07F11C0300221A6004330022B7
:1046F0001A60043300221A60043300221A60043363
:1047000000221A60043300221A60043300221A6067
:10471000043300221A60043300221A60043300229A
:104720001A60043300221A60043307F108030022E0
:104730001A60043300221A60043300221A60043322
:1047400000221A60043300221A6004330123FB7133
:104750000023BB7100237B7100233B714FF0FF33BB
:10476000FB644FF0FF33BB6400200021002203F004
:104770001FFE0346BB64BB6C002B08DAB048B96C63
:104780004FF4ED72AF4B02F05DFEBB6C52E1BB6CBF
:10479000002B43D0BB6C022B06D100BFAA4B1B6879
:1047A00003F00803002BF9D0002007F00FFC0346AC
:1047B000FB64FB6C002B08DAA148F96C40F2ED12A7
:1047C000A04B02F03FFEFB6C34E1FF2003F04EFFF4
:1047D0000346FB64FB6C002B08DA9948F96C4FF434
:1047E000F872984B02F02EFEFB6C23E100200021B2
:1047F000002203F0DDFD0346FB64FB6C002B08DAAE
:104800008F48F96C40F2F3128E4B02F01BFEFB6CEA
:1048100010E1FB6C002B01D08C4B0BE10C23BB7126
:104820002C237B71B91D7A1D07F11C03012003F0B5
:10483000B9FFF864FB6C002B08DA8148F96C40F290
:104840000222804B02F0FEFDFB6CF3E080488149C0
:1048500002F0F8FDD7F834E0BE6BFD6B3C6C386AB3
:10486000796ABA6AFB6A97F830C0E24697F831C0B5
:10487000E14697F832C0E04697F833C000940190C3
:10488000029103920493CDF814A0CDF81890CDF8BE
:104890001C80CDF820C07048714632462B4602F08D
:1048A000D1FD102011210022002307F011FB034647
:1048B000FB64FB6C002B08DA6148F96C4FF404725E
:1048C000604B02F0BFFDFB6CB4E0FF2007F032FB51
:1048D0000346FB64FB6C002B08DA5948F96C4FF473
:1048E0000572584B02F0AEFDFB6CA3E007F0E6FA50
:1048F0000346FB64FB6C002B06D100BF524B1B68C8
:1049000003F00203002BF9D1FB1D04200121012239
:1049100006F07AFDF864FB6C002B08DA4848F96C65
:104920004FF40B72474B02F08DFDFB6C82E00023CD
:10493000BB71BB79202019460022002307F0C8FA7A
:104940000346FB64FB6C002B08DA3D48F96C40F22F
:1049500031223C4B02F076FDFB6C6BE000233B7197
:104960003B1D01200A21012207F04EFB0346FB6498
:10497000FB6C002B08DA3248F96C4FF40E72314BA5
:1049800002F060FDFB6C55E0302000210022002386
:1049900007F09EFA0346FB64FB6C002B08DA2848FC
:1049A000F96C4FF40F72274B02F04CFDFB6C41E0A9
:1049B0000020002106F0B0FA0346FB64FB6C002BDC
:1049C00008DA1F48F96C4FF410721E4B02F03AFDE2
:1049D000FB6C2FE007F108031846FF21082209F0BD
:1049E000C7FD07F1080301201946142207F0C0FA99
:1049F0000346FB64FB6C002B08DA1148F96C40F2AB
:104A00004622104B02F01EFDFB6C13E0C82003F0A1
:104A10002DFE0346FB64FB6C002B08DA0848F96C9A
:104A200040F24922074B02F00DFDFB6C02E0FFF75C
:104A300039FEFB6C18465037BD46BDE8F08700BF15
:104A4000C82B0120E42D0120D03F01202EF8FFFFCC
:104A5000F82B0120142C01201C2C012090B587B0CC
:104A600002AF4FF0FF33FB601E4B7B6009233B72AC
:104A700002233B703C46002300931B480321002285
:104A8000234607F0D1F80346FB60FB68002B08DAE9
:104A90001648F96840F26B22154B02F0D3FCFB6814
:104AA0001CE00BE0032002F0E7FB124808F0B6FE22
:104AB000032002F06DFB0F4808F0B0FE0E4B1B68A0
:104AC00003F00203002BEDD00B4B1B6803F008032F
:104AD000002BE7D0032002F05BFB002318461437BD
:104AE000BD4690BD542C0120602C0120C82B012014
:104AF000082E012000350C00D03F012090B5CDB02C
:104B000000AF3B1D18600023A7F82E314FF0FF3394
:104B1000C7F82831FFF7C6FDFFF7E0FDC7F8280109
:104B2000D7F82831002B08DAD7F82831864A934283
:104B300002D1864802F086FCFEE7854802F082FC3E
:104B400000200021002203F033FC0346C7F828317F
:104B5000D7F82831002B03DBD7F82831002B03D0FE
:104B60007C4802F06FFCFEE77B4802F06BFCFFF72D
:104B700075FFC7F82801D7F82831002B03DA7748EA
:104B800002F060FCFEE741F26743C7F808310223F8
:104B9000C7F80C310023C7F810310123C7F81431CE
:104BA0006F4BC7F8183107F58273042001212422C6
:104BB00002F096FCC7F82801D7F82831002B03DA59
:104BC000664802F03FFCFEE707F1E003184665493E
:104BD000112209F0CFFB112387F8003197F800214B
:104BE00007F1E0030420022102F07AFCC7F8280153
:104BF000D7F82831002B03DA5B4802F023FCFEE7EC
:104C000007F1BC03184659490A2209F0B3FB0A23ED
:104C100087F8DC3097F8DC2007F1BC03042003217F
:104C200002F05EFCC7F82801D7F82831002B03DA20
:104C30004F4802F007FCFEE707F1980318464D497C
:104C4000092209F097FB092387F8B83097F8B820B4
:104C500007F198030420042102F042FCC7F8280160
:104C6000D7F82831002B03DA434802F0EBFBFEE7CC
:104C700007F1740318464149042209F07BFB042321
:104C800087F8943097F8942007F1740304200521E5
:104C900002F026FCC7F82801D7F82831002B03DAE8
:104CA000374802F0CFFBFEE703E042F2107008F055
:104CB000B5FD02F0B7FC0346002BF6DB07F140021E
:104CC00007F10C03104632211A46322302F0BEFED1
:104CD0000346A7F82E3110E042F2107008F09EFD56
:104CE00007F1400207F10C03104632211A46322325
:104CF00002F0ACFE0346A7F82E31B7F92E31002B97
:104D0000EADB0A2002F044FA1E4808F087FD0A2078
:104D100002F0B2FA07F14003184609F08BFE034691
:104D20009CB207F10C03184609F084FE03469BB2BF
:104D300007F1400107F10C020846214602F004FE8B
:104D40000346A7F82E31C6E72EF8FFFF642C01209A
:104D50009C2C0120C82C0120E82C0120082D0120CA
:104D60007DA7E940242D0120382D0120582D012058
:104D7000642D0120882D0120942D0120B02D0120CB
:104D8000B82D012000350C0080B500AF054B18464A
:104D900007F072FD07F068FD0F2007F0D9FD08F05D
:104DA00081F880BD0040002080B584B002AF4FF094
:104DB000FF337B60FFF7E8FF00F03CF802F012FBE6
:104DC000072002F0B3F90C2002F056FA092000F097
:104DD00049FB03467B607B68002B07DA1148796842
:104DE00040F26F32104B02F02DFBFEE701230093DF
:104DF000002301930D480E4940F6B832002300F01D
:104E00007BFA03467B607B68002B07DA05487968EC
:104E100040F27732044B02F015FBFEE700F0D4FBC2
:104E2000FEE700BFC82B0120142E0120FD4A002000
:104E3000D82D012080B500AF0720012107F024FF05
:104E40003F200021002207F0E5FE0D48022101224B
:104E500007F0CCFC00200021002207F0DBFE084810
:104E60000421012207F0C2FC01200021002207F0EA
:104E7000D1FE03480821012207F0B8FC80BD00BF25
:104E80000050004080B582B000AF0F4B7B600F4BED
:104E90003B6007E03B681A1D3A607A68111D796033
:104EA00012681A603B680A4A9342F3D309480A49D8
:104EB0004FF000028842B8BF40F8042BFADBFFF73E
:104EC00073FF0837BD4680BD3837012038370120D1
:104ED000D03F0120D03F0120F460012080B400AF1A
:104EE000FEE700BF80B400AFFEE700BF80B400AFB4
:104EF000FEE700BF80B400AFFEE700BF80B485B01E
:104F000000AF78600F4B1B68002B02D10D4B0E4A8F
:104F10001A600C4B1B68FB600A4B1A687B681344D1
:104F20000A4A934201D9002306E0064B1A687B68BF
:104F30001344044A1360FB6818461437BD465DF8F5
:104F4000047B7047D83F0120F4600120F860022004
:104F500080B485B000AFF860B9607A60FB68043B4C
:104F6000FB60FB684FF080721A60FB68043BFB60DB
:104F7000BA68FB681A60FB68043BFB60094AFB687F
:104F80001A60FB68143BFB607A68FB681A60FB6878
:104F9000203BFB60FB6818461437BD465DF8047B78
:104FA000704700BFA94F002080B500AF00F072F835
:104FB000FEE700BF074B19680868B0E8F00F80F300
:104FC0000988BFF36F8F4FF0000080F311884EF017
:104FD0000D0E7047E84F012005480068006880F317
:104FE000088862B6BFF34F8FBFF36F8F00DF00BF3B
:104FF00008ED00E080B500AF0B4A0B4B1B6843F493
:1050000060031360084A084B1B6843F06043136059
:1050100000F084F8054B00221A60FFF7DDFFFFF770
:10502000C3FF0023184680BD20ED00E03837012083
:1050300080B400AF054B4FF080521A60BFF34F8F22
:10504000BFF36F8FBD465DF8047B704704ED00E051
:1050500080B500AF00F01EF8044B1B680133034A13
:105060001360BFF34F8FBFF36F8F80BD38370120C0
:1050700080B500AF064B1B68013B054A1360044B2B
:105080001B68002B02D1002000F00EF880BD00BF8D
:1050900038370120EFF311804FF0200181F31188A0
:1050A00070470023184600BF80F31188704700BF87
:1050B000EFF30980BFF36F8F0D4B1A6820E9F00FF3
:1050C00010602DE908404FF0200080F3118801F0B6
:1050D000E5F84FF0000080F31188BDE8084019683A
:1050E0000868B0E8F00F80F30988BFF36F8F70474E
:1050F000E84F012080B500AFFFF7CCFF01F01EF8AC
:105100000346002B03D0044B4FF080521A6000205E
:10511000FFF7CAFF80BD00BF04ED00E080B400AF20
:10512000044B054A1A60054B07221A60BD465DF81C
:10513000047B704714E000E07F38010010E000E0DD
:1051400080B584B000AFF860B9601346FB71FB68AE
:105150001846B96807F09EFBFA68FB7910461946B5
:1051600007F0C4FBFB68184607F0F2FB00235BB2B4
:1051700018461037BD4680BD80B582B000AF78605C
:105180007B68184607F042FC7B68184607F098FBDE
:105190000837BD4680BD00BF80B584B000AF7860E1
:1051A0007B68002B01D1FC2310E07B68FB600120B1
:1051B0000021032200F060FA0246FB681A607B6857
:1051C0001B68002B01D0002300E0FE235BB21846D1
:1051D0001037BD4680BD00BF80B582B000AF78609B
:1051E0007B68002B01D1FC2305E07B681B68184617
:1051F00000F068FC00235BB218460837BD4680BD4E
:1052000080B582B000AF78607B68002B01D1FC23B1
:105210000DE07B681B68184600210022002300F087
:10522000A9FA0346012B01D0002300E000235BB262
:1052300018460837BD4680BD80B582B000AF7860A3
:105240007B68002B01D1FC2316E00E4B00221A6074
:105250007B681B68184600210A4A002300F024FBE3
:105260000346012B07D1074B1B68002B01D0FFF72A
:10527000DFFE002300E000235BB218460837BD467E
:1052800080BD00BFDC4F012080B582B000AF7860E8
:1052900039607B68002B01D1FC230DE07B681B6823
:1052A000184600213A68002300F054FB0346012B06
:1052B00001D1002300E0FE235BB218460837BD464B
:1052C00080BD00BF80B582B000AF78607B68002BE6
:1052D00001D1FC230BE0012000F00AFA02467B68B2
:1052E0001A607B68002B01D0002300E0FE235BB234
:1052F00018460837BD4680BD80B588B004AFF86059
:10530000B9603B601346FB80FB889B089AB2BB697F
:105310000093FB6901930023029300230393F86831
:10532000B9683B6800F09CFD0346012B01D10023C6
:1053300000E0FE235BB218461037BD4680BD00BFBB
:1053400080B582B000AF78607B681B68184600F0BB
:10535000B9FB00235BB218460837BD4680BD00BFCD
:1053600080B582B000AF786039607B68002B01D1D6
:10537000FC230DE07B681B68184600213A68002377
:1053800000F0E8FA0346012B01D1002300E0FE23E0
:105390005BB218460837BD4680BD00BF80B582B0FD
:1053A00000AF78607B68002B01D1FC230DE07B68A7
:1053B0001B68184600210022002300F0DBF9034699
:1053C000012B01D1002300E0FE235BB21846083711
:1053D000BD4680BD80B586B000AFF860B9607A6028
:1053E000FB683B61BB687B610E4B00221A600E4B71
:1053F0001A6807F11003104619460A4A002300F004
:1054000053FA0346012B07D1064B1B68002B01D032
:10541000FFF70EFE002300E0FE235BB218461837AC
:10542000BD4680BDDC4F0120E04F012080B586B035
:1054300000AF786000237B61094B1A6807F10C0309
:10544000104619464FF0FF32002300F083FA7861CE
:105450007B69012B03D1FB683A6910469847EBE75B
:10546000E04F012080B586B004AF786003200821AA
:10547000002200F001F90246104B1A600F4B1B6826
:10548000002B01D1FE2314E07B6800930C4B0193A9
:1054900000230293002303930A480B494FF4007240
:1054A000002300F0DDFC0346012B01D1002300E0C6
:1054B000FE235BB218460837BD4680BDE04F012091
:1054C000E44F01202D5400201C2E012080B586B011
:1054D00000AFF860B9607A603B60FB68002B01D1D7
:1054E000FC2310E000237B6138687968002200F01B
:1054F000C3F878617B69002B01D1FE2303E0FB68D0
:105500007A691A6000235BB218461837BD4680BD21
:1055100080B582B000AF78607B68002B01D1FC239E
:1055200005E07B681B68184600F0CCFA00235BB2EC
:1055300018460837BD4680BD80B584B000AFF8601E
:10554000B9607A60FB68002B01D1FC230FE0FB6897
:105550001B681846B968084A002300F0A5F90346FD
:10556000012B03D1FFF764FD002300E0FE235BB2B3
:1055700018461037BD4680BDDC4F012080B584B091
:1055800000AFF860B9607A60FB68002B01D1FC23A2
:1055900014E07B68B3F1FF3F02D14FF0FF337B6033
:1055A000FB681B681846B9687A68002300F0D2F9D6
:1055B0000346012B01D1002300E0FE235BB2184615
:1055C0001037BD4680BD00BF80B500AF00F0E4FCE1
:1055D00080BD00BF80B584B000AF786039607B6863
:1055E000FB60FFF735FDFB681A68FB68DB6BF96849
:1055F000096C01FB03F31A44FB685A60FB68002244
:105600009A63FB681A68FB689A60FB681A68FB6813
:10561000DB6B013BF968096C01FB03F31A44FB687F
:10562000DA60FB684FF0FF325A64FB684FF0FF32DC
:105630009A643B68002B0ED1FB681B69002B14D0C9
:10564000FB681033184600F005FF0346012B0CD110
:10565000FFF7EEFC09E0FB681033184601F0B4FCDC
:10566000FB682433184601F0AFFCFFF701FD01236E
:1056700018461037BD4680BD80B588B000AFF860D1
:10568000B9601346FB710023FB61FB68002B29D036
:10569000502001F06FFCB861BB69002B22D0FB6881
:1056A000BA6802FB03F301337B61786901F062FCA5
:1056B0000246BB691A60BB691B68002B0FD0BB692F
:1056C000FA68DA63BB69BA681A64B8690121FFF73E
:1056D00081FFBB690022DA64BB69FB6102E0B86943
:1056E00001F060FCFB6918462037BD4680BD00BF55
:1056F00080B584B000AF0346FB71502001F03AFC46
:10570000F860FB68002B2FD0FB6800225A60FB6812
:1057100000221A60FB6800229A60FB680022DA60AF
:10572000FB6800229A63FB680122DA63FB680022AF
:105730001A64FB684FF0FF325A64FB684FF0FF3287
:105740009A64FB680022DA64FB681033184601F0A3
:105750003BFCFB682433184601F036FCF868002156
:105760000022002300F006F8FB6818461037BD46FB
:1057700080BD00BF80B588B000AFF860B9607A60C6
:105780003B600023FB61FB68BB61FFF761FCBB6909
:105790009A6BBB69DB6B9A4202D33B68022B24D124
:1057A000B869B9683A6800F0A5F9BB69DB6C002BF1
:1057B00009D0B869396800F029FB0346012B10D1E4
:1057C000FFF736FC0DE0BB695B6A002B09D0BB69B3
:1057D0002433184600F03EFE0346012B01D1FFF7AB
:1057E00027FCFFF745FC012359E07B68002B03D120
:1057F000FFF73EFC002352E0FB69002B06D107F1C6
:105800001003184600F07CFE0123FB61FFF730FC1B
:1058100000F0F4FBFFF71CFCBB695B6CB3F1FF3FCE
:1058200002D1BB6900225A64BB699B6CB3F1FF3F94
:1058300002D1BB6900229A64FFF71AFC07F110023B
:105840003B1D1046194600F071FE0346002B1ED189
:10585000B86900F04DFA0346002B12D0BB6903F182
:1058600010027B681046194600F082FDB86900F00E
:10587000CFF900F0D1FB0346002B0FD1FFF7D8FB87
:105880000CE0B86900F0C4F900F0C6FB7DE7B86928
:1058900000F0BEF900F0C0FB002300E075E71846F9
:1058A0002037BD4680BD00BF80B588B000AFF8602E
:1058B000B9607A603B60FB68BB61FFF7EBFB786126
:1058C000BB699A6BBB69DB6B9A4202D33B68022BC4
:1058D00036D1B869B9683A6800F00CF9BB699B6CBD
:1058E000B3F1FF3F24D1BB69DB6C002B0DD0B8694D
:1058F000396800F08BFA0346012B1ED17B68002B20
:105900001BD07B6801221A6017E0BB695B6A002B21
:1059100013D0BB692433184600F09CFD0346002BCE
:105920000BD07B68002B08D07B6801221A6004E052
:10593000BB699B6C5A1CBB699A640123FB6101E043
:105940000023FB617869FFF7AFFBFB69184620373E
:10595000BD4680BD80B58AB000AFF860B9607A609E
:105960003B6000237B62FB683B62FFF771FB3B6A95
:105970009B6B002B3BD03B6ADB68FB61386AB968E4
:1059800000F020F93B68002B1CD13B6A9B6B5A1E30
:105990003B6A9A633B6A1B68002B04D100F07AFFD4
:1059A00002463B6A5A603B6A1B69002B1BD03B6A6C
:1059B0001033184600F04EFD0346012B13D1FFF7BC
:1059C00037FB10E03B6AFA69DA603B6A5B6A002BDE
:1059D00009D03B6A2433184600F03CFD0346002BF7
:1059E00001D0FFF725FBFFF743FB012366E07B684F
:1059F000002B03D1FFF73CFB00235FE07B6A002B09
:105A000006D107F11403184600F07AFD01237B62EA
:105A1000FFF72EFB00F0F2FAFFF71AFB3B6A5B6C14
:105A2000B3F1FF3F02D13B6A00225A643B6A9B6C90
:105A3000B3F1FF3F02D13B6A00229A64FFF718FBE3
:105A400007F114023B1D1046194600F06FFD034696
:105A5000002B2BD1386A00F035F90346002B1FD0FC
:105A60003B6A1B68002B08D1FFF7F2FA3B6A5B68C0
:105A7000184600F03DFFFFF7FBFA3B6A03F12402F2
:105A80007B681046194600F073FC386A00F0C0F8D5
:105A900000F0C2FA0346002B0FD1FFF7C9FA0CE061
:105AA000386A00F0B5F800F0B7FA5EE7386A00F03F
:105AB000AFF800F0B1FA002300E056E718462837A7
:105AC000BD4680BD80B584B000AF78607B68FB6068
:105AD000F86800F04DF9FB681B68002B04D0FB68E8
:105AE0001B68184601F05EFAF86801F05BFA10379F
:105AF000BD4680BD80B584B000AFF860B9607A6003
:105B0000FB681B6C002B0CD1FB681B68002B51D170
:105B1000FB685B68184600F063FFFB6800225A6070
:105B200048E07B68002B1AD1FB689A68FB681B6C05
:105B30001046B9681A4608F01DFCFB689A68FB68B5
:105B40001B6C1A44FB689A60FB689A68FB685B6888
:105B50009A422FD3FB681A68FB689A602AE0FB68B8
:105B6000DA68FB681B6C1046B9681A4608F002FC3C
:105B7000FB68DA68FB681B6C5B421A44FB68DA60FE
:105B8000FB68DA68FB681B689A4207D2FB685A68B0
:105B9000FB681B6C5B421A44FB68DA607B68022B73
:105BA00008D1FB689B6B002B04D0FB689B6B5A1ED3
:105BB000FB689A63FB689B6B5A1CFB689A631037FF
:105BC000BD4680BD80B582B000AF786039607B682B
:105BD0001B68002B19D07B68DA687B681B6C1A4441
:105BE0007B68DA607B68DA687B685B689A4203D31B
:105BF0007B681A687B68DA607B68DA687B681B6C94
:105C0000386811461A4608F0B5FB0837BD4680BD16
:105C100080B582B000AF7860FFF71AFA22E07B68A7
:105C2000DB6C002B09D07868002100F0EFF8034608
:105C3000012B12D100F0BEFC0FE07B685B6A002BE9
:105C40000AD07B682433184600F004FC0346002B7E
:105C500003D000F0AFFC00E008E07B689B6C5A1EAC
:105C60007B689A647B689B6C002BD8DC7B684FF068
:105C7000FF329A64FFF7FCF9FFF7EAF914E07B685A
:105C80001B69002B0FD07B681033184600F0E2FB35
:105C90000346002B01D000F08DFC7B685B6C5A1E24
:105CA0007B685A6400E003E07B685B6C002BE6DCF9
:105CB0007B684FF0FF325A64FFF7DAF90837BD46C8
:105CC00080BD00BF80B584B000AF7860FFF7C0F939
:105CD0007B689B6B002B02D10123FB6001E000235A
:105CE000FB60FFF7C5F9FB6818461037BD4680BD5D
:105CF00080B584B000AF7860FFF7AAF97B689A6B33
:105D00007B68DB6B9A4202D10123FB6001E0002338
:105D1000FB60FFF7ADF9FB6818461037BD4680BD44
:105D200080B485B000AF786039600023FB6014E078
:105D30000E4AFB6852F83330002B0BD10B49FB683D
:105D40003A6841F83320094AFB68DB0013447A685B
:105D50005A6005E0FB680133FB60FB68092BE7D95B
:105D60001437BD465DF8047B704700BF1452012014
:105D700080B485B000AF78600023FB6010E00C4A6F
:105D8000FB68DB0013445A687B689A4205D1084AD5
:105D9000FB68002142F8331005E0FB680133FB602B
:105DA000FB68092BEBD91437BD465DF8047B7047BF
:105DB0001452012080B584B000AF786039607B68F0
:105DC000FB60FFF745F9FB685B6CB3F1FF3F02D165
:105DD000FB6800225A64FB689B6CB3F1FF3F02D161
:105DE000FB6800229A64FFF743F9FB689B6B002B6A
:105DF00005D1FB6824331846396800F0F9FAF868D1
:105E0000FFF706FF1037BD4680BD00BF80B584B0E8
:105E100000AF786039607B68DB6CBB600023FB609F
:105E2000BB689A6BBB68DB6B9A4213D23B1DB868A8
:105E300019463A68FFF75EFEBB685B6A002B09D023
:105E4000BB682433184600F005FB0346002B01D045
:105E50000123FB60FB6818461037BD4680BD00BFBC
:105E600080B58AB002AFF860B9603B601346FB8032
:105E7000FB881846396B00F0A7FCB861BB69002BA2
:105E800067D0BB691A6BFB8803F18043013B9B0021
:105E900013447B617B6923F007037B61FB880093DC
:105EA000B869B968BA6A7B6B00F098FB7869F968E1
:105EB0003A68FFF74DF80246BB691A60FB6A002B8F
:105EC00002D0FB6ABA691A60FFF7C2F82C4B1B6854
:105ED00001332B4A13602B4B1B68002B09D1294A35
:105EE000BB691360264B1B68012B0FD100F0BEFB72
:105EF0000CE0254B1B68002B08D1224B1B68DA6A8B
:105F0000BB6A9A4202D81F4ABB6913601F4B1B68C9
:105F100001331E4A1360BB69DB6A1A46012303FA88
:105F200002F21B4B1B681343194A1360BB69DA6A00
:105F300013469B0013449B00164A1A44BB69043362
:105F40001046194601F06CF80123FB61FFF790F849
:105F500002E04FF0FF33FB61FB69012B0BD10A4BD1
:105F60001B68002B07D0074B1B68DA6ABB6A9A4292
:105F700001D2FFF75DF8FB6918462037BD4680BDAA
:105F800028510120E84F01203451012044510120C3
:105F900030510120EC4F012080B586B004AF0023C2
:105FA0000093114B019300230293002303930F48A6
:105FB0000F4946220023FFF753FF78607B68012BCF
:105FC00002D100F069FD78607B68012B09D1FFF7F1
:105FD00061F8084B01221A60074B00221A60FFF794
:105FE00009F80837BD4680BD24510120CD65002049
:105FF000242E0120345101202C51012080B400AF07
:10600000044B1B680133034A1360BD465DF8047BF3
:10601000704700BF4851012080B582B000AF002317
:106020007B60FFF715F8344B1B68013B324A136065
:10603000314B1B68002B57D1304B1B68002B53D0C2
:1060400030E02F4BDB68DB683B603B681833184659
:1060500001F042F83B680433184601F03DF83B6814
:10606000DB6A1A46012303FA02F2264B1B6813432C
:10607000244A13603B68DA6A13469B0013449B0072
:10608000214A1A443B6804331046194600F0C8FF01
:106090003B68DA6A1D4B1B68DB6A9A4202D31C4BD1
:1060A00001221A60164B1B68002BCAD1194B1B68C2
:1060B000002B11D00CE000F041F80346002B02D079
:1060C000134B01221A60134B1B68013B114A1360EA
:1060D000104B1B68002BEED10D4B1B68012B03D11D
:1060E00001237B60FEF7A4FFFEF7C2FF7B68184622
:1060F0000837BD4680BD00BF48510120285101200E
:10610000E450012030510120EC4F0120E84F0120E4
:106110003C5101203851012080B582B000AFFEF71C
:1061200097FF054B1B687B60FEF7A2FF7B68184654
:106130000837BD4680BD00BF2C51012080B586B018
:1061400000AF00237B614A4B1B68002B7FD1494B7A
:106150001B680133474A1360464B1B683B613B6930
:10616000002B10D1444B1B68FB60444B1B68424A18
:106170001360424AFB681360414B1B680133404A7D
:10618000136000F063FB3F4B1B683A699A424FD3A0
:10619000394B1B681B68002B01D1012300E0002351
:1061A000002B04D0374B4FF0FF321A6040E0324BE7
:1061B0001B68DB68DB68BB60BB685B687B603A6957
:1061C0007B689A4203D22F4A7B68136030E0BB6839
:1061D0000433184600F080FFBB689B6A002B04D094
:1061E000BB681833184600F077FFBB68DB6A1A46B5
:1061F000012303FA02F2244B1B681343224A136063
:10620000BB68DA6A13469B0013449B001F4A1A447A
:10621000BB6804331046194600F002FFBB68DA6A17
:106220001B4B1B68DB6A9A4201D301237B61AFE7FA
:10623000174B1B68DA6A154913469B0013449B00F1
:106240000B441B68012B07D901237B6104E0114B30
:106250001B6801330F4A13600F4B1B68002B01D0E2
:1062600001237B617B6918461837BD4680BD00BF9E
:10627000485101202C510120DC500120E050012028
:10628000405101203C37012030510120EC4F0120CA
:10629000E84F0120385101203C51012080B584B0E5
:1062A00000AF2D4B1B68002B03D02C4B01221A6032
:1062B0004FE02A4B00221A60294B1B681A68284BB2
:1062C0001B681B6B9A4208D8254B1A68244B1B6825
:1062D000343310461946FEF797F8214B1B681B6BA9
:1062E00018462049142208F013F80346002B08D062
:1062F0001B4B1A681A4B1B68343310461946FEF7BD
:1063000083F8194B1B687B607B68B3FA83F3FB70DF
:10631000FB78C3F11F03FB60FA6813469B0013442C
:106320009B00124A1344BB60BB685B685A68BB6839
:106330005A60BB685A68BB6808339A4204D1BB688C
:106340005B685A68BB685A60BB685B68DB68044A74
:1063500013601037BD4680BD485101203C510120DB
:10636000E84F01202C2E012030510120EC4F01205C
:1063700080B584B000AF78603960194B1B68183362
:106380007868194600F070FE154B1B6804331846F8
:1063900000F0A2FE0346002B0BD1114B1B68DB6AF9
:1063A0001A4601239340DA430E4B1B6813400D4AF3
:1063B00013603B68B3F1FF3F07D1094B1B680433FF
:1063C0000948194600F02CFE07E0084B1A683B68A4
:1063D0001344FB60F86800F0C1F91037BD4680BD7A
:1063E000E84F012030510120105101202C51012093
:1063F00080B584B000AF78603960134B1B681833E8
:106400007868194600F00CFE0F4B1B6804331846E1
:1064100000F062FE0346002B0BD10B4B1B68DB6ABE
:106420001A4601239340DA43084B1B681340074A7E
:106430001360074B1A683B681344FB60F86800F070
:106440008DF91037BD4680BDE84F01203051012045
:106450002C51012080B584B000AF78607B68DB6888
:10646000DB68BB60BB681833184600F035FE1E4B76
:106470001B68002B1ED1BB680433184600F02CFEAD
:10648000BB68DB6A1A46012303FA02F2174B1B684A
:106490001343164A1360BB68DA6A13469B00134421
:1064A0009B00134A1A44BB6804331046194600F097
:1064B000B7FD05E0BB6818330E48194600F0B0FD83
:1064C000BB68DA6A0C4B1B68DB6A9A4205D9012368
:1064D000FB600A4B01221A6001E00023FB60FB68AD
:1064E00018461037BD4680BD48510120305101206B
:1064F000EC4F0120E4500120E84F01203C510120E5
:1065000080B483B000AF7860064B1A687B681A606D
:10651000054B1A687B685A600C37BD465DF8047BF2
:10652000704700BF405101202C51012080B584B03C
:1065300000AF78603960FEF78BFD1C4B1B68BB60B9
:106540003B681B68B3F1FF3F02D10023FB6026E0EC
:106550007B681A68164B1B689A4207D07B685A689A
:10656000BB689A4202D80123FB6018E07B685B6835
:10657000BA68D21A3B681B689A420ED23B681A6806
:106580007B685968BB68CB1A1A443B681A60786804
:10659000FFF7B6FF0023FB6001E00123FB60FEF77D
:1065A00067FDFB6818461037BD4680BD2C510120A1
:1065B0004051012080B400AF034B01221A60BD4658
:1065C0005DF8047B704700BF3C51012080B582B06C
:1065D00000AF786000F088F8FCE700BF80B586B0B7
:1065E00000AFF860B9607A603B6000237B6113E024
:1065F000BA687B6913441978FA687B6913443033AD
:106600000A461A71BA687B6913441B78002B00D1C3
:1066100005E07B6901337B617B690B2BE8D9FB6863
:10662000002283F83F207B68092B01D909237B6076
:10663000FB687A68DA62FB687A681A64FB6804337C
:10664000184600F0E1FCFB681833184600F0DCFC4B
:10665000FB68FA681A617B68C3F10A02FB689A61F9
:10666000FB68FA685A621837BD4680BD80B582B0B3
:1066700000AF00237B600CE07A6813469B00134454
:106680009B00114A1344184600F09EFC7B680133BE
:106690007B607B68092BEFD90C4800F095FC0C4817
:1066A00000F092FC0B4800F08FFC0B4800F08CFCD3
:1066B0000A4800F089FC0A4B044A1A60094B044A54
:1066C0001A600837BD4680BDEC4F0120B450012050
:1066D000C8500120E4500120F85001201051012041
:1066E000DC500120E050012080B582B000AF28E0EE
:1066F000FFF784FC164B1B68002B0CBF0123002303
:10670000DBB27B60FFF788FC7B68002B19D1FEF7BA
:106710009FFC0F4BDB68DB683B603B68043318462B
:1067200000F0DAFC0B4B1B68013B0A4A13600A4B72
:106730001B68013B084A1360FEF79AFC386800F0BA
:1067400075F8054B1B68002BD2D10837BD4680BDBC
:10675000F8500120285101200C51012080B582B051
:1067600000AF7860134B1B687A685A60124B1B6845
:106770007A689A4209D2114B1A680E4B1B6804338F
:106780001046194600F070FC10E00D4B1A68094BDA
:106790001B6804331046194600F066FC094B1B6861
:1067A0007A689A4202D2074A7B6813600837BD466E
:1067B00080BD00BFE84F01202C510120E050012096
:1067C000DC5001203C37012080B584B000AF034687
:1067D0003960FB80442000F0CDFBF860FB68002BA3
:1067E0001FD03B68002B06D1FB889B00184600F0A9
:1067F000C1FB034600E03B68FA681363FB681B6B50
:10680000002B05D1F86800F0CDFB0023FB6008E009
:10681000FB681A6BFB889B001046A5211A4607F0FF
:10682000A7FEFB6818461037BD4680BD80B582B014
:1068300000AF78607B681B6B184600F0B3FB78688C
:1068400000F0B0FB0837BD4680BD00BF80B483B008
:1068500000AF0E4B1B681B68002B01D1012300E029
:106860000023002B04D00A4B4FF0FF321A6008E0DF
:10687000064B1B68DB68DB687B607B685B68044AEF
:1068800013600C37BD465DF8047B7047DC50012077
:106890003C37012080B483B000AF054B1B687B60A0
:1068A0007B6818460C37BD465DF8047B704700BF17
:1068B000E84F012080B483B000AF0B4B1B68002B66
:1068C00002D101237B6008E0084B1B68002B02D13A
:1068D00002237B6001E000237B607B6818460C3755
:1068E000BD465DF8047B70473451012048510120BA
:1068F00080B584B000AF78607B68FB607B68002B5C
:1069000064D0FB68DA6A334B1B68DB6A9A425DD25B
:10691000FB689B69002B06DB2E4B1B68DB6AC3F10F
:106920000A02FB689A61FB685969FB68DA6A1346D8
:106930009B0013449B00284A1344994201D1012330
:1069400000E00023002B3CD0FB680433184600F025
:10695000C3FB0346002B15D1FB68DA6A1E491346B8
:106960009B0013449B000B441B68002B0AD1FB685F
:10697000DB6A1A4601239340DA43184B1B68134025
:10698000164A1360134B1B68DA6AFB68DA62FB680D
:10699000DB6A1A46012303FA02F2104B1B68134309
:1069A0000E4A1360FB68DA6A13469B0013449B008F
:1069B000094A1A44FB6804331046194600F030FBBC
:1069C00004E0044B1B68DA6AFB68DA621037BD46E4
:1069D00080BD00BFE84F0120EC4F01203051012065
:1069E00080B584B000AF78607B68FB607B68002B6B
:1069F0004AD0FB68DA6AFB681B6C9A4244D0FB6899
:106A00000433184600F068FB0346002B15D1FB68E1
:106A1000DA6A1F4913469B0013449B000B441B6812
:106A2000002B0AD1FB68DB6A1A4601239340DA4344
:106A3000184B1B681340174A1360FB681A6CFB68FD
:106A4000DA62FB689B69002B05DBFB68DB6AC3F13C
:106A50000A02FB689A61FB68DB6A1A46012303FAA3
:106A600002F20C4B1B6813430A4A1360FB68DA6A94
:106A700013469B0013449B00054A1A44FB680433E9
:106A80001046194600F0CCFA1037BD4680BD00BF55
:106A9000EC4F01203051012080B586B004AF0023B7
:106AA0007B6000F031FA0C4B1B68002B0ED00223E8
:106AB00000930023019300230293002303930748CC
:106AC00007498C220023FFF7CBF978607B681846D2
:106AD0000837BD4680BD00BF7C510120D56B00202A
:106AE000402E012080B588B000AFF860B9607A60B0
:106AF0003B600023FB611D4B1B68002B30D0BB6843
:106B00003B617B687B61FB68BB61BB68052B1CDC60
:106B1000FFF7D0FE0346022B0BD1144B1A6807F186
:106B2000100310461946BA6A0023FEF723FEF861E7
:106B300016E00E4B1A6807F11003104619460022A2
:106B40000023FEF717FEF8610AE0084B1A6807F108
:106B50001003104619463A680023FEF7A5FEF861B7
:106B6000FB6918462037BD4680BD00BF7C5101201F
:106B700080B586B002AF78603960154B1B68DB6862
:106B8000DB68FB60FB680433184600F0A5FAFB687D
:106B9000DB69012B15D1FB689A697B681344F8689F
:106BA00019463A687B6800F0A1F80346012B08D12A
:106BB00000230093F86800217A680023FFF792FF12
:106BC000B860FB685B6AF86898471037BD4680BDBF
:106BD0007451012080B584B000AF786007F10803DC
:106BE000184600F03FF8F860BB68F868194600F0F6
:106BF00003F800F0BDF8F1E780B584B000AF78602D
:106C00003960FFF7FBF907F10803184600F04EF86A
:106C1000F860BB68002B1ED13B68002B0AD17A6854
:106C2000FB689A4206D8FFF7F7F97868F968FFF72A
:106C30009FFF12E00A4B19687A68FB68D31A08466E
:106C40001946FFF7B7F8FFF7E7F90346002B04D121
:106C5000FEF7EEF901E0FFF7DFF91037BD4680BD22
:106C60007C51012080B485B000AF78600E4B1B686A
:106C70001B68002B0CBF01230023DBB21A467B6884
:106C80001A607B681B68002B05D1074B1B68DB680B
:106C90001B68FB6001E00023FB60FB6818461437AB
:106CA000BD465DF8047B70477451012080B584B007
:106CB00000AF7860FFF730FAF8600B4B1B68FA689A
:106CC0009A4205D200F0CEF87B6801221A6002E0F9
:106CD0007B6800221A60044AFB681360FB68184650
:106CE0001037BD4680BD00BF8051012080B586B001
:106CF00000AFF860B9607A603B6000237B61FB689D
:106D0000BA685A60FB68FA681A61BA687B689A4286
:106D100012D87A683B68D21AFB689B699A4202D300
:106D200001237B611BE0104B1A68FB68043310469B
:106D3000194600F099F912E07A683B689A4206D247
:106D4000BA683B689A4202D301237B6107E0074B94
:106D50001A68FB6804331046194600F085F97B6910
:106D600018461837BD4680BD785101207451012066
:106D700080B58AB002AF62E0BB68002B5FDB3B6985
:106D8000FB61FB695B69002B04D0FB690433184687
:106D900000F0A2F93B1D1846FFF788FFB861BB68F9
:106DA000092B4BD801A252F823F000BFD56D00206B
:106DB000D56D0020D56D00203F6E0020196E00209B
:106DC000356E0020D56D0020D56D00203F6E00206F
:106DD000196E0020FA68FB699B691A44FB68F86920
:106DE0001146BA69FFF782FF0346012B13D1FB69F5
:106DF0005B6AF8699847FB69DB69012B0BD1FA687C
:106E0000FB699B691A4400230093F8690021002361
:106E1000FFF768FE786112E0FA68FB699A61FB6926
:106E20009A69BB691344F8691946BA69BB69FFF7E7
:106E30005DFF04E0F86900F0B5F800E000BF084B22
:106E40001A6807F108031046194600220023FEF7CE
:106E500081FD0346002B8FD12037BD4680BD00BF8A
:106E60007C51012080B588B002AF37E0244B1B680D
:106E7000DB681B687B61224B1B68DB68DB683B615E
:106E80003B690433184600F027F93B695B6A3869AF
:106E900098473B69DB69012B20D13B699A697B6983
:106EA0001344FB60FA687B699A420ED93B69FA6821
:106EB0005A603B693A691A61114B1A683B6904339D
:106EC0001046194600F0D0F808E000230093386916
:106ED00000217A690023FFF705FEB860084B1B68A4
:106EE0001B68002BC2D1064B1B687B60054B1B68DF
:106EF000034A1360034A7B6813601837BD4680BDA0
:106F0000745101207851012080B500AFFEF7A0F840
:106F1000124B1B68002B1DD1114800F055F8114889
:106F200000F052F8104B0E4A1A60104B0D4A1A60CE
:106F300014200C210022FEF79FFB0246074B1A602B
:106F4000064B1B68002B05D0044B1B6818460849EC
:106F5000FEF7E6FEFEF78CF880BD00BF7C510120F5
:106F60004C510120605101207451012078510120C1
:106F7000482E012080B584B000AF7860FFF73EF85E
:106F8000786806F027FF0346FB60FFF745F8FB68CB
:106F9000002B01D1FDF734FAFB6818461037BD46C7
:106FA00080BD00BF80B582B000AF78607B68002BE9
:106FB00006D0FFF723F8786806F014FFFFF72CF8E7
:106FC0000837BD4680BD00BF80B483B000AF786095
:106FD0007B6803F108027B685A607B684FF0FF32E0
:106FE0009A607B6803F108027B68DA607B6803F1D2
:106FF00008027B681A617B6800221A600C37BD4664
:107000005DF8047B704700BF80B483B000AF786048
:107010007B6800221A610C37BD465DF8047B70471F
:1070200080B485B000AF786039607B685B68FB60D6
:107030003B68FA685A60FB689A683B689A60FB682C
:107040009B683A685A60FB683A689A603B687A685D
:107050001A617B681B685A1C7B681A601437BD462E
:107060005DF8047B704700BF80B485B000AF7860E6
:1070700039603B681B68BB60BB68B3F1FF3F03D15D
:107080007B681B69FB600CE07B680833FB6002E0F7
:10709000FB685B68FB60FB685B681A68BB689A42C8
:1070A000F6D9FB685A683B685A603B685B683A6887
:1070B0009A603B68FA689A60FB683A685A603B6875
:1070C0007A681A617B681B685A1C7B681A601437DF
:1070D000BD465DF8047B704780B485B000AF786032
:1070E0007B681B69FB607B685B687A6892689A6062
:1070F0007B689B687A6852685A60FB685A687B684C
:107100009A4203D17B689A68FB685A607B680022C8
:107110001A61FB681B685A1EFB681A60FB681B68D3
:1071200018461437BD465DF8047B704780B582B0C1
:1071300000AF0346FB71FB7903F00103002B04D081
:1071400009200D490D4A00F00BF9FB7903F0020309
:10715000002B04D00A200A490A4A00F001F9FB7901
:1071600003F00403002B04D00B200749074A00F06A
:10717000F7F80837BD4680BD8451012064520120D4
:1071800088510120655201208C5101206652012056
:1071900080B582B000AF0346FB71FB79013B0B2B3E
:1071A0005AD801A252F823F0EF7100200572002096
:1071B000057200200572002005720020D9710020A0
:1071C000D9710020EF71002005720020EF710020BE
:1071D000D97100201B720020214B1A68214B1B78AB
:1071E0000B2011461A46012300F0DEF835E01E4B55
:1071F0001A681E4B1B780A2011461A46012300F01C
:10720000D3F82AE01A4B1A681A4B1B78092011464A
:107210001A46012300F0C8F81FE0114B1A68114B01
:107220001B780B2011461A46012300F0BDF80E4BC7
:107230001A680E4B1B780A2011461A46012300F0EB
:10724000B3F80B4B1A680B4B1B78092011461A46F2
:10725000012300F0A9F800E000BF0837BD4680BD5B
:107260008C51012066520120885101206552012075
:10727000845101206452012080B582B000AF0346E2
:10728000FB71FB79013B0B2B5AD801A252F823F07A
:10729000D7720020ED720020ED720020ED72002008
:1072A000ED720020C1720020C1720020D772002050
:1072B000ED720020D7720020C172002003730020FD
:1072C000214B1A68214B1B780B2011461A460023CC
:1072D00000F06AF835E01E4B1A681E4B1B780A2036
:1072E00011461A46002300F05FF82AE01A4B1A688C
:1072F0001A4B1B78092011461A46002300F054F857
:107300001FE0114B1A68114B1B780B2011461A46CF
:10731000002300F049F80E4B1A680E4B1B780A2028
:1073200011461A46002300F03FF80B4B1A680B4B2E
:107330001B78092011461A46002300F035F800E0BA
:1073400000BF0837BD4680BD8C5101206652012028
:10735000885101206552012084510120645201208E
:1073600080B485B000AF0346B9607A60FB73FB7BE5
:1073700003F00703012202FA03F3DAB27B681A7002
:10738000FB7BDB08DBB21A46BB681A60BB681B6874
:10739000044A52F82320BB681A601437BD465DF8D2
:1073A000047B70474037012080B582B000AF396060
:1073B00011461A460346FB710B46BB7113467B719F
:1073C0007A79FB7903F0070302FA03F37B71BA7948
:1073D0007B79386811461A4605F02CFA0837BD4605
:1073E00080BD00BF80B500AF0C2005F09DFC0346BA
:1073F000054819464FF4E132602306F001F8034BCB
:1074000000221A6080BD00BF00C0004090510120E2
:1074100080B582B000AF78607B68002B0CD007E0AD
:107420007B685A1C7A601B780548194606F076F886
:107430007B681B78002BF3D10837BD4680BD00BFA9
:1074400000C000400FB480B586B000AF00237B6160
:107450004FF48073FB60FB68184606F0BBFC0346E4
:107460003B613B69002B02D14FF0FF332EE007F167
:1074700024037B60FB68386919463A6A7B6807F029
:10748000F5FD78617B69002B03DB7A69FB689A4222
:1074900015DBFB685B00FB60FB683869194607F089
:1074A000B9F8B860BB68002B06D10C48FFF7B0FFF5
:1074B0004FF0FF337B6102E0BB683B61D7E738697F
:1074C000FFF7A6FF386906F08DFC7B691846183770
:1074D000BD46BDE8804004B0704700BF582E012073
:1074E00080B588B000AF3B600346FB710B46BB71B3
:1074F00013467B710023FB61FB79042B02D13B68AF
:10750000002B02D14FF0FF337CE0BB79013B042B11
:1075100074D801A252F823F02D7500206575002063
:107520008B750020B1750020D77500203B68FB618A
:10753000FB695B68354A5360FB699B68334A93601B
:10754000FB69DB68314AD360FB691B692F4A136111
:10755000FB695B692D4A53612D4B1B6801332C4A33
:1075600013604EE03B68BB61BA697B7929481146DC
:107570001A4606F0FFFE274A7B7982F82030244B1A
:107580001B680233224A13603BE03B687B617A69E7
:107590007B79214811461A4606F0ECFE1E4A7B799B
:1075A00082F820301A4B1B680433194A136028E014
:1075B0003B683B613A697B79184811461A4606F0E8
:1075C000D9FE164A7B7982F82030114B1B680833AC
:1075D0000F4A136015E03B68FB60FA687B7910483E
:1075E00011461A4606F0C6FE0D4A7B7982F8203015
:1075F000074B1B681033064A136002E04FF0FF335D
:1076000000E0002318462037BD4680BD30560120DB
:107610009851012054560120E85401200C560120B5
:10762000FC5E012090B58BB002AF3F4B1B681F2B57
:1076300002D04FF0FF3373E03C4BDB68DBB2FB71F1
:107640003A4B1B693B60394B9B689BB23B81374B84
:107650005B689BB2184604F09FF903467B81334B6D
:107660005B69184604F070F90346FB601023FB6168
:1076700002200121642203F08BFF03461A462C4BA3
:107680001A802B4B1B881BB2002B02DA4FF0FF3302
:1076900046E0274B1B881AB2FC1D012300931046BD
:1076A00001211922234604F031FA0346BB61BB696C
:1076B000002B02DA4FF0FF3332E01D4B1B881AB269
:1076C0003C4604230093104601211A22234604F06D
:1076D0001DFA0346BB61BB69002B02DA4FF0FF3392
:1076E0001EE0134B1A88FB699BB211B207F1080226
:1076F0001BB2084611461A4603F07AFF0346BB61E7
:10770000BB69002B07DABB696FF4E272934202D0C7
:107710004FF0FF3304E000F02DFB054B1B881BB23C
:1077200018462437BD4690BD98510120305601209F
:10773000F856012080B582B000AF1248124907F018
:107740004BFB0346002B02D14FF0FF3315E00D48F1
:107750000E4907F041FB78607B689A1D0C4B93F84B
:10776000203010460A491A4607F092F90346002BCA
:1077700002D04FF0FF3300E0002318460837BD4623
:1077800080BD00BFFC560120782E0120882E0120EC
:107790000C56012080B500AF0648074907F01CFBD6
:1077A0000346002B01D0002301E04FF0FF331846C1
:1077B00080BD00BFFC560120902E012080B500AF97
:1077C0000648074907F008FB0346002B02D14FF09B
:1077D000FF3300E00023184680BD00BFFC560120A7
:1077E0009C2E012080B584B000AF1F4B7B6000232E
:1077F000BB601E481E4907F0EFFA0346002B06D077
:107800001A481C4907F0E8FA0346002B02D14FF052
:10781000FF3324E01548184907F0DEFAF860FB68EA
:10782000002B02D14FF0FF3319E0FB680533FB60FA
:107830000BE0BB685A1CBA601A467B681344FA68AE
:1078400012781A70FB680133FB60FB681B783C2BD5
:10785000EFD1BB687A68134400221A7000231846DF
:107860001037BD4680BD00BF68520120FC56012084
:10787000A82E0120B02E0120B82E012080B584B0A2
:1078800000AF224B7B600023BB602148214907F0F9
:10789000A3FA0346002B06D01D481F4907F09CFAA7
:1078A0000346002B02D14FF0FF332AE018481B4952
:1078B00007F092FAF86020E0FB680A33FB600BE007
:1078C000BB685A1CBA601A467B681344FA6812787F
:1078D0001A70FB680133FB60FB681B78202BEFD12B
:1078E000BB68013B7A68134400221A700023BB6016
:1078F000F8680A4907F070FAF860FB68002BDBD1E2
:10790000002318461037BD4680BD00BF78560120C1
:10791000FC560120C02E0120D42E0120E02E012093
:1079200080B500AF0648074907F056FA0346002B1A
:1079300002D14FF0FF3300E00023184680BD00BFA6
:10794000FC560120A82E012090B587B000AFF8604A
:107950007A601A460B467B8113463B8100237B618C
:10796000334800214FF4007206F002FE304B3B61B9
:10797000386930490D2206F0FDFC3B690D333B614F
:107980007B893869F9681A4606F0F4FC7B893A6904
:1079900013443B6138692849142206F0EBFC3B692B
:1079A00014333B61254807F045F8034638692349FD
:1079B0001A4606F0DFFC214807F03CF802463B6916
:1079C00013443B6138691E49082206F0D3FC3B6929
:1079D00008333B613B89386979681A4606F0CAFC6E
:1079E0003B893A6913443B6138691649482206F0DD
:1079F000C1FC3B6948333B613B6900221A70124B62
:107A00001C880B4807F016F803469BB222B21BB243
:107A1000104607491A46002303F00EFF03467B6118
:107A20007B69DBB25BB218461C37BD4690BD00BF18
:107A3000E8520120EC2E0120FC2E0120685201208A
:107A4000142F0120202F0120F856012090B58DB071
:107A500002AFF8607A601A460B467B8113463B8181
:107A600001237B8200233B62614B1B881AB207F122
:107A7000120402230093104601211822234604F029
:107A800045F803463B623B6A002B02DA3B6A9BB235
:107A9000A8E0584B00221A6057480021802206F0C7
:107AA00067FD534B1B881BB2184654494FF40062C4
:107AB000002303F0EDFF03463B623B6A002B40F3DB
:107AC0008F804E4806F0B6FF02464C4B0021995479
:107AD0004A484B4907F080F9F861FB69002B02D155
:107AE0004FF6FF737EE0FB690633FB61FB697B6247
:107AF00002E07B6A01337B627B6A1B783C2BF8D106
:107B00007B6A00221A703D483E4907F065F97862A9
:107B10007B6A06337B627B6ABB6102E07B6A01336E
:107B20007B627B6A1B78222BF8D17B6A00221A7059
:107B3000B86906F07FFF03465A1C7B899A423ED201
:107B4000B86906F077FF03460133F868B9691A4649
:107B500006F010FCB86906F06DFF034601332A48B1
:107B6000B9691A4606F006FC274806F063FF03468B
:107B70000133214824491A4606F0FCFB234B01221D
:107B80001A607B6A22221A701C481D4907F024F9EA
:107B900078627B6A06337B627B6A7B6117481C498B
:107BA00007F01AF978627B6A00221A70786906F089
:107BB00041FF03465A1C3B899A420ED202E04FF61F
:107BC000FE730FE0786906F035FF034601337868ED
:107BD00079691A4606F0CEFB02E04FF6FD7301E02C
:107BE0003B6A9BB21BB218462C37BD4690BD00BF06
:107BF000F85601209C51012078560120FC560120A6
:107C00006C2F0120882E01208C55012094510120D9
:107C1000742F012080B500AF094800214FF40062A5
:107C200006F0A6FC064B00221A70064800214FF40D
:107C3000007206F09DFC034B00221A7080BD00BF4D
:107C4000FC560120E852012080B5A4B000AF00230B
:107C500087F884303B1DC7F88C304FF0FF33C7F8EE
:107C600088303F4B93F82030D7F88C003C491A46B7
:107C700006F080FB3A4B93F820301A46D7F88C3048
:107C80001344C7F88C30D7F88C003649012206F02F
:107C900071FBD7F88C300133C7F88C30324B93F836
:107CA0002030D7F88C0030491A4606F063FB2E4B83
:107CB00093F820301A46D7F88C301344C7F88C302C
:107CC000D7F88C3097F884201A70D7F88C300133AD
:107CD000C7F88C30224B93F82030D7F88C0020491D
:107CE0001A4606F047FB1E4B93F820301A46D7F889
:107CF0008C301344C7F88C30D7F88C3097F8842038
:107D00001A70D7F88C300133C7F88C30174B93F8C2
:107D10002030D7F88C0015491A4606F02BFB104B83
:107D200093F820305B0003330F4A92F8202013446D
:107D30000E4A92F8202013443A1D0D4811461A4667
:107D400000F05EFAC7F88800D7F88830002B02DA16
:107D5000D7F8883000E0002318469037BD4680BD34
:107D6000545601207C2F01200C560120E85401209C
:107D70000C55012080B586B000AF00237B61002345
:107D80003B610023FB600023BB604FF0FF337B604F
:107D9000AE480021802206F0EBFBAD480021802296
:107DA00006F0E6FBAB480021802206F0E1FBAA4882
:107DB0000021802206F0DCFBA84B1B68002B00D1C1
:107DC0000BE2FFF741FF78607B68002B00DA04E2EA
:107DD000FEE1FFF71FFFA24B3B60FB68012B0BD1BD
:107DE000A04B1B881BB218469F494FF4006200232A
:107DF00003F04EFE03463B61FB68012B04D19A4B16
:107E00001B78002B00D1E3E1944B1B68013B0F2B47
:107E100000F2C88101A252F823F000BF5D7E00206D
:107E2000C17E0020E37E0020EB7E0020417F002009
:107E3000637F0020C77F0020D77F0020F97F0020CC
:107E400091800020BD800020E3800020058100207B
:107E5000A58100202B810020818100203868834982
:107E6000132206F087FA3B6813333B60804B93F88C
:107E7000203038687E491A4606F07CFA7C4B93F82D
:107E800020301A463B6813443B6038687949022227
:107E900006F070FA3B6802333B603868764954223A
:107EA00006F068FA3B6854333B603B6800221A7066
:107EB00001237B610123FB60684B02221A6071E1A0
:107EC0003B69002B0ADDFFF735FC0346002B05D18B
:107ED0000023FB60614B03221A6063E10123FB6016
:107EE00060E15E4B04221A605CE13868634941221C
:107EF00006F040FA3B6841333B60544806F09AFD77
:107F00000346386851491A4606F034FA4F4806F0DD
:107F100091FD02463B6813443B603868584907228C
:107F200006F028FA3B6807333B603B6800221A7072
:107F300001237B610123FB60484B05221A6031E17C
:107F40003B69002B0ADDFFF725FC0346002B05D11A
:107F50000023FB60414B06221A6023E10123FB60F2
:107F600020E138684149132206F004FA3B681333D4
:107F70003B603F4B93F8203038683D491A4606F085
:107F8000F9F93B4B93F820301A463B6813443B60A9
:107F900038683849022206F0EDF93B6802333B604D
:107FA00038683549542206F0E5F93B6854333B60A4
:107FB0003B6800221A7001237B610123FB60274B81
:107FC00008221A60EEE000237B610023FB60234B54
:107FD00008221A60E6E03B69002B0ADDFFF7EEFBA2
:107FE0000346002B05D10023FB601C4B09221A60BD
:107FF000D8E00123FB60D5E038682249562206F01C
:10800000B9F93B6856333B601F4B93F82030386812
:108010001D491A4606F0AEF91B4B93F820301A465C
:108020003B6813443B6038681849172206F0A2F9F0
:108030003B6817333B603B6800221A7001237B6169
:108040000123FB60054B0A221A60ABE00C550120AE
:10805000685201208C5501207856012054370120A8
:10806000E8520120F8560120FC560120802F012003
:108070000C560120942F0120982F0120F02F012071
:10808000343001203C300120FC5E0120943001207E
:108090003B69002B0ADDFFF7A5FB0346002B05D14A
:1080A0000023FB604E4B0B221A607BE000237B61B8
:1080B0000023FB604A4B01221A6073E0386849498B
:1080C000512206F057F93B6851333B603B68002270
:1080D0001A7001237B610123FB60414B0C221A6063
:1080E00060E03B69002B0ADDFFF71AFC0346002B1A
:1080F00005D10023FB603A4B0D221A6052E00123A8
:10810000FB604FE001237B610023FB603868364948
:10811000B12206F02FF93B68B1333B603B68002287
:108120001A702F4B0F221A603CE038682F49232227
:1081300006F020F93B6823333B602D4806F07AFCBB
:10814000034638682A491A4606F014F9284806F00A
:1081500071FC02463B6813443B60386825492A227B
:1081600006F008F93B6832333B603B6800221A7026
:1081700001237B610023FB60194B10221A6011E080
:1081800001237B610123FB60FFF778FB0346002B93
:1081900007D1134B0E221A600023FB6000237B6182
:1081A000FFE700BF7B69012B12D100237B611248DE
:1081B00006F040FC0346BB60104B1A88BB689BB2BC
:1081C00012B21BB210460C491A46002303F034FBCE
:1081D000034B1B680E2B7FF4FCAD1837BD4680BDEA
:1081E00054370120AC30012000310120B43101208E
:1081F00068520120D8310120E8520120F8560120B0
:1082000080B489B000AFF860B9607A60BB68FB6188
:10821000FB68BB6100237B613EE0BB695A1CBA610D
:10822000FA6912789208D2B21146464A525C1A7024
:10823000BB695A1CBA61FA69127802F00302120192
:10824000F969013109780909C9B20A433D498A5CD3
:108250001A70BB695A1CBA61FA690132127802F0CD
:108260000F029200F969023109788909C9B20A43FB
:1082700034498A5C1A70BB695A1CBA61FA690232C5
:10828000127802F03F022F498A5C1A707B6903332F
:108290007B61FB690333FB617A687B69D31A022B2C
:1082A000BBDC7A697B689A4243D0BB695A1CBA61CD
:1082B000FA6912789208D2B21146224A525C1A70B8
:1082C000FB691B7803F00303DBB21B01FB747A68C4
:1082D0007B69D31A012B1BDDFB6901331B781B095A
:1082E000DAB2FB7C1343FB74BB695A1CBA61FA7C9B
:1082F00014498A5C1A70BB695A1CBA61FA69013266
:10830000127802F00F0292000E498A5C1A700BE09C
:10831000BB695A1CBA61FA7C0A498A5C1A70BB694B
:108320005A1CBA613D221A70BB695A1CBA613D22BF
:108330001A70BB6900221A702437BD465DF8047BB1
:10834000704700BF0432012080B483B000AF786072
:108350007B68B3F1333F18D0B3F1333F06D8B3F1A4
:10836000113F0DD0B3F1223F0CD018E0B3F1553FCF
:1083700010D0B3F1663F0FD0B3F1443F07D00EE009
:1083800000230EE04FF6FF730BE0022309E04FF6E7
:10839000FE7306E0032304E04FF6FD7301E07B6803
:1083A0009BB21BB218460C37BD465DF8047B704784
:1083B00090B589B000AFF860B9607A600A23FB839A
:1083C00004F060F900F062FAFB68002B08D1434B1F
:1083D0001C68B868002103F07DFF0346236003E0BA
:1083E0003E4B1B68FA681A600E20082102F006F95D
:1083F0000346FB83B7F91E300A2B02D14FF6300338
:1084000066E0364B1B68903318464FF0FF31FCF79F
:10841000A7FF0346BB83B7F91C30002B00D0FEE753
:108420002E4B1968B7F91E2013465B0013449B00BE
:108430000B44103307F114025A60284B1B68903329
:108440001846FCF7ABFF03467B83B7F91A30002BC5
:1084500000D0FEE7214B1B681B68002B34DB04F0C7
:108460006FF91F48002104F0DBF87B68002B03D074
:108470001A4B1B687A68DA6004F04AF97B68002BB3
:1084800022D1164B1968B7F91E2013465B0013441E
:108490009B0010330B4418464FF0FF31FCF7F4FEFD
:1084A00003463B83B7F91830002B00D0FEE70B4B97
:1084B0001B6893F8C030184602F0B8F97B6918467B
:1084C000FFF742FF034603E0044B1B681B689BB2A7
:1084D0001BB218462437BD4690BD00BFA0510120F5
:1084E0002D8A002090B587B000AF78607B68083394
:1084F0007B61334B1B68903318464FF0FF31FCF71C
:108500002FFF03467B82B7F91230002B00D0FEE725
:108510002B4B1B68DB68002B0BD0294B1B68DC68DE
:108520007B691B681846FFF70FFF03461846A047F4
:1085300029E0234B1A68224B1B6893F8C030194678
:108540000B465B000B449B00134410335B681846DA
:108550007969042205F00EFF194B1A68184B1B6845
:1085600093F8C03019460B465B000B449B00103358
:1085700013441846FCF744FE03463B82B7F910301B
:10858000002B00D0FEE70E4B1B6890331846FCF71B
:1085900005FF0346FB81B7F90E30002B00D0FEE744
:1085A000074B1B68DB68002B06D0054B1B6893F854
:1085B000C030184602F03AF91C37BD4690BD00BFE6
:1085C000A051012080B586B000AF78607B68083389
:1085D0007B61254B1B68903318464FF0FF31FCF749
:1085E000BFFE03467B82B7F91230002B00D0FEE7B6
:1085F0001D4B1A681C4B1B6893F8C03019460B467C
:108600005B000B449B00134410335B681846796988
:10861000042205F0AFFE144B1A68134B1B6893F845
:10862000C03019460B465B000B449B0010331344CB
:108630001846FCF7E5FD03463B82B7F91030002BE6
:1086400000D0FEE7084B1B6890331846FCF7A6FEE7
:108650000346FB81B7F90E30002B00D0FEE700BFC8
:108660001837BD4680BD00BFA051012080B588B03D
:1086700000AF0346FB800023FB830A23BB83FB88F8
:10868000002B0ED10020002103F0CAFF04F058F89F
:10869000424B1B681B68184603F0C4FE0346FB836D
:1086A00073E0FB883B820E20082101F0A7FF034600
:1086B000BB83B7F91C300A2B02D14FF6300367E0B9
:1086C000364B1B68903318464FF0FF31FCF748FEDD
:1086D00003467B83B7F91A30002B00D0FEE72F4BFF
:1086E0001968B7F91C2013465B0013449B000B4428
:1086F000103307F10C025A60284B1B689033184660
:10870000FCF74CFE03463B83B7F91830002B00D032
:10871000FEE707F1100322481946002200F0B6F9DF
:108720000346FB82B7F91630002B00D0FEE73B8AE8
:10873000002B19D1194B1968B7F91C2013465B009F
:1087400013449B0010330B4418464FF0FF31FCF7E5
:108750009BFD0346BB82B7F91430002B00D0FEE727
:10876000BB893B823B8AFB83BB8BDBB2184602F0A2
:108770005DF80020002103F053FF03F0E1FF074BF9
:108780001B681B68184603F04DFE00F0F9F8FB8BE0
:108790001BB218462037BD4680BD00BFA051012046
:1087A0004432012080B58CB000AFB9607A603B6084
:1087B0000346FB737B681B78002B01D1234B41E000
:1087C000BB68002B3CD00023BB827B681B789BB22C
:1087D000FB820023FB613B683B6200233B83FB7B06
:1087E0009BB2FB84BB681B789BB23B8507F12402DC
:1087F00007F11403164811461A4600F047F90346DC
:10880000FB85B7F92E30002B00D0FEE7BB68002BAC
:1088100003D03B8DDAB2BB681A70FA8A3B8B9A425E
:1088200006D2FB8ADAB27B681A706FF4FA6309E049
:108830003B8BDAB27B681A70BB8C9BB21BB201E037
:108840004FF0FF3318463037BD4680BD2EF8FFFF8E
:108850004832012080B584B000AF78607B68FB604F
:10886000FB681B88732B07D0782B0AD0082B07D105
:10887000F868FFF737FE05E0F868FFF7A3FE01E0B0
:10888000FEE700BF1037BD4680BD00BF80B584B095
:1088900000AF384B384A1A60364B1B68002B00D1AA
:1088A000FEE7344B1B6818460021CC2205F060FE21
:1088B000304B1B6894331846FCF76EFC0346BB81B3
:1088C000B7F90C30002B00D0FEE72A4B1B6894331D
:1088D00018460021FCF7D8FC264B1B6804331846C9
:1088E000FCF7F0FC03467B81B7F90A30002B00D07F
:1088F000FEE7204B1B6890331846FCF7E3FC034669
:108900003B81B7F90830002B00D0FEE702F0AEF84B
:108910000023FB7322E0174B1968FA7B13465B00B8
:1089200013449B0010330B441846FCF735FC0346F8
:10893000FB80B7F90630002B00D0FEE70D4B19681D
:10894000FA7B13465B0013449B0010330B4418461C
:108950000021FCF799FCFB7B0133FB73FB7B092BAC
:10896000D9D902F0FBF9054B00221A701037BD4629
:1089700080BD00BFA0510120245F0120A85101202B
:1089800080B584B000AF02F011FA274B1B68943316
:108990001846FCF721FC0346BB81B7F90C30002BCD
:1089A00000D0FEE7204B1B6804331846FCF7C8FCD8
:1089B00003467B81B7F90A30002B00D0FEE71A4B43
:1089C0001B6890331846FCF7BBFC03463B81B7F9A4
:1089D0000830002B00D0FEE70023FB7315E0124B9C
:1089E0001968FA7B13465B0013449B0010330B4459
:1089F0001846FCF7F1FB0346FB80B7F90630002B65
:108A000000D0FEE7FB7B0133FB73FB7B092BE6D930
:108A100002F06EF8044B00221A60034B00221A6029
:108A20001037BD4680BD00BFA051012080B584B085
:108A300000AF786003F00EFE124B1B6893F8A9207C
:108A4000D2B20132D2B283F8A9200E4B1B6893F840
:108A50009830012B0DD10B4B1B6894331846FCF753
:108A6000EBFB0346FB81B7F90E30002B00D0FEE78D
:108A700004E0054800210022FCF7ACFC1037BD469D
:108A800080BD00BFA051012011A1002080B588B099
:108A900000AFF860B9607A602A4B1B68043318464F
:108AA0004FF0FF31FCF75CFC0346BB83B7F91C3089
:108AB000002B00D0FEE7234B1B68012283F898208F
:108AC000204B1B68FA68C3F8B0201E4B1B68BA68BD
:108AD000C3F8B4201B4B1B687A68C3F8B82000F0B9
:108AE00079FA0346FB83B7F91E30002B16D1164BDB
:108AF0001B78002B0DD100237B61134B01221A70D0
:108B00004FF47A637B6100BF7B695A1E7A61002B48
:108B1000FAD101F071FA0346FB830CE0094B1B68A4
:108B200004331846FCF73AFC03467B83B7F91A3046
:108B3000002B00D0FEE7FB8B1BB218462037BD464A
:108B400080BD00BFA0510120A851012080B586B092
:108B500000AFF860B9607A600E4B1B68002283F8A2
:108B600098200C4B1B68FA68C3F8B020094B1B68AF
:108B7000BA68C3F8B420074B1B687A68C3F8B820FA
:108B800000F028FA0346FB82FB8A1BB2184618370E
:108B9000BD4680BDA051012080B58CB000AFB9604A
:108BA0007A603B600346FB730A2387F82F303B68EB
:108BB000DB68002B00D1FEE73B685B88002B00D10F
:108BC000FEE7FB7B03F00F03072B02DD4FF6F77385
:108BD000FAE0FB7B03F00F03DBB20F20194601F034
:108BE0000DFD034687F82F3097F82F300A2B02D15E
:108BF0004FF63003E8E0774B1B68903318464FF090
:108C0000FF31FCF7ADFB0346BB85B7F92C30002BD9
:108C100000D0FEE73B68DB68BB617B687B616D4B26
:108C2000196897F82F2013465B0013449B000B44F0
:108C3000103307F114025A60664B1B6890331846D4
:108C4000FCF7ACFB03467B85B7F92A30002B00D03C
:108C5000FEE7604B1B68A03318464FF0FF31FCF76E
:108C60007FFB03463B85B7F92830002B00D0FEE799
:108C7000584B1B68A43318460021FCF705FB554BE5
:108C80001B6893F89C30012B0ED8524B1B68A43301
:108C900018464FF0FF31FCF7F7FA0346FB84B7F9AB
:108CA0002630002B00D0FEE74A4B1B6804331846E1
:108CB0004FF0FF31FCF754FB0346BB84B7F9243077
:108CC000002B00D0FEE7434B1B6893F89C30012B30
:108CD00000D8FEE73F4B1B6893F89C20013AD2B2C4
:108CE00083F89C203B4B1B68A0331846FCF756FBCF
:108CF00003467B84B7F92230002B00D0FEE7354BCA
:108D00001B68BA6812881A81324B1A683B68002BBC
:108D100011D0BB689B789BB203339BB223F0030353
:108D200099B23B681B8803339BB223F003039BB2C9
:108D30000B449BB207E0BB689B789BB203339BB2AA
:108D400023F003039BB25381224B1B68BA68C3F81C
:108D5000B020204B1B687A68C3F8B4201D4B1B68F9
:108D60003A68C3F8B82000F035F903463B84194B44
:108D70001B6804331846FCF711FB0346FB83B7F965
:108D80001E30002B00D0FEE7B7F92030002B15D1A4
:108D9000104B196897F82F2013465B0013449B0073
:108DA00010330B4418464FF0FF31FCF76DFA0346C1
:108DB000BB83B7F91C30002B00D0FEE797F82F30AB
:108DC000184601F033FD3B8C1BB218463037BD46C8
:108DD00080BD00BFA051012080B58AB000AFB9604E
:108DE0007A603B600346FB734FF6F573FB84784B68
:108DF0001B68A03318464FF0FF31FCF7B1FA034669
:108E0000BB84B7F92430002B00D0FEE7704B1B6801
:108E1000A43318460021FCF737FA6D4B1B6893F812
:108E2000AC301A46FB7B03F00F0342FA03F303F066
:108E30000103002B0FD0664B1B68A0331846FCF7CC
:108E4000ADFA0346FB82B7F91630002B00D0FEE7DF
:108E50004FF6FF73B6E05E4B1B6893F89C30022B15
:108E600029D85B4B1B6893F8AB301A46FB7B03F0A9
:108E70000F0342FA03F3002B0ED0554B1B68A033AF
:108E80001846FCF78BFA03463B84B7F92030002BD9
:108E900000D0FEE7FB8C95E04D4B1B68A4331846D1
:108EA0004FF0FF31FCF7F0F903467B84B7F922302D
:108EB000002B00D0FEE7464B1B6893F89C30022B3A
:108EC0000FD900BF424B1B68043318464FF0FF31E7
:108ED000FCF746FA0346BB83B7F91C30002B0FD0D2
:108EE0000DE03B4B1B68A0331846FCF757FA0346CE
:108EF000FB83B7F91E30002B00D0FEE777E7FEE7D3
:108F0000334B1B6893F89C30022B00D8FEE7304BA4
:108F10001B6893F89C20013AD2B283F89C202C4B1A
:108F20001B68A0331846FCF739FA03467B83B7F970
:108F30001A30002B00D0FEE7254B1B68BA68128858
:108F40001A81234B1A683B68002B11D0BB689B78B1
:108F50009BB203339BB223F0030399B23B681B8897
:108F600003339BB223F003039BB20B449BB207E095
:108F7000BB689B789BB203339BB223F003039BB285
:108F80005381134B1B68BA68C3F8B020104B1B68A1
:108F90007A68C3F8B4200E4B1B683A68C3F8B8204F
:108FA00000F018F80346FB84094B1B68043318468D
:108FB000FCF7F4F903463B83B7F91830002B00D0D7
:108FC000FEE7FB8C1BB218462837BD4680BD00BFAC
:108FD000A051012080B586B000AF8D4B1B68D3F83F
:108FE000B030002B00D1FEE7894B1B68884A12681D
:108FF000D2F8B02012881A81854B1A68844B1B68FE
:10900000D3F8B830002B17D0814B1B68D3F8B030A1
:109010009B789BB203339BB223F0030399B27C4B42
:109020001B68D3F8B8301B8803339BB223F00303CB
:109030009BB20B449BB20AE0754B1B68D3F8B0306F
:109040009B789BB203339BB223F003039BB2538103
:109050006F4B1B6893F8AD30012B0CD16C4B1B6828
:109060006B4A126851896A4A1268D2F8B82052884D
:109070000A4492B25A810423FB82654B1B681A682A
:10908000B7F91630104663491A4603F07FFA0346D3
:10909000BB82B7F91620B7F914309A4200D0FEE728
:1090A00004237B825A4B1B681968594B1B6803F1D8
:1090B0000802B7F91230084611461A4603F066FA5C
:1090C00003463B82B7F91220B7F910309A4200D01C
:1090D000FEE74F4B1B68D3F8B430002B29D04C4B24
:1090E0001B68D3F8B0309B78002B22D0484B1B680C
:1090F000D3F8B0309B789BB203339BB29BB223F082
:109100000303FB81424B1B681968414B1B68D3F872
:10911000B420B7F90E30084611461A4603F036FA65
:109120000346BB81B7F90E20B7F90C309A4200D044
:10913000FEE7374B1B6893F8AD30012B27D1344B3A
:109140001B68002283F8AD20314B1B68D3F8B83080
:109150005B8803339BB29BB223F003037B812C4BD0
:109160001B6819682A4B1B68D3F8B830DA68B7F95E
:109170000A30084611461A4603F008FA03463B81B6
:10918000B7F90A20B7F908309A4200D0FEE7204B21
:109190001B68D3F8B830002B33D01D4B1B68D3F8B5
:1091A000B8301B88002B2CD0194B1B68D3F8B0307B
:1091B0009B7803F00303002B00D0FEE7144B1B68E1
:1091C000D3F8B8301B8803339BB29BB223F0030360
:1091D000FB800F4B1B6819680D4B1B68D3F8B83028
:1091E0009A68B7F90630084611461A4603F0CEF9D8
:1091F0000346BB80B7F90620B7F904309A4200D085
:10920000FEE700231BB218461837BD4680BD00BFDD
:10921000A05101205032012080B596B000AF07F177
:109220000C02FB1D1046194601F098F80346A7F8FA
:109230004E30B7F94E30002B00D0FEE707F10C039B
:109240001B88082B28D0B74B1B6807F10C0212793A
:1092500083F89C20B34B1B6807F10C02D27983F88A
:10926000AB20B04B1B6807F10C02927983F8AC205D
:10927000AC4B1B6893F89C30012B0DD9A94B1B6894
:10928000A4331846FBF7BCFF0346A7F84C30B7F9E8
:109290004C30002B00D0FEE707F10C031B8818466A
:1092A00000F0B4FF9F4B1B6893F8C830012B00F00F
:1092B0001C82022B03D0002B00F0D8801CE3994BBA
:1092C0001B68D3F8BC30002B00D0FEE7954B1B6821
:1092D000954AC3F8BC20934B1B68D3F8BC30002BD5
:1092E00000D1FEE78F4B1B68D3F8BC301A4607F15C
:1092F0000C0303CB1060516007F10C035B88013B4A
:1093000023F00303A02B09D807F10C035B88013B72
:109310009BB223F00303A7F8543002E0A023A7F880
:10932000543007F10C035B88042B1DD0B7F8543080
:10933000A7F84A307B4B1B6819687A4B1B68D3F837
:10934000BC3003F10802B7F94A30084611461A4604
:1093500003F0AAF80346A7F84830B7F94A20B7F94E
:1093600048309A4200D0FEE707F10C035B88013BCE
:1093700023F00303A02B2DD907F10C035B88013BDD
:109380009BB223F003039BB2A03BA7F854301DE02F
:109390000423A7F84630634B1B681968B7F94630B9
:1093A00007F10802084611461A4603F07DF8034605
:1093B000A7F84430B7F94620B7F944309A4200D0B4
:1093C000FEE7B7F85430043BA7F85430B7F85430F0
:1093D000002BDDD1534B1B68903318464FF0FF3103
:1093E000FBF7BEFF0346A7F84230B7F94230002B27
:1093F00000D0FEE707F10C031B8841F20302934201
:109400000DD007F10C031B8841F20322934206D0D2
:1094100007F10C031B8841F20602934210D107F1B9
:109420000C031A883F4B1B68D3F8BC3008339B7879
:1094300003F00F03DBB21046194601F0D7FB06E03C
:1094400007F10C031B881846082101F0CFFB354BB0
:109450001B6890331846FBF7A1FF0346A7F840307E
:10946000B7F94030002B00D0FEE745E207F10C03CE
:109470001B8841F20B02934204D041F20B2293422B
:1094800004D007E00C2387F8533006E0182387F850
:10949000533002E0042387F853300423FB87214B29
:1094A0001B681968B7F93E2007F10C03043308461E
:1094B000194602F0F9FF0346BB87B7F93E20B7F91A
:1094C0003C309A4200D0FEE707F10C0304339B784E
:1094D00003F00F03072B00DDFEE7124B1B689033F0
:1094E00018464FF0FF31FBF73BFF03467B87B7F988
:1094F0003A30002B00D0FEE707F10C031A8807F181
:109500000C0304339B7803F00F03DBB210461946BB
:1095100001F06CFB03463B87B7F93830002B05D0D0
:10952000FEE700BFA0510120F05F0120BC4B1A688C
:10953000BB4B1B6893F8C03019460B465B000B44CD
:109540009B00134410335B681A6807F10C03043363
:1095500010461946042204F00DFF97F85330042BEF
:1095600027D997F853309BB2043B9BB2FB86AC4B98
:109570001B681868AA4B1A68A94B1B6893F8C0307F
:1095800019460B465B000B449B00134410335B6889
:109590001B681A1DB7F9363011461A4602F084FFCF
:1095A0000346BB86B7F93620B7F934309A4200D06B
:1095B000FEE707F10C0304331B881BB2002B6FDDA1
:1095C00007F10C0304331B889BB203F00303A7F8D5
:1095D000563007F10C0304331B889BB223F00303BE
:1095E000A7F85430B7F85430032B23D9B7F85430C8
:1095F0007B868B4B1B681868894B1A68884B1B68E5
:1096000093F8C03019460B465B000B449B00134493
:1096100010335B685A68B7F9323011461A4602F0C7
:1096200043FF03463B86B7F93220B7F930309A4200
:1096300000D0FEE7B7F85630002B31D00423FB856D
:10964000774B1B681968B7F92E3007F108020846F6
:1096500011461A4602F028FF0346BB85B7F92E20B3
:10966000B7F92C309A4200D0FEE76D4B1A686C4B6C
:109670001B6893F8C03019460B465B000B449B00F7
:10968000134410335B685A68B7F85430D118B7F8F0
:10969000563007F10802084611461A4604F06AFEE1
:1096A0005F4B1A685E4B1B6893F8C03019460B4637
:1096B0005B000B449B00103313441846FBF7A0FDDE
:1096C00003467B85B7F92A30002B00D0FEE7544BC8
:1096D0001B6890331846FBF761FE03463B85B7F9DC
:1096E0002830002B00D0FEE706E14D4B1B68D3F875
:1096F000B030DB789BB203339BB29BB223F0030301
:10970000FB84474B1B681968454B1B68D3F8B42092
:10971000B7F92630084611461A4602F0C5FE034640
:10972000BB84B7F92620B7F924309A4200D0FEE76F
:109730003B4B1B68D3F8B830002B00F0DC80384B73
:109740001B68D3F8B8305B88002B00F0D48007F199
:109750000C035A88324B1B68D3F8B030DB789BB2CD
:10976000D31A9BB2043B9BB2A7F850302C4B1B681A
:10977000D3F8B830B7F850209A80B7F95030002BA2
:1097800006DC274B1B68D3F8B83000225A80B2E0C1
:10979000B7F95030224A1268D2F8B8205288934262
:1097A00012DD1F4B1B68D3F8B8305B8803F003034E
:1097B000A7F856301A4B1B68D3F8B8305B8823F0F3
:1097C0000303A7F854300BE0B7F8503003F003035D
:1097D000A7F85630B7F8503023F00303A7F85430F9
:1097E000B7F85430032B1DD9B7F854307B840C4B99
:1097F0001B6819680A4B1B68D3F8B830DA68B7F9E8
:109800002230084611461A4602F04EFE03463B84BB
:10981000B7F92220B7F920309A4203D0FEE700BF03
:10982000A0510120B7F85630002B2DD00423FB8324
:10983000424B1B681968B7F91E3007F10802084649
:1098400011461A4602F030FE0346BB83B7F91E20CC
:10985000B7F91C309A4200D0FEE7384B1B68D3F8AA
:10986000B830DA68B7F85430D118B7F8563007F185
:109870000802084611461A4604F07CFDB7F850303D
:10988000043B9BB2A7F85030B7F950302B4A12680E
:10989000D2F8B820528893422DDDB7F85020274BDC
:1098A0001B68D3F8B8305B8823F003039BB2D31A4C
:1098B000A7F854301BE004237B83204B1B681968F6
:1098C000B7F91A3007F10802084611461A4602F0A5
:1098D000EBFD03463B83B7F91A20B7F918309A42DB
:1098E00000D0FEE7B7F85430043BA7F85430B7F87F
:1098F0005430002BDFD100BFFB79002B16D0FB7951
:10990000FB820E4B1B681968B7F9163007F10C0281
:10991000084611461A4602F0C7FD0346BB82B7F956
:109920001620B7F914309A4200D0FEE702F09EFEEE
:1099300000231BB218465837BD4680BDA0510120F8
:1099400090B5B7B000AFCD4B1B68D3F8BC30C7F8AB
:10995000D430CA4B1B68D3F8C430002B00F04783C7
:10996000D7F8D4301B8840F6B202934200F03F8211
:1099700040F6B202934224DC40F63102934200F0FA
:10998000B98040F6310293420DDC40F62F0293423B
:1099900000F0E282B3F5036F46DA40F62E029342FE
:1099A00000F0898218E3B3F5086F00F0BA8040F642
:1099B0008102934200F0088140F63202934263D064
:1099C0000AE341F62202934200F0FE8241F62202AF
:1099D00093420FDC41F20E02934200F0D28141F239
:1099E0000F02934200F0E68140F6B302934200F08A
:1099F0004B82F1E241F62C02934200F07C8141F669
:109A00002C02934205DC41F62502934200F0388196
:109A1000E2E241F62D02934200F0908141F62522C8
:109A2000934200F04B81D7E2944B1B68D3F8BC30D3
:109A30000833C7F8D0300723BB64D7F8D02007F12C
:109A40006C0320321068186092889A80D7F8D02072
:109A5000D7F8D03093F826301C4607F1480304337A
:109A600018461146224604F085FCD7F8D03093F80A
:109A7000263087F87230814B1B68D3F8C43007F169
:109A8000480210469847B2E27C4B1B68D3F8BC30C2
:109A90000833C7F8CC300823BB64D7F8CC2007F1D3
:109AA0006C0320321068186092889A80D7F8CC2016
:109AB000D7F8CC3093F826301C4607F1480304331E
:109AC00018461146224604F055FCD7F8CC3093F8DE
:109AD000263087F87230D7F8CC3093F8273087F8E3
