:020000042000DA
:1040000080330120DD4F0020355000203D5000203E
:104010004D500020455000204D5000200000000071
:104020000000000000000000000000000D51002012
:104030004D50002000000000095200204D52002089
:104040004D5000204D5000204D5000204D5000207C
:10405000000000004D5000204D50002000000000E6
:104060004D50002000000000000000000000000093
:1040700000000000000000004D5000204D500020C6
:104080004D5000204D5000204D5000204D5000203C
:104090004D5000204D5000204D5000204D5000202C
:1040A0004D50002000000000000000000000000053
:1040B000000000004D500020000000000000000043
:1040C0000000000000000000000000004D50002033
:1040D0004D50002000000000000000000000000023
:1040E00000000000000000000000000000000000D0
:1040F00000000000000000004D5000204D50002046
:1041000000000000000000000000000000000000AF
:10411000000000000000000000000000000000009F
:10412000000000000000000000000000000000008F
:10413000000000000000000000000000000000007F
:10414000000000000000000000000000000000006F
:10415000000000000000000000000000000000005F
:10416000000000000000000000000000000000004F
:10417000000000000000000000000000000000003F
:10418000000000000000000000000000000000002F
:10419000000000000000000000000000000000001F
:1041A000000000000000000000000000000000000F
:1041B00000000000000000000000000000000000FF
:1041C00000000000000000000000000000000000EF
:1041D00000000000000000000000000000000000DF
:1041E00000000000000000000000000000000000CF
:1041F00000000000000000000000000000000000BF
:1042000000000000000000000000000000000000AE
:10421000000000000000000000000000000000009E
:10422000000000000000000000000000000000008E
:10423000000000000000000000000000000000007E
:10424000000000000000000000000000000000006E
:10425000000000000000000000000000000000005E
:10426000000000000000000000000000000000004E
:10427000000000000000000000000000000000003E
:10428000000000000000000000000000000000002E
:104290004D50002000000000000000004D500020A4
:1042A000000000004D500020000000000000000051
:1042B0000000000000000000000000004D50002041
:1042C000000000004D500020000000004D50002074
:1042D00000000000000000000000000000000000DE
:1042E0000000000000000000000000004D50002011
:1042F0004D50002000000000000000004D50002044
:104300004D5000204D500020000000000000000033
:10431000000000000000000000000000000000009D
:10432000000000000000000000000000000000008D
:10433000000000000000000000000000000000007D
:10434000000000000000000000000000000000006D
:10435000000000000000000000000000000000005D
:10436000000000000000000000000000000000004D
:10437000000000000000000000000000000000003D
:10438000000000000000000000000000000000002D
:10439000000000000000000000000000000000001D
:1043A000000000000000000000000000000000000D
:1043B00000000000000000000000000000000000FD
:1043C00000000000000000000000000000000000ED
:1043D00000000000000000000000000000000000DD
:1043E00000000000000000000000000000000000CD
:1043F00000000000000000000000000000000000BD
:1044000080B400AFFEE700BF80B483B000AF786037
:104410003960FEE7B0B588B004AF78607B681B6890
:10442000012B02D0022B32D089E04A4B1B6843F0AB
:104430000203484A13607B689A1D7B685B79464893
:1044400011461A4608F0E4FD444A7B684733196870
:1044500011609B889380414B1B781D463F4B5B78D6
:104460001C463E4B9B7818463C4BDB7819463B4B31
:104470001B791A46394B5B790090019102920393A4
:10448000374835492A46234603F088F85EE0002382
:10449000FB60304B1B6823F002032E4A13602D4B48
:1044A0001B6823F008032B4A13607B680433FB600E
:1044B000FB6893F84930C82B1BD1284B1B781D464D
:1044C000264B5B781C46254B9B781846234BDB78A4
:1044D0001946224B1B791A46204B5B7900900191BB
:1044E000029203931F481C492A46234603F056F8BC
:1044F0001AE01A4B1B781D46184B5B781C46174B6D
:104500009B781846154BDB781946144B1B791A46D5
:10451000124B5B79009001910292039312480E496D
:104520002A46234603F03AF80B480021212208F0DE
:104530006DFE0A480021062208F068FE06E07B684E
:104540001B680A48194603F029F800BF1037BD461A
:10455000B0BD00BF702301208835012080350120C7
:104560009C0F0120E40F01204C100120AC10012011
:10457000F0B58BB006AF78607B681B68012B37D134
:104580000023FB601F4B1B6843F008031D4A1360A8
:104590007B680433FB60FB685B681B4A13607B68C5
:1045A0005B684FEA136E7B685B681B0CDEB27B684E
:1045B0005B681B0ADDB27B685B68DCB27B689B686A
:1045C000180E7B689B681B0CD9B27B689B681B0A22
:1045D000DAB27B689B68DBB200940190029103928F
:1045E00004930A48714632462B4602F0D7FF06E094
:1045F0007B681B680648194602F0D0FF00BF1437DD
:10460000BD46F0BD7023012078230120D410012085
:104610001811012080B483B000AF786039600C3786
:10462000BD465DF8047B704780B582B000AF78600E
:104630007B681B68012B19D17B689B881BB213F127
:104640000F0F07D17B68DB880D48194602F0A6FFE3
:1046500000BF11E07B68DB881A467B689B881BB231
:10466000084811461A4602F099FF05E07B681B686E
:104670000548194602F092FF0837BD4680BD00BFCD
:104680006C110120C0110120F811012080B483B009
:1046900000AF7860074B1B6843F48073054A1360D2
:1046A0007B685B68044A13600C37BD465DF8047B89
:1046B000704700BF702301207423012080B500AF34
:1046C000094B00221A60094B00221A60084B002295
:1046D0001A6008480021212208F098FD06480021B0
:1046E000062208F093FD80BD702301207423012071
:1046F0007823012088350120803501202DE9F047FD
:104700009EB00AAF07F11C0300221A600433002296
:104710001A60043300221A60043300221A60043342
:1047200000221A60043300221A60043300221A6047
:10473000043300221A60043300221A60043300227A
:104740001A60043300221A60043307F108030022C0
:104750001A60043300221A60043300221A60043302
:1047600000221A60043300221A6004330123FB7113
:104770000023BB7100237B7100233B714FF0FF339B
:10478000FB644FF0FF33BB6400200021002202F0E5
:1047900087FF0346BB64BB6C002B08DAB348B96CD7
:1047A00040F2FB12B24B02F0F9FEBB6C59E1BB6C5C
:1047B000002B4AD0BB6C022B06D100BFAD4B1B684F
:1047C00003F00803002BF9D0002006F03BFA034663
:1047D000FB64FB6C002B08DAA448F96C40F20E2253
:1047E000A34B02F0DBFEFB6C3BE1FF2003F0B6F8CD
:1047F0000346FB64FB6C002B08DA9C48F96C40F222
:1048000011229B4B02F0CAFEFB6C2AE10020002122
:10481000002202F045FF0346FB64FB6C002B08DA24
:104820009248F96C4FF40572914B02F0B7FEFB6CA5
:1048300017E1FB6C002B08D08C488F4940F21A22FC
:104840008B4B02F0ABFE8C4B0BE10C23BB712C238A
:104850007B71B91D7A1D07F11C03012003F01AF9C1
:10486000F864FB6C002B08DA8048F96C40F22322D4
:104870007F4B02F093FEFB6CF3E08048804902F02E
:104880008DFED7F834E0BE6BFD6B3C6C386A796AFC
:10489000BA6AFB6A97F830C0E24697F831C0E14641
:1048A00097F832C0E04697F833C000940190029127
:1048B00003920493CDF814A0CDF81890CDF81C8085
:1048C000CDF820C06F48714632462B4602F066FE96
:1048D000102011210022002306F036F90346FB6464
:1048E000FB6C002B08DA6148F96C40F23122604B16
:1048F00002F054FEFB6CB4E0FF2006F057F90346CB
:10490000FB64FB6C002B08DA5848F96C40F2352246
:10491000574B02F043FEFB6CA3E006F00BF9034695
:10492000FB64FB6C002B06D100BF524B1B6803F0ED
:104930000203002BF9D1FB1D04200121012205F007
:104940005DFEF864FB6C002B08DA4848F96C40F215
:104950004D22474B02F022FEFB6C82E00023BB712C
:10496000BB79202019460022002306F0EDF803460B
:10497000FB64FB6C002B08DA3C48F96C40F25222D5
:104980003B4B02F00BFEFB6C6BE000233B713B1DCD
:1049900001200A21012206F073F90346FB64FB6C37
:1049A000002B08DA3148F96C40F25922304B02F002
:1049B000F5FDFB6C55E0302000210022002306F0BD
:1049C000C3F80346FB64FB6C002B08DA2748F96C3C
:1049D00040F25D22264B02F0E1FDFB6C41E000203D
:1049E000002105F0F3F90346FB64FB6C002B08DAA9
:1049F0001E48F96C40F261221D4B02F0CFFDFB6CAA
:104A00002FE007F108031846FF21082208F0FEFBFB
:104A100007F1080301201946142206F0E5F80346C1
:104A2000FB64FB6C002B08DA1048F96C40F267223B
:104A30000F4B02F0B3FDFB6C13E0C82002F08EFFB9
:104A40000346FB64FB6C002B08DA0848F96C40F263
:104A50006A22074B02F0A2FDFB6C02E0FFF72EFE7C
:104A6000FB6C18465037BD46BDE8F0872412012084
:104A700028150120702301202EF8FFFF5412012079
:104A8000701201207812012080B58EB000AF07F1BE
:104A9000140300221A60043300221A600433002237
:104AA0001A60043300221A60043300221A600433AF
:104AB00000221A60043300221A60043300221A60B4
:104AC00004333B4600221A60043300221A60043388
:104AD00000221A60043300221A60043300221A6094
:104AE00004334FF0FF337B63234B1B6823F4807345
:104AF000214A1360214B00221A604FF47A737B61C4
:104B000014233B8340F6B8337B830323FB610023EC
:104B10003B621B4B1B687B6207F114023B4610464D
:104B200002211A46174B05F0AFFB03467B637B6BF4
:104B3000002B08DA1448796B40F28E22134B02F0F6
:104B40002DFD7B6B14E000BF0B4B1B6803F48073DF
:104B5000002BF9D0094B1B68002B08D10A480C49DF
:104B600040F29B22094B02F019FD094B00E00023A3
:104B700018463837BD4680BD7023012074230120BC
:104B8000782301208D460020241201204C1501209D
:104B900030F8FFFF80B590B000AF07F11C03002292
:104BA0001A60043300221A60043300221A600433AE
:104BB00000221A60043300221A60043300221A60B3
:104BC000043300221A60043300221A60043307F110
:104BD000080300221A60043300221A600433002202
:104BE0001A60043300221A60043300221A6004336E
:104BF00000237B604FF0FF33FB63314B1B6823F4D2
:104C000080732F4A13602F4B00221A604FF47A737F
:104C1000FB6114233B8440F6B8337B8403237B621F
:104C20000023BB62284B1B68FB623B1D27480B21FE
:104C30001A46022305F05AF90346FB63FB6B002B6F
:104C400008DA2348F96B40F2C222224B02F0A6FC9C
:104C5000FB6B30E07B68FB6207F11C0207F1080385
:104C6000104602211A461C4B05F00EFB0346FB635F
:104C7000FB6B002B08DA1648F96B40F2CA22154B81
:104C800002F08CFCFB6B16E000BF0D4B1B6803F4BD
:104C90008073002BF9D00B4B1B68002B0AD10C48FA
:104CA0006FF4FA614FF436720A4B02F077FC6FF43E
:104CB000FA6300E0002318464037BD4680BD00BFC0
:104CC000702301207423012078230120B0120120D9
:104CD00024120120601501208D46002090B587B078
:104CE00002AF3B4600221A60043300221A600433EC
:104CF00000221A6004330023FB601D4B7B600923F4
:104D00003B7202233B703C46002300931948032169
:104D10000022234605F0C4FD0346FB60FB68002B20
:104D200008DA1548F96840F2F922144B02F036FC13
:104D3000FB6819E00BE0032002F04AFB104807F083
:104D4000BBFB032002F0D0FA0D4807F0B5FB0D4B7A
:104D50001B6803F00203002BEDD00A4B1B6803F025
:104D60000803002BE7D0002318461437BD4690BD3A
:104D7000BC120120C8120120241201207815012044
:104D800000350C007023012080B584B000AF78603E
:104D90004FF0FF33FB60FFF791FCFFF7AFFCF860CB
:104DA000FB68002B07DAFB68294A934202D12948A5
:104DB00002F0F4FBFEE7284802F0F0FB002000219F
:104DC000002202F06DFC0346FB60FB68002B02DB57
:104DD000FB68002B03D0214802F0E0FBFEE72048EF
:104DE00002F0DCFBFFF77AFFF860FB68002B03DAC8
:104DF0001C4802F0D3FBFEE71B4802F0CFFB1B4828
:104E000002F0CCFBFFF740FEF860FB68002B03DAF2
:104E1000174802F0C3FBFEE7072002F065FAFFF730
:104E2000B9FEF860FB68002B03DA124802F0B6FB0B
:104E3000FEE70A2002F058FA0F4802F0AFFB0F48D5
:104E400002F0ACFBC82002F089FD0346FB60FEE7E0
:104E50002EF8FFFFCC120120041301203013012093
:104E600050130120701301209C130120D013012046
:104E7000E0130120041401203014012068140120E3
:104E800080B582B000AF7860094802F087FB09481E
:104E900002F084FB0848796802F080FB054802F0C4
:104EA0007DFB034802F07AFB0837BD4680BD00BF9A
:104EB00098140120A0140120D814012080B500AF5F
:104EC000054B184606F014FB06F00AFB0F2006F00F
:104ED0007BFB06F035FE80BD0040002080B584B02D
:104EE00002AF4FF0FF337B60FFF7E8FF00F042F8BE
:104EF00002F024FB1A48FFF7C3FF072002F0C2F9B3
:104F00000C2002F065FA092000F058FB03467B6094
:104F10007B68002B07DA1348796840F2D532124BD0
:104F200002F03CFBFEE701230093002301930F48AE
:104F30000F494FF40062002300F08AFA03467B60B9
:104F40007B68002B07DA0748796840F2E132064BAC
:104F500002F024FBFEE700F0E3FB0837BD4680BD0E
:104F6000041501202412012084150120894D002000
:104F70001415012080B500AF0720012106F0D2FCF6
:104F80000C20012106F0CEFC3620032106F07EFC29
:104F90003820032106F07AFC3F200021002206F091
:104FA00087FC0D480221012206F05CFA0020002156
:104FB000002206F07DFC08480421012206F052FA86
:104FC00001200021002206F073FC03480821012281
:104FD00006F048FA80BD00BF0050004080B582B0A6
:104FE00000AF0F4B7B600F4B3B6007E03B681A1D27
:104FF0003A607A68111D796012681A603B680A4A43
:105000009342F3D309480A494FF000028842B8BFDF
:1050100040F8042BFADBFFF761FF0837BD4680BD7F
:10502000D81A0120D81A01207023012070230120F2
:10503000D437012080B400AFFEE700BF80B400AFDA
:10504000FEE700BF80B400AFFEE700BF80B400AF52
:10505000FEE700BF80B485B000AF78600F4B1B68DF
:10506000002B02D10D4B0E4A1A600C4B1B68FB60E3
:105070000A4B1A687B6813440A4A934201D90023F9
:1050800006E0064B1A687B681344044A1360FB6809
:1050900018461437BD465DF8047B70477C23012019
:1050A000D4370120D837022080B485B000AFF86033
:1050B000B9607A60FB68043BFB60FB684FF080726C
:1050C0001A60FB68043BFB60BA68FB681A60FB6807
:1050D000043BFB60094AFB681A60FB68143BFB60F9
:1050E0007A68FB681A60FB68203BFB60FB68184627
:1050F0001437BD465DF8047B704700BF01510020A6
:1051000080B500AF00F072F8FEE700BF074B1968EA
:105110000868B0E8F00F80F30988BFF36F8F4FF095
:10512000000080F311884EF00D0E70478C33012083
:1051300005480068006880F3088862B6BFF34F8FA7
:10514000BFF36F8F00DF00BF08ED00E080B500AF58
:105150000B4A0B4B1B6843F460031360084A084B6F
:105160001B6843F06043136000F084F8054B002295
:105170001A60FFF7DDFFFFF7C3FF0023184680BD6D
:1051800020ED00E0D81A012080B400AF054B4FF0AD
:1051900080521A60BFF34F8FBFF36F8FBD465DF82B
:1051A000047B704704ED00E080B500AF00F01EF80E
:1051B000044B1B680133034A1360BFF34F8FBFF3E7
:1051C0006F8F80BDD81A012080B500AF064B1B68D9
:1051D000013B054A1360044B1B68002B02D10020E1
:1051E00000F00EF880BD00BFD81A0120EFF3118047
:1051F0004FF0200181F3118870470023184600BF4B
:1052000080F31188704700BFEFF30980BFF36F8F01
:105210000D4B1A6820E9F00F10602DE908404FF09F
:10522000200080F3118801F0E5F84FF0000080F3D2
:105230001188BDE8084019680868B0E8F00F80F3ED
:105240000988BFF36F8F70478C33012080B500AFA2
:10525000FFF7CCFF01F01EF80346002B03D0044BF0
:105260004FF080521A600020FFF7CAFF80BD00BFD8
:1052700004ED00E080B400AF044B054A1A60054B12
:1052800007221A60BD465DF8047B704714E000E019
:105290007F38010010E000E080B584B000AFF86016
:1052A000B9601346FB71FB681846B96806F02EF921
:1052B000FA68FB791046194606F054F9FB6818465F
:1052C00006F082F900235BB218461037BD4680BD58
:1052D00080B582B000AF78607B68184606F0D2F9DE
:1052E0007B68184606F028F90837BD4680BD00BF28
:1052F00080B584B000AF78607B68002B01D1FC23BF
:1053000010E07B68FB6001200021032200F060FABE
:105310000246FB681A607B681B68002B01D00023E3
:1053200000E0FE235BB218461037BD4680BD00BFCB
:1053300080B582B000AF78607B68002B01D1FC2380
:1053400005E07B681B68184600F068FC00235BB230
:1053500018460837BD4680BD80B582B000AF786082
:105360007B68002B01D1FC230DE07B681B6818468D
:1053700000210022002300F0A9FA0346012B01D0EE
:10538000002300E000235BB218460837BD4680BD0D
:1053900080B582B000AF78607B68002B01D1FC2320
:1053A00016E00E4B00221A607B681B68184600212D
:1053B0000A4A002300F024FB0346012B07D1074BC8
:1053C0001B68002B01D0FFF7DFFE002300E0002365
:1053D0005BB218460837BD4680BD00BF8033012050
:1053E00080B582B000AF786039607B68002B01D156
:1053F000FC230DE07B681B68184600213A680023F7
:1054000000F054FB0346012B01D1002300E0FE23F2
:105410005BB218460837BD4680BD00BF80B582B07C
:1054200000AF78607B68002B01D1FC230BE00120EA
:1054300000F00AFA02467B681A607B68002B01D0F4
:10544000002300E0FE235BB218460837BD4680BD4E
:1054500080B588B004AFF860B9603B601346FB804C
:10546000FB889B089AB2BB690093FB6901930023F8
:10547000029300230393F868B9683B6800F09CFD31
:105480000346012B01D1002300E0FE235BB2184646
:105490001037BD4680BD00BF80B582B000AF7860D8
:1054A0007B681B68184600F0B9FB00235BB2184606
:1054B0000837BD4680BD00BF80B582B000AF7860C0
:1054C00039607B68002B01D1FC230DE07B681B68F1
:1054D000184600213A68002300F0E8FA0346012B41
:1054E00001D1002300E0FE235BB218460837BD4619
:1054F00080BD00BF80B582B000AF78607B68002BB4
:1055000001D1FC230DE07B681B68184600210022B6
:10551000002300F0DBF90346012B01D1002300E05A
:10552000FE235BB218460837BD4680BD80B586B005
:1055300000AFF860B9607A60FB683B61BB687B6173
:105540000E4B00221A600E4B1A6807F1100310462A
:1055500019460A4A002300F053FA0346012B07D1EB
:10556000064B1B68002B01D0FFF70EFE002300E066
:10557000FE235BB218461837BD4680BD803301203C
:105580008433012080B586B000AF786000237B6152
:10559000094B1A6807F10C03104619464FF0FF3209
:1055A000002300F083FA78617B69012B03D1FB684B
:1055B0003A6910469847EBE78433012080B586B0FE
:1055C00004AF786003200821002200F001F90246B0
:1055D000104B1A600F4B1B68002B01D1FE2314E007
:1055E0007B6800930C4B01930023029300230393E9
:1055F0000A480B494FF40072002300F0DDFC03461B
:10560000012B01D1002300E0FE235BB218460837CE
:10561000BD4680BD8433012088330120855500209C
:105620008C15012080B586B000AFF860B9607A6053
:105630003B60FB68002B01D1FC2310E000237B6161
:1056400038687968002200F0C3F878617B69002B24
:1056500001D1FE2303E0FB687A691A6000235BB284
:1056600018461837BD4680BD80B582B000AF78605F
:105670007B68002B01D1FC2305E07B681B68184682
:1056800000F0CCFA00235BB218460837BD4680BD57
:1056900080B584B000AFF860B9607A60FB68002B19
:1056A00001D1FC230FE0FB681B681846B968084A63
:1056B000002300F0A5F90346012B03D1FFF764FD99
:1056C000002300E0FE235BB218461037BD4680BDC4
:1056D0008033012080B584B000AFF860B9607A6093
:1056E000FB68002B01D1FC2314E07B68B3F1FF3F82
:1056F00002D14FF0FF337B60FB681B681846B96826
:105700007A68002300F0D2F90346012B01D100236F
:1057100000E0FE235BB218461037BD4680BD00BFD7
:1057200080B500AF00F0E4FC80BD00BF80B584B060
:1057300000AF786039607B68FB60FFF735FDFB6880
:105740001A68FB68DB6BF968096C01FB03F31A4408
:10575000FB685A60FB6800229A63FB681A68FB6862
:105760009A60FB681A68FB68DB6B013BF968096C9F
:1057700001FB03F31A44FB68DA60FB684FF0FF3269
:105780005A64FB684FF0FF329A643B68002B0ED1DD
:10579000FB681B69002B14D0FB681033184600F01F
:1057A00005FF0346012B0CD1FFF7EEFC09E0FB6877
:1057B0001033184601F0B4FCFB682433184601F09E
:1057C000AFFCFFF701FD012318461037BD4680BD31
:1057D00080B588B000AFF860B9601346FB71002354
:1057E000FB61FB68002B29D0502001F06FFCB861F1
:1057F000BB69002B22D0FB68BA6802FB03F30133BC
:105800007B61786901F062FC0246BB691A60BB6982
:105810001B68002B0FD0BB69FA68DA63BB69BA68F2
:105820001A64B8690121FFF781FFBB690022DA64BD
:10583000BB69FB6102E0B86901F060FCFB691846D6
:105840002037BD4680BD00BF80B584B000AF0346A1
:10585000FB71502001F03AFCF860FB68002B2FD060
:10586000FB6800225A60FB6800221A60FB68002275
:105870009A60FB680022DA60FB6800229A63FB688A
:105880000122DA63FB6800221A64FB684FF0FF32E2
:105890005A64FB684FF0FF329A64FB680022DA64B6
:1058A000FB681033184601F03BFCFB6824331846B4
:1058B00001F036FCF86800210022002300F006F811
:1058C000FB6818461037BD4680BD00BF80B588B064
:1058D00000AFF860B9607A603B600023FB61FB6851
:1058E000BB61FFF761FCBB699A6BBB69DB6B9A42DA
:1058F00002D33B68022B24D1B869B9683A6800F03A
:10590000A5F9BB69DB6C002B09D0B869396800F0D8
:1059100029FB0346012B10D1FFF736FC0DE0BB69D4
:105920005B6A002B09D0BB692433184600F03EFEA9
:105930000346012B01D1FFF727FCFFF745FC0123AC
:1059400059E07B68002B03D1FFF73EFC002352E0B7
:10595000FB69002B06D107F11003184600F07CFE0E
:105960000123FB61FFF730FC00F0F4FBFFF71CFCA8
:10597000BB695B6CB3F1FF3F02D1BB6900225A6483
:10598000BB699B6CB3F1FF3F02D1BB6900229A64F3
:10599000FFF71AFC07F110023B1D1046194600F0F4
:1059A00071FE0346002B1ED1B86900F04DFA034684
:1059B000002B12D0BB6903F110027B681046194618
:1059C00000F082FDB86900F0CFF900F0D1FB03468A
:1059D000002B0FD1FFF7D8FB0CE0B86900F0C4F939
:1059E00000F0C6FB7DE7B86900F0BEF900F0C0FB2F
:1059F000002300E075E718462037BD4680BD00BF94
:105A000080B588B000AFF860B9607A603B60FB6831
:105A1000BB61FFF7EBFB7861BB699A6BBB69DB6B22
:105A20009A4202D33B68022B36D1B869B9683A680A
:105A300000F00CF9BB699B6CB3F1FF3F24D1BB694B
:105A4000DB6C002B0DD0B869396800F08BFA034687
:105A5000012B1ED17B68002B1BD07B6801221A60B2
:105A600017E0BB695B6A002B13D0BB69243318466F
:105A700000F09CFD0346002B0BD07B68002B08D068
:105A80007B6801221A6004E0BB699B6C5A1CBB69ED
:105A90009A640123FB6101E00023FB617869FFF751
:105AA000AFFBFB6918462037BD4680BD80B58AB084
:105AB00000AFF860B9607A603B6000237B62FB68EE
:105AC0003B62FFF771FB3B6A9B6B002B3BD03B6A51
:105AD000DB68FB61386AB96800F020F93B68002B8D
:105AE0001CD13B6A9B6B5A1E3B6A9A633B6A1B68DC
:105AF000002B04D100F07AFF02463B6A5A603B6AF1
:105B00001B69002B1BD03B6A1033184600F04EFD7A
:105B10000346012B13D1FFF737FB10E03B6AFA690C
:105B2000DA603B6A5B6A002B09D03B6A2433184673
:105B300000F03CFD0346002B01D0FFF725FBFFF7EB
:105B400043FB012366E07B68002B03D1FFF73CFB9E
:105B500000235FE07B6A002B06D107F1140318468F
:105B600000F07AFD01237B62FFF72EFB00F0F2FAD2
:105B7000FFF71AFB3B6A5B6CB3F1FF3F02D13B6A54
:105B800000225A643B6A9B6CB3F1FF3F02D13B6A2F
:105B900000229A64FFF718FB07F114023B1D104620
:105BA000194600F06FFD0346002B2BD1386A00F038
:105BB00035F90346002B1FD03B6A1B68002B08D128
:105BC000FFF7F2FA3B6A5B68184600F03DFFFFF70B
:105BD000FBFA3B6A03F124027B681046194600F089
:105BE00073FC386A00F0C0F800F0C2FA0346002BDC
:105BF0000FD1FFF7C9FA0CE0386A00F0B5F800F0F1
:105C0000B7FA5EE7386A00F0AFF800F0B1FA0023A7
:105C100000E056E718462837BD4680BD80B584B001
:105C200000AF78607B68FB60F86800F04DF9FB68B6
:105C30001B68002B04D0FB681B68184601F05EFA55
:105C4000F86801F05BFA1037BD4680BD80B584B0BE
:105C500000AFF860B9607A60FB681B6C002B0CD158
:105C6000FB681B68002B51D1FB685B68184600F08D
:105C700063FFFB6800225A6048E07B68002B1AD162
:105C8000FB689A68FB681B6C1046B9681A4607F0F7
:105C9000BFF9FB689A68FB681B6C1A44FB689A6042
:105CA000FB689A68FB685B689A422FD3FB681A68A6
:105CB000FB689A602AE0FB68DA68FB681B6C104698
:105CC000B9681A4607F0A4F9FB68DA68FB681B6C30
:105CD0005B421A44FB68DA60FB68DA68FB681B68A1
:105CE0009A4207D2FB685A68FB681B6C5B421A44F5
:105CF000FB68DA607B68022B08D1FB689B6B002B8A
:105D000004D0FB689B6B5A1EFB689A63FB689B6B15
:105D10005A1CFB689A631037BD4680BD80B582B0BF
:105D200000AF786039607B681B68002B19D07B68F6
:105D3000DA687B681B6C1A447B68DA607B68DA6817
:105D40007B685B689A4203D37B681A687B68DA6079
:105D50007B68DA687B681B6C386811461A4607F066
:105D600057F90837BD4680BD80B582B000AF786076
:105D7000FFF71AFA22E07B68DB6C002B09D0786809
:105D8000002100F0EFF80346012B12D100F0BEFC19
:105D90000FE07B685B6A002B0AD07B6824331846CF
:105DA00000F004FC0346002B03D000F0AFFC00E041
:105DB00008E07B689B6C5A1E7B689A647B689B6CCE
:105DC000002BD8DC7B684FF0FF329A64FFF7FCF9B8
:105DD000FFF7EAF914E07B681B69002B0FD07B68A2
:105DE0001033184600F0E2FB0346002B01D000F010
:105DF0008DFC7B685B6C5A1E7B685A6400E003E094
:105E00007B685B6C002BE6DC7B684FF0FF325A64EA
:105E1000FFF7DAF90837BD4680BD00BF80B584B012
:105E200000AF7860FFF7C0F97B689B6B002B02D155
:105E30000123FB6001E00023FB60FFF7C5F9FB686D
:105E400018461037BD4680BD80B584B000AF78607D
:105E5000FFF7AAF97B689A6B7B68DB6B9A4202D1E9
:105E60000123FB6001E00023FB60FFF7ADF9FB6855
:105E700018461037BD4680BD80B485B000AF78604D
:105E800039600023FB6014E00E4AFB6852F833309F
:105E9000002B0BD10B49FB683A6841F83320094AC3
:105EA000FB68DB0013447A685A6005E0FB68013345
:105EB000FB60FB68092BE7D91437BD465DF8047B0E
:105EC000704700BFAC35012080B485B000AF78606A
:105ED0000023FB6010E00C4AFB68DB0013445A68A7
:105EE0007B689A4205D1084AFB68002142F83310CA
:105EF00005E0FB680133FB60FB68092BEBD9143725
:105F0000BD465DF8047B7047AC35012080B584B098
:105F100000AF786039607B68FB60FFF745F9FB688C
:105F20005B6CB3F1FF3F02D1FB6800225A64FB684F
:105F30009B6CB3F1FF3F02D1FB6800229A64FFF72C
:105F400043F9FB689B6B002B05D1FB682433184693
:105F5000396800F0F9FAF868FFF706FF1037BD4618
:105F600080BD00BF80B584B000AF786039607B68C9
:105F7000DB6CBB600023FB60BB689A6BBB68DB6BB0
:105F80009A4213D23B1DB86819463A68FFF75EFE85
:105F9000BB685B6A002B09D0BB682433184600F04D
:105FA00005FB0346002B01D00123FB60FB6818466C
:105FB0001037BD4680BD00BF80B58AB002AFF86023
:105FC000B9603B601346FB80FB881846396B00F0D4
:105FD000A7FCB861BB69002B67D0BB691A6BFB8853
:105FE00003F18043013B9B0013447B617B6923F0F9
:105FF00007037B61FB880093B869B968BA6A7B6B59
:1060000000F098FB7869F9683A68FFF74DF80246A6
:10601000BB691A60FB6A002B02D0FB6ABA691A607E
:10602000FFF7C2F82C4B1B6801332B4A13602B4B34
:106030001B68002B09D1294ABB691360264B1B68DA
:10604000012B0FD100F0BEFB0CE0254B1B68002B91
:1060500008D1224B1B68DA6ABB6A9A4202D81F4AEF
:10606000BB6913601F4B1B6801331E4A1360BB6979
:10607000DB6A1A46012303FA02F21B4B1B68134327
:10608000194A1360BB69DA6A13469B0013449B00EC
:10609000164A1A44BB6904331046194601F06CF8DD
:1060A0000123FB61FFF790F802E04FF0FF33FB6143
:1060B000FB69012B0BD10A4B1B68002B07D0074B48
:1060C0001B68DA6ABB6A9A4201D2FFF75DF8FB6986
:1060D00018462037BD4680BDCC3401208C330120CA
:1060E000D8340120E8340120D43401209033012039
:1060F00080B586B004AF00230093114B01930023B9
:106100000293002303930F480F4946220023FFF711
:1061100053FF78607B68012B02D100F069FD786045
:106120007B68012B09D1FFF761F8084B01221A6047
:10613000074B00221A60FFF709F80837BD4680BDFB
:10614000C83401202567002094150120D83401208F
:10615000D034012080B400AF044B1B680133034AE4
:106160001360BD465DF8047B704700BFEC3401202E
:1061700080B582B000AF00237B60FFF715F8344B89
:106180001B68013B324A1360314B1B68002B57D10F
:10619000304B1B68002B53D030E02F4BDB68DB68A3
:1061A0003B603B681833184601F042F83B68043303
:1061B000184601F03DF83B68DB6A1A46012303FAF2
:1061C00002F2264B1B681343244A13603B68DA6AC9
:1061D00013469B0013449B00214A1A443B68043336
:1061E0001046194600F0C8FF3B68DA6A1D4B1B6871
:1061F000DB6A9A4202D31C4B01221A60164B1B68C1
:10620000002BCAD1194B1B68002B11D00CE000F0F9
:1062100041F80346002B02D0134B01221A60134BA6
:106220001B68013B114A1360104B1B68002BEED119
:106230000D4B1B68012B03D101237B60FEF7A4FFEC
:10624000FEF7C2FF7B6818460837BD4680BD00BF19
:10625000EC340120CC34012088340120D4340120D6
:10626000903301208C330120E0340120DC34012004
:1062700080B582B000AFFEF797FF054B1B687B60CF
:10628000FEF7A2FF7B6818460837BD4680BD00BFF9
:10629000D034012080B586B000AF00237B614A4B2B
:1062A0001B68002B7FD1494B1B680133474A1360A1
:1062B000464B1B683B613B69002B10D1444B1B686C
:1062C000FB60444B1B68424A1360424AFB68136000
:1062D000414B1B680133404A136000F063FB3F4BA6
:1062E0001B683A699A424FD3394B1B681B68002BD5
:1062F00001D1012300E00023002B04D0374B4FF0E5
:10630000FF321A6040E0324B1B68DB68DB68BB6021
:10631000BB685B687B603A697B689A4203D22F4A0C
:106320007B68136030E0BB680433184600F080FFE0
:10633000BB689B6A002B04D0BB681833184600F07A
:1063400077FFBB68DB6A1A46012303FA02F2244B8B
:106350001B681343224A1360BB68DA6A13469B002A
:1063600013449B001F4A1A44BB6804331046194665
:1063700000F002FFBB68DA6A1B4B1B68DB6A9A42BB
:1063800001D301237B61AFE7174B1B68DA6A15491C
:1063900013469B0013449B000B441B68012B07D939
:1063A00001237B6104E0114B1B6801330F4A13602A
:1063B0000F4B1B68002B01D001237B617B691846C2
:1063C0001837BD4680BD00BFEC340120D034012019
:1063D0008034012084340120E4340120DC1A0120BF
:1063E000D4340120903301208C330120DC3401208F
:1063F000E034012080B584B000AF2D4B1B68002B2A
:1064000003D02C4B01221A604FE02A4B00221A6065
:10641000294B1B681A68284B1B681B6B9A4208D8CB
:10642000254B1A68244B1B68343310461946FDF778
:10643000EBFF214B1B681B6B18462049142206F00A
:10644000B5FD0346002B08D01B4B1A681A4B1B687E
:10645000343310461946FDF7D7FF194B1B687B6094
:106460007B68B3FA83F3FB70FB78C3F11F03FB6017
:10647000FA6813469B0013449B00124A1344BB6006
:10648000BB685B685A68BB685A60BB685A68BB687F
:1064900008339A4204D1BB685B685A68BB685A608B
:1064A000BB685B68DB68044A13601037BD4680BD7B
:1064B000EC340120E03401208C3301209C150120B4
:1064C000D43401209033012080B584B000AF7860CF
:1064D0003960194B1B6818337868194600F070FE54
:1064E000154B1B680433184600F0A2FE0346002B30
:1064F0000BD1114B1B68DB6A1A4601239340DA4328
:106500000E4B1B6813400D4A13603B68B3F1FF3F0D
:1065100007D1094B1B6804330948194600F02CFECB
:1065200007E0084B1A683B681344FB60F86800F00A
:10653000C1F91037BD4680BD8C330120D434012011
:10654000B4340120D034012080B584B000AF78602D
:106550003960134B1B6818337868194600F00CFE3D
:106560000F4B1B680433184600F062FE0346002BF5
:106570000BD10B4B1B68DB6A1A4601239340DA43AD
:10658000084B1B681340074A1360074B1A683B68A7
:106590001344FB60F86800F08DF91037BD4680BDEC
:1065A0008C330120D4340120D034012080B584B054
:1065B00000AF78607B68DB68DB68BB60BB68183362
:1065C000184600F035FE1E4B1B68002B1ED1BB6821
:1065D0000433184600F02CFEBB68DB6A1A46012320
:1065E00003FA02F2174B1B681343164A1360BB6889
:1065F000DA6A13469B0013449B00134A1A44BB6893
:1066000004331046194600F0B7FD05E0BB681833A7
:106610000E48194600F0B0FDBB68DA6A0C4B1B68E7
:10662000DB6A9A4205D90123FB600A4B01221A60FA
:1066300001E00023FB60FB6818461037BD4680BDB3
:10664000EC340120D434012090330120883401201F
:106650008C330120E034012080B483B000AF786037
:10666000064B1A687B681A60054B1A687B685A608B
:106670000C37BD465DF8047B704700BFE434012051
:10668000D034012080B584B000AF78603960FEF767
:106690008BFD1C4B1B68BB603B681B68B3F1FF3F65
:1066A00002D10023FB6026E07B681A68164B1B684A
:1066B0009A4207D07B685A68BB689A4202D8012385
:1066C000FB6018E07B685B68BA68D21A3B681B689D
:1066D0009A420ED23B681A687B685968BB68CB1A2D
:1066E0001A443B681A607868FFF7B6FF0023FB6026
:1066F00001E00123FB60FEF767FDFB6818461037D9
:10670000BD4680BDD0340120E434012080B400AF08
:10671000034B01221A60BD465DF8047B704700BF41
:10672000E034012080B582B000AF786000F088F8D6
:10673000FCE700BF80B586B000AFF860B9607A6052
:106740003B6000237B6113E0BA687B6913441978CE
:10675000FA687B69134430330A461A71BA687B6958
:1067600013441B78002B00D105E07B6901337B616A
:106770007B690B2BE8D9FB68002283F83F207B68FC
:10678000092B01D909237B60FB687A68DA62FB6810
:106790007A681A64FB680433184600F0E1FCFB6871
:1067A0001833184600F0DCFCFB68FA681A617B6855
:1067B000C3F10A02FB689A61FB68FA685A621837EB
:1067C000BD4680BD80B582B000AF00237B600CE089
:1067D0007A6813469B0013449B00114A13441846E1
:1067E00000F09EFC7B6801337B607B68092BEFD94E
:1067F0000C4800F095FC0C4800F092FC0B4800F0AF
:106800008FFC0B4800F08CFC0A4800F089FC0A4B16
:10681000044A1A60094B044A1A600837BD4680BD15
:1068200090330120583401206C3401208834012039
:106830009C340120B43401208034012084340120B0
:1068400080B582B000AF28E0FFF784FC164B1B68D0
:10685000002B0CBF01230023DBB27B60FFF788FC19
:106860007B68002B19D1FEF79FFC0F4BDB68DB68C0
:106870003B603B680433184600F0DAFC0B4B1B68A6
:10688000013B0A4A13600A4B1B68013B084A13602C
:10689000FEF79AFC386800F075F8054B1B68002B72
:1068A000D2D10837BD4680BD9C340120CC340120B4
:1068B000B034012080B582B000AF7860134B1B6804
:1068C0007A685A60124B1B687A689A4209D2114B57
:1068D0001A680E4B1B6804331046194600F070FC12
:1068E00010E00D4B1A68094B1B680433104619461B
:1068F00000F066FC094B1B687A689A4202D2074A8C
:106900007B6813600837BD4680BD00BF8C33012013
:10691000D03401208434012080340120DC1A01208D
:1069200080B584B000AF03463960FB80442000F09E
:10693000CDFBF860FB68002B1FD03B68002B06D115
:10694000FB889B00184600F0C1FB034600E03B6853
:10695000FA681363FB681B6B002B05D1F86800F025
:10696000CDFB0023FB6008E0FB681A6BFB889B00F3
:106970001046A5211A4606F049FCFB681846103758
:10698000BD4680BD80B582B000AF78607B681B6B70
:10699000184600F0B3FB786800F0B0FB0837BD463E
:1069A00080BD00BF80B483B000AF0E4B1B681B6876
:1069B000002B01D1012300E00023002B04D00A4B5F
:1069C0004FF0FF321A6008E0064B1B68DB68DB689B
:1069D0007B607B685B68044A13600C37BD465DF8DA
:1069E000047B704780340120DC1A012080B483B01E
:1069F00000AF054B1B687B607B6818460C37BD46B3
:106A00005DF8047B704700BF8C33012080B483B0F5
:106A100000AF0B4B1B68002B02D101237B6008E009
:106A2000084B1B68002B02D102237B6001E000238E
:106A30007B607B6818460C37BD465DF8047B704769
:106A4000D8340120EC34012080B584B000AF7860E8
:106A50007B68FB607B68002B64D0FB68DA6A334B91
:106A60001B68DB6A9A425DD2FB689B69002B06DBE0
:106A70002E4B1B68DB6AC3F10A02FB689A61FB6854
:106A80005969FB68DA6A13469B0013449B00284A45
:106A90001344994201D1012300E00023002B3CD094
:106AA000FB680433184600F0C3FB0346002B15D1E6
:106AB000FB68DA6A1E4913469B0013449B000B4493
:106AC0001B68002B0AD1FB68DB6A1A46012393403E
:106AD000DA43184B1B681340164A1360134B1B68AC
:106AE000DA6AFB68DA62FB68DB6A1A46012303FA9A
:106AF00002F2104B1B6813430E4A1360FB68DA6AFC
:106B000013469B0013449B00094A1A44FB68043354
:106B10001046194600F030FB04E0044B1B68DA6AAB
:106B2000FB68DA621037BD4680BD00BF8C330120A0
:106B300090330120D434012080B584B000AF786058
:106B40007B68FB607B68002B4AD0FB68DA6AFB68D5
:106B50001B6C9A4244D0FB680433184600F068FB73
:106B60000346002B15D1FB68DA6A1F4913469B00C8
:106B700013449B000B441B68002B0AD1FB68DB6AA3
:106B80001A4601239340DA43184B1B681340174AF7
:106B90001360FB681A6CFB68DA62FB689B69002B68
:106BA00005DBFB68DB6AC3F10A02FB689A61FB68DC
:106BB000DB6A1A46012303FA02F20C4B1B681343EB
:106BC0000A4A1360FB68DA6A13469B0013449B0071
:106BD000054A1A44FB6804331046194600F0CCFA03
:106BE0001037BD4680BD00BF90330120D434012052
:106BF00080B586B004AF00237B6000F031FA0C4B07
:106C00001B68002B0ED00223009300230193002366
:106C1000029300230393074807498C220023FFF7C0
:106C2000CBF978607B6818460837BD4680BD00BF49
:106C3000203501202D6D0020B015012080B588B0D1
:106C400000AFF860B9607A603B600023FB611D4BC8
:106C50001B68002B30D0BB683B617B687B61FB68A5
:106C6000BB61BB68052B1CDCFFF7D0FE0346022B83
:106C70000BD1144B1A6807F1100310461946BA6A73
:106C80000023FEF723FEF86116E00E4B1A6807F1A9
:106C900010031046194600220023FEF717FEF86184
:106CA0000AE0084B1A6807F11003104619463A68C3
:106CB0000023FEF7A5FEF861FB6918462037BD46A4
:106CC00080BD00BF2035012080B586B002AF78605E
:106CD0003960154B1B68DB68DB68FB60FB680433BD
:106CE000184600F0A5FAFB68DB69012B15D1FB689B
:106CF0009A697B681344F86819463A687B6800F023
:106D0000A1F80346012B08D100230093F868002165
:106D10007A680023FFF792FFB860FB685B6AF86847
:106D200098471037BD4680BD1835012080B584B026
:106D300000AF786007F10803184600F03FF8F860EC
:106D4000BB68F868194600F003F800F0BDF8F1E7F9
:106D500080B584B000AF78603960FFF7FBF907F1C8
:106D60000803184600F04EF8F860BB68002B1ED1EF
:106D70003B68002B0AD17A68FB689A4206D8FFF775
:106D8000F7F97868F968FFF79FFF12E00A4B196876
:106D90007A68FB68D31A08461946FFF7B7F8FFF779
:106DA000E7F90346002B04D1FEF7EEF901E0FFF707
:106DB000DFF91037BD4680BD2035012080B485B095
:106DC00000AF78600E4B1B681B68002B0CBF0123C3
:106DD0000023DBB21A467B681A607B681B68002BB5
:106DE00005D1074B1B68DB681B68FB6001E00023D3
:106DF000FB60FB6818461437BD465DF8047B70479E
:106E00001835012080B584B000AF7860FFF730FA04
:106E1000F8600B4B1B68FA689A4205D200F0CEF876
:106E20007B6801221A6002E07B6800221A60044A33
:106E3000FB681360FB6818461037BD4680BD00BF75
:106E40002435012080B586B000AFF860B9607A6063
:106E50003B6000237B61FB68BA685A60FB68FA6894
:106E60001A61BA687B689A4212D87A683B68D21A6B
:106E7000FB689B699A4202D301237B611BE0104BA4
:106E80001A68FB6804331046194600F099F912E0BD
:106E90007A683B689A4206D2BA683B689A4202D343
:106EA00001237B6107E0074B1A68FB680433104637
:106EB000194600F085F97B6918461837BD4680BD34
:106EC0001C3501201835012080B58AB002AF62E080
:106ED000BB68002B5FDB3B69FB61FB695B69002BD7
:106EE00004D0FB690433184600F0A2F93B1D184694
:106EF000FFF788FFB861BB68092B4BD801A252F895
:106F000023F000BF2D6F00202D6F00202D6F00207B
:106F1000976F0020716F00208D6F00202D6F002073
:106F20002D6F0020976F0020716F0020FA68FB69B9
:106F30009B691A44FB68F8691146BA69FFF782FF3A
:106F40000346012B13D1FB695B6AF8699847FB691B
:106F5000DB69012B0BD1FA68FB699B691A4400239A
:106F60000093F86900210023FFF768FE786112E0C2
:106F7000FA68FB699A61FB699A69BB691344F8690D
:106F80001946BA69BB69FFF75DFF04E0F86900F0D4
:106F9000B5F800E000BF084B1A6807F10803104677
:106FA000194600220023FEF781FD0346002B8FD1F6
:106FB0002037BD4680BD00BF2035012080B588B098
:106FC00002AF37E0244B1B68DB681B687B61224BF8
:106FD0001B68DB68DB683B613B690433184600F0E3
:106FE00027F93B695B6A386998473B69DB69012B84
:106FF00020D13B699A697B691344FB60FA687B691D
:107000009A420ED93B69FA685A603B693A691A613B
:10701000114B1A683B6904331046194600F0D0F84A
:1070200008E000230093386900217A690023FFF704
:1070300005FEB860084B1B681B68002BC2D1064BCD
:107040001B687B60054B1B68034A1360034A7B681F
:1070500013601837BD4680BD183501201C3501204E
:1070600080B500AFFEF7A0F8124B1B68002B1DD1B6
:10707000114800F055F8114800F052F8104B0E4A34
:107080001A60104B0D4A1A6014200C210022FEF7E2
:107090009FFB0246074B1A60064B1B68002B05D06E
:1070A000044B1B6818460849FEF7E6FEFEF78CF80D
:1070B00080BD00BF20350120F034012004350120BF
:1070C000183501201C350120B815012080B584B089
:1070D00000AF7860FFF73EF8786805F0C9FC03461A
:1070E000FB60FFF745F8FB68002B01D1FDF788F93D
:1070F000FB6818461037BD4680BD00BF80B582B022
:1071000000AF78607B68002B06D0FFF723F8786823
:1071100005F0B6FCFFF72CF80837BD4680BD00BF70
:1071200080B483B000AF78607B6803F108027B68AD
:107130005A607B684FF0FF329A607B6803F1080267
:107140007B68DA607B6803F108027B681A617B6800
:1071500000221A600C37BD465DF8047B704700BF03
:1071600080B483B000AF78607B6800221A610C376E
:10717000BD465DF8047B704780B485B000AF786091
:1071800039607B685B68FB603B68FA685A60FB6843
:107190009A683B689A60FB689B683A685A60FB682B
:1071A0003A689A603B687A681A617B681B685A1C67
:1071B0007B681A601437BD465DF8047B704700BFDA
:1071C00080B485B000AF786039603B681B68BB60F5
:1071D000BB68B3F1FF3F03D17B681B69FB600CE028
:1071E0007B680833FB6002E0FB685B68FB60FB6860
:1071F0005B681A68BB689A42F6D9FB685A683B68B4
:107200005A603B685B683A689A603B68FA689A60C3
:10721000FB683A685A603B687A681A617B681B6849
:107220005A1C7B681A601437BD465DF8047B7047B2
:1072300080B485B000AF78607B681B69FB607B68B9
:107240005B687A6892689A607B689B687A68526823
:107250005A60FB685A687B689A4203D17B689A68D7
:10726000FB685A607B6800221A61FB681B685A1E23
:10727000FB681A60FB681B6818461437BD465DF84A
:10728000047B704780B582B000AF0346FB71FB7989
:1072900003F00103002B04D009200D490D4A00F032
:1072A0000BF9FB7903F00203002B04D00A200A49F2
:1072B0000A4A00F001F9FB7903F00403002B04D023
:1072C0000B200749074A00F0F7F80837BD4680BD94
:1072D00028350120FC3501202C350120FD35012009
:1072E00030350120FE35012080B582B000AF034665
:1072F000FB71FB79013B0B2B5AD801A252F823F00A
:10730000477300205D7300205D7300205D730020D3
:107310005D7300203173002031730020477300201B
:107320005D730020477300203173002073730020C9
:10733000214B1A68214B1B780B2011461A4601235A
:1073400000F0DEF835E01E4B1A681E4B1B780A2051
:1073500011461A46012300F0D3F82AE01A4B1A68A6
:107360001A4B1B78092011461A46012300F0C8F871
:107370001FE0114B1A68114B1B780B2011461A465F
:10738000012300F0BDF80E4B1A680E4B1B780A2043
:1073900011461A46012300F0B3F80B4B1A680B4B49
:1073A0001B78092011461A46012300F0A9F800E0D5
:1073B00000BF0837BD4680BD30350120FE350120B5
:1073C0002C350120FD35012028350120FC35012018
:1073D00080B582B000AF0346FB71FB79013B0B2BFC
:1073E0005AD801A252F823F02F74002045740020CF
:1073F0004574002045740020457400201974002055
:10740000197400202F740020457400202F74002070
:10741000197400205B740020214B1A68214B1B78E3
:107420000B2011461A46002300F06AF835E01E4B87
:107430001A681E4B1B780A2011461A46002300F0DA
:107440005FF82AE01A4B1A681A4B1B78092011467C
:107450001A46002300F054F81FE0114B1A68114B34
:107460001B780B2011461A46002300F049F80E4BFA
:107470001A680E4B1B780A2011461A46002300F0AA
:107480003FF80B4B1A680B4B1B78092011461A4624
:10749000002300F035F800E000BF0837BD4680BD8E
:1074A00030350120FE3501202C350120FD3501202D
:1074B00028350120FC35012080B485B000AF03469B
:1074C000B9607A60FB73FB7B03F00703012202FAC9
:1074D00003F3DAB27B681A70FB7BDB08DBB21A4677
:1074E000BB681A60BB681B68044A52F82320BB685B
:1074F0001A601437BD465DF8047B7047E01A01201E
:1075000080B582B000AF396011461A460346FB7160
:107510000B46BB7113467B717A79FB7903F0070345
:1075200002FA03F37B71BA797B79386811461A46FF
:1075300003F0BCFF0837BD4680BD00BF80B500AF7B
:107540000C2004F03FFA0346054819464FF4E13297
:10755000602304F0A3FD034B00221A6080BD00BF2E
:1075600000C000403435012080B582B000AF7860A3
:107570007B68002B0CD007E07B685A1C7A601B7874
:107580000548194604F018FE7B681B78002BF3D1E0
:107590000837BD4680BD00BF00C000400FB480B5B5
:1075A00086B000AF00237B614FF48073FB60FB6803
:1075B000184605F05DFA03463B613B69002B02D19A
:1075C0004FF0FF332EE007F124037B60FB6838693E
:1075D00019463A6A7B6806F0E3F878617B69002B0C
:1075E00003DB7A69FB689A4215DBFB685B00FB6092
:1075F000FB683869194605F05BFEB860BB68002B74
:1076000006D10C48FFF7B0FF4FF0FF337B6102E07B
:10761000BB683B61D7E73869FFF7A6FF386905F01B
:107620002FFA7B6918461837BD46BDE8804004B084
:10763000704700BFC815012080B483B000AF7860E8
:107640007B68B3F1333F18D0B3F1333F06D8B3F1C1
:10765000113F0DD0B3F1223F0CD018E0B3F1553FEC
:1076600010D0B3F1663F0FD0B3F1443F07D00EE026
:1076700000230EE04FF6FF730BE0022309E04FF604
:10768000FE7306E0032304E04FF6FD7301E07B6820
:107690009BB21BB218460C37BD465DF8047B7047A1
:1076A00090B589B000AFF860B9607A600A23FB83B7
:1076B00003F024FE00F062FAFB68002B08D1434B74
:1076C0001C68B868002103F041FC0346236003E016
:1076D0003E4B1B68FA681A600E20082101F0E8FE94
:1076E0000346FB83B7F91E300A2B02D14FF6300355
:1076F00066E0364B1B68903318464FF0FF31FDF7BC
:10770000DBFE0346BB83B7F91C30002B00D0FEE73D
:107710002E4B1968B7F91E2013465B0013449B00DB
:107720000B44103307F114025A60284B1B68903346
:107730001846FDF7DFFE03467B83B7F91A30002BAE
:1077400000D0FEE7214B1B681B68002B34DB03F0E5
:1077500033FE1F48002103F09FFD7B68002B03D000
:107760001A4B1B687A68DA6003F00EFE7B68002B08
:1077700022D1164B1968B7F91E2013465B0013443B
:107780009B0010330B4418464FF0FF31FDF728FEE5
:1077900003463B83B7F91830002B00D0FEE70B4BB4
:1077A0001B6893F8C030184601F09AFF7B691846B1
:1077B000FFF742FF034603E0044B1B681B689BB2C4
:1077C0001BB218462437BD4690BD00BF3835012096
:1077D0001D7D002090B587B000AF78607B680833CE
:1077E0007B61334B1B68903318464FF0FF31FDF738
:1077F00063FE03467B82B7F91230002B00D0FEE710
:107800002B4B1B68DB68002B0BD0294B1B68DC68FB
:107810007B691B681846FFF70FFF03461846A04711
:1078200029E0234B1A68224B1B6893F8C030194695
:107830000B465B000B449B00134410335B681846F7
:107840007969042205F0E4FB194B1A68184B1B6890
:1078500093F8C03019460B465B000B449B00103375
:1078600013441846FDF778FD03463B82B7F9103004
:10787000002B00D0FEE70E4B1B6890331846FDF737
:1078800039FE0346FB81B7F90E30002B00D0FEE72E
:10789000074B1B68DB68002B06D0054B1B6893F871
:1078A000C030184601F01CFF1C37BD4690BD00BF1C
:1078B0003835012080B586B000AF78607B6808332A
:1078C0007B61254B1B68903318464FF0FF31FDF765
:1078D000F3FD03467B82B7F91230002B00D0FEE7A0
:1078E0001D4B1A681C4B1B6893F8C03019460B4699
:1078F0005B000B449B00134410335B6818467969A6
:10790000042205F085FB144B1A68134B1B6893F88F
:10791000C03019460B465B000B449B0010331344E8
:107920001846FDF719FD03463B82B7F91030002BCE
:1079300000D0FEE7084B1B6890331846FDF7DAFDD0
:107940000346FB81B7F90E30002B00D0FEE700BFE5
:107950001837BD4680BD00BF3835012080B588B0DE
:1079600000AF0346FB800023FB830A23BB83FB8815
:10797000002B0ED10020002103F08EFC03F01CFD33
:10798000424B1B681B68184603F088FB0346FB83C9
:1079900073E0FB883B820E20082101F089FD03463D
:1079A000BB83B7F91C300A2B02D14FF6300367E0D6
:1079B000364B1B68903318464FF0FF31FDF77CFDC6
:1079C00003467B83B7F91A30002B00D0FEE72F4B1C
:1079D0001968B7F91C2013465B0013449B000B4445
:1079E000103307F10C025A60284B1B68903318467D
:1079F000FDF780FD03463B83B7F91830002B00D01C
:107A0000FEE707F1100322481946002200F0B6F9FC
:107A10000346FB82B7F91630002B00D0FEE73B8A05
:107A2000002B19D1194B1968B7F91C2013465B00BC
:107A300013449B0010330B4418464FF0FF31FDF701
:107A4000CFFC0346BB82B7F91430002B00D0FEE711
:107A5000BB893B823B8AFB83BB8BDBB2184601F0C0
:107A60003FFE0020002103F017FC03F0A5FC074BAC
:107A70001B681B68184603F011FB00F0F9F8FB8B3C
:107A80001BB218462037BD4680BD00BF38350120E7
:107A9000E815012080B58CB000AFB9607A603B601A
:107AA0000346FB737B681B78002B01D1234B41E01D
:107AB000BB68002B3CD00023BB827B681B789BB249
:107AC000FB820023FB613B683B6200233B83FB7B23
:107AD0009BB2FB84BB681B789BB23B8507F12402F9
:107AE00007F11403164811461A4600F047F90346F9
:107AF000FB85B7F92E30002B00D0FEE7BB68002BCA
:107B000003D03B8DDAB2BB681A70FA8A3B8B9A427B
:107B100006D2FB8ADAB27B681A706FF4FA6309E066
:107B20003B8BDAB27B681A70BB8C9BB21BB201E054
:107B30004FF0FF3318463037BD4680BD2EF8FFFFAB
:107B4000EC15012080B584B000AF78607B68FB60E5
:107B5000FB681B88732B07D0782B0AD0082B07D122
:107B6000F868FFF737FE05E0F868FFF7A3FE01E0CD
:107B7000FEE700BF1037BD4680BD00BF80B584B0B2
:107B800000AF384B384A1A60364B1B68002B00D1C7
:107B9000FEE7344B1B6818460021CC2205F036FB6B
:107BA000304B1B6894331846FDF7A2FB0346BB819C
:107BB000B7F90C30002B00D0FEE72A4B1B6894333A
:107BC00018460021FDF70CFC264B1B6804331846B1
:107BD000FDF724FC03467B81B7F90A30002B00D067
:107BE000FEE7204B1B6890331846FDF717FC034651
:107BF0003B81B7F90830002B00D0FEE701F090FE82
:107C00000023FB7322E0174B1968FA7B13465B00D5
:107C100013449B0010330B441846FDF769FB0346E1
:107C2000FB80B7F90630002B00D0FEE70D4B19683A
:107C3000FA7B13465B0013449B0010330B44184639
:107C40000021FDF7CDFBFB7B0133FB73FB7B092B95
:107C5000D9D901F0DDFF054B00221A701037BD465F
:107C600080BD00BF38350120043601204035012099
:107C700080B584B000AF01F0F3FF274B1B6894334D
:107C80001846FDF755FB0346BB81B7F90C30002BB6
:107C900000D0FEE7204B1B6804331846FDF7FCFBC1
:107CA00003467B81B7F90A30002B00D0FEE71A4B60
:107CB0001B6890331846FDF7EFFB03463B81B7F98D
:107CC0000830002B00D0FEE70023FB7315E0124BB9
:107CD0001968FA7B13465B0013449B0010330B4476
:107CE0001846FDF725FB0346FB80B7F90630002B4D
:107CF00000D0FEE7FB7B0133FB73FB7B092BE6D94E
:107D000001F050FE044B00221A60034B00221A605F
:107D10001037BD4680BD00BF3835012080B584B026
:107D200000AF786003F0D2FA124B1B6893F8A920D9
:107D3000D2B20132D2B283F8A9200E4B1B6893F85D
:107D40009830012B0DD10B4B1B6894331846FDF76F
:107D50001FFB0346FB81B7F90E30002B00D0FEE776
:107D600004E0054800210022FDF7E0FB1037BD4686
:107D700080BD00BF38350120C58F002080B588B098
:107D800000AFF860B9607A602A4B1B68043318466C
:107D90004FF0FF31FDF790FB0346BB83B7F91C3072
:107DA000002B00D0FEE7234B1B68012283F89820AC
:107DB000204B1B68FA68C3F8B0201E4B1B68BA68DA
:107DC000C3F8B4201B4B1B687A68C3F8B82000F0D6
:107DD0005BF80346FB83B7F91E30002B16D1164B18
:107DE0001B78002B0DD100237B61134B01221A70ED
:107DF0004FF47A637B6100BF7B695A1E7A61002B66
:107E0000FAD101F053F80346FB830CE0094B1B68E1
:107E100004331846FDF76EFB03467B83B7F91A302F
:107E2000002B00D0FEE7FB8B1BB218462037BD4667
:107E300080BD00BF383501204035012080B586B0B7
:107E400000AFF860B9607A600E4B1B68002283F8BF
:107E500098200C4B1B68FA68C3F8B020094B1B68CC
:107E6000BA68C3F8B420074B1B687A68C3F8B82017
:107E700000F00AF80346FB82FB8A1BB2184618374B
:107E8000BD4680BD3835012080B586B000AF8D4B32
:107E90001B68D3F8B030002B00D1FEE7894B1B687C
:107EA000884A1268D2F8B02012881A81854B1A6865
:107EB000844B1B68D3F8B830002B17D0814B1B685C
:107EC000D3F8B0309B789BB203339BB223F003030B
:107ED00099B27C4B1B68D3F8B8301B8803339BB234
:107EE00023F003039BB20B449BB20AE0754B1B6863
:107EF000D3F8B0309B789BB203339BB223F00303DB
:107F00009BB253816F4B1B6893F8AD30012B0CD1A2
:107F10006C4B1B686B4A126851896A4A1268D2F826
:107F2000B82052880A4492B25A810423FB82654BDE
:107F30001B681A68B7F91630104663491A4603F0F1
:107F400061F90346BB82B7F91620B7F914309A429B
:107F500000D0FEE704237B825A4B1B681968594BFB
:107F60001B6803F10802B7F91230084611461A4699
:107F700003F048F903463B82B7F91220B7F91030F5
:107F80009A4200D0FEE74F4B1B68D3F8B430002B69
:107F900029D04C4B1B68D3F8B0309B78002B22D0F3
:107FA000484B1B68D3F8B0309B789BB203339BB22D
:107FB0009BB223F00303FB81424B1B681968414BC2
:107FC0001B68D3F8B420B7F90E30084611461A469C
:107FD00003F018F90346BB81B7F90E20B7F90C304E
:107FE0009A4200D0FEE7374B1B6893F8AD30012B67
:107FF00027D1344B1B68002283F8AD20314B1B681E
:10800000D3F8B8305B8803339BB29BB223F00303F1
:108010007B812C4B1B6819682A4B1B68D3F8B8303E
:10802000DA68B7F90A30084611461A4603F0EAF84A
:1080300003463B81B7F90A20B7F908309A4200D0CD
:10804000FEE7204B1B68D3F8B830002B33D01D4B14
:108050001B68D3F8B8301B88002B2CD0194B1B6839
:10806000D3F8B0309B7803F00303002B00D0FEE779
:10807000144B1B68D3F8B8301B8803339BB29BB2F8
:1080800023F00303FB800F4B1B6819680D4B1B6823
:10809000D3F8B8309A68B7F90630084611461A4640
:1080A00003F0B0F80346BB80B7F90620B7F90430F7
:1080B0009A4200D0FEE700231BB218461837BD468F
:1080C00080BD00BF38350120F415012080B596B081
:1080D00000AF07F10C02FB1D1046194601F098F89D
:1080E0000346A7F84E30B7F94E30002B00D0FEE71C
:1080F00007F10C031B88082B28D0B74B1B6807F12E
:108100000C02127983F89C20B34B1B6807F10C0218
:10811000D27983F8AB20B04B1B6807F10C0292793F
:1081200083F8AC20AC4B1B6893F89C30012B0DD925
:10813000A94B1B68A4331846FDF70EF90346A7F8B0
:108140004C30B7F94C30002B00D0FEE707F10C03A0
:108150001B88184600F0B4FF9F4B1B6893F8C8308B
:10816000012B00F01C82022B03D0002B00F0D880E2
:108170001CE3994B1B68D3F8BC30002B00D0FEE702
:10818000954B1B68954AC3F8BC20934B1B68D3F8EA
:10819000BC30002B00D1FEE78F4B1B68D3F8BC30FE
:1081A0001A4607F10C0303CB1060516007F10C0372
:1081B0005B88013B23F00303A02B09D807F10C03D4
:1081C0005B88013B9BB223F00303A7F8543002E025
:1081D000A023A7F8543007F10C035B88042B1DD0B3
:1081E000B7F85430A7F84A307B4B1B6819687A4BB4
:1081F0001B68D3F8BC3003F10802B7F94A300846CF
:1082000011461A4602F08CFF0346A7F84830B7F92A
:108210004A20B7F948309A4200D0FEE707F10C0334
:108220005B88013B23F00303A02B2DD907F10C033E
:108230005B88013B9BB223F003039BB2A03BA7F8F2
:1082400054301DE00423A7F84630634B1B681968BF
:10825000B7F9463007F10802084611461A4602F0FF
:108260005FFF0346A7F84430B7F94620B7F944301A
:108270009A4200D0FEE7B7F85430043BA7F85430D8
:10828000B7F85430002BDDD1534B1B6890331846A0
:108290004FF0FF31FDF710F90346A7F84230B7F968
:1082A0004230002B00D0FEE707F10C031B8841F29F
:1082B000030293420DD007F10C031B8841F2032205
:1082C000934206D007F10C031B8841F20602934249
:1082D00010D107F10C031A883F4B1B68D3F8BC3050
:1082E00008339B7803F00F03DBB21046194601F008
:1082F000D7FB06E007F10C031B881846082101F0A4
:10830000CFFB354B1B6890331846FDF7F3F8034657
:10831000A7F84030B7F94030002B00D0FEE745E227
:1083200007F10C031B8841F20B02934204D041F287
:108330000B22934204D007E00C2387F8533006E069
:10834000182387F8533002E0042387F853300423BE
:10835000FB87214B1B681968B7F93E2007F10C0316
:1083600004330846194602F0DBFE0346BB87B7F923
:108370003E20B7F93C309A4200D0FEE707F10C03EB
:1083800004339B7803F00F03072B00DDFEE7124B4D
:108390001B68903318464FF0FF31FDF78DF8034608
:1083A0007B87B7F93A30002B00D0FEE707F10C03CA
:1083B0001A8807F10C0304339B7803F00F03DBB238
:1083C0001046194601F06CFB03463B87B7F938307D
:1083D000002B05D0FEE700BF38350120D036012044
:1083E000BC4B1A68BB4B1B6893F8C03019460B4650
:1083F0005B000B449B00134410335B681A6807F161
:108400000C03043310461946042204F001FE97F8C9
:108410005330042B27D997F853309BB2043B9BB2BF
:10842000FB86AC4B1B681868AA4B1A68A94B1B68E3
:1084300093F8C03019460B465B000B449B00134475
:1084400010335B681B681A1DB7F9363011461A469F
:1084500002F066FE0346BB86B7F93620B7F9343022
:108460009A4200D0FEE707F10C0304331B881BB2CD
:10847000002B6FDD07F10C0304331B889BB203F064
:108480000303A7F8563007F10C0304331B889BB293
:1084900023F00303A7F85430B7F85430032B23D943
:1084A000B7F854307B868B4B1B681868894B1A6869
:1084B000884B1B6893F8C03019460B465B000B4491
:1084C0009B00134410335B685A68B7F93230114689
:1084D0001A4602F025FE03463B86B7F93220B7F96B
:1084E00030309A4200D0FEE7B7F85630002B31D03A
:1084F0000423FB85774B1B681968B7F92E3007F109
:108500000802084611461A4602F00AFE0346BB85D9
:10851000B7F92E20B7F92C309A4200D0FEE76D4B08
:108520001A686C4B1B6893F8C03019460B465B0009
:108530000B449B00134410335B685A68B7F85430FF
:10854000D118B7F8563007F10802084611461A4606
:1085500004F05EFD5F4B1A685E4B1B6893F8C030F9
:1085600019460B465B000B449B001033134418461E
:10857000FCF7F2FE03467B85B7F92A30002B00D0CA
:10858000FEE7544B1B6890331846FCF7B3FF0346D5
:108590003B85B7F92830002B00D0FEE706E14D4BB4
:1085A0001B68D3F8B030DB789BB203339BB29BB22D
:1085B00023F00303FB84474B1B681968454B1B687A
:1085C000D3F8B420B7F92630084611461A4602F00F
:1085D000A7FD0346BB84B7F92620B7F924309A4299
:1085E00000D0FEE73B4B1B68D3F8B830002B00F0FF
:1085F000DC80384B1B68D3F8B8305B88002B00F068
:10860000D48007F10C035A88324B1B68D3F8B03082
:10861000DB789BB2D31A9BB2043B9BB2A7F85030D5
:108620002C4B1B68D3F8B830B7F850209A80B7F9B4
:108630005030002B06DC274B1B68D3F8B8300022E3
:108640005A80B2E0B7F95030224A1268D2F8B82006
:108650005288934212DD1F4B1B68D3F8B8305B88F9
:1086600003F00303A7F856301A4B1B68D3F8B83051
:108670005B8823F00303A7F854300BE0B7F85030C1
:1086800003F00303A7F85630B7F8503023F0030384
:10869000A7F85430B7F85430032B1DD9B7F854302D
:1086A0007B840C4B1B6819680A4B1B68D3F8B830E5
:1086B000DA68B7F92230084611461A4602F030FD52
:1086C00003463B84B7F92220B7F920309A4203D001
:1086D000FEE700BF38350120B7F85630002B2DD00B
:1086E0000423FB83424B1B681968B7F91E3007F15E
:1086F0000802084611461A4602F012FD0346BB83E3
:10870000B7F91E20B7F91C309A4200D0FEE7384B6B
:108710001B68D3F8B830DA68B7F85430D118B7F816
:10872000563007F10802084611461A4604F070FC5C
:10873000B7F85030043B9BB2A7F85030B7F950302F
:108740002B4A1268D2F8B820528893422DDDB7F830
:108750005020274B1B68D3F8B8305B8823F0030305
:108760009BB2D31AA7F854301BE004237B83204B21
:108770001B681968B7F91A3007F108020846114654
:108780001A4602F0CDFC03463B83B7F91A20B7F92D
:1087900018309A4200D0FEE7B7F85430043BA7F8EF
:1087A0005430B7F85430002BDFD100BFFB79002BD9
:1087B00016D0FB79FB820E4B1B681968B7F916308F
:1087C00007F10C02084611461A4602F0A9FC0346BE
:1087D000BB82B7F91620B7F914309A4200D0FEE7F1
:1087E00002F080FD00231BB218465837BD4680BDFD
:1087F0003835012090B5B7B000AFCD4B1B68D3F82A
:10880000BC30C7F8D430CA4B1B68D3F8C430002B37
:1088100000F04783D7F8D4301B8840F6B202934269
:1088200000F03F8240F6B202934224DC40F631026F
:10883000934200F0B98040F6310293420DDC40F6DD
:108840002F02934200F0E282B3F5036F46DA40F65E
:108850002E02934200F0898218E3B3F5086F00F00E
:10886000BA8040F68102934200F0088140F632025D
:10887000934263D00AE341F62202934200F0FE8263
:1088800041F6220293420FDC41F20E02934200F0C5
:10889000D28141F20F02934200F0E68140F6B3022A
:1088A000934200F04B82F1E241F62C02934200F039
:1088B0007C8141F62C02934205DC41F6250293426D
:1088C00000F03881E2E241F62D02934200F09081FF
:1088D00041F62522934200F04B81D7E2944B1B686E
:1088E000D3F8BC300833C7F8D0300723BB64D7F8BF
:1088F000D02007F16C0320321068186092889A80AB
:10890000D7F8D020D7F8D03093F826301C4607F19E
:108910004803043318461146224604F079FBD7F881
:10892000D03093F8263087F87230814B1B68D3F82B
:10893000C43007F1480210469847B2E27C4B1B68EE
:10894000D3F8BC300833C7F8CC300823BB64D7F861
:10895000CC2007F16C0320321068186092889A804E
:10896000D7F8CC20D7F8CC3093F826301C4607F146
:108970004803043318461146224604F049FBD7F851
:10898000CC3093F8263087F87230D7F8CC3093F893
:10899000273087F87330664B1B68D3F8C43007F173
:1089A0004802104698477CE2614B1B68D3F8BC3004
:1089B0000833C7F8C8300923BB64D7F8C8301B8810
:1089C000A7F84C305A4B1B68D3F8C43007F1480263
:1089D0001046984765E2564B1B68D3F8BC30083305
:1089E000C7F8C43007F148030433184600214C226D
:1089F00004F00CFC0123BB64D7F8C4301B7887F863
:108A00004C30D7F8C42007F18F0343321168196046
:108A100092889A80D7F8C43003F12302D7F8C43083
:108A200093F822301C4607F14803273318461146B5
:108A3000224604F0EDFAD7F8C4309A1CD7F8C430B7
:108A40005B781C4607F14803063318461146224658
:108A500004F0DEFAD7F8C4305B7887F84D30D7F8E9
:108A6000C43093F8223087F86E30314B1B68D3F84E
:108A7000C43007F148021046984712E22C4B1B689D
:108A8000D3F8BC300833C7F8C03007F148030433CB
:108A9000184600214C2204F0B9FB0223BB64D7F82E
:108AA000C0301B7887F84C30D7F8C02007F18F030F
:108AB00043321168196092889A80D7F8C03003F168
:108AC0002302D7F8C03093F822301C4607F1480340
:108AD000273318461146224604F09AFAD7F8C030D8
:108AE0009A1CD7F8C0305B781C4607F14803063360
:108AF00018461146224604F08BFAD7F8C0305B784E
:108B000087F84D30D7F8C03093F8493087F8953062
:108B1000D7F8C03093F8223087F86E30044B1B68CA
:108B2000D3F8C43007F1480210469847B9E100BFB6
:108B300038350120B44B1B68D3F8BC300833C7F874
:108B4000BC3001233B61D7F8BC301B687B61D7F890
:108B5000BC305B68BB61D7F8BC309B68FB61AA4B3B
:108B60001B68D3F8C43007F110021046984798E10B
:108B7000A54B1B68D3F8BC300833C7F8B8300223C4
:108B80003B61D7F8B8301A1D07F1100308331846B7
:108B90001146102204F03CFA9B4B1B68D3F8C430FA
:108BA00007F11002104698477BE1974B1B68D3F8FA
:108BB000BC300833C7F8B43003233B61D7F8B43076
:108BC0001B687B61D7F8B4305B68BB61D7F8B42011
:108BD00007F11C0308321068186092889A808A4B4B
:108BE0001B68D3F8C43007F110021046984758E1CB
:108BF000854B1B68D3F8BC300833C7F8B03004236A
:108C00003B61D7F8B0301B687B61D7F8B0305B8927
:108C1000FB83D7F8B02007F11803043210681860FE
:108C200092889A80784B1B68D3F8C43007F1100201
:108C30001046984735E1744B1B68D3F8BC300833B5
:108C4000C7F8AC3001237B603B1D04331846D7F8CE
:108C5000AC10082204F0DCF96B4B1B68D3F8C4306D
:108C60003A1D104698471CE1674B1B68D3F8BC308F
:108C70000833C7F8A83002237B60D7F8A8301B79E7
:108C80003B73D7F8A8305B797B73D7F8A830DB88C3
:108C9000FB815D4B1B68D3F8C4303A1D10469847E2
:108CA000FFE0594B1B68D3F8BC300833C7F8A43039
:108CB0000323BB64D7F8A4301B68FB64D7F8A43047
:108CC0005B683B65D7F8A4309B6A7B6707F1480374
:108CD0000C3318460021202204F098FAD7F8A4306B
:108CE00003F10801D7F8A4305A6807F148030C33A0
:108CF000184604F08DF9D7F8A4309B6A002B14D0E5
:108D000007F14803303318460021202204F07EFA90
:108D1000D7F8A43003F12C01D7F8A4309A6A07F1F0
:108D200048033033184604F073F9374B1B68D3F807
:108D3000C43007F1480210469847B2E0324B1B6836
:108D4000D3F8BC300833C7F8A0300423BB64D7F88D
:108D5000A0301B88A7F84C302B4B1B68D3F8C430CD
:108D600007F14802104698479BE0274B1B68D3F851
:108D7000BC300833C7F89C3007F148030433184669
:108D800000214C2204F042FA0523BB64D7F89C2052
:108D900007F16C0320321068186092889A80D7F827
:108DA0009C20D7F89C3093F826301C4607F14803E6
:108DB000043318461146224604F02AF9D7F89C30AD
:108DC00093F8263087F87230D7F89C3003F12802E8
:108DD000D7F89C3093F848301C4607F148032C33F1
:108DE00018461146224604F013F9D7F89C3093F840
:108DF000483087F89430044B1B68D3F8C43007F12F
:108E00004802104698474CE038350120264B1B6835
:108E1000D3F8BC300833C7F8983007F1480304335F
:108E2000184600214C2204F0F1F90623BB64D7F860
:108E3000982007F16C0320321068186092889A809D
:108E4000D7F89820D7F8983093F826301C4607F1C9
:108E50004803043318461146224604F0D9F8D7F8DF
:108E6000983093F8263087F872300F4B1B68D3F890
:108E7000C43007F148021046984712E00A4B1B68BD
:108E8000D3F8BC30184601F089F90AE0064B1B689C
:108E9000D3F8C430044A1268D2F8BC201046984770
:108EA00000BFDC37BD4690BD3835012080B582B0AB
:108EB00000AF5AE0414B1B6893F8A930DAB23F4B40
:108EC0001B6893F8AA309A4240D03C4B1B680022A2
:108ED000C3F8BC20394B1B680022C3F8C420374BB1
:108EE0001B68FF2283F8C820FFF7F0F80346FB80D9
:108EF000B7F90630002B00D0FEE7304B1B6893F823
:108F0000AA200132D2B283F8AA202C4B1B6893F816
:108F1000C830012B0CD1294B1B68002283F8982004
:108F2000264B1B68943318460021FCF759FA1CE0C5
:108F3000224B1B6893F8C830022B16D1FFF75AFC5E
:108F40001E4B1B680022C3F8BC200EE01B4B1B68A5
:108F5000943318464FF0FF31FCF742FA0346BB80CA
:108F6000B7F90430002B00D0FEE7144B1B6893F8D0
:108F70009830012B9ED0114B1B6804331846FCF728
:108F8000B9FA03467B80B7F90230002B00D0FEE728
:108F90000A4B1B6893F8A930DAB2084B1B6893F8A8
:108FA000AA309A4204D0064800210022FCF7BEFAFB
:108FB00000231BB218460837BD4680BD3835012056
:108FC000C58F002080B584B000AF78603B4B1B6834
:108FD000043318464FF0FF31FCF76EFA0346FB816D
:108FE000B7F90E30002B00D0FEE7344B1B6800228F
:108FF000C3F8BC20314B1B680022C3F8C4202F4BA0
:109000001B68012283F8C8202C4B1B6893F8A930F9
:10901000DAB22A4B1B6893F8AA309A420ED1274B3A
:109020001B6804331846FCF765FA0346BB81B7F9A1
:109030000C30002B00D0FEE700233AE0FFF746F8A3
:1090400003467B81B7F90A30002B00D0FEE71B4BAB
:109050001B6893F8AA200132D2B283F8AA20174BDA
:109060001B6893F8C830022B04D0032B12D0002BBE
:1090700010D00EE0114B1B68D3F8BC30002B00D190
:10908000FEE7FFF7B7FB0D4B1B680022C3F8BC20BF
:1090900001E0FEE700BF094B1B6804331846FCF7EC
:1090A00029FA03463B81B7F90830002B00D0FEE7D0
:1090B00000231BB218461037BD4680BD383501204D
:1090C00080B483B000AF0346FB803B4B1B6800229B
:1090D000C3F8C420FB8803F480639BB2002B61D1EA
:1090E000FB88632B05D1344B1B68032283F8C8200F
:1090F0005DE0FB8841F20A02934209D0FB8841F20D
:109100000B02934204D0FB8841F20B22934205D11B
:10911000294B1B68002283F8C82048E0264B1B68B7
:10912000022283F8C820FB8803F4F043002B05D10A
:10913000214B1B68214AC3F8C42038E0FB8803F4A4
:10914000F043B3F5006F05D11B4B1B681C4AC3F8F5
:10915000C4202CE0FB8803F4F043B3F5805F05D115
:10916000154B1B68174AC3F8C42020E0FB8803F4A2
:10917000F043B3F5C05F1AD1FB8841F62E0293424B
:1091800004D0FB8841F63002934205D10A4B1B689C
:109190000D4AC3F8C4200AE0074B1B680B4AC3F80A
:1091A000C42004E0044B1B68012283F8C8200C375C
:1091B000BD465DF8047B704738350120457B0020B3
:1091C0001544002029460020D1A40020714500202C
:1091D00080B485B000AF78600023FB730BE0FB7BAD
:1091E0007A681344FA7B013279680A4412781A705B
:1091F000FB7B0133FB73FB7B062BF0D97B680733CA
:1092000000221A701437BD465DF8047B704700BF1A
:1092100080B58AB000AF7860396000237B62042398
:109220007B848D4B1B681A68B7F9223010468B4936
:109230001A4601F0E7FF03463B84B7F92220B7F94D
:1092400020309A4200D0FEE70423FB83824B1B6848
:109250001A68B7F91E30104679681A4601F060FFA7
:109260000346BB83B7F91E20B7F91C309A4200D0E1
:10927000FEE726E07B6AB3F5FA6F00D3FEE77B6A70
:1092800003F00303002B16D104237B83724B1B686E
:1092900019687B681A1DB7F91A30084611461A4634
:1092A00001F03EFF03463B83B7F91A20B7F91830A7
:1092B0009A4200D0FEE77868FFF78AFF7B6A0133A5
:1092C0007B627B681B6803F00403002B0FD07B6874
:1092D0001B6823F0802323F080035F4A126892F812
:1092E000A82002F003015E4A0A4393420ED07B6835
:1092F0001B6803F00403002BBCD17B681B6823F0C0
:10930000802323F08003574A9342B3D17B6A03F052
:1093100003037B627B6A002B1ED07B685A687B68E4
:109320001A607B6AFB824C4B1B6819687B6AC3F12D
:1093300004037A681A44B7F91630084611461A46EB
:1093400001F0EEFE0346BB82B7F91620B7F91430E0
:109350009A4200D0FEE714E004237B823E4B1B6858
:109360001A68B7F91230104679681A4601F0D8FE2B
:1093700003463B82B7F91220B7F910309A4200D069
:10938000FEE714E00423FB81334B1B681A68B7F92E
:109390000E30104679681A4601F0C2FE0346BB81C2
:1093A000B7F90E20B7F90C309A4200D0FEE77B687F
:1093B0001B6803F00403002B0FD07B681B6823F0AD
:1093C000802323F08003244A126892F8A82002F038
:1093D0000301234A0A439342D4D07B681B6803F0FD
:1093E0000403002B08D17B681B6823F0802323F043
:1093F00080031C4A9342C5D0174B1B6893F8A820E2
:109400000132D2B283F8A82004237B81124B1B685F
:1094100019687B681A1DB7F90A30084611461A46C2
:1094200001F07EFE03463B81B7F90A20B7F9083008
:109430009A4200D0FEE77B6A002B04D07B6AC3F11E
:109440000403DAB200E000223B681A7000231BB26A
:1094500018462837BD4680BD38350120FC1501204F
:109460003C5CCD2B3A5CCD2B80B586B000AF03467B
:10947000FB8000233B61FB88BB810023BB7304237B
:10948000FB7307F10C0207F1100310461946002286
:10949000FEF774FC0346FB82B7F91630002B00D0B0
:1094A000FEE73B8A1BB218461837BD4680BD00BF99
:1094B00080B586B000AF78600B46FB700A23FB7561
:1094C000864B1B68903318464FF0FF31FBF7F4FFD3
:1094D0000346BB82B7F91430002B00D0FEE77F4B68
:1094E0001B6893F88830092B25D87C4B1B6893F8B0
:1094F0008830FB75794B1968FA7D13465B0013447D
:109500009B000B4418339B78092B0ED8734B1968BA
:10951000724B1868FA7D13465B0013449B000344AA
:1095200018339B7881F8883015E06C4B1B680A2251
:1095300083F888200FE0694B1B6890331846FBF7CF
:10954000D9FF03467B82B7F91230002B00D0FEE72B
:10955000FB7D9BB2BDE0614B1968FA7D7B68D8B298
:1095600013465B0013449B000B44183302461A70E9
:10957000FB78072B0AD8594B1968FA7D13465B0014
:1095800013449B000B441833FA785A7044E0534B51
:109590001968FA7D514B1B6893F8890013465B00EC
:1095A00013449B000B44183302469A704B4B1B68C4
:1095B000FA7D83F88920494B1B6890331846FBF7E6
:1095C00099FF03463B82B7F91030002B00D0FEE72D
:1095D000424B1968FA7D13465B0013449B0010331D
:1095E0000B4418464FF0FF31FBF7FAFE0346FB81B0
:1095F000B7F90E30002B00D0FEE7384B1B689033D4
:1096000018464FF0FF31FBF757FF0346BB81B7F910
:109610000C30002B00D0FEE7FB78072B0AD82F4B2D
:109620001B68D3F88C30FA78012101FA02F213405A
:10963000002BACD1294B1B68D3F88C307A68012100
:1096400001FA02F21340002B02D0FB78082B9ED0C7
:10965000FB78072B0DD8214B1B68204A1268D2F8E3
:109660008C20F978012000FA01F10A43C3F88C201C
:109670000CE01A4B1B68194A1268D2F88C207968E2
:10968000012000FA01F10A43C3F88C20134B19683A
:10969000FA7D124B1B6893F88A0013465B00134453
:1096A0009B000B44183302469A700C4B1B68FA7DE2
:1096B00083F88A20094B1B6890331846FBF71AFF82
:1096C00003467B81B7F90A30002B00D0FEE7FB7D13
:1096D0009BB21BB218461837BD4680BD38350120F5
:1096E00090B585B000AF0346FB718C4B1B6890337F
:1096F00018464FF0FF31FBF7DFFE0346BB81B7F999
:109700000C30002B00D0FEE7844B1B6893F88930A7
:10971000FB7373E0814B1968FA7B13465B001344BB
:109720009B000B44183319787C4B1868FA79134660
:109730005B0013449B00034418331B78994252D1B9
:10974000764B1968FA7B13465B0013449B000B446D
:1097500018335B7803F00F03082B27D06F4B196881
:10976000FA7913465B0013449B000B4418335B7873
:1097700003F00F03072B36DC684B1968FA7B13469E
:109780005B0013449B000B4418335B781846634B13
:109790001968FA7913465B0013449B000B44183395
:1097A0005B78434003F00F03002B1CD15B4B1B681D
:1097B00003F18902FB7B1046194600F00BF9574B69
:1097C0001968FA7B13465B0013449B0010330B446B
:1097D0001846FBF7C1FD03467B81B7F90A30002B21
:1097E00000D0FEE70DE04D4B1968FA7B13465B0095
:1097F00013449B000B4418339B78FB73FB7B092BB2
:1098000088D9464B1968FA7913465B0013449B00CC
:109810000B4418335B7803F00F03072B19DC3F4B25
:1098200019683E4B1B68D3F88C003C4B1C68FA79D6
:1098300013465B0013449B00234418335B7803F00A
:109840000F03012202FA03F3DB430340C1F88C301B
:1098500016E0324B1968314B1B68D3F88C002F4B44
:109860001C68FA7913465B0013449B0023441833A9
:109870001B781A4601239340DB430340C1F88C3028
:10988000264B1968FA7913465B0013449B000B447E
:10989000103300225A60214B1968FA7913465B0095
:1098A00013449B000B44183300221A701B4B196899
:1098B000FA7913465B0013449B000B4418330822CB
:1098C0005A70164B1B6803F18A02FB791046194641
:1098D00000F080F8114B1968FA79104B1B6893F867
:1098E000880013465B0013449B000B441833024668
:1098F0009A700A4B1B68FA7983F88820074B1B681B
:1099000090331846FBF7F6FD03463B81B7F9083064
:10991000002B00D0FEE71437BD4690BD383501203E
:1099200080B582B000AF1E4B1B6810331846002173
:10993000782203F06BFC1A4B1B68002283F8882006
:109940000023FB711BE0164B1968FA79FB79013390
:10995000D8B213465B0013449B000B4418330246F5
:109960009A700F4B1968FA7913465B0013449B00F9
:109970000B44183308225A70FB790133FB71FB79D1
:10998000092BE0D9064B1B680A2283F88A20044B76
:109990001B680A2283F889200837BD4680BD00BFB6
:1099A0003835012080B400AF094B1B68002283F8D2
:1099B0008820074B1B680A2283F88920044B1B6808
:1099C0000A2283F88A20BD465DF8047B704700BFF9
:1099D0003835012090B484B000AF78600B46FB703E
:1099E0002E4B1A687B681B7819460B465B000B44AC
:1099F0009B00134418339B780A2B03D17B680A22FF
:109A00001A7046E07B681B78FA789A420CD1234B97
:109A10001968FA7813465B0013449B000B44183313
:109A20009A787B681A7034E07B681B78FB732DE0B2
:109A30001A4B1968FA7B13465B0013449B000B44D6
:109A400018339B78FA789A4215D1144B1868FA7B30
:109A5000124B1C68F9780B465B000B449B002344B7
:109A60001833997813465B0013449B000344183362
:109A70000A469A700DE0094B1968FA7B13465B00A1
:109A800013449B000B4418339B78FB73FB7B092B1F
:109A9000CED91037BD4690BC704700BF3835012085
:109AA00080B485B000AF03460A46FB8013467B7145
:109AB000554B1B6893F88A30FB7397E0524B19683B
:109AC000FA7B13465B0013449B000B4418335B780E
:109AD000DBB25BB2002B03DAFB8823F40073FB805C
