:020000042000DA
:104000007C380120E9590020415A0020495A0020FB
:10401000595A0020515A0020595A0020000000002F
:10402000000000000000000000000000195B0020FC
:10403000595A002000000000155C0020595C002047
:10404000595A0020595A0020595A0020595A002024
:1040500000000000595A0020595A002000000000BA
:10406000595A00200000000000000000000000007D
:104070000000000000000000595A0020595A00209A
:10408000595A0020595A0020595A0020595A0020E4
:10409000595A0020595A0020595A0020595A0020D4
:1040A000595A00200000000000000000000000003D
:1040B00000000000595A002000000000000000002D
:1040C000000000000000000000000000595A00201D
:1040D000595A00200000000000000000000000000D
:1040E00000000000000000000000000000000000D0
:1040F0000000000000000000595A0020595A00201A
:1041000000000000000000000000000000000000AF
:10411000000000000000000000000000000000009F
:10412000000000000000000000000000000000008F
:10413000000000000000000000000000000000007F
:10414000000000000000000000000000000000006F
:10415000000000000000000000000000000000005F
:10416000000000000000000000000000000000004F
:10417000000000000000000000000000000000003F
:10418000000000000000000000000000000000002F
:10419000000000000000000000000000000000001F
:1041A000000000000000000000000000000000000F
:1041B00000000000000000000000000000000000FF
:1041C00000000000000000000000000000000000EF
:1041D00000000000000000000000000000000000DF
:1041E00000000000000000000000000000000000CF
:1041F00000000000000000000000000000000000BF
:1042000000000000000000000000000000000000AE
:10421000000000000000000000000000000000009E
:10422000000000000000000000000000000000008E
:10423000000000000000000000000000000000007E
:10424000000000000000000000000000000000006E
:10425000000000000000000000000000000000005E
:10426000000000000000000000000000000000004E
:10427000000000000000000000000000000000003E
:10428000000000000000000000000000000000002E
:10429000595A00200000000000000000595A002078
:1042A00000000000595A002000000000000000003B
:1042B000000000000000000000000000595A00202B
:1042C00000000000595A002000000000595A002048
:1042D00000000000000000000000000000000000DE
:1042E000000000000000000000000000595A0020FB
:1042F000595A00200000000000000000595A002018
:10430000595A0020595A0020000000000000000007
:10431000000000000000000000000000000000009D
:10432000000000000000000000000000000000008D
:10433000000000000000000000000000000000007D
:10434000000000000000000000000000000000006D
:10435000000000000000000000000000000000005D
:10436000000000000000000000000000000000004D
:10437000000000000000000000000000000000003D
:10438000000000000000000000000000000000002D
:10439000000000000000000000000000000000001D
:1043A000000000000000000000000000000000000D
:1043B00000000000000000000000000000000000FD
:1043C00000000000000000000000000000000000ED
:1043D00000000000000000000000000000000000DD
:1043E00000000000000000000000000000000000CD
:1043F00000000000000000000000000000000000BD
:1044000080B400AFFEE700BF80B483B000AF786037
:104410003960FEE7B0B588B004AF78607B681B6890
:10442000012B02D0022B33D08CE04B4B1B7843F096
:104430000203DAB2484B1A707B689A1D7B685B797D
:10444000464811461A4609F0CBF8454A7B6847337F
:10445000196811609B889380414B1B781D46404B27
:104460005B781C463E4B9B7818463D4BDB781946E3
:104470003B4B1B791A463A4B5B79009001910292B3
:104480000393384835492A46234603F061FC60E02F
:104490000023FB60304B1B7823F00203DAB22E4B73
:1044A0001A702D4B1B7823F00803DAB22A4B1A70CE
:1044B0007B680433FB60FB6893F84930C82B1BD141
:1044C000274B1B781D46264B5B781C46244B9B785C
:1044D0001846234BDB781946214B1B791A46204B93
:1044E0005B7900900191029203931F481B492A4671
:1044F000234603F02DFC1AE0194B1B781D46184B80
:104500005B781C46164B9B781846154BDB78194692
:10451000134B1B791A46124B5B7900900191029262
:10452000039312480D492A46234603F011FC0B4819
:104530000021212209F052F909480021062209F040
:104540004DF906E07B681B680948194603F000FC3A
:1045500000BF1037BD46B0BD702801209841012032
:10456000203E01206C150120B41501201C160120ED
:104570007C160120F0B58BB006AF78607B681B68B5
:10458000012B38D10023FB60204B1B7843F008033C
:10459000DAB21E4B1A707B680433FB60FB685B6801
:1045A0001B4A13607B685B684FEA136E7B685B682D
:1045B0001B0CDEB27B685B681B0ADDB27B685B6844
:1045C000DCB27B689B68180E7B689B681B0CD9B2B9
:1045D0007B689B681B0ADAB27B689B68DBB200943D
:1045E00001900291039204930A48714632462B4689
:1045F00003F0AEFB06E07B681B680748194603F032
:10460000A7FB00BF1437BD46F0BD00BF70280120D6
:1046100074280120A4160120E816012080B584B07A
:1046200000AF786039600023BB600023FB737B68B8
:104630001B68012B03D0022B00F00383C7E3A448BF
:1046400003F086FB7B689A687B681B791046A1495A
:104650001A4608F093FF0346002B19D19E4B1B7896
:10466000012B0AD13B689B6818469C49042208F03C
:10467000B7FF3B6804221A71E2E23B689B68184668
:104680009749052208F0ACFF3B6805221A719EE3AA
:104690007B689A687B681B79104692491A4608F035
:1046A0006DFF0346002B0FD13B689A688E4B93F841
:1046B000203010468C491A4608F092FF8A4B93F836
:1046C00020203B681A71BBE27B689A687B681B7983
:1046D000104686491A4608F051FF0346002B0FD1B9
:1046E0003B689A68804B93F84C30104680491A46D4
:1046F00008F076FF7C4B93F84C203B681A719FE2E0
:104700007B689A687B681B7910467A491A4608F0DC
:1047100035FF0346002B0FD13B689A68724B93F824
:104720007830104674491A4608F05AFF6E4B93F8D9
:1047300078203B681A7183E27B689A687B681B79F2
:1047400010466E491A4608F019FF0346002B0FD198
:104750003B689A68644B93F8A430104668491A463F
:1047600008F03EFF604B93F8A4203B681A7167E2A3
:104770007B689A687B681B79104662491A4608F084
:10478000FDFE0346002B0FD13B689A68564B93F809
:10479000D03010465C491A4608F022FF524B93F87D
:1047A000D0203B681A714BE27B689A687B681B7962
:1047B000104656491A4608F0E1FE0346002B18D170
:1047C000494B93F828305AB207F1080310461946AE
:1047D00001F01EF80346FB733B689968BA68FB7BDF
:1047E000084611461A4608F0FBFE3B68FA7B1A7130
:1047F00026E27B689A687B681B79104644491A4612
:1048000008F0BCFE0346002B18D1374B93F8543008
:104810005AB207F108031046194600F0F9FF0346A3
:10482000FB733B689968BA68FB7B084611461A46D9
:1048300008F0D6FE3B68FA7B1A7101E27B689A6841
:104840007B681B79104633491A4608F097FE0346E9
:10485000002B18D1244B93F880305AB207F108038B
:104860001046194600F0D4FF0346FB733B68996875
:10487000BA68FB7B084611461A4608F0B1FE3B6851
:10488000FA7B1A71DCE17B689A687B681B791046B9
:1048900021491A4608F072FE0346002B3ED1124B06
:1048A00093F8AC305AB207F108031046194600F0ED
:1048B000AFFF0346FB733B689968BA68FB7B084609
:1048C00011461A4608F08CFE3B68FA7B1A71B7E174
:1048D00014170120C41E0120712801202417012073
:1048E0002C170120CE1E0120B03A0120D81E012035
:1048F000DC3A0120E21E0120083B0120EC1E0120D1
:10490000343B0120F61E0120603B0120001F0120E6
:104910000A1F0120141F01201E1F01207B689A68B6
:104920007B681B791046B4491A4608F027FE0346F7
:10493000002B18D1B14B93F8D8305AB207F10803C5
:104940001046194600F064FF0346FB733B68996804
:10495000BA68FB7B084611461A4608F041FE3B68E0
:10496000FA7B1A716CE17B689A687B681B79104648
:10497000A3491A4608F002FE0346002B0FD13B68FC
:104980009A68A04B93F8203010469E491A4608F0CA
:1049900027FE9C4B93F820203B681A7150E17B68FE
:1049A0009A687B681B79104697491A4608F0E6FD1D
:1049B0000346002B0FD13B689A68924B93F84C301A
:1049C000104692491A4608F00BFE8E4B93F84C2085
:1049D0003B681A7134E17B689A687B681B791046E2
:1049E0008B491A4608F0CAFD0346002B0FD13B68DD
:1049F0009A68844B93F87830104686491A4608F036
:104A0000EFFD804B93F878203B681A7118E17B68C2
:104A10009A687B681B7910467F491A4608F0AEFDFC
:104A20000346002B0FD13B689A68764B93F8A4306D
:104A300010467A491A4608F0D3FD724B93F8A42029
:104A40003B681A71FCE07B689A687B681B791046AA
:104A500073491A4608F092FD0346002B0FD13B68BC
:104A60009A68684B93F8D03010466E491A4608F0A1
:104A7000B7FD644B93F8D0203B681A71E0E07B6887
:104A80009A687B681B79104667491A4608F076FDDC
:104A90000346002B18D15B4B93F828305AB207F12C
:104AA00008031046194600F0B3FE0346FB733B684B
:104AB0009968BA68FB7B084611461A4608F090FDD3
:104AC0003B68FA7B1A71BBE07B689A687B681B794C
:104AD000104656491A4608F051FD0346002B18D1DE
:104AE000484B93F854305AB207F108031046194660
:104AF00000F08EFE0346FB733B689968BA68FB7B47
:104B0000084611461A4608F06BFD3B68FA7B1A719D
:104B100096E07B689A687B681B79104644491A4680
:104B200008F02CFD0346002B18D1364B93F880304B
:104B30005AB207F108031046194600F069FE034611
:104B4000FB733B689968BA68FB7B084611461A46B6
:104B500008F046FD3B68FA7B1A7171E07B689A6841
:104B60007B681B79104633491A4608F007FD034657
:104B7000002B18D1234B93F8AC305AB207F108033D
:104B80001046194600F044FE0346FB733B689968E3
:104B9000BA68FB7B084611461A4608F021FD3B68BF
:104BA000FA7B1A714CE07B689A687B681B79104627
:104BB00021491A4608F0E2FC0346002B18D1114B9C
:104BC00093F8D8305AB207F108031046194600F09E
:104BD0001FFE0346FB733B689968BA68FB7B084677
:104BE00011461A4608F0FCFC3B68FA7B1A7127E074
:104BF000124803F0ADF8EAE0281F0120B03A012086
:104C0000341F0120283E01203E1F0120543E012078
:104C1000481F0120803E0120521F0120AC3E012090
:104C20005C1F0120D83E0120681F0120721F012057
:104C30007C1F0120861F0120901F012034170120B6
:104C4000C5E0644803F084F87B681A697B681B7BC5
:104C5000104661491A4608F091FC0346002B0ED11C
:104C60007B689A697B681B7D10465C491A4608F090
:104C700085FC0346002B02D1594B00221A707B6839
:104C80001A697B681B7B104656491A4608F076FC69
:104C90000346002B0ED17B689A697B681B7D5248C6
:104CA00011461A4608F09CFC7B681B7D1A464E4B49
:104CB000002199547B681A697B681B7B10464B491D
:104CC0001A4608F05BFC0346002B10D17B689B69F9
:104CD0001B78312B03D1012000F064FB07E07B68D7
:104CE0009B691B78322B02D1022000F05BFB7B68B2
:104CF0001A697B681B7B10463D491A4608F03EFC4A
:104D00000346002B1DD17B689B691B78302B03D198
:104D1000384B00221A7014E07B689B691B78312B9A
:104D200003D1344B01221A700BE07B689B691B781E
:104D3000322B03D12F4B02221A7002E02D4B00229E
:104D40001A707B681A697B681B7B10462A491A46D1
:104D500008F014FC0346002B15D17B689A697B6828
:104D60001B7D264811461A4608F03AFC7B681B7DDD
:104D70001A46224B002199541E4B204A5A607B68E8
:104D80001A7D1C4B1A727B681A697B681B7B104664
:104D90001B491A4608F0F2FB0346002B06D17B683C
:104DA0009B691B78303BDAB2164B1A707B681A6924
:104DB0007B681B7B104614491A4608F0DFFB03464C
:104DC000002B03D1114B01221A70FFE700BF1037EF
:104DD000BD4680BD40170120501701205C170120FF
:104DE000C01E012060170120984201206C1701208D
:104DF00078170120A43A012084170120703A01207D
:104E0000901701206C3A01209C1701207228012084
:104E100080B582B000AF78607B681B68012B19D128
:104E20007B689B881BB213F10F0F07D17B68DB886F
:104E30000D48194602F08CFF00BF11E07B68DB884B
:104E40001A467B689B881BB2084811461A4602F036
:104E50007FFF05E07B681B680548194602F078FF74
:104E60000837BD4680BD00BFD0170120241801209F
:104E70005C18012080B500AF094B00221A70094B65
:104E800000221A70084B00221A60084800212122D3
:104E900008F0A4FC06480021062208F09FFC80BD13
:104EA00071280120722801207428012098410120D6
:104EB000203E01202DE9F0479EB00AAF07F11C0308
:104EC00000221A60043300221A60043300221A60A0
:104ED000043300221A60043300221A6004330022D3
:104EE0001A60043300221A60043300221A6004336B
:104EF00000221A60043300221A60043300221A6070
:104F0000043307F1080300221A60043300221A60F8
:104F1000043300221A60043300221A600433002292
:104F20001A6004330123FB710023BB7100237B71E2
:104F300000233B714FF0FF33FB644FF0FF33BB6442
:104F400000200021002202F085FF0346BB64BB6CF9
:104F5000002B08DAAC48B96C40F25732AB4B02F088
:104F6000F7FEBB6C72E1BB6C002B43D0BB6C022B19
:104F700006D100BFA64B1B7803F00803002BF9D025
:104F8000002006F075FA0346FB64FB6C002B08DA80
:104F90009D48F96C40F26A329C4B02F0D9FEFB6CE2
:104FA00054E1FF2003F0B4F80346FB64FB6C002BD4
:104FB00008DA9548F96C40F26D32944B02F0C8FE65
:104FC000FB6C43E100200021002202F043FF034676
:104FD000FB64FB6C002B08DA8B48F96C4FF45C72B5
:104FE0008A4B02F0B5FEFB6C30E1FB6C002B01D06C
:104FF000884B2BE10C23BB712C237B71B91D7A1DCF
:1050000007F11C03012003F01FF9F864FB6C002B6F
:1050100008DA7D48F96C40F27F327C4B02F098FE52
:10502000FB6C13E17C487D4902F092FED7F834E036
:10503000BE6BFD6B3C6C386A796ABA6AFB6A97F89A
:1050400030C0E24697F831C0E14697F832C0E046FA
:1050500097F833C000940190029103920493CDF825
:1050600014A0CDF81890CDF81C80CDF820C06C4865
:10507000714632462B4602F06BFE102011210022B1
:10508000002305F0D3FF0346FB64FB6C002B08DA1A
:105090005D48F96C40F28D325C4B02F059FEFB6CBE
:1050A000D4E0FF2006F05AF90346FB64FB6C002BAA
:1050B00008DA5548F96C40F29132544B02F048FE40
:1050C000FB6CC3E005F0A8FF0346FB64FB6C002B00
:1050D00006D100BF4E4B1B7803F00203002BF9D121
:1050E000FB1D04200121012205F0FAFCF864FB6C91
:1050F000002B08DA4448F96C40F2A932434B02F025
:1051000027FEFB6CA2E00023BB71BB79202019466F
:105110000022002305F08AFF0346FB64FB6C002B92
:1051200008DA3948F96C40F2AE32384B02F010FE22
:10513000FB6C8BE000233B713B1D01200A21012207
:1051400006F0B4F90346FB64FB6C002B08DA2E482A
:10515000F96C40F2B5322D4B02F0FAFDFB6C75E0B4
:10516000302000210022002305F060FF0346FB648D
:10517000FB6C002B08DA2448F96C40F2B932234B5F
:1051800002F0E6FDFB6C61E00020002105F030FA42
:105190000346FB64FB6C002B08DA1B48F96C40F2F9
:1051A000BD321A4B02F0D4FDFB6C4FE00020002111
:1051B00005F01EFA0346FB64FB6C002B08DA12486C
:1051C000F96C40F2C132114B02F0C2FDFB6C3DE0C4
:1051D00007F108031846FF21082208F0FFFA07F13B
:1051E000080301201946142206F014F90346FB6453
:1051F000FB6C002B16DA0448F96C40F2C732034B03
:1052000002F0A6FDFB6C21E088180120041A0120A1
:10521000702801202EF8FFFFB8180120D4180120B3
:10522000DC180120C82002F073FF0346FB64FB6C0E
:10523000002B08DA0848F96C40F2CA32074B02F03A
:1052400087FDFB6C02E0FFF715FEFB6C184650373C
:10525000BD46BDE8F08700BF88180120041A012070
:1052600080B584B000AF78604FF0FF33FB607B689F
:10527000DBB2184606F0FCF80346FB60FB68002B27
:1052800008DA0D48F96840F2E3320C4B02F060FD99
:10529000FB680DE0C82002F03BFF0346FB60084BB3
:1052A00000221A7000200021002202F0D3FD0346E4
:1052B00018461037BD4680BD88180120281A0120E5
:1052C0007028012080B586B004AF4FF0FF333B60FB
:1052D00000237B602D4808F0E3FC03469AB22C4B78
:1052E0001B78194612B20023009301910023029308
:1052F000264811460022274B05F0CAFE03463B60B4
:105300003B68002B08DA244839684FF48162234B4C
:1053100002F01EFD3B6834E01C4808F0C1FC034667
:105320009BB21AB200230093184811460022194B71
:1053300005F028FD03463B603B68002B08DA164861
:10534000396840F20D42154B02F002FD3B6818E04F
:1053500005E0012000F0F0FE7B6801337B607B6894
:1053600041F2873293420BD80D4B1B7803F00203B6
:10537000002BEED00A4B1B7803F00803002BE8D07B
:10538000002318460837BD4680BD00BF9842012063
:105390006C3A0120A43A012088180120381A012013
:1053A0007028012080B582B000AF0346FB71FB7905
:1053B000012B05D108480C21082206F08DFC07E0DE
:1053C000FB79022B04D104480C21042206F084FC52
:1053D00000BF0837BD4680BD00700040F0B58FB0FB
:1053E00000AF78600B46FB70002387F8363000234F
:1053F00087F8373083E097F837302C2202FB03F32D
:105400007A68134493F8281097F8373001332C2228
:1054100002FB03F37A68134493F828304AB25BB274
:105420009A4267DA97F837302C2202FB03F37A6846
:1054300013441C4607F1080604F1200E35462346A6
:10544000186859689A68DB680FC5103410367445BF
:10545000F4D13346224610685168926807C397F822
:1054600037302C2202FB03F37A68D11897F83730D3
:1054700001332C2202FB03F37A681344084603F13C
:10548000200402461946D1F800E04E688D68C968CC
:10549000C2F800E056609560D16010331030A3422E
:1054A000EFD10246186859689B681060516093609C
:1054B00097F8373001332C2202FB03F37A68134448
:1054C00007F108049E4604F1200C754626460FCECF
:1054D00028606960AA60EB6010340EF1100E64451C
:1054E000F3D17546234607CB28606960AA60012383
:1054F00087F8363097F83730013387F8373097F828
:105500003720FB78013B9A42FFF675AF97F83630AB
:10551000002B7FF469AF3C37BD46F0BD80B586B047
:1055200000AF78603C237B610023FB74FB7C102080
:1055300019460022002305F079FD0346FB60FB6855
:10554000002B08DA2948F96840F26A42284B02F039
:10555000FFFBFB6845E00123FB747B69FA7C20209C
:1055600011461A46042305F061FD0346FB60FB6803
:10557000002B08DA1D48F96840F273421C4B02F018
:10558000E7FBFB682DE04FF47A7000F0D5FD0020BA
:1055900014217A6805F000FF0346FB60FB68002BCE
:1055A00008DA1248F96840F27C42114B02F0D0FB55
:1055B000FB6816E00023FB747B69FA7C202011460F
:1055C0001A46042305F032FDFB68002B08DA074871
:1055D000F96840F28442064B02F0BAFBFB6800E037
:1055E000FB6818461837BD4680BD00BF88180120EB
:1055F000441A012080B586B000AF78604FF0FF33C9
:105600007B61FFF737FCFFF755FC78617B69002B66
:1056100007DA7B696F4A934202D16F4802F098FB28
:10562000FEE76E4802F094FB00200021002202F009
:1056300011FC03467B617B69002B02DB7B69002B3D
:1056400003D0674802F084FBFEE7664802F080FB67
:105650000120FFF7A7FE6448FFF760FF38613B6950
:10566000002B07DA6148796940F2CD42604B02F0C5
:105670006FFBFEE70220FFF795FE5E48FFF74EFF47
:10568000F860FB68002B07DA584879694FF49B6291
:10569000574B02F05DFBFEE73B69012B05DD3B69E3
:1056A000DBB251481946FFF799FEFB68012B05DD77
:1056B000FB68DBB24F481946FFF790FE84E00220FA
:1056C000FFF7CEFD0346022B0BD04B4802F040FB08
:1056D000C82002F01DFD03467B61484B00221A7072
:1056E000FEE700BF454B1B7803F00803002BF9D001
:1056F000012004F0D3FE03467B617B69002B07DAAF
:105700003A48796940F2FD42394B02F021FBFEE74D
:10571000012004F0A7FE03467B617B69002B07DABA
:105720003248796940F20552314B02F011FBFEE735
:1057300002E0642007F0A8F9314B1B78002B03D05E
:10574000304B1B78002BF4D02D4B01221A70002017
:10575000FFF786FD0346002B0BD02B4802F0F8FA2A
:10576000C82002F0D5FC03467B61244B00221A704E
:10577000FEE7FFF7A7FD78617B69002B07DA1B487E
:10578000796940F225521A4B02F0E2FAFEE71B4B10
:105790001B7803F00203002B14BF01230023DBB2AC
:1057A0001A461A4B1A7005F037FC03467B617B6979
:1057B000002B06D100BF114B1B7803F00203002B16
:1057C000F9D10E4B00221A700E4B1B78002B3FF4C0
:1057D00076AFFEE72EF8FFFF141901204C190120C7
:1057E0007819012098190120B03A01208818012069
:1057F000541A0120283E0120B819012070280120E8
:10580000C01E012072280120D41901207128012016
:1058100080B584B000AF03463960FB710023FB7391
:105820003B68002B01D100233FE0FB79803BFB73F9
:10583000FB7B002B0DD0FB7B312B0AD83B681D4A2C
:105840001A603B681B68184608F02AFA0346DBB268
:105850002BE0FB7B312B0DD9FB7B4A2B0AD83B6815
:10586000154A1A603B681B68184608F019FA034687
:10587000DBB21AE0FB7B4A2B0DD9FB7B632B0AD8EA
:105880003B680E4A1A603B681B68184608F008FA25
:105890000346DBB209E03B68094A1A603B681B68B3
:1058A000184608F0FDF90346DBB218461037BD462E
:1058B00080BD00BF9C1F0120AC1F0120BC1F012028
:1058C000CC1F012080B500AF054B184606F026FA24
:1058D00006F01CFA0F2006F08DFA06F0A7FC80BD3A
:1058E0000040002080B500AF0920012106F090FBA8
:1058F0001A480C21012206F0CBF9194A184B1B68F3
:1059000023F47C7343F020031360154A144B1B6887
:1059100023F4406323F00F031360114A104B1B68FC
:1059200023F4406343F4006313600E4A0D4B1B687D
:1059300023F47C7343F0200313600A4A094B1B686D
:1059400023F4406323F00F031360054A054B1B68E3
:1059500023F4406343F40063136080BD0070004093
:1059600008E102440CE1024480B584B002AF4FF07C
:10597000FF337B60FFF7A6FFFFF7B4FF092000F0BD
:1059800023FB03467B607B68002B07DA12487968AB
:1059900040F2DC52114B02F0DBF9FEE701230093E9
:1059A000002301930E480F494FF40062002300F0DA
:1059B00055FA03467B607B68002B07DA0648796856
:1059C0004FF4BD62054B02F0C3F9FEE700F0AEFBF9
:1059D0000837BD4680BD00BF88180120681A012025
:1059E000F5550020F019012080B582B000AF0F4BB3
:1059F0007B600F4B3B6007E03B681A1D3A607A689A
:105A0000111D796012681A603B680A4A9342F3D309
:105A100009480A494FF000028842B8BF40F8042BF9
:105A2000FADBFFF7A1FF0837BD4680BDC01E01208D
:105A3000C01E01207028012070280120E0440120B0
:105A400080B400AFFEE700BF80B400AFFEE700BF48
:105A500080B400AFFEE700BF80B400AFFEE700BF38
:105A600080B485B000AF78600F4B1B68002B02D16B
:105A70000D4B0E4A1A600C4B1B68FB600A4B1A68F0
:105A80007B6813440A4A934201D9002306E0064B7F
:105A90001A687B681344044A1360FB68184614377D
:105AA000BD465DF8047B704778280120E044012062
:105AB000E044022080B485B000AFF860B9607A603D
:105AC000FB68043BFB60FB684FF080721A60FB6868
:105AD000043BFB60BA68FB681A60FB68043BFB6030
:105AE000094AFB681A60FB68143BFB607A68FB6834
:105AF0001A60FB68203BFB60FB6818461437BD4604
:105B00005DF8047B704700BF0D5B002080B500AFDF
:105B100000F072F8FEE700BF074B19680868B0E8AC
:105B2000F00F80F30988BFF36F8F4FF0000080F310
:105B300011884EF00D0E7047883801200548006826
:105B4000006880F3088862B6BFF34F8FBFF36F8F92
:105B500000DF00BF08ED00E080B500AF0B4A0B4B43
:105B60001B6843F460031360084A084B1B6843F04A
:105B70006043136000F084F8054B00221A60FFF7C1
:105B8000DDFFFFF7C3FF0023184680BD20ED00E0D6
:105B9000EC1F012080B400AF054B4FF080521A601B
:105BA000BFF34F8FBFF36F8FBD465DF8047B704727
:105BB00004ED00E080B500AF00F01EF8044B1B6858
:105BC0000133034A1360BFF34F8FBFF36F8F80BD64
:105BD000EC1F012080B500AF064B1B68013B054A56
:105BE0001360044B1B68002B02D1002000F00EF85C
:105BF00080BD00BFEC1F0120EFF311804FF02001AA
:105C000081F3118870470023184600BF80F3118884
:105C1000704700BFEFF30980BFF36F8F0D4B1A6819
:105C200020E9F00F10602DE908404FF0200080F3CC
:105C3000118801F02BF94FF0000080F31188BDE8C6
:105C4000084019680868B0E8F00F80F30988BFF3CE
:105C50006F8F70478838012080B500AFFFF7CCFF09
:105C600001F064F80346002B03D0044B4FF0805240
:105C70001A600020FFF7CAFF80BD00BF04ED00E0FE
:105C800080B400AF044B054A1A60054B07221A6026
:105C9000BD465DF8047B704714E000E07F380100EA
:105CA00010E000E080B584B000AFF860B960134642
:105CB000FB71FB681846B96806F03EF8FA68FB7994
:105CC0001046194606F064F8FB68184606F092F88C
:105CD00000235BB218461037BD4680BD80B582B048
:105CE00000AF78607B68184606F0E2F87B681846DB
:105CF00006F038F80837BD4680BD00BF80B584B0D7
:105D000000AF78607B68002B01D1FC2310E07B683A
:105D1000FB6001200021032200F06CFA0246FB68C0
:105D20001A607B681B68002B01D0002300E0FE2373
:105D30005BB218461037BD4680BD00BF80B582B04B
:105D400000AF78607B68002B01D1FC2305E07B6805
:105D50001B68184600F074FC00235BB21846083735
:105D6000BD4680BD80B582B000AF78607B68002BF7
:105D700001D1FC230DE07B681B681846002100223E
:105D8000002300F0B5FA0346012B01D0002300E008
:105D900000235BB218460837BD4680BD80B582B08F
:105DA00000AF78607B68002B01D1FC2316E00E4B1E
:105DB00000221A607B681B68184600210A4A0023EB
:105DC00000F030FB0346012B07D1074B1B68002B6B
:105DD00001D0FFF7DFFE002300E000235BB218468E
:105DE0000837BD4680BD00BF7C38012080B582B039
:105DF00000AF786039607B68002B01D1FC230DE097
:105E00007B681B68184600213A68002300F060FB9D
:105E10000346012B01D1002300E0FE235BB21846AC
:105E20000837BD4680BD00BF80B582B000AF786046
:105E30007B68002B01D1FC230BE0012000F016FA57
:105E400002467B681A607B68002B01D0002300E0CB
:105E5000FE235BB218460837BD4680BD80B588B0CA
:105E600004AFF860B9603B601346FB80FB889B0879
:105E70009AB2BB690093FB6901930023029300234C
:105E80000393F868B9683B6800F0A8FD0346012B4E
:105E900001D1002300E0FE235BB218461037BD4657
:105EA00080BD00BF80B582B000AF78607B681B68A2
:105EB000184600F0C5FB00235BB218460837BD4604
:105EC00080BD00BF80B582B000AF786039607B686C
:105ED000002B01D1FC230DE07B681B6818460021D4
:105EE0003A68002300F0F4FA0346012B01D10023A5
:105EF00000E0FE235BB218460837BD4680BD00BFF8
:105F000080B582B000AF78607B68002B01D1FC23A4
:105F10000DE07B681B68184600210022002300F07A
:105F2000E7F90346012B01D1002300E0FE235BB219
:105F300018460837BD4680BD80B586B000AFF86012
:105F4000B9607A60FB683B61BB687B610E4B0022E5
:105F50001A600E4B1A6807F11003104619460A4AD8
:105F6000002300F05FFA0346012B07D1064B1B68A4
:105F7000002B01D0FFF70EFE002300E0FE235BB2F2
:105F800018461837BD4680BD7C3801208038012076
:105F900080B586B000AF786000237B61094B1A683A
:105FA00007F10C03104619464FF0FF32002300F0B2
:105FB0008FFA78617B69012B03D1FB683A6910463F
:105FC0009847EBE78038012080B586B004AF786051
:105FD00003200821002200F00DF90246104B1A6040
:105FE0000F4B1B68002B01D1FE2314E07B6800934C
:105FF0000C4B019300230293002303930A480B499F
:106000004FF40072002300F0E9FC0346012B01D19C
:10601000002300E0FE235BB218460837BD4680BD72
:106020008038012084380120915F0020701A0120FF
:1060300080B586B000AFF860B9607A603B60FB68FD
:10604000002B01D1FC2310E000237B6138687968C4
:10605000002200F0CFF878617B69002B01D1FE238C
:1060600003E0FB687A691A6000235BB218461837B0
:10607000BD4680BD80B582B000AF78607B68002BE4
:1060800001D1FC2305E07B681B68184600F0D8FAB4
:1060900000235BB218460837BD4680BD80B584B08A
:1060A00000AFF860B9607A60FB68002B01D1FC2377
:1060B0000FE0FB681B681846B968084A002300F027
:1060C000B1F90346012B03D1FFF764FD002300E083
:1060D000FE235BB218461037BD4680BD7C380120D8
:1060E00080B584B000AFF860B9607A60FB68002BBF
:1060F00001D1FC2314E07B68B3F1FF3F02D14FF0E4
:10610000FF337B60FB681B681846B9687A68002318
:1061100000F0DEF90346012B01D1002300E0FE234D
:106120005BB218461037BD4680BD00BF80B500AFDA
:1061300000F02AFD80BD00BF80B584B000AF78605C
:106140007B68FB60F86800F0E5FC1037BD4680BD59
:1061500080B584B000AF786039607B68FB60FFF782
:1061600029FDFB681A68FB68DB6BF968096C01FBA9
:1061700003F31A44FB685A60FB6800229A63FB68C9
:106180001A68FB689A60FB681A68FB68DB6B013B66
:10619000F968096C01FB03F31A44FB68DA60FB68D9
:1061A0004FF0FF325A64FB684FF0FF329A643B684D
:1061B000002B0ED1FB681B69002B14D0FB68103339
:1061C000184600F03FFF0346012B0CD1FFF7E2FC1D
:1061D00009E0FB681033184601F0EEFCFB6824333D
:1061E000184601F0E9FCFFF7F5FC012318461037CB
:1061F000BD4680BD80B588B000AFF860B960134679
:10620000FB710023FB61FB68002B29D0502001F0BB
:10621000A9FCB861BB69002B22D0FB68BA6802FBFD
:1062200003F301337B61786901F09CFC0246BB6992
:106230001A60BB691B68002B0FD0BB69FA68DA6370
:10624000BB69BA681A64B8690121FFF781FFBB69AD
:106250000022DA64BB69FB6102E0B86901F09AFCD4
:10626000FB6918462037BD4680BD00BF80B584B0AD
:1062700000AF0346FB71502001F074FCF860FB682E
:10628000002B2FD0FB6800225A60FB6800221A60A6
:10629000FB6800229A60FB680022DA60FB6800223B
:1062A0009A63FB680122DA63FB6800221A64FB68C8
:1062B0004FF0FF325A64FB684FF0FF329A64FB687C
:1062C0000022DA64FB681033184601F075FCFB68A5
:1062D0002433184601F070FCF868002100220023E6
:1062E00000F006F8FB6818461037BD4680BD00BFB9
:1062F00080B588B000AFF860B9607A603B60002379
:10630000FB61FB68BB61FFF755FCBB699A6BBB691E
:10631000DB6B9A4202D33B68022B24D1B869B9687F
:106320003A6800F0A5F9BB69DB6C002B09D0B869AD
:10633000396800F029FB0346012B10D1FFF72AFC36
:106340000DE0BB695B6A002B09D0BB69243318469A
:1063500000F078FE0346012B01D1FFF71BFCFFF78D
:1063600039FC012359E07B68002B03D1FFF732FC95
:10637000002352E0FB69002B06D107F110031846F9
:1063800000F0B6FE0123FB61FFF724FC00F02EFCB9
:10639000FFF710FCBB695B6CB3F1FF3F02D1BB6937
:1063A00000225A64BB699B6CB3F1FF3F02D1BB6909
:1063B00000229A64FFF70EFC07F110023B1D104605
:1063C000194600F0ABFE0346002B1ED1B86900F061
:1063D0004DFA0346002B12D0BB6903F110027B6813
:1063E0001046194600F0BCFDB86900F0CFF900F086
:1063F0000BFC0346002B0FD1FFF7CCFB0CE0B86978
:1064000000F0C4F900F000FC7DE7B86900F0BEF9C7
:1064100000F0FAFB002300E075E718462037BD4680
:1064200080BD00BF80B588B000AFF860B9607A6009
:106430003B60FB68BB61FFF7DFFB7861BB699A6B70
:10644000BB69DB6B9A4202D33B68022B36D1B86939
:10645000B9683A6800F00CF9BB699B6CB3F1FF3F77
:1064600024D1BB69DB6C002B0DD0B869396800F012
:106470008BFA0346012B1ED17B68002B1BD07B6857
:1064800001221A6017E0BB695B6A002B13D0BB695D
:106490002433184600F0D6FD0346002B0BD07B6852
:1064A000002B08D07B6801221A6004E0BB699B6C5A
:1064B0005A1CBB699A640123FB6101E00023FB6164
:1064C0007869FFF7A3FBFB6918462037BD4680BDFE
:1064D00080B58AB000AFF860B9607A603B60002395
:1064E0007B62FB683B62FFF765FB3B6A9B6B002BA3
:1064F0003BD03B6ADB68FB61386AB96800F020F981
:106500003B68002B1CD13B6A9B6B5A1E3B6A9A630B
:106510003B6A1B68002B04D100F0B4FF02463B6AC3
:106520005A603B6A1B69002B1BD03B6A103318462C
:1065300000F088FD0346012B13D1FFF72BFB10E081
:106540003B6AFA69DA603B6A5B6A002B09D03B6AF6
:106550002433184600F076FD0346002B01D0FFF7E8
:1065600019FBFFF737FB012366E07B68002B03D1A3
:10657000FFF730FB00235FE07B6A002B06D107F1B9
:106580001403184600F0B4FD01237B62FFF722FBE1
:1065900000F02CFBFFF70EFB3B6A5B6CB3F1FF3F97
:1065A00002D13B6A00225A643B6A9B6CB3F1FF3F05
:1065B00002D13B6A00229A64FFF70CFB07F1140238
:1065C0003B1D1046194600F0A9FD0346002B2BD1B8
:1065D000386A00F035F90346002B1FD03B6A1B6870
:1065E000002B08D1FFF7E6FA3B6A5B68184600F01B
:1065F00077FFFFF7EFFA3B6A03F124027B6810464E
:10660000194600F0ADFC386A00F0C0F800F0FCFA62
:106610000346002B0FD1FFF7BDFA0CE0386A00F0FB
:10662000B5F800F0F1FA5EE7386A00F0AFF800F074
:10663000EBFA002300E056E718462837BD4680BD38
:1066400080B584B000AF78607B68FB60F86800F0CC
:106650004DF9FB681B68002B04D0FB681B681846CB
:1066600001F098FAF86801F095FA1037BD4680BD40
:1066700080B584B000AFF860B9607A60FB681B6CCD
:10668000002B0CD1FB681B68002B51D1FB685B68A9
:10669000184600F09DFFFB6800225A6048E07B68C6
:1066A000002B1AD1FB689A68FB681B6C1046B9680E
:1066B0001A4606F095FFFB689A68FB681B6C1A4443
:1066C000FB689A60FB689A68FB685B689A422FD304
:1066D000FB681A68FB689A602AE0FB68DA68FB6866
:1066E0001B6C1046B9681A4606F07AFFFB68DA6838
:1066F000FB681B6C5B421A44FB68DA60FB68DA6873
:10670000FB681B689A4207D2FB685A68FB681B6CDF
:106710005B421A44FB68DA607B68022B08D1FB6895
:106720009B6B002B04D0FB689B6B5A1EFB689A6323
:10673000FB689B6B5A1CFB689A631037BD4680BD93
:1067400080B582B000AF786039607B681B68002B31
:1067500019D07B68DA687B681B6C1A447B68DA6046
:106760007B68DA687B685B689A4203D37B681A6847
:106770007B68DA607B68DA687B681B6C3868114676
:106780001A4606F02DFF0837BD4680BD80B582B0A1
:1067900000AF7860FFF70EFA22E07B68DB6C002B1D
:1067A00009D07868002100F0EFF80346012B12D1E0
:1067B00000F0F8FC0FE07B685B6A002B0AD07B6876
:1067C0002433184600F03EFC0346002B03D000F0B3
:1067D000E9FC00E008E07B689B6C5A1E7B689A64C9
:1067E0007B689B6C002BD8DC7B684FF0FF329A648F
:1067F000FFF7F0F9FFF7DEF914E07B681B69002B67
:106800000FD07B681033184600F01CFC0346002BA9
:1068100001D000F0C7FC7B685B6C5A1E7B685A6431
:1068200000E003E07B685B6C002BE6DC7B684FF0EC
:10683000FF325A64FFF7CEF90837BD4680BD00BF6E
:1068400080B584B000AF7860FFF7B4F97B689B6BCC
:10685000002B02D10123FB6001E00023FB60FFF766
:10686000B9F9FB6818461037BD4680BD80B584B0C5
:1068700000AF7860FFF79EF97B689A6B7B68DB6BF3
:106880009A4202D10123FB6001E00023FB60FFF785
:10689000A1F9FB6818461037BD4680BD80B485B0AD
:1068A00000AF786039600023FB6014E00E4AFB689B
:1068B00052F83330002B0BD10B49FB683A6841F892
:1068C0003320094AFB68DB0013447A685A6005E00C
:1068D000FB680133FB60FB68092BE7D91437BD4621
:1068E0005DF8047B704700BFBC42012080B485B0D6
:1068F00000AF78600023FB6010E00C4AFB68DB000F
:1069000013445A687B689A4205D1084AFB68002103
:1069100042F8331005E0FB680133FB60FB68092B8C
:10692000EBD91437BD465DF8047B7047BC420120AB
:1069300080B584B000AF786039607B68FB60FFF79A
:1069400039F9FB685B6CB3F1FF3F02D1FB680022B1
:106950005A64FB689B6CB3F1FF3F02D1FB680022D5
:106960009A64FFF737F9FB689B6B002B05D1FB6836
:1069700024331846396800F033FBF868FFF706FF48
:106980001037BD4680BD00BF80B584B000AF7860D1
:1069900039607B68DB6CBB600023FB60BB689A6B73
:1069A000BB68DB6B9A4213D23B1DB86819463A6844
:1069B000FFF75EFEBB685B6A002B09D0BB6824331F
:1069C000184600F03FFB0346002B01D00123FB607B
:1069D000FB6818461037BD4680BD00BF80B58AB041
:1069E00002AFF860B9603B601346FB80FB88184635
:1069F000396B00F0E1FCB861BB69002B67D0BB6963
:106A00001A6BFB8803F18043013B9B0013447B61BD
:106A10007B6923F007037B61FB880093B869B96841
:106A2000BA6A7B6B00F0D2FB7869F9683A68FFF7C5
:106A300041F80246BB691A60FB6A002B02D0FB6A70
:106A4000BA691A60FFF7B6F82C4B1B6801332B4A62
:106A500013602B4B1B68002B09D1294ABB691360BB
:106A6000264B1B68012B0FD100F0F8FB0CE0254BE7
:106A70001B68002B08D1224B1B68DA6ABB6A9A425A
:106A800002D81F4ABB6913601F4B1B6801331E4AA3
:106A90001360BB69DB6A1A46012303FA02F21B4B3F
:106AA0001B681343194A1360BB69DA6A13469B00DB
:106AB00013449B00164A1A44BB6904331046194616
:106AC00001F0A6F80123FB61FFF784F802E04FF024
:106AD000FF33FB61FB69012B0BD10A4B1B68002BB9
:106AE00007D0074B1B68DA6ABB6A9A4201D2FFF7EC
:106AF00051F8FB6918462037BD4680BDC8390120D2
:106B000088380120D4390120E4390120D03901200E
:106B10008C38012080B584B000AF78600023FB6022
:106B20007B68002B21D000F061F8144B1A687B6859
:106B30001344BB60124B1B680433184601F0C4F8C1
:106B40000346002B0BD10E4B1B68DB6A1A46012350
:106B50009340DA430B4B1B6813400A4A1360B86832
:106B600000F0F4FB00F050F8F860FB68002B01D156
:106B7000FFF710F81037BD4680BD00BFCC390120AB
:106B800088380120D039012080B586B004AF0023B9
:106B90000093114B019300230293002303930F48AA
:106BA0000F4946220023FFF719FF78607B68012B0D
:106BB00002D100F069FD78607B68012B09D1FFF7F5
:106BC0001BF8084B01221A60074B00221A60FEF7DF
:106BD000C3FF0837BD4680BDC4390120BD71002008
:106BE000781A0120D4390120CC39012080B400AFBB
:106BF000044B1B680133034A1360BD465DF8047BF8
:106C0000704700BFE839012080B582B000AF002393
:106C10007B60FEF7CFFF344B1B68013B324A1360A9
:106C2000314B1B68002B57D1304B1B68002B53D0C6
:106C300030E02F4BDB68DB683B603B68183318465D
:106C400001F042F83B680433184601F03DF83B6818
:106C5000DB6A1A46012303FA02F2264B1B68134330
:106C6000244A13603B68DA6A13469B0013449B0076
:106C7000214A1A443B6804331046194600F0C8FF05
:106C80003B68DA6A1D4B1B68DB6A9A4202D31C4BD5
:106C900001221A60164B1B68002BCAD1194B1B68C6
:106CA000002B11D00CE000F041F80346002B02D07D
:106CB000134B01221A60134B1B68013B114A1360EE
:106CC000104B1B68002BEED10D4B1B68012B03D121
:106CD00001237B60FEF75EFFFEF77CFF7B681846B2
:106CE0000837BD4680BD00BFE8390120C839012002
:106CF00084390120D03901208C38012088380120C6
:106D0000DC390120D839012080B582B000AFFEF710
:106D100051FF054B1B687B60FEF75CFF7B681846E4
:106D20000837BD4680BD00BFCC39012080B586B094
:106D300000AF00237B614A4B1B68002B7FD1494B7E
:106D40001B680133474A1360464B1B683B613B6934
:106D5000002B10D1444B1B68FB60444B1B68424A1C
:106D60001360424AFB681360414B1B680133404A81
:106D7000136000F063FB3F4B1B683A699A424FD3A4
:106D8000394B1B681B68002B01D1012300E0002355
:106D9000002B04D0374B4FF0FF321A6040E0324BEB
:106DA0001B68DB68DB68BB60BB685B687B603A695B
:106DB0007B689A4203D22F4A7B68136030E0BB683D
:106DC0000433184600F080FFBB689B6A002B04D098
:106DD000BB681833184600F077FFBB68DB6A1A46B9
:106DE000012303FA02F2244B1B681343224A136067
:106DF000BB68DA6A13469B0013449B001F4A1A447F
:106E0000BB6804331046194600F002FFBB68DA6A1B
:106E10001B4B1B68DB6A9A4201D301237B61AFE7FE
:106E2000174B1B68DA6A154913469B0013449B00F5
:106E30000B441B68012B07D901237B6104E0114B34
:106E40001B6801330F4A13600F4B1B68002B01D0E6
:106E500001237B617B6918461837BD4680BD00BFA2
:106E6000E8390120CC3901207C390120803901200A
:106E7000E0390120F01F0120D03901208C38012099
:106E800088380120D8390120DC39012080B584B050
:106E900000AF2D4B1B68002B03D02C4B01221A6036
:106EA0004FE02A4B00221A60294B1B681A68284BB6
:106EB0001B681B6B9A4208D8254B1A68244B1B6829
:106EC000343310461946FDF79FFA214B1B681B6BA4
:106ED00018462049142206F051FB0346002B08D027
:106EE0001B4B1A681A4B1B68343310461946FDF7C2
:106EF0008BFA194B1B687B607B68B3FA83F3FB70DA
:106F0000FB78C3F11F03FB60FA6813469B00134430
:106F10009B00124A1344BB60BB685B685A68BB683D
:106F20005A60BB685A68BB6808339A4204D1BB6890
:106F30005B685A68BB685A60BB685B68DB68044A78
:106F400013601037BD4680BDE8390120DC390120CF
:106F500088380120801A0120D03901208C38012086
:106F600080B584B000AF78603960194B1B68183366
:106F70007868194600F070FE154B1B6804331846FC
:106F800000F0A2FE0346002B0BD1114B1B68DB6AFD
:106F90001A4601239340DA430E4B1B6813400D4AF7
:106FA00013603B68B3F1FF3F07D1094B1B68043303
:106FB0000948194600F02CFE07E0084B1A683B68A8
:106FC0001344FB60F86800F0C1F91037BD4680BD7E
:106FD00088380120D0390120B0390120CC39012076
:106FE00080B584B000AF78603960134B1B681833EC
:106FF0007868194600F00CFE0F4B1B6804331846E6
:1070000000F062FE0346002B0BD10B4B1B68DB6AC2
:107010001A4601239340DA43084B1B681340074A82
:107020001360074B1A683B681344FB60F86800F074
:107030008DF91037BD4680BD88380120D039012038
:10704000CC39012080B584B000AF78607B68DB6804
:10705000DB68BB60BB681833184600F035FE1E4B7A
:107060001B68002B1ED1BB680433184600F02CFEB1
:10707000BB68DB6A1A46012303FA02F2174B1B684E
:107080001343164A1360BB68DA6A13469B00134425
:107090009B00134A1A44BB6804331046194600F09B
:1070A000B7FD05E0BB6818330E48194600F0B0FD87
:1070B000BB68DA6A0C4B1B68DB6A9A4205D901236C
:1070C000FB600A4B01221A6001E00023FB60FB68B1
:1070D00018461037BD4680BDE8390120D03901205F
:1070E0008C3801208439012088380120DC390120C6
:1070F00080B483B000AF7860064B1A687B681A6072
:10710000054B1A687B685A600C37BD465DF8047BF6
:10711000704700BFE0390120CC39012080B584B030
:1071200000AF78603960FEF745FD1C4B1B68BB6003
:107130003B681B68B3F1FF3F02D10023FB6026E0F0
:107140007B681A68164B1B689A4207D07B685A689E
:10715000BB689A4202D80123FB6018E07B685B6839
:10716000BA68D21A3B681B689A420ED23B681A680A
:107170007B685968BB68CB1A1A443B681A60786808
:10718000FFF7B6FF0023FB6001E00123FB60FEF781
:1071900021FDFB6818461037BD4680BDCC39012063
:1071A000E039012080B400AF034B01221A60BD46D4
:1071B0005DF8047B704700BFDC39012080B582B0E8
:1071C00000AF786000F088F8FCE700BF80B586B0BB
:1071D00000AFF860B9607A603B6000237B6113E028
:1071E000BA687B6913441978FA687B6913443033B1
:1071F0000A461A71BA687B6913441B78002B00D1C8
:1072000005E07B6901337B617B690B2BE8D9FB6867
:10721000002283F83F207B68092B01D909237B607A
:10722000FB687A68DA62FB687A681A64FB68043380
:10723000184600F0E1FCFB681833184600F0DCFC4F
:10724000FB68FA681A617B68C3F10A02FB689A61FD
:10725000FB68FA685A621837BD4680BD80B582B0B7
:1072600000AF00237B600CE07A6813469B00134458
:107270009B00114A1344184600F09EFC7B680133C2
:107280007B607B68092BEFD90C4800F095FC0C481B
:1072900000F092FC0B4800F08FFC0B4800F08CFCD7
:1072A0000A4800F089FC0A4B044A1A60094B044A58
:1072B0001A600837BD4680BD8C3801205439012042
:1072C000683901208439012098390120B039012022
:1072D0007C3901208039012080B582B000AF28E0E0
:1072E000FFF784FC164B1B68002B0CBF0123002307
:1072F000DBB27B60FFF788FC7B68002B19D1FEF7BF
:1073000059FC0F4BDB68DB683B603B680433184675
:1073100000F0DAFC0B4B1B68013B0A4A13600A4B76
:107320001B68013B084A1360FEF754FC386800F004
:1073300075F8054B1B68002BD2D10837BD4680BDC0
:1073400098390120C8390120AC39012080B582B0BC
:1073500000AF7860134B1B687A685A60124B1B6849
:107360007A689A4209D2114B1A680E4B1B68043393
:107370001046194600F070FC10E00D4B1A68094BDE
:107380001B6804331046194600F066FC094B1B6865
:107390007A689A4202D2074A7B6813600837BD4672
:1073A00080BD00BF88380120CC3901208039012000
:1073B0007C390120F01F012080B584B000AF034666
:1073C0003960FB80442000F0CDFBF860FB68002BA7
:1073D0001FD03B68002B06D1FB889B00184600F0AD
:1073E000C1FB034600E03B68FA681363FB681B6B54
:1073F000002B05D1F86800F0CDFB0023FB6008E00E
:10740000FB681A6BFB889B001046A5211A4606F004
:10741000E5F9FB6818461037BD4680BD80B582B0DF
:1074200000AF78607B681B6B184600F0B3FB786890
:1074300000F0B0FB0837BD4680BD00BF80B483B00C
:1074400000AF0E4B1B681B68002B01D1012300E02D
:107450000023002B04D00A4B4FF0FF321A6008E0E3
:10746000064B1B68DB68DB687B607B685B68044AF3
:1074700013600C37BD465DF8047B70477C390120F2
:10748000F01F012080B483B000AF054B1B687B6008
:107490007B6818460C37BD465DF8047B704700BF1B
:1074A0008838012080B483B000AF0B4B1B68002BE1
:1074B00002D101237B6008E0084B1B68002B02D13E
:1074C00002237B6001E000237B607B6818460C3759
:1074D000BD465DF8047B7047D4390120E8390120AE
:1074E00080B584B000AF78607B68FB607B68002B60
:1074F00064D0FB68DA6A334B1B68DB6A9A425DD260
:10750000FB689B69002B06DB2E4B1B68DB6AC3F113
:107510000A02FB689A61FB685969FB68DA6A1346DC
:107520009B0013449B00284A1344994201D1012334
:1075300000E00023002B3CD0FB680433184600F029
:10754000C3FB0346002B15D1FB68DA6A1E491346BC
:107550009B0013449B000B441B68002B0AD1FB6863
:10756000DB6A1A4601239340DA43184B1B68134029
:10757000164A1360134B1B68DA6AFB68DA62FB6811
:10758000DB6A1A46012303FA02F2104B1B6813430D
:107590000E4A1360FB68DA6A13469B0013449B0093
:1075A000094A1A44FB6804331046194600F030FBC0
:1075B00004E0044B1B68DA6AFB68DA621037BD46E8
:1075C00080BD00BF883801208C380120D0390120CF
:1075D00080B584B000AF78607B68FB607B68002B6F
:1075E0004AD0FB68DA6AFB681B6C9A4244D0FB689D
:1075F0000433184600F068FB0346002B15D1FB68E6
:10760000DA6A1F4913469B0013449B000B441B6816
:10761000002B0AD1FB68DB6A1A4601239340DA4348
:10762000184B1B681340174A1360FB681A6CFB6801
:10763000DA62FB689B69002B05DBFB68DB6AC3F140
:107640000A02FB689A61FB68DB6A1A46012303FAA7
:1076500002F20C4B1B6813430A4A1360FB68DA6A98
:1076600013469B0013449B00054A1A44FB680433ED
:107670001046194600F0CCFA1037BD4680BD00BF59
:107680008C380120D039012080B586B004AF0023AA
:107690007B6000F031FA0C4B1B68002B0ED00223EC
:1076A00000930023019300230293002303930748D0
:1076B00007498C220023FFF791F978607B68184610
:1076C0000837BD4680BD00BF1C3A0120C5770020A9
:1076D000941A012080B588B000AFF860B9607A6074
:1076E0003B600023FB611D4B1B68002B30D0BB6847
:1076F0003B617B687B61FB68BB61BB68052B1CDC65
:10770000FFF7D0FE0346022B0BD1144B1A6807F18A
:10771000100310461946BA6A0023FEF7E9FDF86126
:1077200016E00E4B1A6807F11003104619460022A6
:107730000023FEF7DDFDF8610AE0084B1A6807F147
:107740001003104619463A680023FEF76BFEF861F5
:10775000FB6918462037BD4680BD00BF1C3A01209A
:1077600080B586B002AF78603960154B1B68DB6866
:10777000DB68FB60FB680433184600F0A5FAFB6881
:10778000DB69012B15D1FB689A697B681344F868A3
:1077900019463A687B6800F0A1F80346012B08D12E
:1077A00000230093F86800217A680023FFF792FF16
:1077B000B860FB685B6AF86898471037BD4680BDC3
:1077C000143A012080B584B000AF786007F1080357
:1077D000184600F03FF8F860BB68F868194600F0FA
:1077E00003F800F0BDF8F1E780B584B000AF786031
:1077F0003960FFF7FBF907F10803184600F04EF86F
:10780000F860BB68002B1ED13B68002B0AD17A6858
:10781000FB689A4206D8FFF7F7F97868F968FFF72E
:107820009FFF12E00A4B19687A68FB68D31A084672
:107830001946FFF77DF8FFF7E7F90346002B04D15F
:10784000FEF7A8F901E0FFF7DFF91037BD4680BD6C
:107850001C3A012080B485B000AF78600E4B1B68E5
:107860001B68002B0CBF01230023DBB21A467B6888
:107870001A607B681B68002B05D1074B1B68DB680F
:107880001B68FB6001E00023FB60FB6818461437AF
:10789000BD465DF8047B7047143A012080B584B082
:1078A00000AF7860FFF730FAF8600B4B1B68FA689E
:1078B0009A4205D200F0CEF87B6801221A6002E0FD
:1078C0007B6800221A60044AFB681360FB68184654
:1078D0001037BD4680BD00BF203A012080B586B07C
:1078E00000AFF860B9607A603B6000237B61FB68A1
:1078F000BA685A60FB68FA681A61BA687B689A428B
:1079000012D87A683B68D21AFB689B699A4202D304
:1079100001237B611BE0104B1A68FB68043310469F
:10792000194600F099F912E07A683B689A4206D24B
:10793000BA683B689A4202D301237B6107E0074B98
:107940001A68FB6804331046194600F085F97B6914
:1079500018461837BD4680BD183A0120143A012058
:1079600080B58AB002AF62E0BB68002B5FDB3B6989
:10797000FB61FB695B69002B04D0FB69043318468B
:1079800000F0A2F93B1D1846FFF788FFB861BB68FD
:10799000092B4BD801A252F823F000BFC579002073
:1079A000C5790020C57900202F7A0020097A0020AF
:1079B000257A0020C5790020C57900202F7A002083
:1079C000097A0020FA68FB699B691A44FB68F86928
:1079D0001146BA69FFF782FF0346012B13D1FB69F9
:1079E0005B6AF8699847FB69DB69012B0BD1FA6880
:1079F000FB699B691A4400230093F8690021002366
:107A0000FFF768FE786112E0FA68FB699A61FB692A
:107A10009A69BB691344F8691946BA69BB69FFF7EB
:107A20005DFF04E0F86900F0B5F800E000BF084B26
:107A30001A6807F108031046194600220023FEF7D2
:107A400047FD0346002B8FD12037BD4680BD00BFC8
:107A50001C3A012080B588B002AF37E0244B1B6888
:107A6000DB681B687B61224B1B68DB68DB683B6162
:107A70003B690433184600F027F93B695B6A3869B3
:107A800098473B69DB69012B20D13B699A697B6987
:107A90001344FB60FA687B699A420ED93B69FA6825
:107AA0005A603B693A691A61114B1A683B690433A1
:107AB0001046194600F0D0F808E00023009338691A
:107AC00000217A690023FFF705FEB860084B1B68A8
:107AD0001B68002BC2D1064B1B687B60054B1B68E3
:107AE000034A1360034A7B6813601837BD4680BDA4
:107AF000143A0120183A012080B500AFFEF75AF879
:107B0000124B1B68002B1DD1114800F055F811488D
:107B100000F052F8104B0E4A1A60104B0D4A1A60D2
:107B200014200C210022FEF765FB0246074B1A6069
:107B3000064B1B68002B05D0044B1B6818460849F0
:107B4000FEF7ACFEFEF746F880BD00BF1C3A0120F0
:107B5000EC390120003A0120143A0120183A0120A2
:107B60009C1A012080B584B000AF7860FFF73EF822
:107B7000786805F065FA0346FB60FFF745F8FB6897
:107B8000002B01D1FCF73CFCFB6818461037BD46C2
:107B900080BD00BF80B582B000AF78607B68002BED
:107BA00006D0FFF723F8786805F052FAFFF72CF8B3
:107BB0000837BD4680BD00BF80B483B000AF786099
:107BC0007B6803F108027B685A607B684FF0FF32E4
:107BD0009A607B6803F108027B68DA607B6803F1D6
:107BE00008027B681A617B6800221A600C37BD4668
:107BF0005DF8047B704700BF80B483B000AF78604D
:107C00007B6800221A610C37BD465DF8047B704723
:107C100080B485B000AF786039607B685B68FB60DA
:107C20003B68FA685A60FB689A683B689A60FB6830
:107C30009B683A685A60FB683A689A603B687A6861
:107C40001A617B681B685A1C7B681A601437BD4632
:107C50005DF8047B704700BF80B485B000AF7860EA
:107C600039603B681B68BB60BB68B3F1FF3F03D161
:107C70007B681B69FB600CE07B680833FB6002E0FB
:107C8000FB685B68FB60FB685B681A68BB689A42CC
:107C9000F6D9FB685A683B685A603B685B683A688B
:107CA0009A603B68FA689A60FB683A685A603B6879
:107CB0007A681A617B681B685A1C7B681A601437E3
:107CC000BD465DF8047B704780B485B000AF786036
:107CD0007B681B69FB607B685B687A6892689A6066
:107CE0007B689B687A6852685A60FB685A687B6850
:107CF0009A4203D17B689A68FB685A607B680022CD
:107D00001A61FB681B685A1EFB681A60FB681B68D7
:107D100018461437BD465DF8047B704780B582B0C5
:107D200000AF78607B68002B0CD007E07B685A1CA2
:107D30007A601B780548194604F026FD7B681B789D
:107D4000002BF3D10837BD4680BD00BF00C0004006
:107D50000FB480B586B000AF00237B614FF4807311
:107D6000FB60FB68184605F06BF903463B613B6915
:107D7000002B02D14FF0FF332EE007F124037B608C
:107D8000FB68386919463A6A7B6805F0F1FF78614B
:107D90007B69002B03DB7A69FB689A4215DBFB6881
:107DA0005B00FB60FB683869194605F069FDB86047
:107DB000BB68002B06D10C48FFF7B0FF4FF0FF3334
:107DC0007B6102E0BB683B61D7E73869FFF7A6FF3C
:107DD000386905F03DF97B6918461837BD46BDE89E
:107DE000804004B0704700BFAC1A012080B483B05B
:107DF00000AF78607B68B3F1333F18D0B3F1333F05
:107E000006D8B3F1113F0DD0B3F1223F0CD018E0EA
:107E1000B3F1553F10D0B3F1663F0FD0B3F1443FFB
:107E200007D00EE000230EE04FF6FF730BE00223B5
:107E300009E04FF6FE7306E0032304E04FF6FD73FE
:107E400001E07B689BB21BB218460C37BD465DF85B
:107E5000047B704790B589B000AFF860B9607A6074
:107E60000A23FB8303F060FE00F062FAFB68002B3C
:107E700008D1434B1C68B868002103F07DFC034621
:107E8000236003E03E4B1B68FA681A600E2008214D
:107E900001F0E8FE0346FB83B7F91E300A2B02D13E
:107EA0004FF6300366E0364B1B68903318464FF0B0
:107EB000FF31FEF707F80346BB83B7F91C30002BF0
:107EC00000D0FEE72E4B1968B7F91E2013465B0061
:107ED00013449B000B44103307F114025A60284BE3
:107EE0001B6890331846FEF70BF803467B83B7F9FF
:107EF0001A30002B00D0FEE7214B1B681B68002BBB
:107F000034DB03F06FFE1F48002103F0DBFD7B68CC
:107F1000002B03D01A4B1B687A68DA6003F04AFE24
:107F20007B68002B22D1164B1968B7F91E20134627
:107F30005B0013449B0010330B4418464FF0FF3195
:107F4000FDF754FF03463B83B7F91830002B00D0F0
:107F5000FEE70B4B1B6893F8C030184601F09AFF00
:107F60007B691846FFF742FF034603E0044B1B689A
:107F70001B689BB21BB218462437BD4690BD00BF9C
:107F8000243A0120D184002090B587B000AF7860FA
:107F90007B6808337B61334B1B68903318464FF086
:107FA000FF31FDF78FFF03467B82B7F91230002BBC
:107FB00000D0FEE72B4B1B68DB68002B0BD0294B56
:107FC0001B68DC687B691B681846FFF70FFF0346D8
:107FD0001846A04729E0234B1A68224B1B6893F8E8
:107FE000C03019460B465B000B449B001344103312
:107FF0005B6818467969042205F0F2FA194B1A6891
:10800000184B1B6893F8C03019460B465B000B44B5
:108010009B00103313441846FDF7A4FE03463B8231
:10802000B7F91030002B00D0FEE70E4B1B689033E1
:108030001846FDF765FF0346FB81B7F90E30002BAC
:1080400000D0FEE7074B1B68DB68002B06D0054B12
:108050001B6893F8C030184601F01CFF1C37BD4662
:1080600090BD00BF243A012080B586B000AF786093
:108070007B6808337B61254B1B68903318464FF0B3
:10808000FF31FDF71FFF03467B82B7F91230002B4B
:1080900000D0FEE71D4B1A681C4B1B6893F8C030DC
:1080A00019460B465B000B449B00134410335B687E
:1080B00018467969042205F093FA144B1A68134B99
:1080C0001B6893F8C03019460B465B000B449B00BD
:1080D000103313441846FDF745FE03463B82B7F9BB
:1080E0001030002B00D0FEE7084B1B689033184679
:1080F000FDF706FF0346FB81B7F90E30002B00D0D9
:10810000FEE700BF1837BD4680BD00BF243A0120FE
:1081100080B588B000AF0346FB800023FB830A23B1
:10812000BB83FB88002B0ED10020002103F0CAFC8A
:1081300003F058FD424B1B681B68184603F0C4FB54
:108140000346FB8373E0FB883B820E20082101F08D
:1081500089FD0346BB83B7F91C300A2B02D14FF6C9
:10816000300367E0364B1B68903318464FF0FF3101
:10817000FDF7A8FE03467B83B7F91A30002B00D029
:10818000FEE72F4B1968B7F91C2013465B00134418
:108190009B000B44103307F10C025A60284B1B68FC
:1081A00090331846FDF7ACFE03463B83B7F9183011
:1081B000002B00D0FEE707F11003224819460022E9
:1081C00000F0B6F90346FB82B7F91630002B00D059
:1081D000FEE73B8A002B19D1194B1968B7F91C200F
:1081E00013465B0013449B0010330B4418464FF0BA
:1081F000FF31FDF7FBFD0346BB82B7F91430002BBE
:1082000000D0FEE7BB893B823B8AFB83BB8BDBB2A2
:10821000184601F03FFE0020002103F053FC03F05C
:10822000E1FC074B1B681B68184603F04DFB00F090
:10823000F9F8FB8B1BB218462037BD4680BD00BF46
:10824000243A0120CC1A012080B58CB000AFB9606F
:108250007A603B600346FB737B681B78002B01D17F
:10826000234B41E0BB68002B3CD00023BB827B68E2
:108270001B789BB2FB820023FB613B683B620023BF
:108280003B83FB7B9BB2FB84BB681B789BB23B852B
:1082900007F1240207F11403164811461A4600F0AC
:1082A00047F90346FB85B7F92E30002B00D0FEE7D7
:1082B000BB68002B03D03B8DDAB2BB681A70FA8A18
:1082C0003B8B9A4206D2FB8ADAB27B681A706FF453
:1082D000FA6309E03B8BDAB27B681A70BB8C9BB205
:1082E0001BB201E04FF0FF3318463037BD4680BD6A
:1082F0002EF8FFFFD01A012080B584B000AF78605F
:108300007B68FB60FB681B88732B07D0782B0AD037
:10831000082B07D1F868FFF737FE05E0F868FFF78C
:10832000A3FE01E0FEE700BF1037BD4680BD00BFE1
:1083300080B584B000AF384B384A1A60364B1B68A2
:10834000002B00D1FEE7344B1B6818460021CC22DD
:1083500005F044FA304B1B6894331846FDF7CEFC09
:108360000346BB81B7F90C30002B00D0FEE72A4B47
:108370001B68943318460021FDF738FD264B1B6817
:1083800004331846FDF750FD03467B81B7F90A30E8
:10839000002B00D0FEE7204B1B6890331846FDF7FA
:1083A00043FD03463B81B7F90830002B00D0FEE7C0
:1083B00001F090FE0023FB7322E0174B1968FA7B53
:1083C00013465B0013449B0010330B441846FDF723
:1083D00095FC0346FB80B7F90630002B00D0FEE782
:1083E0000D4B1968FA7B13465B0013449B00103356
:1083F0000B4418460021FDF7F9FCFB7B0133FB73AE
:10840000FB7B092BD9D901F0DDFF054B00221A7047
:108410001037BD4680BD00BF243A01201043012023
:108420002C3A012080B584B000AF01F0F3FF274B58
:108430001B6894331846FDF781FC0346BB81B7F9EE
:108440000C30002B00D0FEE7204B1B68043318468D
:10845000FDF728FD03467B81B7F90A30002B00D0D9
:10846000FEE71A4B1B6890331846FDF71BFD0346C9
:108470003B81B7F90830002B00D0FEE70023FB73E7
:1084800015E0124B1968FA7B13465B0013449B00FE
:1084900010330B441846FDF751FC0346FB80B7F937
:1084A0000630002B00D0FEE7FB7B0133FB73FB7B28
:1084B000092BE6D901F050FE044B00221A60034B51
:1084C00000221A601037BD4680BD00BF243A01204B
:1084D00080B584B000AF786003F00EFB124B1B68D0
:1084E00093F8A920D2B20132D2B283F8A9200E4B60
:1084F0001B6893F89830012B0DD10B4B1B689433FC
:108500001846FDF74BFC0346FB81B7F90E30002BF4
:1085100000D0FEE704E0054800210022FDF70CFD35
:108520001037BD4680BD00BF243A01207997002056
:1085300080B588B000AFF860B9607A602A4B1B68DC
:10854000043318464FF0FF31FDF7BCFC0346BB83F4
:10855000B7F91C30002B00D0FEE7234B1B6801222B
:1085600083F89820204B1B68FA68C3F8B0201E4B94
:108570001B68BA68C3F8B4201B4B1B687A68C3F841
:10858000B82000F05BF80346FB83B7F91E30002BE0
:1085900016D1164B1B78002B0DD100237B61134B9A
:1085A00001221A704FF47A637B6100BF7B695A1E07
:1085B0007A61002BFAD101F053F80346FB830CE0FB
:1085C000094B1B6804331846FDF79AFC03467B836E
:1085D000B7F91A30002B00D0FEE7FB8B1BB2184610
:1085E0002037BD4680BD00BF243A01202C3A01202F
:1085F00080B586B000AFF860B9607A600E4B1B683A
:10860000002283F898200C4B1B68FA68C3F8B0204E
:10861000094B1B68BA68C3F8B420074B1B687A681B
:10862000C3F8B82000F00AF80346FB82FB8A1BB2AD
:1086300018461837BD4680BD243A012080B586B063
:1086400000AF8D4B1B68D3F8B030002B00D1FEE794
:10865000894B1B68884A1268D2F8B02012881A81A8
:10866000854B1A68844B1B68D3F8B830002B17D0A1
:10867000814B1B68D3F8B0309B789BB203339BB21D
:1086800023F0030399B27C4B1B68D3F8B8301B88E6
:1086900003339BB223F003039BB20B449BB20AE06B
:1086A000754B1B68D3F8B0309B789BB203339BB2F9
:1086B00023F003039BB253816F4B1B6893F8AD30DB
:1086C000012B0CD16C4B1B686B4A126851896A4AAA
:1086D0001268D2F8B82052880A4492B25A81042310
:1086E000FB82654B1B681A68B7F916301046634960
:1086F0001A4603F09DF90346BB82B7F91620B7F975
:1087000014309A4200D0FEE704237B825A4B1B6848
:108710001968594B1B6803F10802B7F91230084673
:1087200011461A4603F084F903463B82B7F912203A
:10873000B7F910309A4200D0FEE74F4B1B68D3F8D0
:10874000B430002B29D04C4B1B68D3F8B0309B7849
:10875000002B22D0484B1B68D3F8B0309B789BB2DB
:1087600003339BB29BB223F00303FB81424B1B6894
:108770001968414B1B68D3F8B420B7F90E3008468E
:1087800011461A4603F054F90346BB81B7F90E208F
:10879000B7F90C309A4200D0FEE7374B1B6893F8CC
:1087A000AD30012B27D1344B1B68002283F8AD205C
:1087B000314B1B68D3F8B8305B8803339BB29BB254
:1087C00023F003037B812C4B1B6819682A4B1B6821
:1087D000D3F8B830DA68B7F90A30084611461A46B5
:1087E00003F026F903463B81B7F90A20B7F90830B0
:1087F0009A4200D0FEE7204B1B68D3F8B830002B1C
:1088000033D01D4B1B68D3F8B8301B88002B2CD0FD
:10881000194B1B68D3F8B0309B7803F00303002B8F
:1088200000D0FEE7144B1B68D3F8B8301B88033325
:108830009BB29BB223F00303FB800F4B1B681968AC
:108840000D4B1B68D3F8B8309A68B7F90630084664
:1088500011461A4603F0ECF80346BB80B7F9062030
:10886000B7F904309A4200D0FEE700231BB2184645
:108870001837BD4680BD00BF243A0120D81A012018
:1088800080B596B000AF07F10C02FB1D10461946EB
:1088900001F098F80346A7F84E30B7F94E30002B98
:1088A00000D0FEE707F10C031B88082B28D0B74B3C
:1088B0001B6807F10C02127983F89C20B34B1B68EC
:1088C00007F10C02D27983F8AB20B04B1B6807F19B
:1088D0000C02927983F8AC20AC4B1B6893F89C3067
:1088E000012B0DD9A94B1B68A4331846FDF73AFAA2
:1088F0000346A7F84C30B7F94C30002B00D0FEE708
:1089000007F10C031B88184600F0B4FF9F4B1B684F
:1089100093F8C830012B00F01C82022B03D0002BEF
:1089200000F0D8801CE3994B1B68D3F8BC30002BB7
:1089300000D0FEE7954B1B68954AC3F8BC20934BCB
:108940001B68D3F8BC30002B00D1FEE78F4B1B68AF
:10895000D3F8BC301A4607F10C0303CB106051600A
:1089600007F10C035B88013B23F00303A02B09D81C
:1089700007F10C035B88013B9BB223F00303A7F8CC
:10898000543002E0A023A7F8543007F10C035B88B1
:10899000042B1DD0B7F85430A7F84A307B4B1B6826
:1089A00019687A4B1B68D3F8BC3003F10802B7F999
:1089B0004A30084611461A4602F0C8FF0346A7F897
:1089C0004830B7F94A20B7F948309A4200D0FEE75C
:1089D00007F10C035B88013B23F00303A02B2DD987
:1089E00007F10C035B88013B9BB223F003039BB2AE
:1089F000A03BA7F854301DE00423A7F84630634B92
:108A00001B681968B7F9463007F108020846114695
:108A10001A4602F09BFF0346A7F84430B7F94620F8
:108A2000B7F944309A4200D0FEE7B7F85430043B1F
:108A3000A7F85430B7F85430002BDDD1534B1B68E6
:108A4000903318464FF0FF31FDF73CFA0346A7F884
:108A50004230B7F94230002B00D0FEE707F10C039B
:108A60001B8841F2030293420DD007F10C031B88CF
:108A700041F20322934206D007F10C031B8841F216
:108A80000602934210D107F10C031A883F4B1B6872
:108A9000D3F8BC3008339B7803F00F03DBB21046E9
:108AA000194601F0D7FB06E007F10C031B881846B6
:108AB000082101F0CFFB354B1B6890331846FDF7BA
:108AC0001FFA0346A7F84030B7F94030002B00D01A
:108AD000FEE745E207F10C031B8841F20B029342CB
:108AE00004D041F20B22934204D007E00C2387F814
:108AF000533006E0182387F8533002E0042387F848
:108B000053300423FB87214B1B681968B7F93E20BB
:108B100007F10C0304330846194602F017FF034619
:108B2000BB87B7F93E20B7F93C309A4200D0FEE748
:108B300007F10C0304339B7803F00F03072B00DDD0
:108B4000FEE7124B1B68903318464FF0FF31FDF7DC
:108B5000B9F903467B87B7F93A30002B00D0FEE71E
:108B600007F10C031A8807F10C0304339B7803F018
:108B70000F03DBB21046194601F06CFB03463B873E
:108B8000B7F93830002B05D0FEE700BF243A0120AA
:108B9000DC430120BC4B1A68BB4B1B6893F8C03008
:108BA00019460B465B000B449B00134410335B6873
:108BB0001A6807F10C03043310461946042204F026
:108BC0000FFD97F85330042B27D997F853309BB2F9
:108BD000043B9BB2FB86AC4B1B681868AA4B1A6817
:108BE000A94B1B6893F8C03019460B465B000B4439
:108BF0009B00134410335B681B681A1DB7F93630AD
:108C000011461A4602F0A2FE0346BB86B7F936208B
:108C1000B7F934309A4200D0FEE707F10C03043371
:108C20001B881BB2002B6FDD07F10C0304331B887C
:108C30009BB203F00303A7F8563007F10C0304338B
:108C40001B889BB223F00303A7F85430B7F85430C5
:108C5000032B23D9B7F854307B868B4B1B681868DD
:108C6000894B1A68884B1B6893F8C03019460B462D
:108C70005B000B449B00134410335B685A68B7F9E0
:108C8000323011461A4602F061FE03463B86B7F9C0
:108C90003220B7F930309A4200D0FEE7B7F85630AC
:108CA000002B31D00423FB85774B1B681968B7F97B
:108CB0002E3007F10802084611461A4602F046FE19
:108CC0000346BB85B7F92E20B7F92C309A4200D065
:108CD000FEE76D4B1A686C4B1B6893F8C030194661
:108CE0000B465B000B449B00134410335B685A68CF
:108CF000B7F85430D118B7F8563007F108020846D3
:108D000011461A4604F06CFC5F4B1A685E4B1B68F8
:108D100093F8C03019460B465B000B449B001033A0
:108D200013441846FDF71EF803467B85B7F92A3031
:108D3000002B00D0FEE7544B1B6890331846FDF71C
:108D4000DFF803463B85B7F92830002B00D0FEE75B
:108D500006E14D4B1B68D3F8B030DB789BB2033390
:108D60009BB29BB223F00303FB84474B1B6819683B
:108D7000454B1B68D3F8B420B7F926300846114696
:108D80001A4602F0E3FD0346BB84B7F92620B7F983
:108D900024309A4200D0FEE73B4B1B68D3F8B83032
:108DA000002B00F0DC80384B1B68D3F8B8305B88B0
:108DB000002B00F0D48007F10C035A88324B1B685B
:108DC000D3F8B030DB789BB2D31A9BB2043B9BB292
:108DD000A7F850302C4B1B68D3F8B830B7F85020A8
:108DE0009A80B7F95030002B06DC274B1B68D3F86C
:108DF000B83000225A80B2E0B7F95030224A1268E7
:108E0000D2F8B8205288934212DD1F4B1B68D3F86A
:108E1000B8305B8803F00303A7F856301A4B1B6881
:108E2000D3F8B8305B8823F00303A7F854300BE085
:108E3000B7F8503003F00303A7F85630B7F85030B6
:108E400023F00303A7F85430B7F85430032B1DD98F
:108E5000B7F854307B840C4B1B6819680A4B1B68AD
:108E6000D3F8B830DA68B7F92230084611461A4606
:108E700002F06CFD03463B84B7F92220B7F920309D
:108E80009A4203D0FEE700BF243A0120B7F85630DB
:108E9000002B2DD00423FB83424B1B681968B7F9C4
:108EA0001E3007F10802084611461A4602F04EFD30
:108EB0000346BB83B7F91E20B7F91C309A4200D095
:108EC000FEE7384B1B68D3F8B830DA68B7F854308F
:108ED000D118B7F8563007F10802084611461A466D
:108EE00004F07EFBB7F85030043B9BB2A7F850303B
:108EF000B7F950302B4A1268D2F8B8205288934202
:108F00002DDDB7F85020274B1B68D3F8B8305B88AD
:108F100023F003039BB2D31AA7F854301BE00423B9
:108F20007B83204B1B681968B7F91A3007F10802D8
:108F3000084611461A4602F009FD03463B83B7F97D
:108F40001A20B7F918309A4200D0FEE7B7F854302B
:108F5000043BA7F85430B7F85430002BDFD100BFE2
:108F6000FB79002B16D0FB79FB820E4B1B6819682E
:108F7000B7F9163007F10C02084611461A4602F0FE
:108F8000E5FC0346BB82B7F91620B7F914309A42C4
:108F900000D0FEE702F0BCFD00231BB21846583794
:108FA000BD4680BD243A012090B5B7B000AFCD4B8F
:108FB0001B68D3F8BC30C7F8D430CA4B1B68D3F851
:108FC000C430002B00F04783D7F8D4301B8840F61C
:108FD000B202934200F03F8240F6B202934224DC98
:108FE00040F63102934200F0B98040F631029342DC
:108FF0000DDC40F62F02934200F0E282B3F5036FDE
:1090000046DA40F62E02934200F0898218E3B3F567
:10901000086F00F0BA8040F68102934200F00881A8
:1090200040F63202934263D00AE341F622029342B1
:1090300000F0FE8241F6220293420FDC41F20E0262
:10904000934200F0D28141F20F02934200F0E68198
:1090500040F6B302934200F04B82F1E241F62C025B
:10906000934200F07C8141F62C02934205DC41F6EC
:109070002502934200F03881E2E241F62D0293424C
:1090800000F0908141F62522934200F04B81D7E217
:10909000944B1B68D3F8BC300833C7F8D030072393
:1090A000BB64D7F8D02007F16C0320321068186039
:1090B00092889A80D7F8D020D7F8D03093F826300D
:1090C0001C4607F14803043318461146224604F0B3
:1090D00087FAD7F8D03093F8263087F87230814B72
:1090E0001B68D3F8C43007F1480210469847B2E233
:1090F0007C4B1B68D3F8BC300833C7F8CC3008234E
:10910000BB64D7F8CC2007F16C03203210681860DC
:1091100092889A80D7F8CC20D7F8CC3093F82630B4
:109120001C4607F14803043318461146224604F052
:1091300057FAD7F8CC3093F8263087F87230D7F842
:10914000CC3093F8273087F87330664B1B68D3F820
:10915000C43007F14802104698477CE2614B1B6817
:10916000D3F8BC300833C7F8C8300923BB64D7F83C
:10917000C8301B88A7F84C305A4B1B68D3F8C43052
:1091800007F148021046984765E2564B1B68D3F832
:10919000BC300833C7F8C43007F14803043318461D
:1091A00000214C2204F01AFB0123BB64D7F8C43021
:1091B0001B7887F84C30D7F8C42007F18F0343326F
:1091C0001168196092889A80D7F8C43003F123029D
:1091D000D7F8C43093F822301C4607F148032733F0
:1091E00018461146224604F0FBF9D7F8C4309A1C01
:1091F000D7F8C4305B781C4607F14803063318469D
:109200001146224604F0ECF9D7F8C4305B7887F8B1
:109210004D30D7F8C43093F8223087F86E30314B98
:109220001B68D3F8C43007F148021046984712E291
:109230002C4B1B68D3F8BC300833C7F8C03007F19B
:1092400048030433184600214C2204F0C7FA0223D5
:10925000BB64D7F8C0301B7887F84C30D7F8C020F3
:1092600007F18F0343321168196092889A80D7F80A
:10927000C03003F12302D7F8C03093F822301C46E7
:1092800007F14803273318461146224604F0A8F98F
:10929000D7F8C0309A1CD7F8C0305B781C4607F16D
:1092A0004803063318461146224604F099F9D7F8C8
:1092B000C0305B7887F84D30D7F8C03093F849302C
:1092C00087F89530D7F8C03093F8223087F86E30A1
:1092D000044B1B68D3F8C43007F148021046984786
:1092E000B9E100BF243A0120B44B1B68D3F8BC306D
:1092F0000833C7F8BC3001233B61D7F8BC301B688A
:109300007B61D7F8BC305B68BB61D7F8BC309B6829
:10931000FB61AA4B1B68D3F8C43007F1100210465A
:10932000984798E1A54B1B68D3F8BC300833C7F8C1
:10933000B83002233B61D7F8B8301A1D07F110038B
:10934000083318461146102204F04AF99B4B1B685B
:10935000D3F8C43007F11002104698477BE1974BD1
:109360001B68D3F8BC300833C7F8B43003233B6123
:10937000D7F8B4301B687B61D7F8B4305B68BB6149
:10938000D7F8B42007F11C030832106818609288DF
:109390009A808A4B1B68D3F8C43007F1100210463C
:1093A000984758E1854B1B68D3F8BC300833C7F8A1
:1093B000B03004233B61D7F8B0301B687B61D7F82D
:1093C000B0305B89FB83D7F8B02007F11803043273
:1093D0001068186092889A80784B1B68D3F8C43064
:1093E00007F110021046984735E1744B1B68D3F81B
:1093F000BC300833C7F8AC3001237B603B1D04331D
:109400001846D7F8AC10082204F0EAF86B4B1B683A
:10941000D3F8C4303A1D104698471CE1674B1B68CF
:10942000D3F8BC300833C7F8A83002237B60D7F8E4
:10943000A8301B793B73D7F8A8305B797B73D7F8DA
:10944000A830DB88FB815D4B1B68D3F8C4303A1D24
:1094500010469847FFE0594B1B68D3F8BC300833DF
:10946000C7F8A4300323BB64D7F8A4301B68FB649F
:10947000D7F8A4305B683B65D7F8A4309B6A7B675C
:1094800007F148030C3318460021202204F0A6F906
:10949000D7F8A43003F10801D7F8A4305A6807F1CF
:1094A00048030C33184604F09BF8D7F8A4309B6AA5
:1094B000002B14D007F14803303318460021202236
:1094C00004F08CF9D7F8A43003F12C01D7F8A430BC
:1094D0009A6A07F148033033184604F081F8374B95
:1094E0001B68D3F8C43007F1480210469847B2E031
:1094F000324B1B68D3F8BC300833C7F8A0300423C4
:10950000BB64D7F8A0301B88A7F84C302B4B1B68E6
:10951000D3F8C43007F14802104698479BE0274B28
:109520001B68D3F8BC300833C7F89C3007F14803F8
:109530000433184600214C2204F050F90523BB6483
:10954000D7F89C2007F16C032032106818609288CD
:109550009A80D7F89C20D7F89C3093F826301C4688
:1095600007F14803043318461146224604F038F840
:10957000D7F89C3093F8263087F87230D7F89C30B3
:1095800003F12802D7F89C3093F848301C4607F1C5
:1095900048032C3318461146224604F021F8D7F828
:1095A0009C3093F8483087F89430044B1B68D3F80C
:1095B000C43007F14802104698474CE0243A012095
:1095C000264B1B68D3F8BC300833C7F8983007F136
:1095D00048030433184600214C2204F0FFF8062308
:1095E000BB64D7F8982007F16C032032106818602C
:1095F00092889A80D7F89820D7F8983093F8263038
:109600001C4607F14803043318461146224603F06E
:10961000E7FFD7F8983093F8263087F872300F4B71
:109620001B68D3F8C43007F148021046984712E08F
:109630000A4B1B68D3F8BC30184601F005F90AE064
:10964000064B1B68D3F8C430044A1268D2F8BC2019
:109650001046984700BFDC37BD4690BD243A012034
:1096600080B582B000AF5AE0414B1B6893F8A93037
:10967000DAB23F4B1B6893F8AA309A4240D03C4B79
:109680001B680022C3F8BC20394B1B680022C3F8BA
:10969000C420374B1B68FF2283F8C820FFF7F0F87F
:1096A0000346FB80B7F90630002B00D0FEE7304BB5
:1096B0001B6893F8AA200132D2B283F8AA202C4B5F
:1096C0001B6893F8C830012B0CD1294B1B68002272
:1096D00083F89820264B1B68943318460021FCF72A
:1096E00085FB1CE0224B1B6893F8C830022B16D177
:1096F000FFF75AFC1E4B1B680022C3F8BC200EE08B
:109700001B4B1B68943318464FF0FF31FCF76EFB80
:109710000346BB80B7F90430002B00D0FEE7144BA2
:109720001B6893F89830012B9ED0114B1B680433B3
:109730001846FCF7E5FB03467B80B7F90230002BA7
:1097400000D0FEE70A4B1B6893F8A930DAB2084B49
:109750001B6893F8AA309A4204D0064800210022E0
:10976000FCF7EAFB00231BB218460837BD4680BD54
:10977000243A01207997002080B584B000AF78604A
:109780003B4B1B68043318464FF0FF31FCF79AFB44
:109790000346FB81B7F90E30002B00D0FEE7344BB7
:1097A0001B680022C3F8BC20314B1B680022C3F8A1
:1097B000C4202F4B1B68012283F8C8202C4B1B6848
:1097C00093F8A930DAB22A4B1B6893F8AA309A4270
:1097D0000ED1274B1B6804331846FCF791FB034658
:1097E000BB81B7F90C30002B00D0FEE700233AE034
:1097F000FFF746F803467B81B7F90A30002B00D00B
:10980000FEE71B4B1B6893F8AA200132D2B283F803
:10981000AA20174B1B6893F8C830022B04D0032BE7
:1098200012D0002B10D00EE0114B1B68D3F8BC30C7
:10983000002B00D1FEE7FFF7B7FB0D4B1B680022A2
:10984000C3F8BC2001E0FEE700BF094B1B680433EE
:109850001846FCF755FB03463B81B7F90830002B4F
:1098600000D0FEE700231BB218461037BD4680BD6E
:10987000243A012080B483B000AF0346FB803B4B09
:109880001B680022C3F8C420FB8803F480639BB2EA
:10989000002B61D1FB88632B05D1344B1B6803225D
:1098A00083F8C8205DE0FB8841F20A02934209D0A8
:1098B000FB8841F20B02934204D0FB8841F20B2259
:1098C000934205D1294B1B68002283F8C82048E049
:1098D000264B1B68022283F8C820FB8803F4F04360
:1098E000002B05D1214B1B68214AC3F8C42038E066
:1098F000FB8803F4F043B3F5006F05D11B4B1B68E5
:109900001C4AC3F8C4202CE0FB8803F4F043B3F5F1
:10991000805F05D1154B1B68174AC3F8C42020E0AF
:10992000FB8803F4F043B3F5C05F1AD1FB8841F61E
:109930002E02934204D0FB8841F63002934205D1B7
:109940000A4B1B680D4AC3F8C4200AE0074B1B688A
:109950000B4AC3F8C42004E0044B1B68012283F8BF
:10996000C8200C37BD465DF8047B7047243A0120BF
:10997000F982002015440020114E0020B5A90020D6
:109980007545002080B485B000AF78600023FB737C
:109990000BE0FB7B7A681344FA7B013279680A4456
:1099A00012781A70FB7B0133FB73FB7B062BF0D91B
:1099B0007B68073300221A701437BD465DF8047BBC
:1099C000704700BF80B58AB000AF7860396000236F
:1099D0007B6204237B848D4B1B681A68B7F92230A5
:1099E00010468B491A4602F023F803463B84B7F928
:1099F0002220B7F920309A4200D0FEE70423FB83EF
:109A0000824B1B681A68B7F91E30104679681A46EF
:109A100001F09CFF0346BB83B7F91E20B7F91C3049
:109A20009A4200D0FEE726E07B6AB3F5FA6F00D3D6
:109A3000FEE77B6A03F00303002B16D104237B832C
:109A4000724B1B6819687B681A1DB7F91A300846F3
:109A500011461A4601F07AFF03463B83B7F91A20F4
:109A6000B7F918309A4200D0FEE77868FFF78AFF0E
:109A70007B6A01337B627B681B6803F00403002B65
:109A80000FD07B681B6823F0802323F080035F4A9C
:109A9000126892F8A82002F003015E4A0A4393423A
:109AA0000ED07B681B6803F00403002BBCD17B68DD
:109AB0001B6823F0802323F08003574A9342B3D1DD
:109AC0007B6A03F003037B627B6A002B1ED07B68FA
:109AD0005A687B681A607B6AFB824C4B1B6819686A
