:020000042000DA
:10400000D0FB002071480020C9480020D148002082
:10401000E1480020D9480020E148002000000000CD
:10402000000000000000000000000000E148002047
:10403000E148002000000000E1480020E1480020A5
:10404000E1480020E1480020E1480020E14800204C
:1040500000000000E1480020E148002000000000CE
:10406000E148002000000000000000000000000007
:104070000000000000000000E1480020E1480020AE
:10408000E1480020E1480020E1480020E14800200C
:10409000E1480020E1480020E1480020E1480020FC
:1040A000E1480020000000000000000000000000C7
:1040B00000000000E14800200000000000000000B7
:1040C000000000000000000000000000E1480020A7
:1040D000E148002000000000000000000000000097
:1040E00000000000000000000000000000000000D0
:1040F0000000000000000000E1480020E14800202E
:1041000000000000000000000000000000000000AF
:10411000000000000000000000000000000000009F
:10412000000000000000000000000000000000008F
:10413000000000000000000000000000000000007F
:10414000000000000000000000000000000000006F
:10415000000000000000000000000000000000005F
:10416000000000000000000000000000000000004F
:10417000000000000000000000000000000000003F
:10418000000000000000000000000000000000002F
:10419000000000000000000000000000000000001F
:1041A000000000000000000000000000000000000F
:1041B00000000000000000000000000000000000FF
:1041C00000000000000000000000000000000000EF
:1041D00000000000000000000000000000000000DF
:1041E00000000000000000000000000000000000CF
:1041F00000000000000000000000000000000000BF
:1042000000000000000000000000000000000000AE
:10421000000000000000000000000000000000009E
:10422000000000000000000000000000000000008E
:10423000000000000000000000000000000000007E
:10424000000000000000000000000000000000006E
:10425000000000000000000000000000000000005E
:10426000000000000000000000000000000000004E
:10427000000000000000000000000000000000003E
:10428000000000000000000000000000000000002E
:10429000E14800200000000000000000E14800208C
:1042A00000000000E14800200000000000000000C5
:1042B000000000000000000000000000E1480020B5
:1042C00000000000E148002000000000E14800205C
:1042D00000000000000000000000000000000000DE
:1042E000000000000000000000000000E148002085
:1042F000E14800200000000000000000E14800202C
:10430000E1480020E148002000000000000000001B
:10431000000000000000000000000000000000009D
:10432000000000000000000000000000000000008D
:10433000000000000000000000000000000000007D
:10434000000000000000000000000000000000006D
:10435000000000000000000000000000000000005D
:10436000000000000000000000000000000000004D
:10437000000000000000000000000000000000003D
:10438000000000000000000000000000000000002D
:10439000000000000000000000000000000000001D
:1043A000000000000000000000000000000000000D
:1043B00000000000000000000000000000000000FD
:1043C00000000000000000000000000000000000ED
:1043D00000000000000000000000000000000000DD
:1043E00000000000000000000000000000000000CD
:1043F00000000000000000000000000000000000BD
:1044000080B483B000AF78600C37BD465DF8047BA4
:10441000704700BF80B483B000AF78607B681B68D2
:10442000012B02D0022B04D007E0064B01221A8098
:1044300003E0044B00221A8000BF0C37BD465DF834
:10444000047B7047C8EB002080B485B000AF786073
:104450007B68FB60FB681B68012B00D003E0044B0A
:1044600001221A8000BF1437BD465DF8047B7047F7
:10447000CAEB002080B483B000AF786039600C379D
:10448000BD465DF8047B704780B58CB000AF7860A6
:104490004FF0FF33FB627B68002B03D1204800F014
:1044A0007DFA37E07B68022B2AD11E4800F076FAAD
:1044B00001E003F07FF81C4B1B88002BF9D0202370
:1044C0007B8100233B8107F1080107F10A0207F114
:1044D0000C03002003F01CFA0346FB62FB6A002B6E
:1044E00007DA1248F96AF722114B00F057FAFB6A13
:1044F00011E007F10C030F48194600F04FFA09E0EC
:104500007B68032B03D10C4800F048FA02E00B480B
:1045100000F044FA002318463037BD4680BD00BF86
:1045200014DC00202CDC0020CAEB002044DC00203E
:104530000CDE002074DC002084DC00209CDC0020E9
:1045400080B58EB000AF7860612387F837304FF0C8
:10455000FF333B6316E04E4800F020FA4D4804F06C
:1045600085FC034687F8373097F8373049481946B5
:1045700004F090FC47480A2104F08CFC45480D21CA
:1045800004F088FC97F93730312B07D097F9373092
:10459000322B03D097F93730332BDCD197F93730F2
:1045A000312B14D1002003F05FF903463B633B6BD2
:1045B000002B08DA3848396B40F22912374B00F0EB
:1045C000EDF93B6B60E0364800F0E8F95BE097F905
:1045D0003730322B3BD1334800F0E0F907F10C03C0
:1045E0001846212100F080F802F0E4FF022003F0D9
:1045F0003BF903463B633B6B002B08DA2648396BDB
:104600004FF49972254B00F0C9F93B6B3CE007F180
:104610000C03184605F098FE0346FB85FA8D07F15A
:104620000C030020002103F03DF903463B633B6B84
:10463000002B08DA1848396B40F23712174B00F09C
:10464000ADF93B6B20E0164800F0A8F91BE097F9A4
:104650003730332B14D1032003F006F903463B63B4
:104660003B6B002B08DA0C48396B4FF49F720B4BF5
:1046700000F094F93B6B07E0094800F08FF902E085
:10468000094800F08BF9002318463837BD4680BD35
:10469000B8DC002000C0004044DC002024DE002004
:1046A000FCDC002010DD002028DD002080B582B079
:1046B00000AF7860094800F071F9094800F06EF920
:1046C0000848796800F06AF9054800F067F903487E
:1046D00000F064F90837BD4680BD00BF38DD00201A
:1046E00040DD002078DD002080B584B000AF786028
:1046F00039600023FB60224804F0B8FB0346FB72DC
:1047000097F90B300D2B08D097F90B300A2B04D0FA
:10471000FA683B68013B9A421FD3FA683B68013B49
:104720009A420CD3FB7A1648194604F0B3FBFB6897
:104730007A681344FA7A1A70FB680133FB601048F8
:104740000A2104F0A7FB0E480D2104F0A3FBFB682F
:104750007A68134400221A700DE0FB7A0848194663
:1047600004F098FBFB687A681344FA7A1A70FB68C5
:104770000133FB60BFE7FB6818461037BD4680BDBC
:1047800000C0004080B500AF054B184603F0E8FCC0
:1047900003F0DEFC0F2003F04FFD03F0EDFF80BDC2
:1047A0000040002080B582B000AF00237B604FF056
:1047B000FF333B60FFF7E6FF00F04AF800F0BEF879
:1047C0001D48FFF773FF00200021002200F068F968
:1047D00003467B607B68002B07DA1848184940F2D3
:1047E000D312184B00F0DAF8FEE77868FFF74CFEBA
:1047F00038603B68002B07DA1048134940F2DD129D
:10480000104B00F0CBF8FEE77868FFF799FE3860B0
:104810003B68002B07DA09480B4940F2E712094BC5
:1048200000F0BCF8FEE7094800F0B8F8C82000F036
:104830009BFA03463B60FEE7A0DD002044DC00203D
:10484000ACDD002034DE0020C4DD0020ECDD0020E3
:1048500080B500AF0C20012103F080FE362003213B
:1048600003F04CFE3820032103F048FE80BD00BF5A
:1048700080B582B000AF0F4B7B600F4B3B6007E011
:104880003B681A1D3A607A68111D796012681A60D7
:104890003B680A4A9342F3D309480A494FF00002A1
:1048A0008842B8BF40F8042BFADBFFF77BFF0837DC
:1048B000BD4680BD50E3002050E30020C8EB00203F
:1048C000C8EB002000FE002080B400AFFEE700BF70
:1048D00080B400AFFEE700BF80B400AFFEE700BFCA
:1048E00080B400AFFEE700BF80B485B000AF786051
:1048F0000F4B1B68002B02D10D4B0E4A1A600C4B5C
:104900001B68FB600A4B1A687B6813440A4A93428F
:1049100001D9002306E0064B1A687B681344044A59
:104920001360FB6818461437BD465DF8047B70477A
:10493000CCEB002000FE002000FE012080B500AF7F
:104940000C2003F05BFE0346054819464FF4E132A4
:10495000602304F0FDF9034B00221A6080BD00BF04
:1049600000C00040D0FB002080B582B000AF78606E
:104970007B68002B0CD007E07B685A1C7A601B78A0
:104980000548194604F086FA7B681B78002BF3D1A2
:104990000837BD4680BD00BF00C000400FB480B5E1
:1049A00086B000AF00237B614FF48073FB60FB682F
:1049B000184604F0CBFE03463B613B69002B02D155
:1049C0004FF0FF332EE007F124037B60FB6838696A
:1049D00019463A6A7B6805F01FFD78617B69002BF8
:1049E00003DB7A69FB689A4215DBFB685B00FB60BE
:1049F000FB683869194605F097FAB860BB68002B68
:104A000006D10C48FFF7B0FF4FF0FF337B6102E0A7
:104A1000BB683B61D7E73869FFF7A6FF386904F048
:104A20009DFE7B6918461837BD46BDE8804004B03E
:104A3000704700BF44DE002080B483B000AF7860D0
:104A40007B68B3F1333F18D0B3F1333F06D8B3F1ED
:104A5000113F0DD0B3F1223F0CD018E0B3F1553F18
:104A600010D0B3F1663F0FD0B3F1443F07D00EE052
:104A700000230EE04FF6FF730BE0022309E04FF630
:104A8000FE7306E0032304E04FF6FD7301E07B684C
:104A90009BB21BB218460C37BD465DF8047B7047CD
:104AA00090B589B000AFF860B9607A600A23FB83E3
:104AB00003F096FA00F012FAFB68002B08D1444B81
:104AC0001C68B868002103F0A3F80346236003E0E4
:104AD0003F4B1B68FA681A600E20082101F08EFE19
:104AE0000346FB83B7F91E300A2B02D14FF6300381
:104AF00069E0374B1B689033184633214422FF236B
:104B000002F0FCFC0346BB83B7F91C30002B00D03D
:104B1000FEE72F4B1968B7F91E2013465B001344BC
:104B20009B000B44103307F114025A60284B1B689A
:104B300090331846332102F0CFFC03467B83B7F94C
:104B40001A30002B00D0FEE7214B1B681B68002B9E
:104B500035DB03F0A3FA1F48002103F003FA7B685A
:104B6000002B03D01A4B1B687A68DA6003F07EFAD8
:104B70007B68002B23D1164B1968B7F91E2013460A
:104B80005B0013449B0010330B4418462221112272
:104B9000FF2302F0B3FC03463B83B7F91830002B28
:104BA00000D0FEE70A4B1B6893F8AC30184601F0C2
:104BB00043FF7B691846FFF73FFF034603E0044BC2
:104BC0001B681B689BB21BB218462437BD4690BDBC
:104BD000D4FB00209550002090B587B000AF7860DE
:104BE0007B6808337B61344B1B6890331846332154
:104BF0004422FF2302F082FC03467B82B7F9123085
:104C0000002B00D0FEE72C4B1B68DB68002B0BD081
:104C1000294B1B68DC687B691B681846FFF70CFF93
:104C200003461846A0472AE0234B1A68224B1B680C
:104C300093F8AC3019460B465B000B449B001344C1
:104C400010335B6818467969042205F01DF81A4B89
:104C50001A68194B1B6893F8AC3019460B465B0079
:104C60000B449B00103313441846222102F034FCFD
:104C700003463B82B7F91030002B00D0FEE70E4B05
:104C80001B6890331846332102F026FC0346FB8153
:104C9000B7F90E30002B00D0FEE7074B1B68DB682E
:104CA000002B06D0044B1B6893F8AC30184601F07B
:104CB000C3FE1C37BD4690BDD4FB002080B586B036
:104CC00000AF78607B6808337B61264B1B689033AC
:104CD000184633214422FF2302F010FC03467B8256
:104CE000B7F91230002B00D0FEE71E4B1A681D4B9F
:104CF0001B6893F8AC3019460B465B000B449B00D5
:104D0000134410335B6818467969042204F0BCFF31
:104D1000144B1A68134B1B6893F8AC3019460B46BA
:104D20005B000B449B00103313441846222102F011
:104D3000D3FB03463B82B7F91030002B00D0FEE7CF
:104D4000084B1B6890331846332102F0C5FB03461D
:104D5000FB81B7F90E30002B00D0FEE700BF1837FB
:104D6000BD4680BDD4FB002080B588B000AF0346AF
:104D7000FB800023FB830A23BB83FB88002B0ED11F
:104D80000020002103F0EEF803F088F9434B1B6884
:104D90001B68184602F0E6FF0346FB8376E0FB88BB
:104DA0003B820E20082101F029FD0346BB83B7F9A1
:104DB0001C300A2B02D14FF630036AE0374B1B68D8
:104DC0009033184633214422FF2302F097FB034619
:104DD0007B83B7F91A30002B00D0FEE72F4B196800
:104DE000B7F91C2013465B0013449B000B4410339F
:104DF00007F10C025A60294B1B6890331846332187
:104E000002F06AFB03463B83B7F91830002B00D051
:104E1000FEE707F1100322481946002200F06AF964
:104E20000346FB82B7F91630002B00D0FEE73B8A21
:104E3000002B1AD1194B1968B7F91C2013465B00D7
:104E400013449B0010330B44184622211122FF23E8
:104E500002F054FB0346BB82B7F91430002B00D09C
:104E6000FEE7BB893B823B8AFB83BB8BDBB21846E8
:104E700001F0E2FD0020002103F074F803F00EF9C8
:104E8000064B1B681B68184602F06CFF00F0A8F880
:104E9000FB8B1BB218462037BD4680BDD4FB0020DB
:104EA00064DE002080B584B000AF78607B68FB6072
:104EB000FB681B88732B07D0782B0AD0082B07D1EF
:104EC000F868FFF789FE05E0F868FFF7F7FE01E0F4
:104ED000FEE700BF1037BD4680BD00BF80B584B07F
:104EE00000AF3C4B3C4A1A603A4B1B68002B00D188
:104EF000FEE7384B1B6818460021B82204F0C2FFB9
:104F0000344B1B6891331846112102F0E5FA034631
:104F1000BB81B7F90C30002B00D0FEE72D4B1B688E
:104F20009133184622211122012302F0E7FA294B7E
:104F30001B6804331846332102F0CEFA03467B8106
:104F4000B7F90A30002B00D0FEE7224B1B689033E4
:104F50001846332102F0C0FA03463B81B7F9083006
:104F6000002B00D0FEE701F08BFE0023FB7325E051
:104F7000184B1968FA7B13465B0013449B001033EF
:104F80000B441846112102F0A7FA0346FB80B7F93B
:104F90000630002B00D0FEE70E4B1968FA7B134653
:104FA0005B0013449B0010330B441846222111224E
:104FB000012302F0A3FAFB7B0133FB73FB7B092B7C
:104FC000D6D901F0D5FF054B00221A701037BD4627
:104FD00080BD00BFD4FB002020FC0020DCFB0020B3
:104FE00080B584B000AF01F0EDFF294B1B68913311
:104FF0001846002102F070FA0346BB81B7F90C3065
:10500000002B00D0FEE7224B1B680433184600211A
:1050100002F062FA03467B81B7F90A30002B00D018
:10502000FEE71B4B1B6890331846002102F054FA30
:1050300003463B81B7F90830002B00D0FEE7002380
:10504000FB7316E0124B1968FA7B13465B0013449E
:105050009B0010330B441846002102F03DFA034632
:10506000FB80B7F90630002B00D0FEE7FB7B013355
:10507000FB73FB7B092BE5D901F044FE044B0022B6
:105080001A60034B00221A601037BD4680BD00BF76
:10509000D4FB002080B584B000AF786002F088FFB8
:1050A000124B1B6893F89720D2B20132D2B283F828
:1050B00097200E4B1B6893F89230012B0ED10B4BAF
:1050C0001B6891331846222102F006FA0346FB8141
:1050D000B7F90E30002B00D0FEE704E004480021B1
:1050E000002202F039FA1037BD4680BDD4FB002003
:1050F0005163002080B588B000AFF860B9607A6075
:105100002B4B1B680433184633214422FF2302F043
:10511000F5F90346BB83B7F91C30002B00D0FEE73E
:10512000234B1B68012283F89220214B1B68FA68ED
:10513000C3F89C201E4B1B68BA68C3F8A0201C4B08
:105140001B687A68C3F8A42000F05CF80346FB8370
:10515000B7F91E30002B16D1164B1B78002B0DD142
:1051600000237B61134B01221A704FF47A637B6139
:1051700000BF7B695A1E7A61002BFAD101F058F802
:105180000346FB830DE00A4B1B68043318463321AA
:1051900002F0A2F903467B83B7F91A30002B00D046
:1051A000FEE7FB8B1BB218462037BD4680BD00BF13
:1051B000D4FB0020DCFB002080B586B000AFF86097
:1051C000B9607A600E4B1B68002283F892200C4B6A
:1051D0001B68FA68C3F89C20094B1B68BA68C3F8BF
:1051E000A020074B1B687A68C3F8A42000F00AF8D7
:1051F0000346FB82FB8A1BB218461837BD4680BDAA
:10520000D4FB002080B586B000AF8C4B1B68D3F870
:105210009C30002B00D1FEE7884B1B68874A126840
:10522000D2F89C201288DA80844B1A68834B1B6862
:10523000D3F8A430002B17D0804B1B68D3F89C30D8
:105240009B789BB203339BB223F0030399B27B4B51
:105250001B68D3F8A4301B8803339BB223F00303ED
:105260009BB20B449BB20AE0744B1B68D3F89C3092
:105270009B789BB203339BB223F003039BB2138151
:105280006E4B1B6893F89B30012B0CD16B4B1B684A
:105290006A4A12681189694A1268D2F8A4205288B1
:1052A0000A4492B21A810423FB82644B1B681A6879
:1052B000B7F91630104662491A4602F009FE034655
:1052C000BB82B7F91620B7F914309A4200D0FEE736
:1052D00004237B82594B1B681968584B1B689A1D25
:1052E000B7F91230084611461A4602F0F1FD03469E
:1052F0003B82B7F91220B7F910309A4200D0FEE78E
:105300004E4B1B68D3F8A030002B29D04B4B1B68A9
:10531000D3F89C309B78002B22D0484B1B68D3F8E5
:105320009C309B789BB203339BB29BB223F0030368
:10533000FB81424B1B681968404B1B68D3F8A020C7
:10534000B7F90E30084611461A4602F0C1FD034671
:10535000BB81B7F90E20B7F90C309A4200D0FEE7B6
:10536000364B1B6893F89B30012B27D1334B1B68BE
:10537000002283F89B20314B1B68D3F8A4305B8854
:1053800003339BB29BB223F003037B812B4B1B683F
:1053900019682A4B1B68D3F8A430DA68B7F90A30C9
:1053A000084611461A4602F093FD03463B81B7F9C1
:1053B0000A20B7F908309A4200D0FEE71F4B1B685D
:1053C000D3F8A430002B33D01C4B1B68D3F8A43087
:1053D0001B88002B2CD0194B1B68D3F89C309B7872
:1053E00003F00303002B00D0FEE7144B1B68D3F837
:1053F000A4301B8803339BB29BB223F00303FB80D2
:105400000E4B1B6819680D4B1B68D3F8A4309A68C3
:10541000B7F90630084611461A4602F059FD034610
:10542000BB80B7F90620B7F904309A4200D0FEE7F6
:1054300000231BB218461837BD4680BDD4FB0020A0
:105440006CDE002080B596B000AF07F10C02FB1DAA
:105450001046194601F0A6F80346A7F84E30B7F9F2
:105460004E30002B00D0FEE707F10C031B88082B01
:1054700029D0B94B1B6807F10C02127983F89320ED
:10548000B54B1B6807F10C02D27983F89920B24B17
:105490001B6807F10C02927983F89A20AE4B1B68C7
:1054A00093F89330012B0ED9AB4B1B6895331846FC
:1054B000222102F011F80346A7F84C30B7F94C301E
:1054C000002B00D0FEE707F10C031B88184600F004
:1054D000C1FFA14B1B6893F8B430012B00F021826F
:1054E000022B03D0002B00F0DA8021E39A4B1B68DB
:1054F000D3F8A830002B00D0FEE7974B1B68974AE3
:10550000C3F8A820944B1B68D3F8A830002B00D117
:10551000FEE7914B1B68D3F8A8301A4607F10C033D
:1055200003CB1060516007F10C035B88013B23F053
:105530000303A02B09D807F10C035B88013B9BB246
:1055400023F00303A7F8543002E0A023A7F8543057
:1055500007F10C035B88042B1DD0B7F85430A7F873
:105560004A307D4B1B6819687B4B1B68D3F8A83009
:1055700003F10802B7F94A30084611461A4602F00C
:1055800033FC0346A7F84830B7F94A20B7F948304A
:105590009A4200D0FEE707F10C035B88013B23F041
:1055A0000303A02B2DD907F10C035B88013B9BB2B1
:1055B00023F003039BB2A03BA7F854301DE0042363
:1055C000A7F84630644B1B681968B7F9463007F1F5
:1055D0000802084611461A4602F006FC0346A7F8E0
:1055E0004430B7F94620B7F944309A4200D0FEE77C
:1055F000B7F85430043BA7F85430B7F85430002BB8
:10560000DDD1554B1B689033184633214422FF23CC
:1056100001F074FF0346A7F84230B7F94230002B7F
:1056200000D0FEE707F10C031B8841F2030293420E
:105630000DD007F10C031B8841F20322934206D0E0
:1056400007F10C031B8841F20602934210D107F1C7
:105650000C031A88404B1B68D3F8A83008339B789A
:1056600003F00F03DBB21046194601F0C9FB06E058
:1056700007F10C031B881846082101F0C1FB364BCB
:105680001B6890331846332101F026FF0346A7F824
:105690004030B7F94030002B00D0FEE748E207F178
:1056A0000C031B8841F20B02934204D041F20B22FF
:1056B000934204D007E00C2387F8533006E0182308
:1056C00087F8533002E0042387F853300423FB8724
:1056D000214B1B681968B7F93E2007F10C0304330E
:1056E0000846194602F080FB0346BB87B7F93E2007
:1056F000B7F93C309A4200D0FEE707F10C030433BF
:105700009B7803F00F03072B00DDFEE7124B1B68AD
:105710009033184633214422FF2301F0EFFE034665
:105720007B87B7F93A30002B00D0FEE707F10C0376
:105730001A8807F10C0304339B7803F00F03DBB2E4
:105740001046194601F05CFB03463B87B7F9383039
:10575000002B05D0FEE700BFD4FB0020D8FC0020C2
:10576000BD4B1A68BC4B1B6893F8AC3019460B460E
:105770005B000B449B00134410335B681A6807F10D
:105780000C03043310461946042204F07DFA97F8FE
:105790005330042B27D997F853309BB2043B9BB26C
:1057A000FB86AD4B1B681868AB4B1A68AA4B1B688D
:1057B00093F8AC3019460B465B000B449B00134436
:1057C00010335B681B681A1DB7F9363011461A464C
:1057D00002F00AFB0346BB86B7F93620B7F934302E
:1057E0009A4200D0FEE707F10C0304331B881BB27A
:1057F000002B6FDD07F10C0304331B889BB203F011
:105800000303A7F8563007F10C0304331B889BB23F
:1058100023F00303A7F85430B7F85430032B23D9EF
:10582000B7F854307B868C4B1B6818688A4B1A6813
:10583000894B1B6893F8AC3019460B465B000B4450
:105840009B00134410335B685A68B7F93230114635
:105850001A4602F0C9FA03463B86B7F93220B7F977
:1058600030309A4200D0FEE7B7F85630002B31D0E6
:105870000423FB85784B1B681968B7F92E3007F1B4
:105880000802084611461A4602F0AEFA0346BB85E6
:10589000B7F92E20B7F92C309A4200D0FEE76E4BB4
:1058A0001A686D4B1B6893F8AC3019460B465B00C9
:1058B0000B449B00134410335B685A68B7F85430AC
:1058C000D118B7F8563007F10802084611461A46B3
:1058D00004F0DAF9604B1A685F4B1B6893F8AC3040
:1058E00019460B465B000B449B00103313441846CB
:1058F000222101F0F1FD03467B85B7F92A30002B08
:1059000000D0FEE7544B1B6890331846332101F05A
:10591000E3FD03463B85B7F92830002B00D0FEE7B6
:1059200006E14D4B1B68D3F89C30DB789BB2033308
:105930009BB29BB223F00303FB84474B1B6819689F
:10594000454B1B68D3F8A020B7F92630084611460E
:105950001A4602F049FA0346BB84B7F92620B7F984
:1059600024309A4200D0FEE73B4B1B68D3F8A430AA
:10597000002B00F0DC80384B1B68D3F8A4305B8828
:10598000002B00F0D48007F10C035A88324B1B68BF
:10599000D3F89C30DB789BB2D31A9BB2043B9BB20A
:1059A000A7F850302C4B1B68D3F8A430B7F8502020
:1059B0009A80B7F95030002B06DC274B1B68D3F8D0
:1059C000A43000225A80B2E0B7F95030224A12685F
:1059D000D2F8A4205288934212DD1F4B1B68D3F8E3
:1059E000A4305B8803F00303A7F856301A4B1B68FA
:1059F000D3F8A4305B8823F00303A7F854300BE0FE
:105A0000B7F8503003F00303A7F85630B7F850301A
:105A100023F00303A7F85430B7F85430032B1DD9F3
:105A2000B7F854307B840C4B1B6819680A4B1B6811
:105A3000D3F8A430DA68B7F92230084611461A467E
:105A400002F0D2F903463B84B7F92220B7F920309F
:105A50009A4203D0FEE700BFD4FB0020B7F85630CF
:105A6000002B2DD00423FB83424B1B681968B7F928
:105A70001E3007F10802084611461A4602F0B4F932
:105A80000346BB83B7F91E20B7F91C309A4200D0F9
:105A9000FEE7384B1B68D3F8A430DA68B7F8543007
:105AA000D118B7F8563007F10802084611461A46D1
:105AB00004F0EAF8B7F85030043B9BB2A7F8503036
:105AC000B7F950302B4A1268D2F8A420528893427A
:105AD0002DDDB7F85020274B1B68D3F8A4305B8826
:105AE00023F003039BB2D31AA7F854301BE004231E
:105AF0007B83204B1B681968B7F91A3007F108023D
:105B0000084611461A4602F06FF903463B83B7F97F
:105B10001A20B7F918309A4200D0FEE7B7F854308F
:105B2000043BA7F85430B7F85430002BDFD100BF46
:105B3000FB79002B16D0FB79FB820E4B1B68196892
:105B4000B7F9163007F10C02084611461A4602F062
:105B50004BF90346BB82B7F91620B7F914309A42C5
:105B600000D0FEE702F030FA00231BB21846583787
:105B7000BD4680BDD4FB002090B5B7B000AFCD4B83
:105B80001B68D3F8A830C7F8D430CA4B1B68D3F8C9
:105B9000B030002B00F04783D7F8D4301B8840F694
:105BA000B202934200F03F8240F6B202934224DCFC
:105BB00040F63102934200F0B98040F63102934240
:105BC0000DDC40F62F02934200F0E282B3F5036F42
:105BD00046DA40F62E02934200F0898218E3B3F5CC
:105BE000086F00F0BA8040F68102934200F008810D
:105BF00040F63202934263D00AE341F62202934216
:105C000000F0FE8241F6220293420FDC41F20E02C6
:105C1000934200F0D28141F20F02934200F0E681FC
:105C200040F6B302934200F04B82F1E241F62C02BF
:105C3000934200F07C8141F62C02934205DC41F650
:105C40002502934200F03881E2E241F62D029342B0
:105C500000F0908141F62522934200F04B81D7E27B
:105C6000944B1B68D3F8A8300833C7F8D03007230B
:105C7000BB64D7F8D02007F16C032032106818609D
:105C800092889A80D7F8D020D7F8D03093F8263071
:105C90001C4607F14803043318461146224603F018
:105CA000F3FFD7F8D03093F8263087F87230814B65
:105CB0001B68D3F8B03007F1480210469847B2E2AB
:105CC0007C4B1B68D3F8A8300833C7F8CC300823C6
:105CD000BB64D7F8CC2007F16C0320321068186041
:105CE00092889A80D7F8CC20D7F8CC3093F8263019
:105CF0001C4607F14803043318461146224603F0B8
:105D0000C3FFD7F8CC3093F8263087F87230D7F835
:105D1000CC3093F8273087F87330664B1B68D3F884
:105D2000B03007F14802104698477CE2614B1B688F
:105D3000D3F8A8300833C7F8C8300923BB64D7F8B4
:105D4000C8301B88A7F84C305A4B1B68D3F8B030CA
:105D500007F148021046984765E2564B1B68D3F896
:105D6000A8300833C7F8C43007F148030433184695
:105D700000214C2204F086F80123BB64D7F8C4301C
:105D80001B7887F84C30D7F8C42007F18F034332D3
:105D90001168196092889A80D7F8C43003F1230201
:105DA000D7F8C43093F822301C4607F14803273354
:105DB00018461146224603F067FFD7F8C4309A1CF4
:105DC000D7F8C4305B781C4607F148030633184601
:105DD0001146224603F058FFD7F8C4305B7887F8A5
:105DE0004D30D7F8C43093F8223087F86E30314BFD
:105DF0001B68D3F8B03007F148021046984712E20A
:105E00002C4B1B68D3F8A8300833C7F8C03007F113
:105E100048030433184600214C2204F033F80223CF
:105E2000BB64D7F8C0301B7887F84C30D7F8C02057
:105E300007F18F0343321168196092889A80D7F86E
:105E4000C03003F12302D7F8C03093F822301C464B
:105E500007F14803273318461146224603F014FF82
:105E6000D7F8C0309A1CD7F8C0305B781C4607F1D1
:105E70004803063318461146224603F005FFD7F8BB
:105E8000C0305B7887F84D30D7F8C03093F8493090
:105E900087F89530D7F8C03093F8223087F86E3005
:105EA000044B1B68D3F8B03007F1480210469847FE
:105EB000B9E100BFD4FB0020B44B1B68D3F8A83075
:105EC0000833C7F8BC3001233B61D7F8BC301B68EE
:105ED0007B61D7F8BC305B68BB61D7F8BC309B688E
:105EE000FB61AA4B1B68D3F8B03007F110021046D3
:105EF000984798E1A54B1B68D3F8A8300833C7F83A
:105F0000B83002233B61D7F8B8301A1D07F11003EF
:105F1000083318461146102203F0B6FE9B4B1B684F
:105F2000D3F8B03007F11002104698477BE1974B49
:105F30001B68D3F8A8300833C7F8B43003233B619B
:105F4000D7F8B4301B687B61D7F8B4305B68BB61AD
:105F5000D7F8B42007F11C03083210681860928843
:105F60009A808A4B1B68D3F8B03007F110021046B4
:105F7000984758E1854B1B68D3F8A8300833C7F819
:105F8000B03004233B61D7F8B0301B687B61D7F891
:105F9000B0305B89FB83D7F8B02007F118030432D7
:105FA0001068186092889A80784B1B68D3F8B030DC
:105FB00007F110021046984735E1744B1B68D3F87F
:105FC000A8300833C7F8AC3001237B603B1D043395
:105FD0001846D7F8AC10082203F056FE6B4B1B682E
:105FE000D3F8B0303A1D104698471CE1674B1B6848
:105FF000D3F8A8300833C7F8A83002237B60D7F85D
:10600000A8301B793B73D7F8A8305B797B73D7F83E
:10601000A830DB88FB815D4B1B68D3F8B0303A1D9C
:1060200010469847FFE0594B1B68D3F8A830083357
:10603000C7F8A4300323BB64D7F8A4301B68FB6403
:10604000D7F8A4305B683B65D7F8A4309B6A7B67C0
:1060500007F148030C3318460021202203F012FFF9
:10606000D7F8A43003F10801D7F8A4305A6807F133
:1060700048030C33184603F007FED7F8A4309B6A98
:10608000002B14D007F1480330331846002120229A
:1060900003F0F8FED7F8A43003F12C01D7F8A430B0
:1060A0009A6A07F148033033184603F0EDFD374B89
:1060B0001B68D3F8B03007F1480210469847B2E0A9
:1060C000324B1B68D3F8A8300833C7F8A03004233C
:1060D000BB64D7F8A0301B88A7F84C302B4B1B684B
:1060E000D3F8B03007F14802104698479BE0274BA1
:1060F0001B68D3F8A8300833C7F89C3007F1480371
:106100000433184600214C2203F0BCFE0523BB6477
:10611000D7F89C2007F16C03203210681860928831
:106120009A80D7F89C20D7F89C3093F826301C46EC
:1061300007F14803043318461146224603F0A4FD34
:10614000D7F89C3093F8263087F87230D7F89C3017
:1061500003F12802D7F89C3093F848301C4607F129
:1061600048032C3318461146224603F08DFDD7F81C
:106170009C3093F8483087F89430044B1B68D3F870
:10618000B03007F14802104698474CE0D4FB00209D
:10619000264B1B68D3F8A8300833C7F8983007F1AE
:1061A00048030433184600214C2203F06BFE0623FB
:1061B000BB64D7F8982007F16C0320321068186090
:1061C00092889A80D7F89820D7F8983093F826309C
:1061D0001C4607F14803043318461146224603F0D3
:1061E00053FDD7F8983093F8263087F872300F4B6C
:1061F0001B68D3F8B03007F148021046984712E008
:106200000A4B1B68D3F8A830184601F015F80AE0CD
:10621000064B1B68D3F8B030044A1268D2F8A820A5
:106220001046984700BFDC37BD4690BDD4FB002028
:1062300080B582B000AF5DE0434B1B6893F89730A8
:10624000DAB2414B1B6893F898309A4242D03E4BE9
:106250001B680022C3F8A8203B4B1B680022C3F830
:10626000B020394B1B68FF2283F8B420FFF7EAF80F
:106270000346FB80B7F90630002B00D0FEE7324B17
:106280001B6893F898200132D2B283F898202E4BE5
:106290001B6893F8B430012B0ED12B4B1B680022E6
:1062A00083F89220284B1B68913318462221112233
:1062B000012301F023F91DE0234B1B6893F8B43050
:1062C000022B17D1FFF758FC1F4B1B680022C3F8A5
:1062D000A8200FE01C4B1B68913318462221112285
:1062E000FF2301F00BF90346BB80B7F90430002B04
:1062F00000D0FEE7144B1B6893F89230012B9BD023
:10630000114B1B6804331846332101F0E5F80346AE
:106310007B80B7F90230002B00D0FEE70A4B1B68E8
:1063200093F89730DAB2084B1B6893F898309A428A
:1063300004D006480021002201F00EF900231BB210
:1063400018460837BD4680BDD4FB002051630020AD
:1063500080B584B000AF78603D4B1B6804331846AD
:1063600033214422FF2301F0C9F80346FB81B7F92A
:106370000E30002B00D0FEE7354B1B680022C3F81F
:10638000A820334B1B680022C3F8B020304B1B6899
:10639000012283F8B4202E4B1B6893F89730DAB2B1
:1063A0002B4B1B6893F898309A420FD1284B1B68EF
:1063B00004331846332101F08FF80346BB81B7F947
:1063C0000C30002B00D0FEE700233BE0FFF73AF84B
:1063D00003467B81B7F90A30002B00D0FEE71C4B47
:1063E0001B6893F898200132D2B283F89820184B9A
:1063F0001B6893F8B430022B04D0032B12D0002B6F
:1064000010D00EE0124B1B68D3F8A830002B00D13F
:10641000FEE7FFF7B1FB0E4B1B680022C3F8A82074
:1064200001E0FEE700BF0A4B1B6804331846332126
:1064300001F052F803463B81B7F90830002B00D039
:10644000FEE700231BB218461037BD4680BD00BFD3
:10645000D4FB002080B483B000AF0346FB803B4BED
:106460001B680022C3F8B020FB8803F480639BB252
:10647000002B61D1FB88632B05D1344B1B680322B1
:1064800083F8B4205DE0FB8841F20A02934209D010
:10649000FB8841F20B02934204D0FB8841F20B22AD
:1064A000934205D1294B1B68002283F8B42048E0B1
:1064B000264B1B68022283F8B420FB8803F4F043C8
:1064C000002B05D1214B1B68214AC3F8B02038E0CE
:1064D000FB8803F4F043B3F5006F05D11B4B1B6839
:1064E0001C4AC3F8B0202CE0FB8803F4F043B3F55A
:1064F000805F05D1154B1B68174AC3F8B02020E018
:10650000FB8803F4F043B3F5C05F1AD1FB8841F672
:106510002E02934204D0FB8841F63002934205D10B
:106520000A4B1B680D4AC3F8B0200AE0074B1B68F2
:106530000B4AC3F8B02004E0044B1B68012283F827
:10654000B4200C37BD465DF8047B7047D4FB0020B7
:10655000A54E00201544002001440020AD7300200A
:106560004944002080B485B000AF78600023FB73FD
:106570000BE0FB7B7A681344FA7B013279680A44AA
:1065800012781A70FB7B0133FB73FB7B062BF0D96F
:106590007B68073300221A701437BD465DF8047B10
:1065A000704700BF80B58AB000AF786039600023C3
:1065B0007B6204237B848D4B1B681A68B7F92230F9
:1065C00010468B491A4601F083FC03463B84B7F919
:1065D0002220B7F920309A4200D0FEE70423FB8343
:1065E000824B1B681A68B7F91E30104679681A4644
:1065F00001F0FAFB0346BB83B7F91E20B7F91C3044
:106600009A4200D0FEE726E07B6AB3F5FA6F00D32A
:10661000FEE77B6A03F00303002B16D104237B8380
:10662000724B1B6819687B681A1DB7F91A30084647
:1066300011461A4601F0D8FB03463B83B7F91A20EE
:10664000B7F918309A4200D0FEE77868FFF78AFF62
:106650007B6A01337B627B681B6803F00403002BB9
:106660000FD07B681B6823F0802323F080035F4AF0
:10667000126892F8962002F003015E4A0A439342A0
:106680000ED07B681B6803F00403002BBCD17B6831
:106690001B6823F0802323F08003574A9342B3D131
:1066A0007B6A03F003037B627B6A002B1ED07B684E
:1066B0005A687B681A607B6AFB824C4B1B681968BE
:1066C0007B6AC3F104037A681A44B7F916300846A6
:1066D00011461A4601F088FB0346BB82B7F9162023
:1066E000B7F914309A4200D0FEE714E004237B820D
:1066F0003E4B1B681A68B7F91230104679681A4683
:1067000001F072FB03463B82B7F91220B7F9103053
:106710009A4200D0FEE714E00423FB81334B1B6850
:106720001A68B7F90E30104679681A4601F05CFB1A
:106730000346BB81B7F90E20B7F90C309A4200D05E
:10674000FEE77B681B6803F00403002B0FD07B6817
:106750001B6823F0802323F08003244A126892F8F8
:10676000962002F00301234A0A439342D4D07B6867
:106770001B6803F00403002B08D17B681B6823F01F
:10678000802323F080031C4A9342C5D0174B1B681B
:1067900093F896200132D2B283F8962004237B81AD
:1067A000124B1B6819687B681A1DB7F90A30084636
:1067B00011461A4601F018FB03463B81B7F90A203F
:1067C000B7F908309A4200D0FEE77B6A002B04D06C
:1067D0007B6AC3F10403DAB200E000223B681A705E
:1067E00000231BB218462837BD4680BDD4FB0020CD
:1067F00074DE00203C5CCD2B3A5CCD2B80B586B09E
:1068000000AF78600B46FB700A23FB75894B1B6851
:106810009033184633214422FF2300F06FFE0346D5
:10682000BB82B7F91430002B00D0FEE7814B1B6808
:1068300093F88830092B25D87E4B1B6893F8883055
:10684000FB757C4B1968FA7D13465B0013449B0073
:106850000B4418339B78092B0ED8764B1968754B6F
:106860001868FA7D13465B0013449B0003441833F9
:106870009B7881F8883016E06E4B1B680A2283F8FB
:10688000882010E06B4B1B6890331846332100F0D2
:1068900023FE03467B82B7F91230002B00D0FEE7BF
:1068A000FB7D9BB2C1E0634B1968FA7D7B68D8B26F
:1068B00013465B0013449B000B44183302461A70C6
:1068C000FB78072B0AD85B4B1968FA7D13465B00EF
:1068D00013449B000B441833FA785A7047E0554B29
:1068E0001968FA7D534B1B6893F8890013465B00C7
:1068F00013449B000B44183302469A704D4B1B689F
:10690000FA7D83F889204B4B1B689033184633215E
:1069100000F0E2FD03463B82B7F91030002B00D0B7
:10692000FEE7444B1968FA7D13465B0013449B0055
:1069300010330B44184622211122FF2300F0DEFD04
:106940000346FB81B7F90E30002B00D0FEE7394B30
:106950001B689033184633214422FF2300F0CEFDFC
:106960000346BB81B7F90C30002B00D0FEE7FB7863
:10697000072B0AD82F4B1B68D3F88C30FA780121EB
:1069800001FA02F21340002BA9D12A4B1B68D3F85D
:106990008C307A68012101FA02F21340002B02D0F8
:1069A000FB78082B9BD0FB78072B0DD8214B1B685D
:1069B000204A1268D2F88C20F978012000FA01F1FF
:1069C0000A43C3F88C200CE01A4B1B68194A126862
:1069D000D2F88C207968012000FA01F10A43C3F84B
:1069E0008C20144B1968FA7D124B1B6893F88A00AF
:1069F00013465B0013449B000B44183302469A7005
:106A00000C4B1B68FA7D83F88A200A4B1B68903375
:106A10001846332100F060FD03467B81B7F90A3048
:106A2000002B00D0FEE7FB7D9BB21BB21846183747
:106A3000BD4680BDD4FB002090B585B000AF0346B5
:106A4000FB718E4B1B689033184633214422FF2381
:106A500000F054FD0346BB81B7F90C30002B00D089
:106A6000FEE7864B1B6893F88930FB7374E0834B19
:106A70001968FA7B13465B0013449B000B441833E0
:106A800019787E4B1868FA7913465B0013449B0013
:106A9000034418331B78994253D1784B1968FA7B19
:106AA00013465B0013449B000B4418335B7803F0E0
:106AB0000F03082B27D0714B1968FA7913465B0036
:106AC00013449B000B4418335B7803F00F03072B30
:106AD00037DC6A4B1968FA7B13465B0013449B0052
:106AE0000B4418335B781846644B1968FA791346DF
:106AF0005B0013449B000B4418335B78434003F066
:106B00000F03002B1DD15D4B1B6803F18902FB7B3A
:106B10001046194600F00EF9584B1968FA7B1346D7
:106B20005B0013449B0010330B441846222100F0F5
:106B3000D3FC03467B81B7F90A30002B00D0FEE777
:106B40000DE04E4B1968FA7B13465B0013449B0023
:106B50000B4418339B78FB73FB7B092B87D9474B7E
:106B60001968FA7913465B0013449B000B441833F1
:106B70005B7803F00F03072B19DC404B19683F4B80
:106B80001B68D3F88C003D4B1C68FA7913465B00F8
:106B900013449B00234418335B7803F00F03012256
:106BA00002FA03F3DB430340C1F88C3016E0334BA9
:106BB0001968324B1B68D3F88C00304B1C68FA798B
:106BC00013465B0013449B00234418331B781A467A
:106BD00001239340DB430340C1F88C30274B1968F5
:106BE000FA7913465B0013449B000B4410330022D8
:106BF0005A60224B1968FA7913465B0013449B00D4
:106C00000B44183300221A701C4B1968FA7913468A
:106C10005B0013449B000B44183308225A70174B37
:106C20001B6803F18A02FB791046194600F082F8CE
:106C3000124B1968FA79114B1B6893F888001346B8
:106C40005B0013449B000B44183302469A700B4BB5
:106C50001B68FA7983F88820084B1B689033184624
:106C6000332100F039FC03463B81B7F90830002B93
:106C700000D0FEE71437BD4690BD00BFD4FB002016
:106C800080B582B000AF1E4B1B6810331846002140
:106C9000782203F0F7F81A4B1B68002283F888204B
:106CA0000023FB711BE0164B1968FA79FB7901335D
:106CB000D8B213465B0013449B000B4418330246C2
:106CC0009A700F4B1968FA7913465B0013449B00C6
:106CD0000B44183308225A70FB790133FB71FB799E
:106CE000092BE0D9064B1B680A2283F88A20044B43
:106CF0001B680A2283F889200837BD4680BD00BF83
:106D0000D4FB002080B400AF094B1B68002283F83D
:106D10008820074B1B680A2283F88920044B1B68D4
:106D20000A2283F88A20BD465DF8047B704700BFC5
:106D3000D4FB002090B484B000AF78600B46FB70A9
:106D40002E4B1A687B681B7819460B465B000B4478
:106D50009B00134418339B780A2B03D17B680A22CB
:106D60001A7046E07B681B78FA789A420CD1234B64
:106D70001968FA7813465B0013449B000B441833E0
:106D80009A787B681A7034E07B681B78FB732DE07F
:106D90001A4B1968FA7B13465B0013449B000B44A3
:106DA00018339B78FA789A4215D1144B1868FA7BFD
:106DB000124B1C68F9780B465B000B449B00234484
:106DC0001833997813465B0013449B00034418332F
:106DD0000A469A700DE0094B1968FA7B13465B006E
:106DE00013449B000B4418339B78FB73FB7B092BEC
:106DF000CED91037BD4690BC704700BFD4FB0020F1
:106E000080B485B000AF03460A46FB8013467B7111
:106E1000554B1B6893F88A30FB7397E0524B196807
:106E2000FA7B13465B0013449B000B4418335B78DA
:106E3000DBB25BB2002B03DAFB8823F40073FB8028
:106E4000494B1968FA7B13465B0013449B000B44C3
:106E500018331B780F2B22D1434B1968FA7B13464A
:106E60005B0013449B000B4418335B787A799A4299
:106E700015D1FB8841F20A02934209D0FB8841F206
:106E80000B02934204D0FB8841F20B22934206D1BD
:106E9000354B1B68FA7B83F8AC2000235CE0324B57
:106EA0001968FA7B13465B0013449B000B441833AC
:106EB0001B78083B2D4ADB0013445B88FA889A4212
:106EC00039D17979284B1868FA7B13465B00134453
:106ED0009B00034418335B7803F00F03994202D1FF
:106EE0007B79072B0DD9204B1968FA7B13465B0081
:106EF00013449B000B4418335B7803F00F03082BFB
:106F000019D1194B1968184B1868FA7B13465B00A6
:106F100013449B00034418331B78083B134ADB00DF
:106F200013445B68C1F8B0300F4B1B68FA7B83F8E1
:106F3000AC20002310E00C4B1968FA7B13465B0071
:106F400013449B000B4418339B78FB73FB7B092B8A
:106F50007FF664AF4FF6FD731BB218461437BD467B
:106F60005DF8047B704700BFD4FB002078DE002072
:106F700080B582B000AF124B1B68012283F89320CA
:106F80000F4B1B6894331846332100F0A5FA0346D3
:106F9000FB80B7F90630002B00D0FEE7084B1B68DA
:106FA00095331846112100F097FA0346BB80B7F9D4
:106FB0000430002B00D0FEE70837BD4680BD00BF7F
:106FC000D4FB002080B582B000AF124B1B680022BA
:106FD00083F893200F4B1B6894331846002100F070
:106FE0007BFA0346FB80B7F90630002B00D0FEE7A2
:106FF000084B1B6895331846002100F06DFA0346D4
:10700000BB80B7F90430002B00D0FEE70837BD463F
:1070100080BD00BFD4FB002080B586B000AF786093
:107020007B6808337B61344B1A68334B1B6893F8D9
:10703000AC3019460B465B000B449B0013441833DD
:107040005B78DBB25BB2002B00DA52E07B695B88D5
:107050007B82294B1A68284B1B6893F8AC30194681
:107060000B465B000B449B00134410335B68FB60D2
:10707000FB685B687A6992681A60FB689B687A694A
:1070800052681A607B691B889AB2FB681A80FB6899
:10709000DB681B887B817A8A7B89934228BF1346F1
:1070A0007B81FB68DB687A891A80FB6819697B69D8
:1070B00003F10C027B89084611461A4602F0E4FDF2
:1070C0000D4B1A680C4B1B6893F8AC3019460B46F5
:1070D0005B000B449B00103313441846222100F040
:1070E000FBF903463B81B7F90830002B00D0FEE7DF
:1070F00000BF1837BD4680BDD4FB002080B586B0E8
:1071000000AF78607B6808337B61394B1B68903334
:10711000184633214422FF2300F0F0F903467B8216
:10712000B7F91230002B00D0FEE7314B1A68304B14
:107130001B6893F8AC3019460B465B000B449B0070
:10714000134418335B78DBB25BB2002B13DA284BA5
:107150001A68274B1B6893F8AC3019460B465B0046
:107160000B449B00134410335B6818467969142262
:1071700002F08AFD12E01E4B1A681D4B1B6893F843
:10718000AC3019460B465B000B449B001344103394
:107190005B6818467969082202F076FD144B1A687C
:1071A000134B1B6893F8AC3019460B465B000B443D
:1071B0009B00103313441846222100F08DF903463A
:1071C0003B82B7F91030002B00D0FEE7084B1B685C
:1071D00090331846332100F07FF90346FB81B7F95D
:1071E0000E30002B00D0FEE700BF1837BD4680BD33
:1071F000D4FB002080B483B000AF786039607B6836
:10720000DA683B681A607B689A683B685A607B68FA
:107210005A883B681A817B689A883B685A817B68E8
:10722000DA883B689A817B681A693B681A610C3777
:10723000BD465DF8047B704780B58AB000AF7860CA
:107240007B6808337B62374B1B68002B0CD007F13F
:107250000803786A1946FFF7CDFF324B1B6807F128
:1072600008021046984758E02F4B1B689033184689
:1072700033214422FF2300F041F903467B84B7F910
:107280002230002B00D0FEE7274B1A68264B1B68E4
:1072900093F8AC3019460B465B000B449B0013443B
:1072A00010335B68002B2AD01F4B1A681E4B1B68DB
:1072B00093F8AC3019460B465B000B449B0013441B
:1072C00010335B681846796A142202F0DDFC164B15
:1072D0001A68154B1B6893F8AC3019460B465B00D7
:1072E0000B449B00103313441846222100F0F4F89D
:1072F00003463B84B7F92030002B00D0FEE70A4B51
:107300001B6890331846332100F0E6F80346FB83F0
:10731000B7F91E30002B00D0FEE700BF2837BD466E
:1073200080BD00BFD8FB0020D4FB002090B58FB0FB
:1073300000AF78607B681B789BB203339BB223F06D
:1073400003039BB2BB810023FB817B685B687B618D
:107350000023BB617B681B783B777B685B787B771E
:107360007B689A687B685B781C4607F11C030233D4
:1073700018461146224602F087FC07F11C0207F16D
:107380000C03094811461A46FDF716FF0346FB8613
:10739000B7F93630002B00D0FEE7BB8B9BB2184606
:1073A0003C37BD4690BD00BFB0DE002080B594B034
:1073B00000AF78607B68FB64FB6C1B8841F6300291
:1073C000934253D041F6300293420BDC41F6220245
:1073D00093421BD041F62E0293421BD0B3F5C15FFE
:1073E0000CD074E0B3F5D15F08D041F6352293425A
:1073F00008D041F63502934204D068E07868FFF780
:107400007DFE65E07868FFF707FE61E07868FFF7CA
:1074100013FF5DE0FB6C0833BB64BB6C04337B641F
:1074200001237B6140233B76FB6C1C33FB61012312
:107430003B62BB6C1B7887F824307B6CBB627B6C37
:107440003B6107F1200207F1140310461946FDF7CE
:1074500011F83B7E3B7297F824307B72FB69FB602E
:1074600007F108031846FFF761FF31E0FB6C0833B2
:107470003B643B6C0433FB6302233B623B6C1B7835
:1074800087F82430FB6BBB623B6C1B781A46FB6BA6
:107490001344FB633B6C5B7887F82C30FB6B3B63DE
:1074A0003B6C5B781A46FB6B1344FB633B6C9B782D
:1074B00087F83430FB6BBB6300237B6107F120024C
:1074C00007F1140310461946FCF7D4FF00E0FEE76D
:1074D0005037BD4680BD00BF80B483B000AF786038
:1074E0000B46FB707B68FA781A7000235BB2184673
:1074F0000C37BD465DF8047B704700BF80B582B095
:1075000000AF7860084611461A460346FB700B46EA
:10751000BB7013467B7010E07B681B78FA789A4248
:1075200003D17B68BA781A700AE07B78FF2B02D00F
:107530007B78013B7B7000F03DF87B78002BEBD132
:107540007B78002B01D1FF2300E000235BB21846BB
:107550000837BD4680BD00BF80B487B000AFF8607B
:10756000B9607A600023FB8215E0B7F91630DB00C2
:107570000F4A13443B613B691B68002B06D13B69F2
:10758000BA685A603B69FA681A6008E0FB8A9BB2E5
:1075900001339BB2FB82B7F91630042BE5DD0023E3
:1075A0005BB218461C37BD465DF8047B704700BFD0
:1075B00080FD002080B584B000AF0023FB8124E073
:1075C000B7F90E30DB00164A1344BB60BB681B687A
:1075D0007B607B68002B13D0124B1B6893F89730AD
:1075E000DAB2104B1B6893F898309A4202D07B684D
:1075F00000209847BB6800221A60BB6800225A60CE
:10760000FB899BB201339BB2FB81B7F90E30042B8F
:10761000D6DD00235BB218461037BD4680BD00BFE3
:1076200080FD0020D4FB002080B586B000AF7860DC
:107630007B6808337B61314B1B68903318463321DC
:107640004422FF23FFF75AFF03467B82B7F912302B
:10765000002B00D0FEE77B699B7803F00F03082B1B
:1076600000DDFEE7254B1A68244B1B6893F8AC300D
:1076700019460B465B000B449B00134410335B68B8
:107680007A6992789A701D4B1A681C4B1B6893F8A4
:10769000AC3019460B465B000B449B00134410337F
:1076A0005B687A6912881A80144B1A68134B1B683E
:1076B00093F8AC3019460B465B000B449B0010332B
:1076C000134418462221FFF707FF03463B82B7F910
:1076D0001030002B00D0FEE7084B1B689033184693
:1076E0003321FFF7F9FE0346FB81B7F90E30002B7B
:1076F00000D0FEE700BF1837BD4680BDD4FB002098
:1077000080B586B000AF78607B6808337B612A4B18
:107710001B689033184633214422FF23FFF7EEFE07
:1077200003467B82B7F91230002B00D0FEE77B695D
:107730009B7803F00F03082B00DDFEE71E4B1A6851
:107740001D4B1B6893F8AC3019460B465B000B448D
:107750009B00134410335B68184679690C2202F0D1
:1077600093FA154B1A68144B1B6893F8AC30194602
:107770000B465B000B449B00103313441846222138
:10778000FFF7AAFE03463B82B7F91030002B00D06A
:10779000FEE7094B1B68903318463321FFF79CFE28
:1077A0000346FB81B7F90E30002B00D0FEE700BF87
:1077B0001837BD4680BD00BFD4FB002080B586B021
:1077C00000AF78607B6808337B61264B1B68903381
:1077D000184633214422FF23FFF790FE03467B82A5
:1077E000B7F91230002B00D0FEE71E4B1A681D4B74
:1077F0001B6893F8AC3019460B465B000B449B00AA
:10780000134410335B6818467969082202F03CFA89
:10781000144B1A68134B1B6893F8AC3019460B468F
:107820005B000B449B001033134418462221FFF7E2
:1078300053FE03463B82B7F91030002B00D0FEE721
:10784000084B1B68903318463321FFF745FE03466B
:10785000FB81B7F90E30002B00D0FEE700BF1837D0
:10786000BD4680BDD4FB002080B584B000AF034688
:10787000FB71FB793B7207F10803094819460022A6
:10788000FDF738FC0346FB81B7F90E30002B00D022
:10789000FEE73B891BB218461037BD4680BD00BFCE
:1078A000B4DE002080B58CB000AF7B600346FB8166
:1078B0000B46BB8113467B817B8903339BB223F04C
:1078C00003039BB2BB820023FB827B68FB61002326
:1078D0003B62FB89FB847B897B85BB893B8507F108
:1078E000240207F11403094811461A46FDF702FC69
:1078F0000346FB85B7F92E30002B00D0FEE7BB8C8A
:107900001BB218463037BD4680BD00BFB8DE002030
:1079100080B58CB000AFB9607A603B600346FB81F4
:107920007B681B88002B02D14FF62E033DE000231D
:10793000BB827B681B88FB820023FB613B683B6248
:1079400000233B83FB89FB84BB68002B02D0BB6810
:107950001B883B8507F1240207F1140315481146E3
:107960001A46FDF7C7FB0346FB85B7F92E30002BFF
:1079700000D0FEE7BB68002B04D03B8DDBB29AB28F
:10798000BB681A80FA8A3B8B9A4207D2FB8ADBB229
:107990009AB27B681A804FF62F0306E03B8BDBB26E
:1079A0009AB27B681A80BB8C9BB21BB218463037E8
:1079B000BD4680BDBCDE002080B588B000AF7860D9
:1079C00039601B4801F09CF97B68BB613B6803335D
:1079D0009B10FB61174B7B61174B3B61174BFB60A7
:1079E00018E000BF7B691B6803F00203002BF9D08D
:1079F0003B694FF0FF321A6000BF7B691B6803F0E0
:107A00000103002BF9D0FB681A68BB691A60BB69D7
:107A10000433BB61FB695A1EFA61002BE1D10448B3
:107A200001F082F93B6818462037BD4680BD00BF93
:107A30000020024430210244382102443C21024407
:107A400080B588B000AF786039601A4801F058F905
:107A50007B68BB613B6803339B10FB61164B3B614A
:107A6000164BFB60164BBB6017E000BF3B691B6801
:107A700003F00203002BF9D0FB68BA6912681A60A0
:107A800000BF3B691B6803F00103002BF9D0BB6802
:107A90001B687B61BB690433BB61FB695A1EFA61D9
:107AA000002BE2D1034801F03FF93B68184620372C
:107AB000BD4680BD002002443021024438210244EA
:107AC0003C21024480B500AF05484FF4003101F07D
:107AD000E7F8034801F028F9024B01221A7080BD33
:107AE00000200244A8FD002080B588B006AF786071
:107AF00039603B68002B00DA03339B101A460023E1
:107B000000931A4B01934FF040630293184B039379
:107B10004FF0404304930D2001214FF0085300F033
:107B2000EFFA3B68002B00DA03339B101A46002360
:107B30000093104B01934FF0406302937B680393D3
:107B40004FF0004304930C2001214FF0085300F044
:107B5000D7FA3B68002B00DA03339B10064819461E
:107B600001F03EF80837BD4680BD00BFC0FD0020D3
:107B7000382102443C2102440020024480B588B0F0
:107B800006AF786039603B68002B00DA03339B1046
:107B90001A46002300937B6801934FF00063029321
:107BA000174B03934FF0404304930D2001214FF0F6
:107BB000085300F0A5FA3B68002B00DA03339B1052
:107BC0001A46002300930F4B01934FF0406302933A
:107BD0000D4B03934FF0404304930C2001214FF0D1
:107BE000085300F08DFA3B68002B00DA03339B103A
:107BF0000648194600F0F4FF0837BD4680BD00BFB7
:107C0000382102443C210244E8FD002000200244C7
:107C100080B588B002AF786039604FF480633B6113
:107C2000464BFB60042040F2011100F097FCF8681D
:107C300001F07AF8F86800F0CBFEF86800F008FF71
:107C40003B695B88012B02D13D4B7B610CE03B69BA
:107C50005B88022B02D13A4B7B6105E03B695B8874
:107C6000022B01D9374B7B61042000F0C7FC024690
:107C700000230093344B0193F86811467A6900237E
:107C800000F004FF052000F055FD0346002B0AD04C
:107C90002E4B1B68002B14BF01230023DBB21A46B6
:107CA0002B4B1A7002E02A4B00221A70284B1B78CB
:107CB000002B36D02748FF21502202F0E3F80C2099
:107CC00000F00AFA0D2000F007FAF8684FF0805132
:107CD00000F038FFF8684FF0006100F033FFF868FB
:107CE0004FF4004100F088FEF8684FF4804100F046
:107CF00083FEF8680121012200F050FFC1201649DF
:107D000000F03CFAC120202100F064FAC12000F00C
:107D100093FAF8684FF4003100F08EFF0F4B002209
:107D20001A70F86800F040FE0D4B01221A600C4BEF
:107D30001B6818461837BD4680BD00BF00200244AE
:107D4000405DC600002D3101800F000108F00F409A
:107D5000E4FB0020ACFD0020C57A0020A8FD002037
:107D6000E0FB002080B584B000AF78601A4BFB6068
:107D70001A4B00221A601A4B1B78002B19D0F86896
:107D800000F048FF174B00221A70F8684FF080513E
:107D900000F0EEFEF8684FF0006100F0E9FEF868D0
:107DA0004FF4004100F03EFEF8684FF4804100F0CF
:107DB00039FE094800F0B8FFF86800F009FEF868DD
:107DC00000F046FE042040F2011100F0F5FB002314
:107DD00018461037BD4680BD00200244E0FB00205D
:107DE000E4FB0020A8FD002080B586B000AFF8605D
:107DF000B9607A6000237B61BB683B61FB68012B43
:107E000003D12F4B1B68012B02D04FF0FF3353E0FF
:107E10007B68642B47DD2B4B1B78002B43D03B69E1
:107E200003F00303002B3ED139E07B68B3F57A6F92
:107E300019DA7B69BA68134418467968FFF754FE6B
:107E4000214800F05DFF00BF204B1B78DBB2012B07
:107E5000FAD11E4B00221A707A697B6813447B6149
:107E600000237B601BE07B69BA68134418464FF41B
:107E70007A61FFF739FE144800F042FF00BF134B50
:107E80001B78DBB2012BFAD1104B00221A707B69F0
:107E900003F57A637B617B68A3F57A637B607B681B
:107EA000002BC2DC07E0B8687968FFF785FD024661
:107EB0007B6913447B617B6918461837BD4680BDDA
:107EC000E0FB0020E4FB002000200244A8FD00208D
:107ED00080B586B000AFF860B9607A6000237B613E
:107EE000BB683B61FB68012B03D11A4B1B68012B5C
:107EF00002D04FF0FF3329E07B68642B1DDD164B69
:107F00001B78002B19D03B6903F00303002B14D11D
:107F1000B8687968FFF732FE104800F0F1FE00BF44
:107F20000F4B1B78DBB2012BFAD10D4B00221A70DC
:107F30007A697B6813447B6107E0B8687968FFF76A
:107F40007FFD02467B6913447B617B6918461837C5
:107F5000BD4680BDE0FB0020E4FB00200020024481
:107F6000A8FD002080B582B000AF786039607B68E2
:107F7000002B09D1BB2000F0BDF9BB2000F014F9A3
:107F8000BB2000F015FA0DE0BB20796800F0F6F890
:107F9000BB20202100F01EF9BB2000F009FABB2015
:107FA00000F04AF9002318460837BD4680BD00BFDF
:107FB00080B400AF034B01221A60BD465DF8047B1C
:107FC000704700BF88700F4080B400AF034B0122A0
:107FD0001A60BD465DF8047B704700BF8C700F408F
:107FE00080B584B000AF1B4B01221A601A4801F023
:107FF000D1F80023FB60194B1B68BB60184B1B6852
:108000007B60BB68202B19D07B6803F00203002B38
:1080100014D10FE0134B1B683B603B6803F0010376
:10802000002B06D00C4801F0B5F8FB680133FB606B
:1080300000E003E0FB68B3F57A7FEBD30A4B012243
:108040001A60054801F0A6F800F028F81037BD4680
:1080500080BD00BFB8700F400071020004D402441C
:108060006CE10244C0700F40B0700F4080B500AFAB
:10807000074A074B1B6823F002031360054B0122DC
:108080001A60054801F086F8FFF79EFF80BD00BF2B
:108090006CE102441851024400127A0080B500AF2E
:1080A0004FF4FA5001F076F8FFF782FF074A074BCA
:1080B0001B6823F000631360054A054B1B6843F0FF
:1080C00002031360034801F065F880BD24F0024408
:1080D0006CE1024400350C0080B582B000AF7860DE
:1080E0007B68DBB2402B00D906E0786801F026F807
:1080F0007868022100F03AFF0837BD4680BD00BF16
:1081000080B586B002AFF860B9607A603B603A68CB
:108110003B6A1A43BB6A1A43BB691343F8681946A2
:1081200000F066FFF868012100F0DEFE7B68009336
:10813000F868B968FA697B6A00F07EFFF86800F0B9
:10814000BFFE1037BD4680BD80B400AFFEE700BF64
:1081500080B500AF01F022F80346DBB2184680BDBF
:1081600080B483B000AF7860034A7B6813600C373B
:10817000BD465DF8047B704708ED00E080B485B033
:1081800000AF78603960074B1B68FB607B689B0021
:10819000FA6813443A681A601437BD465DF8047BE8
:1081A000704700BF08ED00E080B485B000AF786094
:1081B000064B1B68FB607B689B00FA681344044A0B
:1081C0001A601437BD465DF8047B704708ED00E087
:1081D0004981002080B485B000AF78600B46FB7009
:1081E0007B689B08134A52F823301B68FB607B684E
:1081F00003F00303DB001A46FF239340DB431A46D8
:10820000FB681340FB60FB787A6802F00302D2003F
:1082100093401A46FB681343FB607B689B08054A42
:1082200052F823301A46FB6813601437BD465DF8D8
:10823000047B7047C0DE002080B483B000AF78605C
:108240007B68042B0AD1284A274B1B6843F48033F0
:108250001360BFF34F8FBFF36F8F3FE07B68052B39
:108260000AD1214A204B1B6843F400331360BFF34B
:108270004F8FBFF36F8F31E07B68062B0AD11A4A0C
:10828000194B1B6843F480231360BFF34F8FBFF378
:108290006F8F23E07B680F2B0AD1144A134B1B68A6
:1082A00043F002031360BFF34F8FBFF36F8F15E0EE
:1082B0007B680F2B12D97B68103B5B090C4A52F884
:1082C000233019467B68103B03F01F03012202FA9A
:1082D00003F30B60BFF34F8FBFF36F8F0C37BD46B7
:1082E0005DF8047B704700BF24ED00E010E000E083
:1082F00094DF002080B483B000AF78607B68042BEB
:108300000AD1284A274B1B6823F480331360BFF33C
:108310004F8FBFF36F8F3FE07B68052B0AD1214A57
:10832000204B1B6823F400331360BFF34F8FBFF360
:108330006F8F31E07B68062B0AD11A4A194B1B68F4
:1083400023F480231360BFF34F8FBFF36F8F23E0BD
:108350007B680F2B0AD1144A134B1B6823F00203CE
:108360001360BFF34F8FBFF36F8F15E07B680F2B48
:1083700012D97B68103B5B090C4A52F8233019462E
:108380007B68103B03F01F03012202FA03F30B602A
:10839000BFF34F8FBFF36F8F0C37BD465DF8047B83
:1083A000704700BF24ED00E010E000E0ACDF0020EB
:1083B00080B483B000AF78607B680E2B06D1144A7E
:1083C000134B1B6843F0006313601BE07B680F2BAB
:1083D00006D10F4A0E4B1B6843F00073136011E087
:1083E0007B680F2B0ED97B68103B5B09094A52F85A
:1083F000233019467B68103B03F01F03012202FA69
:1084000003F30B600C37BD465DF8047B704700BF7B
:1084100004ED00E0C4DF002080B485B000AF7860D8
:1084200039607B6803F03F030B4A52F82330FB604E
:10843000FB689A00094B1344FB60FB68FA681268FA
:1084400022F00F013A680A4322F440621A6014379E
:10845000BD465DF8047B7047DCDF0020A0E00244ED
:1084600080B487B000AFF860B9607A60FB6803F051
:108470003F031F4A52F823307B617B68B3F1805F72
:1084800016D11C491B4B1A687B69802000FA03F344
:1084900003F4F05313430B607B699A00164B1344AB
:1084A0007B617B697A69126842F440621A601AE063
:1084B0001049104B1B687A69802000FA02F202F41E
:1084C000F052D24313400B607B699A000A4B13446D
:1084D0007B617B697A69126822F47C71B8687A687A
:1084E00002430A431A601C37BD465DF8047B70479F
:1084F000DCDF002044E10244A0E0024480B582B009
:1085000000AF7860396078683968FFF785FF786870
:1085100020210022FFF7A4FF0837BD4680BD00BF21
:1085200080B582B000AF0B4B1B68DBB27B607B6811
:10853000002B09D1084800F0C7F9034603F00103F6
:10854000002B01D007237B607B6818460837BD46A7
:1085500080BD00BF0CD0024468FC024480B483B0EC
:1085600000AF786039607B68FF2B14D0104A7B68BD
:1085700052F8333003F1884303F5143319460C4A9B
:108580007B6852F8333003F1884303F514331A68DB
:108590003B6813430B607B68002B03D1054B40F213
:1085A00004421A600C37BD465DF8047B704700BF7B
:1085B000DCE000200050024480B483B000AF78605B
:1085C00039600D4A7B6852F8333003F1884303F574
:1085D00014331946084A7B6852F8333003F1884354
:1085E00003F514331A683B68DB4313400B600C3708
:1085F000BD465DF8047B7047DCE0002080B487B0A6
:1086000000AF78607B68132B0CBF01230023DAB224
:108610007B68042B0CBF01230023DBB21343DBB2C6
:108620001A467B68032B0CBF01230023DBB21343E4
:10863000002B01D0174B26E07B68002B0AD1164B8C
:108640001B681B0A03F007037B61134B1B68DBB23B
:108650003B610FE07B68022B0AD1104B1B681B0AA1
:1086600003F007037B610D4B1B68DBB23B6101E04C
:108670000B4B08E07A693B6913440233094AB2FBA9
:10868000F3F3FB60FB6818461C37BD465DF8047BBE
:10869000704700BF005A620200500244205002445A
:1086A00000B4C404001C4E0E80B485B000AF7860E6
:1086B0007B68122B36D01E4A7B68DB0013445B6854
:1086C00003F1884303F514331946194A7B68DB002C
:1086D00013445B6803F1884303F514331B6843F0CC
:1086E00001030B600023FB6002E0FB680133FB60C9
:1086F000FB680F2BF9D90E4A7B68DB0013445B68DB
:1087000003F1884303F514331946094A7B68DB00FB
:1087100013445B6803F1884303F514331B6823F0AB
:1087200001030B601437BD465DF8047B704700BF42
:10873000DCE0002080B485B000AF78600D4A7B6833
:10874000DB0013445B6803F1884303F514331B68B3
:10875000FB60FB6803F00203FB60FB68002B01D0A9
:10876000012300E0002318461437BD465DF8047B62
:10877000704700BFDCE0002080B582B000AF444A03
:10878000434B1B6843F400031360424800F09CF81D
:1087900078607B6843F010033E48194600F0A4F867
:1087A0003D4A3D4B1B6843F03C031360052001210B
:1087B000FFF7D4FE0520FFF777FF05200121FFF723
:1087C000FBFEFFF7ADFE0346002B03D1334801212A
:1087D00000F08AF8324B1B68DBB2022B13D1314A0E
:1087E000304B1B6823F4406323F00F0343F0020374
:1087F00013602D4A2B4B1B6823F4406323F00F03B7
:1088000043F002031360294A284B1B6843F002031C
:108810001360274B1B6803F00F03012B05D1244A7B
:10882000234B1B6823F00F031360224B1B6803F0DC
:108830000F03012B05D11F4A1E4B1B6823F00F03AA
:1088400013601D4B1B689B0D03F00F030E2B08D10B
:108850001A4A1A4B1B6823F47C0343F44803136041
:1088600007E0164A154B1B6823F47C0343F42403EA
:108870001360134A124B1B6823F080531360114A94
:10888000104B1B6843F0040313600837BD4680BDDE
:1088900064F0024418FC02446CE1024404F802440F
:1088A000C8F0024410E1024414E1024484E10244AD
:1088B000A4E00244A8E0024478DC0244B0F00244A0
:1088C00074FC0244A8F0024480B584B000AF786024
:1088D0007B681B68FB6041F2D54000F05BFCFB68E5
:1088E00018461037BD4680BD80B582B000AF7860B5
:1088F00039607B683A681A6041F2D54000F04AFC62
:108900000837BD4680BD00BF80B485B000AF786039
:108910000023FB6017E01149FA6813465B0013441B
:108920009B000B441A687B689A4209D10B49FA688C
:1089300013465B0013449B000B4404331B6807E0A1
:10894000FB680133FB60FB68022BE4D94FF0FF3377
:1089500018461437BD465DF8047B704784E100205B
:1089600080B485B000AF78600023FB600FE00D4A53
:10897000FB6852F833207B689A4205D1094AFB68AC
:10898000DB0013445B6807E0FB680133FB60FB68B6
:10899000022BECD94FF0FF3318461437BD465DF873
:1089A000047B7047A8E1002080B483B000AF7860FA
:1089B0007B6803F59A731A467B6803F59A731B6804
:1089C00043F0010313600C37BD465DF8047B70472C
:1089D00080B483B000AF78607B6803F59A731A4661
:1089E0007B6803F59A731B6823F0010313600C374F
:1089F000BD465DF8047B704780B483B000AF7860FB
:108A000039607B6803F5967319467B6803F59673A6
:108A10001A683B6813430B600C37BD465DF8047B56
:108A2000704700BF80B483B000AF786039607B6866
:108A300003F5967319467B6803F596731A683B68CD
:108A400013400B600C37BD465DF8047B704700BFD8
:108A500080B483B000AF78607B6803F588731A46F2
:108A60007B6803F588731B6843F00203136000BF43
:108A70007B6803F58A731B6803F00103002BF7D0B2
:108A80000C37BD465DF8047B704700BF80B487B0EB
:108A900000AFF860B9607A603B60FB6803F59473DF
:108AA0001B687B617B6923F005037B617B6A1A0E7F
:108AB0003B681343DBB27A6913437B61FB6803F5C0
:108AC00094731A467B6913603B68002B03D14FF403
:108AD00080337B6102E04FF4C0237B617A69184BDD
:108AE000134043F000537B61BA687B68B2FBF3F339
:108AF000013B3B613B6903F00F039B007A69134321
:108B00007B61FB6803F59A731A463B6903F47F6344
:108B10001B0113607A693B6A1A437B6A23F07F4327
:108B200023F4770313437B61FB6803F596731A46BE
:108B30007B6913601C37BD465DF8047B704700BF3E
:108B40003CF0F7DF80B483B000AF786039607B68B9
:108B500003F5967319467B6803F596731A683B68AC
:108B600013430B600C37BD465DF8047B704700BFB4
:108B700080B483B000AF786039607B6803F596738A
:108B800019467B6803F596731A683B68DB4313400C
:108B90000B600C37BD465DF8047B704780B487B02E
:108BA00000AFF860B9607A60FB6803F5BE731B68BC
:108BB0007B617B691B0C1B047A68013A1102BA685D
:108BC000013A0A4313437B61FB6803F5BE731A46FF
:108BD0007B6913601C37BD465DF8047B704700BF9E
:108BE00080B485B000AF786039607B6803F5BE73F0
:108BF0001B68FB607B6803F5BE731946FB689AB27D
:108C00003B681B0413430B601437BD465DF8047BBF
:108C1000704700BF80B584B000AF78607868FFF718
:108C200073FE0346FB60F868FFF764FBF868FFF724
:108C3000BBFA1037BD4680BD80B584B000AF786008
:108C400039603B6803F00053002B07D07868FFF7CA
:108C500087FE0346FB60104AFB6813603B6803F025
:108C60008053002B08D07868FFF77AFE03465B102C
:108C7000FB60094AFB6813607B6803F58E73184636
:108C80007B6803F58E731A683968044B0B401343F5
:108C900003601037BD4680BD946002440F0003009E
:108CA00080B584B000AF786039603B6803F0005352
:108CB000002B07D07868FFF753FE0346FB600E4A8F
:108CC000FB6813603B6803F08053002B08D0786882
:108CD000FFF746FE03465B10FB60074AFB68136024
:108CE0007B6803F58C7319463A68044B13400B609C
:108CF0001037BD4680BD00BF9C6002440F000300DA
:108D000080B483B000AF78607B6803F596731A4631
:108D10007B6803F596731B6843F4801313600C376C
:108D2000BD465DF8047B704780B483B000AF7860C7
:108D30007B6803F596731A467B6803F596731B6888
:108D400023F4801313600C37BD465DF8047B704735
:108D500080B586B000AFF860B9607A603B60F868B3
:108D600000F05EF87B681A01BB689A420CD9FB6878
:108D700030331A46FB6830331B6843F0200313601E
:108D80007B685B087B6008E0FB6830331A46FB6851
:108D900030331B6823F020031360BB68DA007B6864
:108DA000B2FBF3F301335B087B61FB6824331A46A3
:108DB0007B699B091360FB6828331A467B6903F0C3
:108DC0003F031360FB682C331A463B681360FB6853
:108DD00018331A4600231360F86800F003F81837B8
:108DE000BD4680BD80B483B000AF78607B682C3313
:108DF0001A467B682C331B6843F0100313607B68B2
:108E000030331A467B6830331B6843F4407343F0B9
:108E1000010313600C37BD465DF8047B704700BF4B
:108E200080B483B000AF786000BF7B6818331B68E4
:108E300003F00803002BF8D17B682C331A467B68BB
:108E40002C331B6823F0100313607B6830331A4601
:108E50007B6830331B6823F4407323F001031360F5
:108E60000C37BD465DF8047B704700BF80B483B00B
:108E700000AF786000BF7B6818331B6803F01003F5
:108E8000002BF8D17B681B6818460C37BD465DF88F
:108E9000047B704780B483B000AF78600B46FB70F2
:108EA00000BF7B6818331B6803F02003002BF8D148
:108EB0007B68FA781A600C37BD465DF8047B704712
:108EC00080B483B000AF7860064A7B6803F01F036C
:108ED000012101FA03F313600C37BD465DF8047BF2
:108EE000704700BF28F00F4080B483B000AF7860B7
:108EF00039607B6803F01F037B603B6803F001036C
:108F0000002B05D0154A7B68012101FA03F3136099
:108F10003B6803F00203002B05D0114A7B68012156
:108F200001FA03F313603B6803F00403002B05D040
:108F30000C4A7B68012101FA03F313603B6803F0DC
:108F40000803002B05D0084A7B68012101FA03F3CE
:108F500013600C37BD465DF8047B704718F00F4076
:108F600030F00F4038F00F4020F00F4080B483B055
:108F700000AF786039607B6803F01F037B603B685B
:108F800003F00103002B05D0154A7B68012101FA8B
:108F900003F313603B6803F00203002B05D0114A72
:108FA0007B68012101FA03F313603B6803F00403BB
:108FB000002B05D00C4A7B68012101FA03F31360F2
:108FC0003B6803F00803002B05D0084A7B680121A9
:108FD00001FA03F313600C37BD465DF8047B70475C
:108FE0001CF00F4034F00F403CF00F4024F00F40D5
:108FF00080B485B000AF786039607B6803F03F03D0
:109000007B600B4B1B68FB607B681B01FA681A4492
:109010007B681B01F9680B449968064B0B40396863
:109020000B4393601437BD465DF8047B704700BF67
:1090300008F00F40F73FFC0080B489B000AFF86043
:10904000B9607A603B60FB6803F03F03FB603A4B1A
:109050001B68FB61FB681B01FA6913449B6823F4DE
:109060007F5323F03703BB61FB6803F02003002B21
:1090700009D0BB68042B02D0BB68062B03D1BB68A8
:1090800043F00103BB60BB6A013B1A01BB68134399
:10909000BA691343BB61BB6903F040637B617B69C1
:1090A000B3F1406F0CD07B699B0E7B617B69BA6A20
:1090B00002FA03F33B617A683B691344013B7B602E
:1090C000FB681B01FA6913447A681A60BB6903F0F4
:1090D00040437B617B69B3F1404F1BD0BB68042BDD
:1090E00002D0BB68062B08D1FB6843F020031B01AC
:1090F000FA6913440C333B600CE07B699B0F7B6186
:109100007B69BA6A02FA03F33B613A683B6913442C
:10911000013B3B60FB681B01FA6913443A685A60E3
:10912000FB681B01FA691344BA699A602437BD468B
:109130005DF8047B704700BF08F00F4080B487B033
:1091400000AF78607B6803F01F037B617B681B0CBA
:109150007B607B69DA080E4B13449B003B617B69A3
:1091600003F007039B00FB603B693A691268F968EA
:109170000F2000FA01F1C9431140FA68786800FA3B
:1091800002F20A431A601C37BD465DF8047B704743
:1091900044FD031001387FF4FDAF7047EFF31080FA
:1091A00062B6BFF34F8FBFF36F8F70471C462346E5
:1091B000184600BF4BB942B9002908BF002802D0A9
:1091C0004FF0FF31084600F03BB882B0EC462DE985
:1091D000005000F01DF8DDF804E002B00CBC704750
:1091E0002DE9F041069C154606460F46984600F0CC
:1091F00029F805FB01F300FB0838A5FB0023B21A90
:10920000434467EB0303C4E90023BDE8F08100BFDA
:109210002DE9F041069C904606460F461D4600F09B
:109220005FF900FB05F5A0FB082308FB0155B21A06
:109230002B4467EB0303C4E90023BDE8F08100BFC2
:10924000704700BF00292DE9F043C0F2A680002638
:10925000002BC0F29C80884694469E4615460446E4
:109260000F46002B3DD18A4259D9B2FA82F33BB165
:10927000C3F120029F4020FA02F29D4017439C4018
:10928000290C220CB7FBF1FEA8B201FB1E7742EAC3
:10929000074700FB0EF3BB420AD97F190EF1FF32DC
:1092A00080F00581BB4240F20281AEF1020E2F44F4
:1092B000FF1AA4B2B7FBF1F301FB137744EA0747A7
:1092C00000FB03F0B84208D97F1903F1FF3280F0A8
:1092D000F080B84240F2ED80023B43EA0E430022A8
:1092E00003E08B420FD900221346341C18BF01241F
:1092F00060424FF0000565EB4501584051400019B0
:109300006941BDE8F083B3FA83F2002A40F0868019
:109310008B4202D3844500F2DB800123E5E712B9DA
:109320000123B3FBF2F5B5FA85F000283BD1781B99
:109330004FEA154E1FFA85FC0122B0FBFEF8210C06
:109340000EFB180741EA07470CFB08F3BB4207D99D
:109350007F1908F1FF3102D2BB4200F2BD8088467E
:10936000FF1AA4B2B7FBFEF30EFB137744EA0747DC
:109370000CFB03FCBC4507D97F1903F1FF3102D276
:10938000BC4500F2A7800B4643EA0843ADE75242D2
:109390006FEA060663EB43035DE7404261EB410180
:1093A0004FF0FF3654E7C0F1200224FA02F107FA29
:1093B00000F385404FEA154ED7401943B7FBFEF244
:1093C0000B0C0EFB12771FFA85FC43EA07430CFBDC
:1093D00002F79F4204FA00F407D95B1902F1FF304B
:1093E00074D29F4272D9023A2B44DF1B89B2B7FB79
:1093F000FEF80EFB187341EA03430CFB08F79F428B
:1094000008D95B1908F1FF315CD29F425AD9A8F103
:1094100002082B44D81B48EA02428EE7C2F120031F
:109420002CFA03F10EFA02FE20FA03F741EA0E0EBF
:1094300008FA02F028FA03F14FEA1E453843B1FB5F
:10944000F5F8030C05FB18111FFA8EF743EA0141EA
:1094500007FB08F38B420CFA02FC09D911EB0E0151
:1094600008F1FF3930D28B422ED9A8F1020871449D
:10947000C91A80B2B1FBF5F305FB131140EA0141B3
:1094800007FB03F78F4208D911EB0E0103F1FF3000
:1094900016D28F4214D9023B714443EA0843C91BD8
:1094A000A3FB0C89494509D305D000221DE7964648
:1094B000FEE6134611E794404445F6D2013BF4E73B
:1094C0000346EAE78846A5E7C846D1E702468CE7A7
:1094D00013460AE7023B57E7A8F102082F443FE78B
:1094E0002DE9F041002B44D18A42154604464FD95C
:1094F000B2FA82F70E464FB1C7F12003B94020FA05
:1095000003F602FA07F50E4300FA07F44FEA154E88
:10951000230CB6FBFEF0AFB20EFB106143EA014331
:1095200007FB00F1994209D95B1900F1FF3280F085
:10953000EC80994240F2E98002382B445A1AA4B2D6
:10954000B2FBFEF30EFB132244EA024207FB03F7D1
:10955000974208D9521903F1FF3180F0D880974221
:1095600040F2D580023B43EA004000263146BDE888
:10957000F0818B4247D8B3FA83F6002E48D18B4254
:1095800002D3824200F2CD8001203146BDE8F08155
:1095900012B90125B5FBF2F5B5FA85F8B8F1000F5F
:1095A00077D14A1B4FEA154EAFB20126B2FBFEF04F
:1095B000230C0EFB102143EA014107FB00F38B4211
:1095C00007D9491900F1FF3202D28B4200F2BA806A
:1095D0001046C91AA4B2B1FBFEF30EFB131144EA04
:1095E000014407FB03F7A74208D9641903F1FF32CE
:1095F00080F08F80A74240F28C80023B43EA00401B
:109600003146BDE8F081002630463146BDE8F081A4
:10961000C6F1200422FA04F5B3402B4320FA04FCDF
:1096200001FA06F721FA04F54FEA134E4CEA070750
:10963000B5FBFEF8390C0EFB18551FFA83FC41EA06
:1096400005450CFB08F1A94202FA06F204D9ED180F
:1096500008F1FF3467D3A0466D1ABFB2B5FBFEF424
:109660000EFB145547EA05410CFB04FC8C4504D95C
:10967000C91804F1FF355CD32C4644EA0844CCEB0E
:109680000101A4FB0223994248D344D0204600267E
:109690006CE7C8F1200401FA08F305FA08F520FA8E
:1096A00004F7E1404FEA154E1F43B1FBFEF63A0CBA
:1096B0000EFB16111FFA85FC42EA01430CFB06F271
:1096C0009A4200FA08F407D95B1906F1FF3137D244
:1096D0009A4235D9023E2B449B1ABFB2B3FBFEF02F
:1096E0000EFB103347EA03430CFB00F1994207D904
:1096F0005B1900F1FF3221D299421FD902382B4465
:109700005A1A40EA0646674650E7104616E70B46E7
:1097100029E7134672E7B0409042B7D2601E002698
:1097200024E7304622E7A94295D9A8F102081D4452
:1097300092E78C45A0D9023C19449EE71046DFE72A
:109740000E46C9E70238294443E700BF024B0146F1
:10975000186800F00BB800BF78E70020024B014604
:10976000186800F0B7BE00BF78E700202DE9F04F81
:1097700001F10B05162D83B0064627D935F00705F4
:1097800000F1B680A94200F2B38000F0C9FBB5F544
:10979000FC7F22D2C24FE80807EBC003DC689C4282
:1097A00000F0C9816368E168A56823F003032344DE
:1097B00030465A68E96042F001028D605A6000F05C
:1097C000B1FB0834204603B0BDE8F08F102900F249
:1097D0008F8000F0A5FB1025DCE7680A00F08F8081
:1097E000042800F25481A80938304100AC4F07EB3F
:1097F0008101CC68A14206D10CE0002A80F282806F
:10980000E468A14206D0636823F003035A1B0F2AC1
:10981000F3DD01380130A2493C6901F1080E7445BD
:1098200000F07E81636823F003035A1B0F2A00F3C4
:109830006481002AC1F814E0C1F810E073DAB3F5CE
:10984000007F80F03981DB0801EBC3084FEAA30CED
:109850004A68D8F80890C4F80890012303FA0CF37A
:109860001343C4F80C804B60C8F80840C9F80C409A
:109870008210012494409C4262D8234206D120F0F9
:1098800003006400234200F10400FAD007EBC00893
:10989000C4468146DCF80C309C4507D142E10029E2
:1098A00080F25281DB689C4500F03C815A6822F0CE
:1098B0000302511B0F29F2DD1C46D3F80CC054F8EB
:1098C000088F5A1945F0010941F00105C3F80490C9
:1098D0003046C8F80CC0CCF808807A613A61C2F80A
:1098E0000CE0C2F808E05560515000F01BFB69E73E
:1098F00000240C232046336003B0BDE8F08F7E21A6
:109900003F2073E72344E1685A68A56842F00102EA
:10991000E96030468D605A6000F004FB0834204650
:1099200003B0BDE8F08F234430465A6842F001028C
:109930005A6000F0F7FA0834204603B0BDE8F08F13
:10994000BC68636823F00308454504D8C5EB0803E9
:109950000F2B00F38C80534BDFF858A11A68DAF80C
:10996000003001332A4404EB080B00F0508102F56B
:1099700080520F3222F47F6222F00F0211463046ED
:10998000019200F0CFFCB0F1FF3F8146019A00F058
:10999000F580834500F2EF80434B1968CB451144B5
:1099A000196000F03D81DAF80000DFF808E10130CD
:1099B0001BBFCBEB090B5944CEF80090196019F08E
:1099C000070100F00781C1F10800C1F58051814411
:1099D00008314A44C2F30B02C2EB010A5146304639
:1099E000019300F09FFC431C019B00F02781C9EB11
:1099F0000002524442F001021968C7F8089051442D
:109A0000BC42C9F804201960DFF89CA016D0B8F158
:109A10000F0F40F2E2806268A8F10C0323F0070305
:109A2000E01802F001024FF0050E1A430F2B62609E
:109A3000C0F804E0C0F808E000F204811B4BBC68E9
:109A40001A68914288BF1960194B1A68914262687E
:109A500088BF196022F003029542A2EB050301D8EA
:109A60000F2B04DC304600F05DFA0024AAE66219F0
:109A700043F0010345F0010565603046BA6053606C
:109A800000F050FA0834204603B0BDE8F08F1428E7
:109A900069D9542800F29780280B6E304100A5E662
:109AA0007CE70020F0FB0020F4FB0020ECFB002012
:109AB000E8FB002088EB00205A0A042A56D9142A11
:109AC00000F2A7805B324FEA420C07EB8C0CDFF808
:109AD000B481DCF80810614500F085804A6822F006
