:020000042000DA
:10400000FC0B01202D4D0020854D00208D4D002002
:104010009D4D0020954D00209D4D0020000000008A
:104020000000000000000000000000009D4D002086
:104030009D4D0020000000009D4D00209D4D002062
:104040009D4D00209D4D00209D4D00209D4D002048
:10405000000000009D4D00209D4D0020000000004C
:104060009D4D002000000000000000000000000046
:1040700000000000000000009D4D00209D4D00202C
:104080009D4D00209D4D00209D4D00209D4D002008
:104090009D4D00209D4D00209D4D00209D4D0020F8
:1040A0009D4D002000000000000000000000000006
:1040B000000000009D4D00200000000000000000F6
:1040C0000000000000000000000000009D4D0020E6
:1040D0009D4D0020000000000000000000000000D6
:1040E00000000000000000000000000000000000D0
:1040F00000000000000000009D4D00209D4D0020AC
:1041000000000000000000000000000000000000AF
:10411000000000000000000000000000000000009F
:10412000000000000000000000000000000000008F
:10413000000000000000000000000000000000007F
:10414000000000000000000000000000000000006F
:10415000000000000000000000000000000000005F
:10416000000000000000000000000000000000004F
:10417000000000000000000000000000000000003F
:10418000000000000000000000000000000000002F
:10419000000000000000000000000000000000001F
:1041A000000000000000000000000000000000000F
:1041B00000000000000000000000000000000000FF
:1041C00000000000000000000000000000000000EF
:1041D00000000000000000000000000000000000DF
:1041E00000000000000000000000000000000000CF
:1041F00000000000000000000000000000000000BF
:1042000000000000000000000000000000000000AE
:10421000000000000000000000000000000000009E
:10422000000000000000000000000000000000008E
:10423000000000000000000000000000000000007E
:10424000000000000000000000000000000000006E
:10425000000000000000000000000000000000005E
:10426000000000000000000000000000000000004E
:10427000000000000000000000000000000000003E
:10428000000000000000000000000000000000002E
:104290009D4D002000000000000000009D4D00200A
:1042A000000000009D4D0020000000000000000004
:1042B0000000000000000000000000009D4D0020F4
:1042C000000000009D4D0020000000009D4D0020DA
:1042D00000000000000000000000000000000000DE
:1042E0000000000000000000000000009D4D0020C4
:1042F0009D4D002000000000000000009D4D0020AA
:104300009D4D00209D4D0020000000000000000099
:10431000000000000000000000000000000000009D
:10432000000000000000000000000000000000008D
:10433000000000000000000000000000000000007D
:10434000000000000000000000000000000000006D
:10435000000000000000000000000000000000005D
:10436000000000000000000000000000000000004D
:10437000000000000000000000000000000000003D
:10438000000000000000000000000000000000002D
:10439000000000000000000000000000000000001D
:1043A000000000000000000000000000000000000D
:1043B00000000000000000000000000000000000FD
:1043C00000000000000000000000000000000000ED
:1043D00000000000000000000000000000000000DD
:1043E00000000000000000000000000000000000CD
:1043F00000000000000000000000000000000000BD
:10440000B0B588B004AF78607B68002B00D197E02E
:104410007B681B68012B02D0022B32D089E04A4B0B
:104420001B6843F00203484A13607B689A1D7B684F
:104430005B79464811461A4606F0F0FA444A7B6812
:104440004733196811609B889380414B1B781D4648
:104450003F4B5B781C463E4B9B7818463C4BDB78C9
:1044600019463B4B1B791A46394B5B7900900191F9
:1044700002920393374835492A46234600F048FE06
:104480005EE00023FB60304B1B6823F002032E4AE2
:1044900013602D4B1B6823F008032B4A13607B68C5
:1044A0000433FB60FB6893F84930C82B1BD1284BC1
:1044B0001B781D46264B5B781C46254B9B7818467F
:1044C000234BDB781946224B1B791A46204B5B792C
:1044D00000900191029203931F481C492A462346EB
:1044E00000F016FE1AE01A4B1B781D46184B5B783D
:1044F0001C46174B9B781846154BDB781946144B16
:104500001B791A46124B5B7900900191029203933A
:1045100012480E492A46234600F0FAFD0B480021B6
:10452000212206F079FB0A480021062206F074FBDE
:1045300006E07B681B680A48194600F0E9FD00BFE9
:104540001037BD46B0BD00BFF0FB00205C0C012061
:10455000540C0120A4E90020E8E9002050EA0020E2
:10456000B0EA0020F0B58BB006AF78607B68002B16
:1045700000D142E07B681B68012B37D10023FB6030
:104580001F4B1B6843F008031D4A13607B6804330C
:10459000FB60FB685B681B4A13607B685B684FEAE3
:1045A000136E7B685B681B0CDEB27B685B681B0A62
:1045B000DDB27B685B68DCB27B689B68180E7B6849
:1045C0009B681B0CD9B27B689B681B0ADAB27B68BC
:1045D0009B68DBB2009401900291039204930A4815
:1045E000714632462B4600F093FD06E07B681B685F
:1045F0000648194600F08CFD00BF1437BD46F0BDDB
:10460000F0FB0020F4FB0020D8EA00201CEB002087
:1046100080B483B000AF786039600C37BD465DF878
:10462000047B704780B582B000AF78607B68002B58
:1046300000D123E07B681B68012B19D17B689B8824
:104640001BB213F10F0F07D17B68DB880D481946A9
:1046500000F05EFD00BF11E07B68DB881A467B68D6
:104660009B881BB2084811461A4600F051FD05E030
:104670007B681B680548194600F04AFD0837BD46AF
:1046800080BD00BF70EB0020C4EB0020FCEB0020DD
:1046900080B500AF084B00221A60084B00221A6058
:1046A00007480021212206F0B7FA06480021062219
:1046B00006F0B2FA80BD00BFF0FB0020F4FB002042
:1046C0005C0C0120540C01202DE9F0479EB00AAF8C
:1046D00007F11C0300221A60043300221A6004331D
:1046E00000221A60043300221A60043300221A6088
:1046F000043300221A60043300221A6004330022BB
:104700001A60043300221A60043300221A60043352
:1047100000221A60043307F1080300221A600433F0
:1047200000221A60043300221A60043300221A6047
:10473000043300221A6004330123FB710023BB7190
:1047400000237B7100233B714FF0FF33FB644FF07C
:10475000FF33BB6400200021002200F05BFD034614
:10476000BB64BB6C002B08DAB248B96C40F2A312F0
:10477000B14B00F0CDFCBB6C56E1BB6C002B45D0BF
:10478000BB6C022B08D101E003F030FCAB4B1B6883
:1047900003F00803002BF7D0002003F053FF03467B
:1047A000FB64FB6C002B08DAA248F96C4FF4DB7257
:1047B000A14B00F0ADFCFB6C36E1FF2000F08EFE5B
:1047C0000346FB64FB6C002B08DA9A48F96C40F254
:1047D000B912994B00F09CFCFB6C25E100200021F4
:1047E000002200F017FD0346FB64FB6C002B08DA87
:1047F0009048F96C4FF4DE728F4B00F089FCFB6C33
:1048000012E1FB6C002B01D08D4B0DE10C23BB7131
:104810002C237B71B91D7A1D07F11C03012000F0C8
:10482000FBFEF864FB6C002B08DA8248F96C40F25E
:10483000CB12814B00F06CFCFB6CF5E081488249A7
:1048400000F066FCD7F834E0BE6BFD6B3C6C386A58
:10485000796ABA6AFB6A97F830C0E24697F831C0C5
:10486000E14697F832C0E04697F833C000940190D3
:10487000029103920493CDF814A0CDF81890CDF8CE
:104880001C80CDF820C07148714632462B4600F09E
:104890003FFC102011210022002303F055FE0346A7
:1048A000FB64FB6C002B08DA6248F96C40F2D91209
:1048B000614B00F02DFCFB6CB6E0FF2003F076FEB0
:1048C0000346FB64FB6C002B08DA5A48F96C40F293
:1048D000DD12594B00F01CFCFB6CA5E003F02AFE36
:1048E0000346FB64FB6C002B08D101E003F07EFB68
:1048F000524B1B6803F00203002BF7D1FB1D042071
:104900000121012203F0CAFAF864FB6C002B08DADB
:104910004848F96C40F2F512474B00F0F9FBFB6C8C
:1049200082E00023BB71BB792020194600220023BE
:1049300003F00AFE0346FB64FB6C002B08DA3D48DB
:10494000F96C4FF4FD723C4B00F0E2FBFB6C6BE04A
:1049500000233B713B1D01200A21012203F090FE40
:104960000346FB64FB6C002B08DA3248F96C40F21A
:104970000122314B00F0CCFBFB6C55E030200021D4
:104980000022002303F0E0FD0346FB64FB6C002BD8
:1049900008DA2848F96C40F20522274B00F0B8FBF2
:1049A000FB6C41E00020002102F0FAFF0346FB64AB
:1049B000FB6C002B08DA1F48F96C40F209221E4BF1
:1049C00000F0A6FBFB6C2FE007F108031846FF215F
:1049D000082206F021F907F10803012019461422E4
:1049E00003F002FE0346FB64FB6C002B08DA11485F
:1049F000F96C40F20F22104B00F08AFBFB6C13E0C5
:104A0000C82000F06BFD0346FB64FB6C002B08DA4A
:104A10000848F96C40F21222074B00F079FBFB6C5E
:104A200002E0FFF735FEFB6C18465037BD46BDE887
:104A3000F08700BF28EC0020E0ED0020F0FB002014
:104A40002EF8FFFF58EC002074EC00207CEC0020D6
:104A500090B587B002AF4FF0FF33FB60184B7B601F
:104A600000233B7203233B703C4600230093154810
:104A700003210022234603F013FC0346FB60FB687E
:104A8000002B08DA1048F9684FF40E720F4B00F053
:104A90003FFBFB680FE001E003F0A8FA0C4B1B683A
:104AA00003F00203002BF7D0094B1B6803F0080347
:104AB000002BF1D0002318461437BD4690BD00BF2F
:104AC000B4EC0020B8EC002028EC002004EE00201C
:104AD000F0FB002090B587B002AF4FF0FF33FB60D2
:104AE000184B7B6008233B7204233B703C46002339
:104AF0000093154803210022234603F0D1FB03460F
:104B0000FB60FB68002B08DA1048F96840F25E226F
:104B10000F4B00F0FDFAFB680FE001E003F066FACE
:104B20000C4B1B6803F00203002BF7D0094B1B68EA
:104B300003F00803002BF1D0002318461437BD46BC
:104B400090BD00BFBCEC0020B8EC002028EC002099
:104B50001CEE0020F0FB002080B582B000AF4FF0CB
:104B6000FF337B6003F0E6FC03467B607B68002B31
:104B700008D101E003F03AFA054B1B6803F0020389
:104B8000002BF7D17B6818460837BD4680BD00BFB3
:104B9000F0FB002080B500AF054B184604F0B4F9D7
:104BA00004F0AAF90F2004F01BFA04F0C3FC80BD46
:104BB0000040002080B582B000AF4FF0FF337B6033
:104BC000FFF7E8FF00F09EF800F072FA012000F015
:104BD00013F9092000F0B6F9FFF75AFDFFF774FD4D
:104BE00078607B68002B07DA7B68394A934202D1F0
:104BF000384800F08DFAFEE7374800F089FA0020C7
:104C00000021002200F006FB03467B607B68002B3E
:104C100002DB7B68002B03D0304800F079FAFEE716
:104C20002F4800F075FAFFF713FF78607B68002BC0
:104C300007DA2C482C4940F2F3222C4B00F068FA9A
:104C4000FEE7092000F00AF9294805F06DF9FFF7A1
:104C500083FF78607B68002B07DA224825494FF4F0
:104C60004272224B00F054FAFEE7234805F05CF94B
:104C7000092000F067F9FFF72DFF78607B68002BB3
:104C800007DA18481D494FF44772184B00F040FAF4
:104C9000FEE7092000F0E2F8154805F045F9FFF7B6
:104CA0005BFF78607B68002B07DA0E48144940F2FE
:104CB00031320E4B00F02CFAFEE7092000F042F9E9
:104CC000C82000F00BFC03467B6003F08FF9FCE783
:104CD0002EF8FFFFC8EC002000ED00202CED002096
:104CE0004CED002028EC00206CED002030EE002080
:104CF00000B4C40494ED002000127A00A8ED002056
:104D0000CCED002080B500AF0720012104F004FBAA
:104D10003F200021002204F0C5FA034802210122AD
:104D200004F0ACF880BD00BF0050004080B582B0F8
:104D300000AF0F4B7B600F4B3B6007E03B681A1DD9
:104D40003A607A68111D796012681A603B680A4AF5
:104D50009342F3D309480A494FF000028842B8BF92
:104D600040F8042BFADBFFF725FF0837BD4680BD6E
:104D700060F3002060F30020F0FB0020F0FB002037
:104D8000640E012080B400AFFEE700BF80B400AF26
:104D9000FEE700BF80B400AFFEE700BF80B400AF05
:104DA000FEE700BF80B485B000AF78600F4B1B6892
:104DB000002B02D10D4B0E4A1A600C4B1B68FB6096
:104DC0000A4B1A687B6813440A4A934201D90023AC
:104DD00006E0064B1A687B681344044A1360FB68BC
:104DE00018461437BD465DF8047B7047F8FB002079
:104DF000640E0120680E022080B582B000AF034629
:104E0000FB71FB7903F00103002B04D009200D494D
:104E10000D4A00F00BF9FB7903F00203002B04D0DC
:104E20000A200A490A4A00F001F9FB7903F0040359
:104E3000002B04D00B200749074A00F0F7F8083789
:104E4000BD4680BDFC0B01207D0C0120000C012023
:104E50007E0C0120040C01207F0C012080B582B063
:104E600000AF0346FB71FB79013B0B2B5AD801A223
:104E700052F823F0BB4E0020D14E0020D14E00202E
:104E8000D14E0020D14E0020A54E0020A54E00207E
:104E9000BB4E0020D14E0020BB4E0020A54E00206E
:104EA000E74E0020214B1A68214B1B780B2011463E
:104EB0001A46012300F0DEF835E01E4B1A681E4B3F
:104EC0001B780A2011461A46012300F0D3F82AE085
:104ED0001A4B1A681A4B1B78092011461A460123EF
:104EE00000F0C8F81FE0114B1A68114B1B780B201B
:104EF00011461A46012300F0BDF80E4B1A680E4BFE
:104F00001B780A2011461A46012300F0B3F80B4B18
:104F10001A680B4B1B78092011461A46012300F032
:104F2000A9F800E000BF0837BD4680BD040C012091
:104F30007F0C0120000C01207E0C0120FC0B0120C5
:104F40007D0C012080B582B000AF0346FB71FB7978
:104F5000013B0B2B5AD801A252F823F0A34F00209B
:104F6000B94F0020B94F0020B94F0020B94F0020A1
:104F70008D4F00208D4F0020A34F0020B94F0020FF
:104F8000A34F00208D4F0020CF4F0020214B1A68E7
:104F9000214B1B780B2011461A46002300F06AF8BB
:104FA00035E01E4B1A681E4B1B780A2011461A4624
:104FB000002300F05FF82AE01A4B1A681A4B1B789E
:104FC000092011461A46002300F054F81FE0114B47
:104FD0001A68114B1B780B2011461A46002300F06B
:104FE00049F80E4B1A680E4B1B780A2011461A46D8
:104FF000002300F03FF80B4B1A680B4B1B7809207D
:1050000011461A46002300F035F800E000BF0837CB
:10501000BD4680BD040C01207F0C0120000C012046
:105020007E0C0120FC0B01207D0C012080B485B09A
:1050300000AF0346B9607A60FB73FB7B03F00703A4
:10504000012202FA03F3DAB27B681A70FB7BDB08F9
:10505000DBB21A46BB681A60BB681B68044A52F888
:105060002320BB681A601437BD465DF8047B704787
:1050700060F3002080B582B000AF396011461A4657
:105080000346FB710B46BB7113467B717A79FB7942
:1050900003F0070302FA03F37B71BA797B7938686E
:1050A00011461A4603F00EFF0837BD4680BD00BF0B
:1050B00080B500AF0C2004F07FF90346054819467F
:1050C0004FF4E132602304F021FD034B00221A600B
:1050D00080BD00BF00C00040080C012080B582B038
:1050E00000AF78607B68002B0CD007E07B685A1C0F
:1050F0007A601B780548194604F096FD7B681B789A
:10510000002BF3D10837BD4680BD00BF00C0004072
:105110000FB480B586B000AF00237B614FF480737D
:10512000FB60FB68184605F0DBF903463B613B6911
:10513000002B02D14FF0FF332EE007F124037B60F8
:10514000FB68386919463A6A7B6806F02FF878617F
:105150007B69002B03DB7A69FB689A4215DBFB68ED
:105160005B00FB60FB683869194605F0A7FDB86075
:10517000BB68002B06D10C48FFF7B0FF4FF0FF33A0
:105180007B6102E0BB683B61D7E73869FFF7A6FFA8
:10519000386905F0ADF97B6918461837BD46BDE89A
:1051A000804004B0704700BF40EE002080B483B060
:1051B00000AF78607B68B3F1333F18D0B3F1333F71
:1051C00006D8B3F1113F0DD0B3F1223F0CD018E057
:1051D000B3F1553F10D0B3F1663F0FD0B3F1443F68
:1051E00007D00EE000230EE04FF6FF730BE0022322
:1051F00009E04FF6FE7306E0032304E04FF6FD736B
:1052000001E07B689BB21BB218460C37BD465DF8C7
:10521000047B704790B589B000AFF860B9607A60E0
:105220000A23FB8303F076FD00F06AFAFB68002B8B
:1052300008D1444B1C68B868002103F083FB034687
:10524000236003E03F4B1B68FA681A600E200821B8
:1052500001F00AFF0346FB83B7F91E300A2B02D187
:105260004FF6300369E0374B1B6890331846332103
:105270004422FF2302F05EFE0346BB83B7F91C30D5
:10528000002B00D0FEE72F4B1968B7F91E201346FC
:105290005B0013449B000B44103307F114025A6067
:1052A000284B1B6890331846332102F031FE034629
:1052B0007B83B7F91A30002B00D0FEE7214B1B6827
:1052C0001B68002B35DB03F083FD1F48002103F032
:1052D000E3FC7B68002B03D01A4B1B687A68DA600A
:1052E00003F05EFD7B68002B23D1164B1968B7F9DC
:1052F0001E2013465B0013449B0010330B441846DA
:1053000022211122FF2302F015FE03463B83B7F949
:105310001830002B00D0FEE70A4B1B6893F8AC3026
:10532000184601F0BFFF7B691846FFF73FFF0346B1
:1053300003E0044B1B681B689BB21BB21846243762
:10534000BD4690BD0C0C0120B958002090B587B027
:1053500000AF78607B6808337B61344B1B68903307
:10536000184633214422FF2302F0E4FD03467B82EA
:10537000B7F91230002B00D0FEE72C4B1B68DB681E
:10538000002B0BD0294B1B68DC687B691B68184617
:10539000FFF70CFF03461846A0472AE0234B1A6884
:1053A000224B1B6893F8AC3019460B465B000B444C
:1053B0009B00134410335B6818467969042205F09A
:1053C0002DFB1A4B1A68194B1B6893F8AC30194621
:1053D0000B465B000B449B001033134418462221FC
:1053E00002F096FD03463B82B7F91030002B00D047
:1053F000FEE70E4B1B6890331846332102F088FD00
:105400000346FB81B7F90E30002B00D0FEE7074BB7
:105410001B68DB68002B06D0044B1B6893F8AC308C
:10542000184601F03FFF1C37BD4690BD0C0C012013
:1054300080B586B000AF78607B6808337B61264B0F
:105440001B689033184633214422FF2302F072FD7B
:1054500003467B82B7F91230002B00D0FEE71E4BCB
:105460001A681D4B1B6893F8AC3019460B465B005D
:105470000B449B00134410335B681846796904227F
:1054800005F0CCFA144B1A68134B1B6893F8AC3038
:1054900019460B465B000B449B001033134418461F
:1054A000222102F035FD03463B82B7F91030002B74
:1054B00000D0FEE7084B1B6890331846332102F0FA
:1054C00027FD0346FB81B7F90E30002B00D0FEE725
:1054D00000BF1837BD4680BD0C0C012080B588B0D8
:1054E00000AF0346FB800023FB830A23BB83FB88BA
:1054F000002B0ED10020002103F0CEFB03F068FC4E
:10550000434B1B681B68184603F0C6FA0346FB832F
:1055100076E0FB883B820E20082101F0A5FD0346C2
:10552000BB83B7F91C300A2B02D14FF630036AE077
:10553000374B1B689033184633214422FF2302F077
:10554000F9FC03467B83B7F91A30002B00D0FEE745
:105550002F4B1968B7F91C2013465B0013449B00BE
:105560000B44103307F10C025A60294B1B6890332F
:105570001846332102F0CCFC03463B83B7F91830C0
:10558000002B00D0FEE707F1100322481946002245
:1055900000F0C2F90346FB82B7F91630002B00D0A9
:1055A000FEE73B8A002B1AD1194B1968B7F91C206A
:1055B00013465B0013449B0010330B441846222112
:1055C0001122FF2302F0B6FC0346BB82B7F9143068
:1055D000002B00D0FEE7BB893B823B8AFB83BB8B61
:1055E000DBB2184601F05EFE0020002103F054FB00
:1055F00003F0EEFB064B1B681B68184603F04CFAE1
:1056000000F000F9FB8B1BB218462037BD4680BD69
:105610000C0C012060EE002080B58CB000AFB960AA
:105620007A603B600346FB737B681B78002B01D1DB
:10563000234B41E0BB68002B3CD00023BB827B683E
:105640001B789BB2FB820023FB613B683B6200231B
:105650003B83FB7B9BB2FB84BB681B789BB23B8587
:1056600007F1240207F11403164811461A4600F008
:1056700053F90346FB85B7F92E30002B00D0FEE727
:10568000BB68002B03D03B8DDAB2BB681A70FA8A74
:105690003B8B9A4206D2FB8ADAB27B681A706FF4AF
:1056A000FA6309E03B8BDAB27B681A70BB8C9BB261
:1056B0001BB201E04FF0FF3318463037BD4680BDC6
:1056C0002EF8FFFF64EE002080B584B000AF786054
:1056D0007B68FB60FB681B88732B07D0782B0AD094
:1056E000082B07D1F868FFF731FE05E0F868FFF7EF
:1056F0009FFE01E0FEE700BF1037BD4680BD00BF42
:1057000080B584B000AF3C4B3C4A1A603A4B1B68F2
:10571000002B00D1FEE7384B1B6818460021B82249
:1057200005F07AFA344B1B6891331846112102F0C8
:10573000EFFB0346BB81B7F90C30002B00D0FEE72E
:105740002D4B1B689133184622211122012302F0B0
:10575000F1FB294B1B6804331846332102F0D8FBB8
:1057600003467B81B7F90A30002B00D0FEE7224BBD
:105770001B6890331846332102F0CAFB03463B8175
:10578000B7F90830002B00D0FEE701F0AFFE002390
:10579000FB7325E0184B1968FA7B13465B00134432
:1057A0009B0010330B441846112102F0B1FB034655
:1057B000FB80B7F90630002B00D0FEE70E4B1968CE
:1057C000FA7B13465B0013449B0010330B441846CE
:1057D00022211122012302F0ADFBFB7B0133FB737D
:1057E000FB7B092BD6D901F0F9FF054B00221A707B
:1057F0001037BD4680BD00BF0C0C0120840C012079
:10580000140C012080B584B000AF02F011F8294BD0
:105810001B6891331846002102F07AFB0346BB81D6
:10582000B7F90C30002B00D0FEE7224B1B68043385
:105830001846002102F06CFB03467B81B7F90A3061
:10584000002B00D0FEE71B4B1B689033184600214D
:1058500002F05EFB03463B81B7F90830002B00D015
:10586000FEE70023FB7316E0124B1968FA7B134620
:105870005B0013449B0010330B441846002102F0D8
:1058800047FB0346FB80B7F90630002B00D0FEE74C
:10589000FB7B0133FB73FB7B092BE5D901F068FE31
:1058A000044B00221A60034B00221A601037BD46D9
:1058B00080BD00BF0C0C012080B584B000AF7860C3
:1058C00003F010FA124B1B6893F89720D2B2013202
:1058D000D2B283F897200E4B1B6893F89230012BBD
:1058E0000ED10B4B1B6891331846222102F010FB9E
:1058F0000346FB81B7F90E30002B00D0FEE704E031
:1059000004480021002202F043FB1037BD4680BD51
:105910000C0C0120756B002080B588B000AFF860DA
:10592000B9607A602B4B1B6804331846332144223C
:10593000FF2302F0FFFA0346BB83B7F91C30002BAC
:1059400000D0FEE7234B1B68012283F89220214BF5
:105950001B68FA68C3F89C201E4B1B68BA68C3F822
:10596000A0201C4B1B687A68C3F8A42000F05CF8E8
:105970000346FB83B7F91E30002B16D1164B1B785C
:10598000002B0DD100237B61134B01221A704FF4C1
:105990007A637B6100BF7B695A1E7A61002BFAD162
:1059A00001F058F80346FB830DE00A4B1B680433F3
:1059B0001846332102F0ACFA03467B83B7F91A305C
:1059C000002B00D0FEE7FB8B1BB218462037BD46EC
:1059D00080BD00BF0C0C0120140C012080B586B0E6
:1059E00000AFF860B9607A600E4B1B68002283F844
:1059F00092200C4B1B68FA68C3F89C20094B1B686B
:105A0000BA68C3F8A020074B1B687A68C3F8A420C3
:105A100000F00AF80346FB82FB8A1BB218461837CF
:105A2000BD4680BD0C0C012080B586B000AF8C4B0C
:105A30001B68D3F89C30002B00D1FEE7884B1B6815
:105A4000874A1268D2F89C201288DA80844B1A6840
:105A5000834B1B68D3F8A430002B17D0804B1B68F6
:105A6000D3F89C309B789BB203339BB223F00303A3
:105A700099B27B4B1B68D3F8A4301B8803339BB2CD
:105A800023F003039BB20B449BB20AE0744B1B68E8
:105A9000D3F89C309B789BB203339BB223F0030373
:105AA0009BB213816E4B1B6893F89B30012B0CD17A
:105AB0006B4B1B686A4A12681189694A1268D2F8EE
:105AC000A42052880A4492B21A810423FB82644BB8
:105AD0001B681A68B7F91630104662491A4603F077
:105AE00091F80346BB82B7F91620B7F914309A42F1
:105AF00000D0FEE704237B82594B1B681968584B82
:105B00001B689A1DB7F91230084611461A4603F071
:105B100079F803463B82B7F91220B7F910309A4260
:105B200000D0FEE74E4B1B68D3F8A030002B29D0E5
:105B30004B4B1B68D3F89C309B78002B22D0484BF2
:105B40001B68D3F89C309B789BB203339BB29BB20B
:105B500023F00303FB81424B1B681968404B1B6811
:105B6000D3F8A020B7F90E30084611461A4603F0C4
:105B700049F80346BB81B7F90E20B7F90C309A42B9
:105B800000D0FEE7364B1B6893F89B30012B27D1E2
:105B9000334B1B68002283F89B20314B1B68D3F8E2
:105BA000A4305B8803339BB29BB223F003037B8159
:105BB0002B4B1B6819682A4B1B68D3F8A430DA6892
:105BC000B7F90A30084611461A4603F01BF8034697
:105BD0003B81B7F90A20B7F908309A4200D0FEE7B6
:105BE0001F4B1B68D3F8A430002B33D01C4B1B6811
:105BF000D3F8A4301B88002B2CD0194B1B68D3F88A
:105C00009C309B7803F00303002B00D0FEE7144B7D
:105C10001B68D3F8A4301B8803339BB29BB223F0DC
:105C20000303FB800E4B1B6819680D4B1B68D3F8F0
:105C3000A4309A68B7F90630084611461A4602F0B1
:105C4000E1FF0346BB80B7F90620B7F904309A425A
:105C500000D0FEE700231BB218461837BD4680BDB2
:105C60000C0C01206CEE002080B596B000AF07F15F
:105C70000C02FB1D1046194601F0A6F80346A7F8D2
:105C80004E30B7F94E30002B00D0FEE707F10C0381
:105C90001B88082B29D0B94B1B6807F10C0212791D
:105CA00083F89320B54B1B6807F10C02D27983F877
:105CB0009920B24B1B6807F10C02927983F89A2065
:105CC000AE4B1B6893F89330012B0ED9AB4B1B687E
:105CD00095331846222102F01BF90346A7F84C30F1
:105CE000B7F94C30002B00D0FEE707F10C031B88FE
:105CF000184600F0C1FFA14B1B6893F8B430012B8C
:105D000000F02182022B03D0002B00F0DA8021E387
:105D10009A4B1B68D3F8A830002B00D0FEE7974BB6
:105D20001B68974AC3F8A820944B1B68D3F8A83087
:105D3000002B00D1FEE7914B1B68D3F8A8301A4620
:105D400007F10C0303CB1060516007F10C035B8873
:105D5000013B23F00303A02B09D807F10C035B8858
:105D6000013B9BB223F00303A7F8543002E0A023C9
:105D7000A7F8543007F10C035B88042B1DD0B7F84B
:105D80005430A7F84A307D4B1B6819687B4B1B6861
:105D9000D3F8A83003F10802B7F94A300846114693
:105DA0001A4602F0BBFE0346A7F84830B7F94A206E
:105DB000B7F948309A4200D0FEE707F10C035B8840
:105DC000013B23F00303A02B2DD907F10C035B88C3
:105DD000013B9BB223F003039BB2A03BA7F85430D6
:105DE0001DE00423A7F84630644B1B681968B7F917
:105DF000463007F10802084611461A4602F08EFEA8
:105E00000346A7F84430B7F94620B7F944309A4220
:105E100000D0FEE7B7F85430043BA7F85430B7F889
:105E20005430002BDDD1554B1B689033184633217D
:105E30004422FF2302F07EF80346A7F84230B7F968
:105E40004230002B00D0FEE707F10C031B8841F223
:105E5000030293420DD007F10C031B8841F2032289
:105E6000934206D007F10C031B8841F206029342CD
:105E700010D107F10C031A88404B1B68D3F8A830E7
:105E800008339B7803F00F03DBB21046194601F08C
:105E9000EDFB06E007F10C031B881846082101F012
:105EA000E5FB364B1B6890331846332102F030F87F
:105EB0000346A7F84030B7F94030002B00D0FEE78A
:105EC00048E207F10C031B8841F20B02934204D015
:105ED00041F20B22934204D007E00C2387F85330A1
:105EE00006E0182387F8533002E0042387F8533084
:105EF0000423FB87214B1B681968B7F93E2007F183
:105F00000C0304330846194602F008FE0346BB871B
:105F1000B7F93E20B7F93C309A4200D0FEE707F1CE
:105F20000C0304339B7803F00F03072B00DDFEE71F
:105F3000124B1B689033184633214422FF2301F093
:105F4000F9FF03467B87B7F93A30002B00D0FEE714
:105F500007F10C031A8807F10C0304339B7803F054
:105F60000F03DBB21046194601F080FB03463B8766
:105F7000B7F93830002B05D0FEE700BF0C0C01202C
:105F80003C0D0120BD4B1A68BC4B1B6893F8AC302C
:105F900019460B465B000B449B00134410335B68AF
:105FA0001A6807F10C03043310461946042204F062
:105FB00035FD97F85330042B27D997F853309BB20F
:105FC000043B9BB2FB86AD4B1B681868AB4B1A6851
:105FD000AA4B1B6893F8AC3019460B465B000B4488
:105FE0009B00134410335B681B681A1DB7F93630E9
:105FF00011461A4602F092FD0346BB86B7F93620D9
:10600000B7F934309A4200D0FEE707F10C030433AD
:106010001B881BB2002B6FDD07F10C0304331B88B8
:106020009BB203F00303A7F8563007F10C030433C7
:106030001B889BB223F00303A7F85430B7F8543001
:10604000032B23D9B7F854307B868C4B1B68186818
:106050008A4B1A68894B1B6893F8AC3019460B467B
:106060005B000B449B00134410335B685A68B7F91C
:10607000323011461A4602F051FD03463B86B7F90D
:106080003220B7F930309A4200D0FEE7B7F85630E8
:10609000002B31D00423FB85784B1B681968B7F9B6
:1060A0002E3007F10802084611461A4602F036FD66
:1060B0000346BB85B7F92E20B7F92C309A4200D0A1
:1060C000FEE76E4B1A686D4B1B6893F8AC301946AF
:1060D0000B465B000B449B00134410335B685A680B
:1060E000B7F85430D118B7F8563007F1080208460F
:1060F00011461A4604F092FC604B1A685F4B1B680D
:1061000093F8AC3019460B465B000B449B001033F0
:1061100013441846222101F0FBFE03467B85B7F9A4
:106120002A30002B00D0FEE7544B1B6890331846F2
:10613000332101F0EDFE03463B85B7F92830002BF3
:1061400000D0FEE706E14D4B1B68D3F89C30DB78AE
:106150009BB203339BB29BB223F00303FB84474BF8
:106160001B681968454B1B68D3F8A020B7F9263087
:10617000084611461A4602F0D1FC0346BB84B7F923
:106180002620B7F924309A4200D0FEE73B4B1B682B
:10619000D3F8A430002B00F0DC80384B1B68D3F818
:1061A000A4305B88002B00F0D48007F10C035A88E0
:1061B000324B1B68D3F89C30DB789BB2D31A9BB26E
:1061C000043B9BB2A7F850302C4B1B68D3F8A4308B
:1061D000B7F850209A80B7F95030002B06DC274BD7
:1061E0001B68D3F8A43000225A80B2E0B7F95030CF
:1061F000224A1268D2F8A4205288934212DD1F4B23
:106200001B68D3F8A4305B8803F00303A7F856306B
:106210001A4B1B68D3F8A4305B8823F00303A7F85C
:1062200054300BE0B7F8503003F00303A7F85630B2
:10623000B7F8503023F00303A7F85430B7F85430C0
:10624000032B1DD9B7F854307B840C4B1B6819689D
:106250000A4B1B68D3F8A430DA68B7F92230084635
:1062600011461A4602F05AFC03463B84B7F9222035
:10627000B7F920309A4203D0FEE700BF0C0C012092
:10628000B7F85630002B2DD00423FB83424B1B68FC
:106290001968B7F91E3007F10802084611461A4678
:1062A00002F03CFC0346BB83B7F91E20B7F91C3053
:1062B0009A4200D0FEE7384B1B68D3F8A430DA6866
:1062C000B7F85430D118B7F8563007F1080208462D
:1062D00011461A4604F0A2FBB7F85030043B9BB2BB
:1062E000A7F85030B7F950302B4A1268D2F8A420E2
:1062F000528893422DDDB7F85020274B1B68D3F806
:10630000A4305B8823F003039BB2D31AA7F8543060
:106310001BE004237B83204B1B681968B7F91A30F4
:1063200007F10802084611461A4602F0F7FB034639
:106330003B83B7F91A20B7F918309A4200D0FEE72C
:10634000B7F85430043BA7F85430B7F85430002B5A
:10635000DFD100BFFB79002B16D0FB79FB820E4BFF
:106360001B681968B7F9163007F10C020846114688
:106370001A4602F0D3FB0346BB82B7F91620B7F9E1
:1063800014309A4200D0FEE702F0B8FC00231BB2A2
:1063900018465837BD4680BD0C0C012090B5B7B0EB
:1063A00000AFCD4B1B68D3F8A830C7F8D430CA4B28
:1063B0001B68D3F8B030002B00F04783D7F8D430F7
:1063C0001B8840F6B202934200F03F8240F6B202D0
:1063D000934224DC40F63102934200F0B98040F64B
:1063E000310293420DDC40F62F02934200F0E2822C
:1063F000B3F5036F46DA40F62E02934200F089822D
:1064000018E3B3F5086F00F0BA8040F681029342BA
:1064100000F0088140F63202934263D00AE341F66D
:106420002202934200F0FE8241F6220293420FDCE8
:1064300041F20E02934200F0D28141F20F029342E8
:1064400000F0E68140F6B302934200F04B82F1E2A5
:1064500041F62C02934200F07C8141F62C029342DB
:1064600005DC41F62502934200F03881E2E241F674
:106470002D02934200F0908141F62522934200F0D4
:106480004B81D7E2944B1B68D3F8A8300833C7F888
:10649000D0300723BB64D7F8D02007F16C0320323B
:1064A0001068186092889A80D7F8D020D7F8D0303A
:1064B00093F826301C4607F148030433184611466A
:1064C000224604F0ABFAD7F8D03093F8263087F89C
:1064D0007230814B1B68D3F8B03007F14802104688
:1064E0009847B2E27C4B1B68D3F8A8300833C7F852
:1064F000CC300823BB64D7F8CC2007F16C032032E2
:106500001068186092889A80D7F8CC20D7F8CC30E1
:1065100093F826301C4607F1480304331846114609
:10652000224604F07BFAD7F8CC3093F8263087F86F
:106530007230D7F8CC3093F8273087F87330664B39
:106540001B68D3F8B03007F14802104698477CE248
:10655000614B1B68D3F8A8300833C7F8C83009234B
:10656000BB64D7F8C8301B88A7F84C305A4B1B685F
:10657000D3F8B03007F148021046984765E2564B11
:106580001B68D3F8A8300833C7F8C43007F14803B4
:106590000433184600214C2204F03EFB0123BB6467
:1065A000D7F8C4301B7887F84C30D7F8C42007F1EF
:1065B0008F0343321168196092889A80D7F8C430EB
:1065C00003F12302D7F8C43093F822301C4607F1B8
:1065D0004803273318461146224604F01FFAD7F81D
:1065E000C4309A1CD7F8C4305B781C4607F14803C6
:1065F000063318461146224604F010FAD7F8C43084
:106600005B7887F84D30D7F8C43093F8223087F89C
:106610006E30314B1B68D3F8B03007F1480210469A
:10662000984712E22C4B1B68D3F8A8300833C7F800
:10663000C03007F148030433184600214C2204F00F
:10664000EBFA0223BB64D7F8C0301B7887F84C30D4
:10665000D7F8C02007F18F03433211681960928880
:106660009A80D7F8C03003F12302D7F8C03093F8EE
:1066700022301C4607F148032733184611462246AC
:1066800004F0CCF9D7F8C0309A1CD7F8C0305B784A
:106690001C4607F14803063318461146224604F00B
:1066A000BDF9D7F8C0305B7887F84D30D7F8C030E7
:1066B00093F8493087F89530D7F8C03093F82230F6
:1066C00087F86E30044B1B68D3F8B03007F14802EE
:1066D00010469847B9E100BF0C0C0120B44B1B6871
:1066E000D3F8A8300833C7F8BC3001233B61D7F892
:1066F000BC301B687B61D7F8BC305B68BB61D7F8E6
:10670000BC309B68FB61AA4B1B68D3F8B03007F123
:1067100010021046984798E1A54B1B68D3F8A830A3
:106720000833C7F8B83002233B61D7F8B8301A1DD8
:1067300007F11003083318461146102204F06EF9D1
:106740009B4B1B68D3F8B03007F1100210469847F6
:106750007BE1974B1B68D3F8A8300833C7F8B430F7
:1067600003233B61D7F8B4301B687B61D7F8B430A2
:106770005B68BB61D7F8B42007F11C0308321068CE
:10678000186092889A808A4B1B68D3F8B03007F162
:1067900010021046984758E1854B1B68D3F8A83083
:1067A0000833C7F8B03004233B61D7F8B0301B681A
:1067B0007B61D7F8B0305B89FB83D7F8B02007F155
:1067C000180304321068186092889A80784B1B680E
:1067D000D3F8B03007F110021046984735E1744BFA
:1067E0001B68D3F8A8300833C7F8AC3001237B60AE
:1067F0003B1D04331846D7F8AC10082204F00EF9FC
:106800006B4B1B68D3F8B0303A1D104698471CE11B
:10681000674B1B68D3F8A8300833C7F8A8300223A9
:106820007B60D7F8A8301B793B73D7F8A8305B7929
:106830007B73D7F8A830DB88FB815D4B1B68D3F8EE
:10684000B0303A1D10469847FFE0594B1B68D3F80B
:10685000A8300833C7F8A4300323BB64D7F8A430AA
:106860001B68FB64D7F8A4305B683B65D7F8A4309D
:106870009B6A7B6707F148030C33184600212022EE
:1068800004F0CAF9D7F8A43003F10801D7F8A4300E
:106890005A6807F148030C33184604F0BFF8D7F8DC
:1068A000A4309B6A002B14D007F1480330331846FC
:1068B0000021202204F0B0F9D7F8A43003F12C0114
:1068C000D7F8A4309A6A07F148033033184604F029
:1068D000A5F8374B1B68D3F8B03007F148021046D3
:1068E0009847B2E0324B1B68D3F8A8300833C7F89A
:1068F000A0300423BB64D7F8A0301B88A7F84C3025
:106900002B4B1B68D3F8B03007F14802104698476C
:106910009BE0274B1B68D3F8A8300833C7F89C309E
:1069200007F148030433184600214C2204F074F99F
:106930000523BB64D7F89C2007F16C032032106854
:10694000186092889A80D7F89C20D7F89C3093F8EA
:1069500026301C4607F148030433184611462246E8
:1069600004F05CF8D7F89C3093F8263087F8723042
:10697000D7F89C3003F12802D7F89C3093F84830C0
:106980001C4607F148032C3318461146224604F0F2
:1069900045F8D7F89C3093F8483087F89430044B8A
:1069A0001B68D3F8B03007F14802104698474CE016
:1069B0000C0C0120264B1B68D3F8A8300833C7F80D
:1069C000983007F148030433184600214C2204F0A4
:1069D00023F90623BB64D7F8982007F16C03203213
:1069E0001068186092889A80D7F89820D7F8983065
:1069F00093F826301C4607F1480304331846114625
:106A0000224604F00BF8D7F8983093F8263087F830
:106A100072300F4B1B68D3F8B03007F148021046B4
:106A2000984712E00A4B1B68D3F8A830184601F0CB
:106A3000E5F80AE0064B1B68D3F8B030044A126848
:106A4000D2F8A8201046984700BFDC37BD4690BD5D
:106A50000C0C012080B582B000AF5DE0434B1B6899
:106A600093F89730DAB2414B1B6893F898309A420A
:106A700042D03E4B1B680022C3F8A8203B4B1B684A
:106A80000022C3F8B020394B1B68FF2283F8B420E2
:106A9000FFF7EAF80346FB80B7F90630002B00D079
:106AA000FEE7324B1B6893F898200132D2B283F88C
:106AB00098202E4B1B6893F8B430012B0ED12B4B32
:106AC0001B68002283F89220284B1B6891331846DC
:106AD00022211122012301F02DFA1DE0234B1B6816
:106AE00093F8B430022B17D1FFF758FC1F4B1B68EB
:106AF0000022C3F8A8200FE01C4B1B6891331846F6
:106B000022211122FF2301F015FA0346BB80B7F9B9
:106B10000430002B00D0FEE7144B1B6893F8923032
:106B2000012B9BD0114B1B6804331846332101F015
:106B3000EFF903467B80B7F90230002B00D0FEE767
:106B40000A4B1B6893F89730DAB2084B1B6893F82E
:106B500098309A4204D006480021002201F018FA29
:106B600000231BB218460837BD4680BD0C0C01201F
:106B7000756B002080B584B000AF78603D4B1B681A
:106B80000433184633214422FF2301F0D3F903468E
:106B9000FB81B7F90E30002B00D0FEE7354B1B68A8
:106BA0000022C3F8A820334B1B680022C3F8B02092
:106BB000304B1B68012283F8B4202E4B1B6893F8DE
:106BC0009730DAB22B4B1B6893F898309A420FD16A
:106BD000284B1B6804331846332101F099F903460A
:106BE000BB81B7F90C30002B00D0FEE700233BE05F
:106BF000FFF73AF803467B81B7F90A30002B00D043
:106C0000FEE71C4B1B6893F898200132D2B283F840
:106C10009820184B1B6893F8B430022B04D0032B38
:106C200012D0002B10D00EE0124B1B68D3F8A83006
:106C3000002B00D1FEE7FFF7B1FB0E4B1B680022D3
:106C4000C3F8A82001E0FEE700BF0A4B1B6804332D
:106C50001846332101F05CF903463B81B7F908304F
:106C6000002B00D0FEE700231BB218461037BD46AC
:106C700080BD00BF0C0C012080B483B000AF034680
:106C8000FB803B4B1B680022C3F8B020FB8803F459
:106C900080639BB2002B61D1FB88632B05D1344B01
:106CA0001B68032283F8B4205DE0FB8841F20A02EE
:106CB000934209D0FB8841F20B02934204D0FB8837
:106CC00041F20B22934205D1294B1B68002283F825
:106CD000B42048E0264B1B68022283F8B420FB88CE
:106CE00003F4F043002B05D1214B1B68214AC3F864
:106CF000B02038E0FB8803F4F043B3F5006F05D112
:106D00001B4B1B681C4AC3F8B0202CE0FB8803F423
:106D1000F043B3F5805F05D1154B1B68174AC3F8E4
:106D2000B02020E0FB8803F4F043B3F5C05F1AD134
:106D3000FB8841F62E02934204D0FB8841F63002D4
:106D4000934205D10A4B1B680D4AC3F8B0200AE0F4
:106D5000074B1B680B4AC3F8B02004E0044B1B68C8
:106D6000012283F8B4200C37BD465DF8047B7047E0
:106D70000C0C0120C95600200144002025460020AB
:106D8000717D00206545002080B485B000AF78603B
:106D90000023FB730BE0FB7B7A681344FA7B013220
:106DA00079680A4412781A70FB7B0133FB73FB7B12
:106DB000062BF0D97B68073300221A701437BD46C2
:106DC0005DF8047B704700BF80B58AB000AF786083
:106DD000396000237B6204237B848D4B1B681A6817
:106DE000B7F9223010468B491A4601F00BFF0346D3
:106DF0003B84B7F92220B7F920309A4200D0FEE751
:106E00000423FB83824B1B681A68B7F91E301046B7
:106E100079681A4601F082FE0346BB83B7F91E204B
:106E2000B7F91C309A4200D0FEE726E07B6AB3F542
:106E3000FA6F00D3FEE77B6A03F00303002B16D141
:106E400004237B83724B1B6819687B681A1DB7F992
:106E50001A30084611461A4601F060FE03463B838D
:106E6000B7F91A20B7F918309A4200D0FEE77868CF
:106E7000FFF78AFF7B6A01337B627B681B6803F044
:106E80000403002B0FD07B681B6823F0802323F0C2
:106E900080035F4A126892F8962002F003015E4A6E
:106EA0000A4393420ED07B681B6803F00403002B57
:106EB000BCD17B681B6823F0802323F08003574AF2
:106EC0009342B3D17B6A03F003037B627B6A002B9E
:106ED0001ED07B685A687B681A607B6AFB824C4BC9
:106EE0001B6819687B6AC3F104037A681A44B7F90E
:106EF0001630084611461A4601F010FE0346BB82C2
:106F0000B7F91620B7F914309A4200D0FEE714E022
:106F100004237B823E4B1B681A68B7F91230104677
:106F200079681A4601F0FAFD03463B82B7F9122050
:106F3000B7F910309A4200D0FEE714E00423FB8139
:106F4000334B1B681A68B7F90E30104679681A4639
:106F500001F0E4FD0346BB81B7F90E20B7F90C3010
:106F60009A4200D0FEE77B681B6803F00403002B05
:106F70000FD07B681B6823F0802323F08003244A12
:106F8000126892F8962002F00301234A0A439342C2
:106F9000D4D07B681B6803F00403002B08D17B6806
:106FA0001B6823F0802323F080031C4A9342C5D042
:106FB000174B1B6893F896200132D2B283F89620C3
:106FC00004237B81124B1B6819687B681A1DB7F973
:106FD0000A30084611461A4601F0A0FD03463B81DF
:106FE000B7F90A20B7F908309A4200D0FEE77B6A69
:106FF000002B04D07B6AC3F10403DAB200E0002264
:107000003B681A7000231BB218462837BD4680BD66
:107010000C0C012074EE00203C5CCD2B3A5CCD2B97
:1070200080B586B000AF0346FB8000233B61FB8840
:10703000BB810023BB730423FB7307F10C0207F130
:107040001003104619460022FEF766FC0346FB8239
:10705000B7F91630002B00D0FEE73B8A1BB218466A
:107060001837BD4680BD00BF80B586B000AF7860E0
:107070000B46FB700A23FB75894B1B68903318463F
:1070800033214422FF2300F055FF0346BB82B7F9AA
:107090001430002B00D0FEE7814B1B6893F888303A
:1070A000092B25D87E4B1B6893F88830FB757C4BE9
:1070B0001968FA7D13465B0013449B000B44183398
:1070C0009B78092B0ED8764B1968754B1868FA7D9A
:1070D00013465B0013449B00034418339B7881F8EC
:1070E000883016E06E4B1B680A2283F8882010E077
:1070F0006B4B1B6890331846332100F009FF0346A1
:107100007B82B7F91230002B00D0FEE7FB7D9BB2EB
:10711000C1E0634B1968FA7D7B68D8B213465B0007
:1071200013449B000B44183302461A70FB78072B5C
:107130000AD85B4B1968FA7D13465B0013449B0029
:107140000B441833FA785A7047E0554B1968FA7DAA
:10715000534B1B6893F8890013465B0013449B0054
:107160000B44183302469A704D4B1B68FA7D83F826
:1071700089204B4B1B6890331846332100F0C8FE22
:1071800003463B82B7F91030002B00D0FEE7444B9A
:107190001968FA7D13465B0013449B0010330B44BF
:1071A000184622211122FF2300F0C4FE0346FB8172
:1071B000B7F90E30002B00D0FEE7394B1B68903337
:1071C000184633214422FF2300F0B4FE0346BB815E
:1071D000B7F90C30002B00D0FEE7FB78072B0AD85C
:1071E0002F4B1B68D3F88C30FA78012101FA02F298
:1071F0001340002BA9D12A4B1B68D3F88C307A6836
:10720000012101FA02F21340002B02D0FB78082B77
:107210009BD0FB78072B0DD8214B1B68204A1268A6
:10722000D2F88C20F978012000FA01F10A43C3F862
:107230008C200CE01A4B1B68194A1268D2F88C207B
:107240007968012000FA01F10A43C3F88C20144B3D
:107250001968FA7D124B1B6893F88A0013465B008D
:1072600013449B000B44183302469A700C4B1B6866
:10727000FA7D83F88A200A4B1B6890331846332125
:1072800000F046FE03467B81B7F90A30002B00D0A0
:10729000FEE7FB7D9BB21BB218461837BD4680BD8A
:1072A0000C0C012090B585B000AF0346FB718E4BEE
:1072B0001B689033184633214422FF2300F03AFE26
:1072C0000346BB81B7F90C30002B00D0FEE7864B9C
:1072D0001B6893F88930FB7374E0834B1968FA7B61
:1072E00013465B0013449B000B44183319787E4B04
:1072F0001868FA7913465B0013449B000344183363
:107300001B78994253D1784B1968FA7B13465B007E
:1073100013449B000B4418335B7803F00F03082BD6
:1073200027D0714B1968FA7913465B0013449B0010
:107330000B4418335B7803F00F03072B37DC6A4BE1
:107340001968FA7B13465B0013449B000B44183307
:107350005B781846644B1968FA7913465B0013444E
:107360009B000B4418335B78434003F00F03002B62
:107370001DD15D4B1B6803F18902FB7B104619464A
:1073800000F00EF9584B1968FA7B13465B00134462
:107390009B0010330B441846222100F0B9FD034630
:1073A0007B81B7F90A30002B00D0FEE70DE04E4B91
:1073B0001968FA7B13465B0013449B000B44183397
:1073C0009B78FB73FB7B092B87D9474B1968FA79AC
:1073D00013465B0013449B000B4418335B7803F0A7
:1073E0000F03072B19DC404B19683F4B1B68D3F880
:1073F0008C003D4B1C68FA7913465B0013449B00DC
:10740000234418335B7803F00F03012202FA03F3DD
:10741000DB430340C1F88C3016E0334B1968324B24
:107420001B68D3F88C00304B1C68FA7913465B005C
:1074300013449B00234418331B781A4601239340BE
:10744000DB430340C1F88C30274B1968FA791346A7
:107450005B0013449B000B44103300225A60224B04
:107460001968FA7913465B0013449B000B441833E8
:1074700000221A701C4B1968FA7913465B001344FA
:107480009B000B44183308225A70174B1B6803F1FA
:107490008A02FB791046194600F082F8124B1968EF
:1074A000FA79114B1B6893F8880013465B0013446C
:1074B0009B000B44183302469A700B4B1B68FA79F9
:1074C00083F88820084B1B6890331846332100F05E
:1074D0001FFD03463B81B7F90830002B00D0FEE7C3
:1074E0001437BD4690BD00BF0C0C012080B582B0A2
:1074F00000AF1E4B1B68103318460021782203F0A2
:107500008BFB1A4B1B68002283F888200023FB7139
:107510001BE0164B1968FA79FB790133D8B2134690
:107520005B0013449B000B44183302469A700F4BC8
:107530001968FA7913465B0013449B000B44183317
:1075400008225A70FB790133FB71FB79092BE0D9D2
:10755000064B1B680A2283F88A20044B1B680A2208
:1075600083F889200837BD4680BD00BF0C0C012080
:1075700080B400AF094B1B68002283F88820074BBA
:107580001B680A2283F88920044B1B680A2283F8AF
:107590008A20BD465DF8047B704700BF0C0C0120BB
:1075A00090B484B000AF78600B46FB702E4B1A6825
:1075B0007B681B7819460B465B000B449B00134409
:1075C00018339B780A2B03D17B680A221A7046E095
:1075D0007B681B78FA789A420CD1234B1968FA78A9
:1075E00013465B0013449B000B4418339A787B6866
:1075F0001A7034E07B681B78FB732DE01A4B196816
:10760000FA7B13465B0013449B000B4418339B78B2
:10761000FA789A4215D1144B1868FA7B124B1C6801
:10762000F9780B465B000B449B0023441833997890
:1076300013465B0013449B00034418330A469A70B8
:107640000DE0094B1968FA7B13465B0013449B005D
:107650000B4418339B78FB73FB7B092BCED9103777
:10766000BD4690BC704700BF0C0C012080B485B0B3
:1076700000AF03460A46FB8013467B71554B1B68DF
:1076800093F88A30FB7397E0524B1968FA7B1346E4
:107690005B0013449B000B4418335B78DBB25BB296
:1076A000002B03DAFB8823F40073FB80494B196835
:1076B000FA7B13465B0013449B000B4418331B7882
:1076C0000F2B22D1434B1968FA7B13465B001344FE
:1076D0009B000B4418335B787A799A4215D1FB886A
:1076E00041F20A02934209D0FB8841F20B02934215
:1076F00004D0FB8841F20B22934206D1354B1B6824
:10770000FA7B83F8AC2000235CE0324B1968FA7BEB
:1077100013465B0013449B000B4418331B78083B53
:107720002D4ADB0013445B88FA889A4239D1797973
:10773000284B1868FA7B13465B0013449B000344F4
:1077400018335B7803F00F03994202D17B79072B42
:107750000DD9204B1968FA7B13465B0013449B003C
:107760000B4418335B7803F00F03082B19D1194B26
:107770001968184B1868FA7B13465B0013449B008A
:10778000034418331B78083B134ADB0013445B683F
:10779000C1F8B0300F4B1B68FA7B83F8AC20002394
:1077A00010E00C4B1968FA7B13465B0013449B00F6
:1077B0000B4418339B78FB73FB7B092B7FF664AF7C
:1077C0004FF6FD731BB218461437BD465DF8047BB7
:1077D000704700BF0C0C012078EE002080B582B00D
:1077E00000AF124B1B68012283F893200F4B1B68DC
:1077F00094331846332100F08BFB0346FB80B7F926
:107800000630002B00D0FEE7084B1B689533184666
:10781000112100F07DFB0346BB80B7F90430002B3B
:1078200000D0FEE70837BD4680BD00BF0C0C01202C
:1078300080B582B000AF124B1B68002283F8932002
:107840000F4B1B6894331846002100F061FB034680
:10785000FB80B7F90630002B00D0FEE7084B1B6811
:1078600095331846002100F053FB0346BB80B7F95F
:107870000430002B00D0FEE70837BD4680BD00BFB6
:107880000C0C012090B5CFB000AF07F10C042060C4
:107890000846391D0A60194607F10B0302461A70A3
:1078A00007F10A030A461A7007F10B031B7887F8E1
:1078B0002431D7F85031C7F82C31B7F84831A7F840
:1078C000263107F10A031B7887F82531D7F84C31A8
:1078D000C7F8283107F10A031A7807F10B031B7860
:1078E0001344FE2B02DD4FF6FF7350E007F1140343
:1078F00018460021FF2203F08FF907F10B031A78D5
:1079000007F1140107F10C030846196803F086F823
:1079100007F10A031B78002B10D007F10B031B782B
:1079200007F114021344C7F8343107F10A031A7837
:107930003B1DD7F83401196803F070F807F10A030A
:107940001B789AB207F10B031B789BB213449BB2CE
:10795000A7F814310023A7F8163107F11403C7F86C
:107960001C310023C7F8203107F5927207F58A739E
:107970000A4811461A46FDF7CFFF0346A7F83231F1
:10798000B7F93231002B00D0FEE7B7F824311BB233
:10799000184607F59E77BD4690BD00BFB0EE0020AB
:1079A00080B588B004AF78600B46FB700023FB60A5
:1079B000FB6823F00043FB60FA7800230093002368
:1079C0000193FB6802937868114600220023FFF7B9
:1079D00059FF034618461037BD4680BD80B586B0B6
:1079E00000AF78607B6808337B61344B1A68334B97
:1079F0001B6893F8AC3019460B465B000B449B00A8
:107A0000134418335B78DBB25BB2002B00DA52E030
:107A10007B695B887B82294B1A68284B1B6893F82B
:107A2000AC3019460B465B000B449B0013441033EB
:107A30005B68FB60FB685B687A6992681A60FB6848
:107A40009B687A6952681A607B691B889AB2FB68E6
:107A50001A80FB68DB681B887B817A8A7B8993426A
:107A600028BF13467B81FB68DB687A891A80FB6834
:107A700019697B6903F10C027B89084611461A4695
:107A800002F0CCFF0D4B1A680C4B1B6893F8AC301E
:107A900019460B465B000B449B00103313441846F9
:107AA000222100F035FA03463B81B7F90830002B5C
:107AB00000D0FEE700BF1837BD4680BD0C0C01208A
:107AC00080B586B000AF78607B6808337B61394B46
:107AD0001B689033184633214422FF2300F02AFA12
:107AE00003467B82B7F91230002B00D0FEE7314B02
:107AF0001A68304B1B6893F8AC3019460B465B0094
:107B00000B449B00134418335B78DBB25BB2002B51
:107B100013DA284B1A68274B1B6893F8AC301946C8
:107B20000B465B000B449B00134410335B68184604
:107B30007969142202F072FF12E01E4B1A681D4B85
:107B40001B6893F8AC3019460B465B000B449B0056
:107B5000134410335B6818467969082202F05EFF0F
:107B6000144B1A68134B1B6893F8AC3019460B463C
:107B70005B000B449B00103313441846222100F095
:107B8000C7F903463B82B7F91030002B00D0FEE75F
:107B9000084B1B6890331846332100F0B9F90346AF
:107BA000FB81B7F90E30002B00D0FEE700BF18377D
:107BB000BD4680BD0C0C012080B483B000AF78605E
:107BC00039607B68DA683B681A607B689A683B6852
:107BD0005A607B685A883B681A817B689A883B6840
:107BE0005A817B68DA883B689A817B681A693B68AE
:107BF0001A610C37BD465DF8047B704780B58AB0CA
:107C000000AF78607B6808337B62374B1B68002BC2
:107C10000CD007F10803786A1946FFF7CDFF324B05
:107C20001B6807F108021046984758E02F4B1B6865
:107C30009033184633214422FF2300F07BF903469A
:107C40007B84B7F92230002B00D0FEE7274B1A685F
:107C5000264B1B6893F8AC3019460B465B000B446F
:107C60009B00134410335B68002B2AD01F4B1A680B
:107C70001E4B1B6893F8AC3019460B465B000B4457
:107C80009B00134410335B681846796A142202F093
:107C9000C5FE164B1A68154B1B6893F8AC30194695
:107CA0000B465B000B449B00103313441846222103
:107CB00000F02EF903463B84B7F92030002B00D0AA
:107CC000FEE70A4B1B6890331846332100F020F979
:107CD0000346FB83B7F91E30002B00D0FEE700BF40
:107CE0002837BD4680BD00BF100C01200C0C0120C0
:107CF00090B58FB000AF78607B681B789BB2033380
:107D00009BB223F003039BB2BB810023FB817B6802
:107D10005B687B610023BB617B681B783B777B687A
:107D20005B787B777B689A687B685B781C4607F199
:107D30001C03023318461146224602F06FFE07F17B
:107D40001C0207F10C03094811461A46FDF746FECE
:107D50000346FB86B7F93630002B00D0FEE7BB8B1D
:107D60009BB218463C37BD4690BD00BFB4EE002024
:107D700080B594B000AF78607B68FB64FB6C1B88B7
:107D800041F63002934253D041F6300293420BDC6D
:107D900041F6220293421BD041F62E0293421BD0A1
:107DA000B3F5C15F0CD074E0B3F5D15F08D041F6F4
:107DB0003522934208D041F63502934204D068E060
:107DC0007868FFF77DFE65E07868FFF707FE61E001
:107DD0007868FFF713FF5DE0FB6C0833BB64BB6C96
:107DE00004337B6401237B6140233B76FB6C1C33B3
:107DF000FB6101233B62BB6C1B7887F824307B6CF2
:107E0000BB627B6C3B6107F1200207F11403104653
:107E10001946FCF7FDFB3B7E3B7297F824307B72E2
:107E2000FB69FB6007F108031846FFF761FF31E0CB
:107E3000FB6C08333B643B6C0433FB6302233B6203
:107E40003B6C1B7887F82430FB6BBB623B6C1B7868
:107E50001A46FB6B1344FB633B6C5B7887F82C3052
:107E6000FB6B3B633B6C5B781A46FB6B1344FB6319
:107E70003B6C9B7887F83430FB6BBB6300237B61E2
:107E800007F1200207F1140310461946FCF7C0FB66
:107E900000E0FEE75037BD4680BD00BF80B58AB028
:107EA00000AF3B600346FB710B46BB7113467B7111
:107EB0007B799BB203339BB223F003039BB2BB815C
:107EC0000023FB813B687B610023BB61FB799BB294
:107ED000FB837B799BB27B84BB799BB23B8407F1AC
:107EE0001C0207F10C03094811461A46FDF714FD60
:107EF0000346FB84B7F92630002B00D0FEE7BB8B8E
:107F00001BB218462837BD4680BD00BFB8EE002022
:107F100080B483B000AF78600B46FB707B68FA7862
:107F20001A7000235BB218460C37BD465DF8047B1F
:107F3000704700BF80B582B000AF78600846114638
:107F40001A460346FB700B46BB7013467B7010E06D
:107F50007B681B78FA789A4203D17B68BA781A70EA
:107F60000AE07B78FF2B02D07B78013B7B7000F02E
:107F70003DF87B78002BEBD17B78002B01D1FF23E0
:107F800000E000235BB218460837BD4680BD00BF45
:107F900080B487B000AFF860B9607A600023FB82DC
:107FA00015E0B7F91630DB000F4A13443B613B691B
:107FB0001B68002B06D13B69BA685A603B69FA68B6
:107FC0001A6008E0FB8A9BB201339BB2FB82B7F9CF
:107FD0001630042BE5DD00235BB218461C37BD4686
:107FE0005DF8047B704700BFE40D012080B584B0CC
:107FF00000AF0023FB8124E0B7F90E30DB00164A06
:108000001344BB60BB681B687B607B68002B13D08C
:10801000124B1B6893F89730DAB2104B1B6893F839
:1080200098309A4202D07B6800209847BB680022B3
:108030001A60BB6800225A60FB899BB201339BB275
:10804000FB81B7F90E30042BD6DD00235BB2184656
:108050001037BD4680BD00BFE40D01200C0C01208F
:1080600080B586B000AF78607B6808337B61314BA8
:108070001B689033184633214422FF23FFF75AFF31
:1080800003467B82B7F91230002B00D0FEE77B69F4
:108090009B7803F00F03082B00DDFEE7254B1A68E1
:1080A000244B1B6893F8AC3019460B465B000B441D
:1080B0009B00134410335B687A6992789A701D4B69
:1080C0001A681C4B1B6893F8AC3019460B465B00D2
:1080D0000B449B00134410335B687A6912881A8042
:1080E000144B1A68134B1B6893F8AC3019460B46B7
:1080F0005B000B449B001033134418462221FFF70A
:1081000007FF03463B82B7F91030002B00D0FEE793
:10811000084B1B68903318463321FFF7F9FE0346DE
:10812000FB81B7F90E30002B00D0FEE700BF1837F7
:10813000BD4680BD0C0C012080B586B000AF7860D4
:108140007B6808337B612A4B1B68903318463321C8
:108150004422FF23FFF7EEFE03467B82B7F912307D
:10816000002B00D0FEE77B699B7803F00F03082B00
:1081700000DDFEE71E4B1A681D4B1B6893F8AC3000
:1081800019460B465B000B449B00134410335B689D
:10819000184679690C2202F041FC154B1A68144B01
:1081A0001B6893F8AC3019460B465B000B449B00F0
:1081B0001033134418462221FFF7AAFE03463B82E0
:1081C000B7F91030002B00D0FEE7094B1B68903345
:1081D00018463321FFF79CFE0346FB81B7F90E30AA
:1081E000002B00D0FEE700BF1837BD4680BD00BFA2
:1081F0000C0C012080B586B000AF78607B68083336
:108200007B61264B1B689033184633214422FF23A1
:10821000FFF790FE03467B82B7F91230002B00D0A7
:10822000FEE71E4B1A681D4B1B6893F8AC301946CD
:108230000B465B000B449B00134410335B681846ED
:108240007969082202F0EAFB144B1A68134B1B6889
:1082500093F8AC3019460B465B000B449B0010337F
:10826000134418462221FFF753FE03463B82B7F919
:108270001030002B00D0FEE7084B1B6890331846E7
:108280003321FFF745FE0346FB81B7F90E30002B83
:1082900000D0FEE700BF1837BD4680BD0C0C0120A2
:1082A00080B5B2B000AFF8607A603B600B467B816E
:1082B00007F11403B0221846002102F0ADFC0023A0
:1082C0003B610023BB740423FB74B7F90A30202BF5
:1082D00000DDFEE77B89DBB27B75D7F8D030002B61
:1082E00000F0B88048F682433B82BB7C1033DBB29F
:1082F000BB74B7F90A2007F1140310331846F96864
:1083000002F08CFBBA7C7B89DBB21344DBB2BB741A
:108310003B68002B2CD03B681B7A002B28D03B6895
:108320001B783B753B681B7A3F2B02D94FF62D0318
:10833000FAE03B681B7A3B773B685B68002B00D117
:10834000FEE707F114035B78103307F11402D1182C
:108350003B685A683B681B7A084611461A4602F089
:108360005DFBBA7C3B681B7A1344DBB2BB7401E053
:1083700000233B77D7F8D030002B00D1FEE7D7F8A9
:10838000D0301B693B62D7F8D0305B7BFB77D7F8E6
:10839000D0301B79202B02D94FF62D03C4E0D7F83B
:1083A000D0301B797B77D7F8D0301B79002B1DD0CC
:1083B00007F114035B781A4607F114031B7A134480
:1083C000103307F11402D118D7F8D0301A68D7F853
:1083D000D0301B79084611461A4602F01FFBBA7CC2
:1083E000D7F8D0301B791344DBB2BB74D7F8D03048
:1083F0001B7B202B02D94FF62D0395E0D7F8D03008
:108400001B7BBB77D7F8D0301B7B002B67D007F1E5
:1084100014035B781A4607F114031B7A134407F11F
:108420001402527A1344103307F11402D118D7F80A
:10843000D0309A68D7F8D0301B7B084611461A46D0
:1084400002F0ECFABA7CD7F8D0301B7B1344DBB2D5
:10845000BB7444E048F680433B82BB7C0933DBB20B
:10846000BB74B7F90A2007F1140309331846F968F9
:1084700002F0D4FABA7C7B89DBB21344DBB2BB7462
:108480003B68002B27D03B681B783B753B681B7A09
:108490003F2B02D94FF62D0346E03B681B7A3B7712
:1084A000BA7C3B681B7A1344DBB2BB743B685B68E5
:1084B000002B14D007F114035B78093307F1140281
:1084C000D1183B685A683B681B7A084611461A4621
:1084D00002F0A4FA03E000233B7700233B757B689E
:1084E000002B07D07A6807F116031168196092888B
:1084F0009A8007E007F11403023318460021062290
:1085000002F08AFB07F1100207F114031046194626
:108510000022FDF701FA0346A7F8C630B7F9C630C6
:10852000002B00D0FEE7BB8A1BB21846C837BD46F9
:1085300080BD00BF80B500AF48F68140FEF770FDFA
:108540000346184680BD00BF80B588B000AF3A60D2
:108550001A460346FB710B46BB7113467B717B7950
:108560009BB23B8100237B813B683B6100237B61A5
:10857000FB793B76BB79BB767B79FB7607F11802FA
:1085800007F10803084811461A46FDF7C5F90346E6
:10859000FB83B7F91E30002B00D0FEE73B8B1BB2EC
:1085A00018462037BD4680BDBCEE002080B584B0A3
:1085B00000AF0346FB80FB88DBB23B7207F1080388
:1085C000084819460022FDF7A7F90346FB81B7F9D1
:1085D0000E30002B00D0FEE73B891BB21846103747
:1085E000BD4680BDC0EE002080B588B000AF034618
:1085F0003960FB711346BB80BB883B813B683B61A4
:1086000000237B8100237B61FB79BB76BB883B83A6
:1086100007F1180207F10803094811461A46FDF749
:108620007BF90346FB83B7F91E30002B00D0FEE731
:108630003B7E9BB21BB218462037BD4680BD00BFB3
:10864000C4EE002080B584B000AF0346FB71FB7917
:108650003B7207F10803094819460022FDF75CF94F
:108660000346FB81B7F90E30002B00D0FEE73B89B3
:108670001BB218461037BD4680BD00BFC8EE0020B3
:1086800080B58CB000AF7B600346FB810B46BB819D
:1086900013467B817B8903339BB223F003039BB298
:1086A000BB820023FB827B68FB6100233B62FB896A
:1086B000FB847B897B85BB893B8507F1240207F11D
:1086C0001403094811461A46FDF726F90346FB85AF
:1086D000B7F92E30002B00D0FEE7BB8C1BB218463A
:1086E0003037BD4680BD00BFCCEE002080B588B0DD
:1086F00000AF786039601B4801F0E0F97B68BB612E
:108700003B6803339B10FB61174B7B61174B3B614D
:10871000174BFB6018E000BF7B691B6803F0020386
:10872000002BF9D03B694FF0FF321A6000BF7B6924
:108730001B6803F00103002BF9D0FB681A68BB69C2
:108740001A60BB690433BB61FB695A1EFA61002BD6
:10875000E1D1044801F0C6F93B6818462037BD4610
:1087600080BD00BF00200244302102443821024471
:108770003C21024480B588B000AF786039601A4867
:1087800001F09CF97B68BB613B6803339B10FB6184
:10879000164B3B61164BFB60164BBB6017E000BFEE
:1087A0003B691B6803F00203002BF9D0FB68BA6930
:1087B00012681A6000BF3B691B6803F00103002BBD
:1087C000F9D0BB681B687B61BB690433BB61FB6983
:1087D0005A1EFA61002BE2D1034801F083F93B688D
:1087E00018462037BD4680BD002002443021024497
:1087F000382102443C21024480B500AF05484FF4C3
:10880000003101F02BF9034801F06CF9024B012211
:108810001A7080BD002002440C0E012080B588B083
:1088200006AF786039603B68002B00DA03339B1099
:108830001A46002300931A4B01934FF040630293B2
:10884000184B03934FF0404304930D2001214FF048
:10885000085300F0EFFA3B68002B00DA03339B105B
:108860001A4600230093104B01934FF0406302938C
:108870007B6803934FF0004304930C2001214FF0D9
:10888000085300F0D7FA3B68002B00DA03339B1043
:108890000648194601F082F80837BD4680BD00BF82
:1088A000240E0120382102443C21024400200244CD
:1088B00080B588B006AF786039603B68002B00DA7D
:1088C00003339B101A46002300937B6801934FF0FB
:1088D00000630293174B03934FF0404304930D2022
:1088E00001214FF0085300F0A5FA3B68002B00DA95
:1088F00003339B101A46002300930F4B01934FF054
:10890000406302930D4B03934FF0404304930C20BC
:1089100001214FF0085300F08DFA3B68002B00DA7C
:1089200003339B100648194601F038F80837BD4656
:1089300080BD00BF382102443C2102444C0E01207E
:108940000020024480B588B002AF786039604FF4EF
:1089500080633B61464BFB60042040F2011100F054
:10896000DBFCF86801F0BEF8F86800F00FFFF8686B
:1089700000F04CFF3B695B88012B02D13D4B7B61D2
:108980000CE03B695B88022B02D13A4B7B6105E02E
:108990003B695B88022B01D9374B7B61042000F0D7
:1089A0000BFD024600230093344B0193F8681146F7
:1089B0007A69002300F048FF052000F099FD034686
:1089C000002B0AD02E4B1B68002B14BF0123002361
:1089D000DBB21A462B4B1A7002E02A4B00221A70A7
:1089E000284B1B78002B36D02748FF21502202F05D
:1089F00013F90C2000F00AFA0D2000F007FAF868CD
:108A00004FF0805100F07CFFF8684FF0006100F0FB
:108A100077FFF8684FF4004100F0CCFEF8684FF49F
:108A2000804100F0C7FEF8680121012200F094FFA8
:108A3000C120164900F076FAC120202100F09EFAEC
:108A4000C12000F0CDFAF8684FF4003100F0D2FFF9
:108A50000F4B00221A70F86800F084FE0D4B0122C3
:108A60001A600C4B1B6818461837BD4680BD00BF06
:108A700000200244405DC600002D3101800F00013E
:108A800008F00F401C0C0120100E0120F987002077
:108A90000C0E0120180C012080B584B000AF786066
:108AA0001A4BFB601A4B00221A601A4B1B78002BE2
:108AB00019D0F86800F08CFF174B00221A70F86884
:108AC0004FF0805100F032FFF8684FF0006100F085
:108AD0002DFFF8684FF4004100F082FEF8684FF473
:108AE000804100F07DFE094800F0FCFFF86800F0CE
:108AF0004DFEF86800F08AFE042040F2011100F0FB
:108B000039FC002318461037BD4680BD00200244C2
:108B1000180C01201C0C01200C0E012080B586B021
:108B200000AFF860B9607A6000237B61BB683B618D
:108B3000FB68012B03D12F4B1B68012B02D04FF098
:108B4000FF3353E07B68642B47DD2B4B1B78002BF6
:108B500043D03B6903F00303002B3ED139E07B682F
:108B6000B3F57A6F19DA7B69BA68134418467968E5
:108B7000FFF754FE214800F0A1FF00BF204B1B78F7
:108B8000DBB2012BFAD11E4B00221A707A697B6886
:108B900013447B6100237B601BE07B69BA6813444C
:108BA00018464FF47A61FFF739FE144800F086FF4B
:108BB00000BF134B1B78DBB2012BFAD1104B002204
:108BC0001A707B6903F57A637B617B68A3F57A632E
:108BD0007B607B68002BC2DC07E0B8687968FFF730
:108BE00085FD02467B6913447B617B691846183713
:108BF000BD4680BD180C01201C0C01200020024441
:108C00000C0E012080B586B000AFF860B9607A60C4
:108C100000237B61BB683B61FB68012B03D11A4BCE
:108C20001B68012B02D04FF0FF3329E07B68642BD7
:108C30001DDD164B1B78002B19D03B6903F0030395
:108C4000002B14D1B8687968FFF732FE104800F0A5
:108C500035FF00BF0F4B1B78DBB2012BFAD10D4B58
:108C600000221A707A697B6813447B6107E0B86858
:108C70007968FFF77FFD02467B6913447B617B695E
:108C800018461837BD4680BD180C01201C0C012069
:108C9000002002440C0E012080B582B000AF786045
:108CA00039607B68002B09D1BB2000F0F7F9BB20AD
:108CB00000F04EF9BB2000F04FFA0DE0BB207968C0
:108CC00000F030F9BB20202100F058F9BB2000F063
:108CD00043FABB2000F084F9002318460837BD464C
:108CE00080BD00BF80B400AF034B01221A60BD46B7
:108CF0005DF8047B704700BF88700F4080B400AF00
:108D0000034B01221A60BD465DF8047B704700BF2B
:108D10008C700F4080B584B000AF1B4B01221A60ED
:108D20001A4801F001F90023FB60194B1B68BB6076
:108D3000184B1B687B60BB68202B19D07B6803F045
:108D40000203002B14D10FE0134B1B683B603B6800
:108D500003F00103002B06D00C4801F0E5F8FB6896
:108D60000133FB6000E003E0FB68B3F57A7FEBD3EF
:108D70000A4B01221A60054801F0D6F800F028F8E5
:108D80001037BD4680BD00BFB8700F4000710200B3
:108D900004D402446CE10244C0700F40B0700F4034
:108DA00080B500AF074A074B1B6823F0020313602E
:108DB000054B01221A60054801F0B6F8FFF79EFF47
:108DC00080BD00BF6CE102441851024400127A00D9
:108DD00080B500AF4FF4FA5001F0A6F8FFF782FF1C
:108DE000074A074B1B6823F000631360054A054BD5
:108DF0001B6843F002031360034801F095F880BD3F
:108E000024F002446CE1024400350C0080B582B0CD
:108E100000AF78607B68DBB2402B00D906E0786851
:108E200001F056F87868022100F06AFF0837BD4665
:108E300080BD00BF80B586B002AFF860B9607A60CF
:108E40003B603A683B6A1A43BB6A1A43BB691343E7
:108E5000F868194600F096FFF868012100F00EFF4F
:108E60007B680093F868B968FA697B6A00F0AEFF26
:108E7000F86800F0EFFE1037BD4680BD80B485B0C5
:108E800000AFF8600B467A60FB72FB6803F5806305
:108E900019467B6803F00103002B06D0FB6803F53D
:108EA00080631A68FB7A134306E0FB6803F580636E
:108EB0001B68FA7AD24313400B601437BD465DF845
:108EC000047B704780B483B000AF78600B46FB70C2
:108ED0001346BB70FB789B001A467B6813441A4606
:108EE000BB7813600C37BD465DF8047B704700BF4C
:108EF00080B400AFFEE700BF80B500AF01F018F806
:108F00000346DBB2184680BD80B483B000AF786002
:108F1000034A7B6813600C37BD465DF8047B7047DD
:108F200008ED00E080B485B000AF78603960074B91
:108F30001B68FB607B689B00FA6813443A681A6000
:108F40001437BD465DF8047B704700BF08ED00E0B4
:108F500080B485B000AF7860064B1B68FB607B680F
:108F60009B00FA681344044A1A601437BD465DF842
:108F7000047B704708ED00E0F18E002080B485B0DE
:108F800000AF78600B46FB707B689B08134A52F871
:108F900023301B68FB607B6803F00303DB001A4689
:108FA000FF239340DB431A46FB681340FB60FB78CA
:108FB0007A6802F00302D20093401A46FB6813431A
:108FC000FB607B689B08054A52F823301A46FB6811
:108FD00013601437BD465DF8047B7047D0EE002067
:108FE00080B483B000AF78607B68042B0AD1284A34
:108FF000274B1B6843F480331360BFF34F8FBFF3DD
:109000006F8F3FE07B68052B0AD1214A204B1B68FC
:1090100043F400331360BFF34F8FBFF36F8F31E022
:109020007B68062B0AD11A4A194B1B6843F480232C
:109030001360BFF34F8FBFF36F8F23E07B680F2B5D
:109040000AD1144A134B1B6843F002031360BFF3A9
:109050004F8FBFF36F8F15E07B680F2B12D97B68A2
:10906000103B5B090C4A52F8233019467B68103BD1
:1090700003F01F03012202FA03F30B60BFF34F8FCB
:10908000BFF36F8F0C37BD465DF8047B704700BFA0
:1090900024ED00E010E000E0A4EF002080B483B0F5
:1090A00000AF78607B68042B0AD1284A274B1B68E5
:1090B00023F480331360BFF34F8FBFF36F8F3FE014
:1090C0007B68052B0AD1214A204B1B6823F400330F
:1090D0001360BFF34F8FBFF36F8F31E07B68062BB8
:1090E0000AD11A4A194B1B6823F480231360BFF37B
:1090F0004F8FBFF36F8F23E07B680F2B0AD1144A89
:10910000134B1B6823F002031360BFF34F8FBFF3B1
:109110006F8F15E07B680F2B12D97B68103B5B09C2
:109120000C4A52F8233019467B68103B03F01F03AA
:10913000012202FA03F30B60BFF34F8FBFF36F8F6F
:109140000C37BD465DF8047B704700BF24ED00E09E
:1091500010E000E0BCEF002080B483B000AF786086
:109160007B680E2B06D1144A134B1B6843F0006337
:1091700013601BE07B680F2B06D10F4A0E4B1B6858
:1091800043F00073136011E07B680F2B0ED97B68EE
:10919000103B5B09094A52F8233019467B68103BA3
:1091A00003F01F03012202FA03F30B600C37BD46E4
:1091B0005DF8047B704700BF04ED00E0D4EF0020B1
:1091C00080B485B000AF786039607B6803F03F03FE
:1091D0000B4A52F82330FB60FB689A00094B13449A
:1091E000FB60FB68FA68126822F00F013A680A43D4
:1091F00022F440621A601437BD465DF8047B704764
:10920000ECEF0020A0E0024480B487B000AFF8602B
:10921000B9607A60FB6803F03F031F4A52F82330BD
:109220007B617B68B3F1805F16D11C491B4B1A68C8
:109230007B69802000FA03F303F4F05313430B60BF
:109240007B699A00164B13447B617B697A691268CB
:1092500042F440621A601AE01049104B1B687A69A8
:10926000802000FA02F202F4F052D24313400B6065
:109270007B699A000A4B13447B617B697A691268A7
:1092800022F47C71B8687A6802430A431A601C377A
:10929000BD465DF8047B7047ECEF002044E10244DA
:1092A000A0E0024480B584B000AFF860B960134616
:1092B000FB71FB79002B05D0F86820211022FFF705
:1092C000A3FF04E0F86820210022FFF79DFFF86863
:1092D000B968FFF775FF1037BD4680BD80B582B015
:1092E00000AF0B4B1B68DBB27B607B68002B09D1A6
:1092F000084800F0C7F9034603F00103002B01D032
:1093000007237B607B6818460837BD4680BD00BFD9
:109310000CD0024468FC024480B483B000AF786093
:1093200039607B68FF2B14D0104A7B6852F83330C9
:1093300003F1884303F5143319460C4A7B6852F84D
:10934000333003F1884303F514331A683B68134341
:109350000B607B68002B03D1054B40F204421A607E
:109360000C37BD465DF8047B704700BFECF0002071
:109370000050024480B483B000AF786039600D4A79
:109380007B6852F8333003F1884303F514331946F0
:10939000084A7B6852F8333003F1884303F51433ED
:1093A0001A683B68DB4313400B600C37BD465DF821
:1093B000047B7047ECF0002080B487B000AF786089
:1093C0007B68132B0CBF01230023DAB27B68042BCC
:1093D0000CBF01230023DBB21343DBB21A467B68C8
:1093E000032B0CBF01230023DBB21343002B01D05E
:1093F000174B26E07B68002B0AD1164B1B681B0A13
:1094000003F007037B61134B1B68DBB23B610FE08A
:109410007B68022B0AD1104B1B681B0A03F0070361
:109420007B610D4B1B68DBB23B6101E00B4B08E03D
:109430007A693B6913440233094AB2FBF3F3FB60D8
:10944000FB6818461C37BD465DF8047B704700BFBB
:10945000005A6202005002442050024400B4C40486
:10946000001C4E0E80B485B000AF78607B68122B74
:1094700036D01E4A7B68DB0013445B6803F18843E7
:1094800003F514331946194A7B68DB0013445B6803
:1094900003F1884303F514331B6843F001030B60A9
:1094A0000023FB6002E0FB680133FB60FB680F2BCD
:1094B000F9D90E4A7B68DB0013445B6803F18843EB
:1094C00003F514331946094A7B68DB0013445B68D3
:1094D00003F1884303F514331B6823F001030B6089
:1094E0001437BD465DF8047B704700BFECF00020E8
:1094F00080B485B000AF78600D4A7B68DB00134410
:109500005B6803F1884303F514331B68FB60FB6859
:1095100003F00203FB60FB68002B01D0012300E095
:10952000002318461437BD465DF8047B704700BF22
:10953000ECF0002080B582B000AF444A434B1B687A
:1095400043F400031360424800F09CF878607B68A5
:1095500043F010033E48194600F0A4F83D4A3D4B45
:109560001B6843F03C03136005200121FFF7D4FE84
:109570000520FFF777FF05200121FFF7FBFEFFF72E
:10958000ADFE0346002B03D13348012100F08AF8D9
:10959000324B1B68DBB2022B13D1314A304B1B68B4
:1095A00023F4406323F00F0343F0020313602D4ABA
:1095B0002B4B1B6823F4406323F00F0343F002039B
:1095C0001360294A284B1B6843F002031360274BA2
:1095D0001B6803F00F03012B05D1244A234B1B68A2
:1095E00023F00F031360224B1B6803F00F03012BC2
:1095F00005D11F4A1E4B1B6823F00F0313601D4B40
:109600001B689B0D03F00F030E2B08D11A4A1A4B4F
:109610001B6823F47C0343F44803136007E0164AF5
:10962000154B1B6823F47C0343F424031360134A93
:10963000124B1B6823F080531360114A104B1B68B8
:1096400043F0040313600837BD4680BD64F0024454
:1096500018FC02446CE1024404F80244C8F00244DD
:1096600010E1024414E1024484E10244A4E0024413
:10967000A8E0024478DC0244B0F0024474FC0244E6
:10968000A8F0024480B584B000AF78607B681B68A6
:10969000FB6041F2D54000F047FCFB6818461037EC
:1096A000BD4680BD80B582B000AF786039607B6810
:1096B0003A681A6041F2D54000F036FC0837BD46E2
:1096C00080BD00BF80B485B000AF78600023FB6030
:1096D00017E01149FA6813465B0013449B000B44E2
:1096E0001A687B689A4209D10B49FA6813465B00F5
:1096F00013449B000B4404331B6807E0FB680133F1
:10970000FB60FB68022BE4D94FF0FF331846143797
:10971000BD465DF8047B704794F1002080B485B0AD
:1097200000AF78600023FB600FE00D4AFB6852F841
:1097300033207B689A4205D1094AFB68DB00134459
:109740005B6807E0FB680133FB60FB68022BECD928
:109750004FF0FF3318461437BD465DF8047B704761
:10976000B8F1002080B483B000AF78607B6803F567
:109770009A731A467B6803F59A731B6843F00103DA
:1097800013600C37BD465DF8047B704780B483B02E
:1097900000AF78607B6803F59A731A467B6803F51F
:1097A0009A731B6823F0010313600C37BD465DF804
:1097B000047B704780B483B000AF786039607B6809
:1097C00003F5967319467B6803F596731A683B6830
:1097D00013430B600C37BD465DF8047B704700BF38
:1097E00080B483B000AF786039607B6803F596730E
:1097F00019467B6803F596731A683B6813400B6043
:109800000C37BD465DF8047B704700BF80B483B061
:1098100000AF78607B6803F588731A467B6803F5B0
:1098200088731B6843F00203136000BF7B6803F575
:109830008A731B6803F00103002BF7D00C37BD4679
:109840005DF8047B704700BF80B487B000AFF8605C
:10985000B9607A603B60FB6803F594731B687B61B9
:109860007B6923F005037B617B6A1A0E3B68134317
:10987000DBB27A6913437B61FB6803F594731A4684
:109880007B6913603B68002B03D14FF480337B610D
:1098900002E04FF4C0237B617A69184B134043F018
:1098A00000537B61BA687B68B2FBF3F3013B3B6119
:1098B0003B6903F00F039B007A6913437B61FB68EC
:1098C00003F59A731A463B6903F47F631B01136027
:1098D0007A693B6A1A437B6A23F07F4323F4770358
:1098E00013437B61FB6803F596731A467B6913602B
:1098F0001C37BD465DF8047B704700BF3CF0F7DFC6
:1099000080B483B000AF786039607B6803F59673EC
:1099100019467B6803F596731A683B6813430B601E
:109920000C37BD465DF8047B704700BF80B483B040
:1099300000AF786039607B6803F5967319467B68E1
:1099400003F596731A683B68DB4313400B600C37D2
:10995000BD465DF8047B704780B487B000AFF86007
:10996000B9607A60FB6803F5BE731B687B617B6935
:109970001B0C1B047A68013A1102BA68013A0A43C7
:1099800013437B61FB6803F5BE731A467B69136062
:109990001C37BD465DF8047B704700BF80B485B0BE
:1099A00000AF786039607B6803F5BE731B68FB60AD
:1099B0007B6803F5BE731946FB689AB23B681B04CB
:1099C00013430B601437BD465DF8047B704700BF3E
:1099D00080B584B000AF78607868FFF773FE034607
:1099E000FB60F868FFF75AFBF868FFF7B1FA103729
:1099F000BD4680BD80B584B000AF786039603B68FB
:109A000003F00053002B07D07868FFF787FE03466A
:109A1000FB60104AFB6813603B6803F08053002B27
:109A200008D07868FFF77AFE03465B10FB60094AAE
:109A3000FB6813607B6803F58E7318467B6803F53B
:109A40008E731A683968044B0B4013430360103758
:109A5000BD4680BD946002440F00030080B584B011
:109A600000AF786039603B6803F00053002B07D0EB
:109A70007868FFF753FE0346FB600E4AFB681360ED
:109A80003B6803F08053002B08D07868FFF746FE50
:109A900003465B10FB60074AFB6813607B6803F5B5
:109AA0008C7319463A68044B13400B601037BD465F
:109AB00080BD00BF9C6002440F00030080B483B0EF
:109AC00000AF78607B6803F596731A467B6803F5F0
:109AD00096731B6843F4801313600C37BD465DF822
