:020000042000DA
:1040000044C90020F54B00204D4C0020554C0020A9
:10401000654C00205D4C0020654C00200000000035
:10402000000000000000000000000000654C0020BF
:10403000654C002000000000654C0020654C00200D
:10404000654C0020654C0020654C0020654C00202C
:1040500000000000654C0020654C002000000000BE
:10406000654C00200000000000000000000000007F
:104070000000000000000000654C0020654C00209E
:10408000654C0020654C0020654C0020654C0020EC
:10409000654C0020654C0020654C0020654C0020DC
:1040A000654C00200000000000000000000000003F
:1040B00000000000654C002000000000000000002F
:1040C000000000000000000000000000654C00201F
:1040D000654C00200000000000000000000000000F
:1040E00000000000000000000000000000000000D0
:1040F0000000000000000000654C0020654C00201E
:1041000000000000000000000000000000000000AF
:10411000000000000000000000000000000000009F
:10412000000000000000000000000000000000008F
:10413000000000000000000000000000000000007F
:10414000000000000000000000000000000000006F
:10415000000000000000000000000000000000005F
:10416000000000000000000000000000000000004F
:10417000000000000000000000000000000000003F
:10418000000000000000000000000000000000002F
:10419000000000000000000000000000000000001F
:1041A000000000000000000000000000000000000F
:1041B00000000000000000000000000000000000FF
:1041C00000000000000000000000000000000000EF
:1041D00000000000000000000000000000000000DF
:1041E00000000000000000000000000000000000CF
:1041F00000000000000000000000000000000000BF
:1042000000000000000000000000000000000000AE
:10421000000000000000000000000000000000009E
:10422000000000000000000000000000000000008E
:10423000000000000000000000000000000000007E
:10424000000000000000000000000000000000006E
:10425000000000000000000000000000000000005E
:10426000000000000000000000000000000000004E
:10427000000000000000000000000000000000003E
:10428000000000000000000000000000000000002E
:10429000654C00200000000000000000654C00207C
:1042A00000000000654C002000000000000000003D
:1042B000000000000000000000000000654C00202D
:1042C00000000000654C002000000000654C00204C
:1042D00000000000000000000000000000000000DE
:1042E000000000000000000000000000654C0020FD
:1042F000654C00200000000000000000654C00201C
:10430000654C0020654C002000000000000000000B
:10431000000000000000000000000000000000009D
:10432000000000000000000000000000000000008D
:10433000000000000000000000000000000000007D
:10434000000000000000000000000000000000006D
:10435000000000000000000000000000000000005D
:10436000000000000000000000000000000000004D
:10437000000000000000000000000000000000003D
:10438000000000000000000000000000000000002D
:10439000000000000000000000000000000000001D
:1043A000000000000000000000000000000000000D
:1043B00000000000000000000000000000000000FD
:1043C00000000000000000000000000000000000ED
:1043D00000000000000000000000000000000000DD
:1043E00000000000000000000000000000000000CD
:1043F00000000000000000000000000000000000BD
:1044000080B582B000AF1C48012101F001F878604E
:104410007B6803F00803002B06D01748082101F041
:1044200059F8164B01221A707B6803F00403002B25
:1044300006D01148042101F04DF8114B01221A70E9
:104440007B6803F00203002B06D00B48022101F029
:1044500041F80C4B01221A707B6803F00103002B1A
:1044600006D00548012101F035F8074B01221A70EA
:104470000837BD4680BD00BF0050034482C90020FC
:1044800083C9002081C9002080C9002080B584B084
:1044900000AFF860B9607A603B60122000F0AAFEBD
:1044A000174B00221A70174B00221A7016480F2162
:1044B00000F0E2FF00BF124B1B78DBB283F0010378
:1044C000DBB2002BF7D11048F96801F057F80F4B19
:1044D0001B68002B0AD00C48B96801F097F90A480C
:1044E0007968BA693B6801F065F905E006487968C2
:1044F000BA693B6801F032F91037BD4680BD00BF94
:1045000082C9002081C90020005003447CC90020DA
:1045100080B582B000AF7860094800F04BFC0948D4
:1045200000F048FC0848796800F044FC054800F0B9
:1045300041FC034800F03EFC0837BD4680BD00BF8B
:104540005CA8002064A800209CA8002080B500AFD3
:10455000054B184600F084FC00F07AFC0F2000F0B8
:10456000A3FC00F08DFE80BD0040002090B58BB014
:1045700002AFFFF7EBFF00F05DF800F0A1FB25486C
:10458000FFF7C6FF1220012100F08EFD22482349CB
:1045900000F0D4FF07F1140007F1100107F1080241
:1045A00007F10C043B1D0093234600F0B5FAB861F7
:1045B000BB69002B00D12CE0194800F0FBFB7969A6
:1045C000BA687C68FB68009308461146BA692346BE
:1045D000FFF75CFF134800F0EDFB7B681B78124887
:1045E000194600F0E7FB0023FB610AE07A68FB69EB
:1045F00013441B780D48194600F0DCFBFB690133BE
:10460000FB613B699A08FB699A42EFD8084800F0C1
:10461000D1FBBFE7C4A800200050034401440020A0
:10462000D8A80020F4A8002010A9002034A9002058
:104630003CA9002080B500AF0C20012100F034FD22
:104640003620032100F000FD3820032100F0FCFC9F
:1046500080BD00BF80B500AF40200A4900F04CF893
:104660000246094B1A604020084900F045F802460E
:10467000074B1A604020074900F03EF80246064BFF
:104680001A6080BD40A9002084C9002084A90020B0
:104690000CCA0020C8A9002088C9002080B500AF3E
:1046A0000D4800F087FB0D4800F084FB0C4800F03B
:1046B00081FB0C4800F07EFB0B4800F07BFB0B48B5
:1046C00000F078FB0A4800F075FB0A4800F072FB26
:1046D000044800F06FFB80BD0CAA002020AA002037
:1046E00034AA002064AA002068AA002078AA00202A
:1046F00088AA002004AB002080B584B000AF7860A9
:1047000039607B68184601F03BFC0346FB60F868A3
:10471000396802F0A5FBFB6818461037BD4680BD1E
:1047200080B584B000AF7860404B1B68002B77D019
:104730003F4800F03FFB3F4801F01CF90346FB7384
:10474000FB7B3C48194601F029F93B4800F032FB5D
:1047500097F90F30792B03D097F90F30592B3FD1B0
:10476000364B1968364B1A68364B1B68364800F0D2
:1047700021FB304801F0FEF80346FB73FB7B2D481C
:10478000194601F00BF92C4800F014FB97F90F3093
:10479000312B07D1294B1B682C481946402201F0C8
:1047A0008DFE1CE097F90F30322B07D1244B1B688C
:1047B00026481946402201F081FE10E097F90F309B
:1047C000332B07D11F4B1B6820481946402201F0AC
:1047D00075FE04E01E4800F0EDFA002321E01FE022
:1047E00097F90F306E2B03D097F90F304E2B12D163
:1047F000184800F0DFFA78684FF4027100F090FA80
:104800000346BB60BB68402B04D0134800F0D2FACB
:10481000002306E004E0114800F0CCFA002300E099
:10482000012318461037BD4680BD00BF7CC900205B
:1048300058AB002000C0004064AA002084C90020BA
:104840000CCA002088C9002090AB00208CC9002031
:10485000DCAB0020ECAB002000AC002024AC00203E
:1048600080B586B000AF78603960134800F0A2FAD6
:1048700078684FF4027100F053FA03467B617B695C
:104880003B613B683A691A603B681B68184601F057
:1048900077FB0346FB603B681B68F86800211A46FB
:1048A00001F00AFFF86879687A6901F007FEFB6891
:1048B00018461837BD4680BD38AC002080B586B09C
:1048C00000AFF860B9607A60F8687E4902F054FB86
:1048D00078617B69002B00F0EC8078697A4902F0FE
:1048E00053F90346002B40F0E4800020754902F0A4
:1048F00043FB78617B69002B17D07869734902F01C
:1049000043F90346002B06D07869714902F03CF95F
:104910000346002B09D1BB6818221A607B6810225D
:104920001A606C4B00221A60C1E07B69002B17D023
:104930007869694902F028F90346002B06D07869A6
:10494000664902F021F90346002B09D1BB681A22FF
:104950001A607B6814221A605E4B00221A60A6E07F
:104960007B69002B17D078695D4902F00DF9034689
:10497000002B06D078695B4902F006F90346002B4C
:1049800009D1BB681C221A607B681C221A60514B3B
:1049900000221A608BE07B69002B17D0786952499E
:1049A00002F0F2F80346002B06D078694F4902F076
:1049B000EBF80346002B09D1BB681E221A607B6806
:1049C00020221A60434B00221A6070E07B69002BA2
:1049D00017D07869464902F0D7F80346002B06D075
:1049E0007869444902F0D0F80346002B09D1BB682E
:1049F00000221A607B6810221A60364B01221A606E
:104A000055E07B69002B17D078693B4902F0BCF870
:104A10000346002B06D07869384902F0B5F8034602
:104A2000002B09D1BB6802221A607B6814221A602D
:104A3000284B01221A603AE07B69002B17D0786975
:104A40002F4902F0A1F80346002B06D078692D49C2
:104A500002F09AF80346002B09D1BB6804221A60C1
:104A60007B681C221A601B4B01221A601FE07B69C5
:104A7000002B17D07869244902F086F80346002BF2
:104A800006D07869214902F07FF80346002B09D14E
:104A9000BB6806221A607B6820221A600D4B012237
:104AA0001A6004E01A4800F085F9002305E00123AC
:104AB00003E0184800F07EF9002318461837BD4679
:104AC00080BD00BF50AC002054AC00205CAC002086
:104AD00060AC00207CC9002064AC00206CAC0020DD
:104AE00074AC00207CAC002084AC00208CAC002096
:104AF00094AC0020A0AC0020ACAC0020B8AC0020EE
:104B0000C4AC0020D0AC0020DCAC0020E8AC00201D
:104B1000F4AC00200CAD002090B5ADF50B7D00AFDE
:104B200007F10C04206007F108000160391D0A60DC
:104B30003A4613602A4BC7F824323B1D1B68284AAB
:104B40001A60284BC7F82032FFF784FDFFF7A6FD57
:104B5000254800F02FF907F1140318464FF40271AD
:104B600000F0DEF807F1140107F10C0207F1080369
:104B7000084611681A68FFF7A1FE0346002B26D0ED
:104B8000D7F82402FFF7CCFD0346002B1AD03B4692
:104B9000D7F820021968FFF763FEC7F81C0240200F
:104BA00001F0EEF903461A46D7F838321A60D7F802
:104BB00038321B6818460021402201F07DFDD7F8ED
:104BC0001C3208E0094800F0F5F8002303E008482B
:104BD00000F0F0F80023184607F50B77BD4690BDAE
:104BE0008CC90020CCC9002024AD00202CAD0020B1
:104BF00040AD002080B582B000AF0F4B7B600F4B03
:104C00003B6007E03B681A1D3A607A68111D7960C5
:104C100012681A603B680A4A9342F3D309480A496A
:104C20004FF000028842B8BF40F8042BFADBFFF7D0
:104C30009DFC0837BD4680BDC8B00020C8B000202C
:104C400040B9002040B9002014CA002080B400AF51
:104C5000FEE700BF80B400AFFEE700BF80B400AF46
:104C6000FEE700BF80B400AFFEE700BF80B485B0B0
:104C700000AF78600F4B1B68002B02D10D4B0E4A22
:104C80001A600C4B1B68FB600A4B1A687B68134464
:104C90000A4A934201D9002306E0064B1A687B6852
:104CA0001344044A1360FB6818461437BD465DF888
:104CB000047B704740B9002014CA002018CA0120A4
:104CC00080B500AF0C2000F03FFA034605481946B6
:104CD0004FF4E132602300F0BFFD034B00221A6065
:104CE00080BD00BF00C0004044C9002080B582B034
:104CF00000AF78607B68002B0CD007E07B685A1C03
:104D00007A601B780548194600F048FE7B681B78DE
:104D1000002BF3D10837BD4680BD00BF00C0004066
:104D200080B584B000AF786039600023BB60204854
:104D300000F020FE0346FB73FB7B1D48194600F084
:104D40002DFE0023BB6022E0BA683B689A4202D382
:104D50004FF0FF3327E0FB7B082B08D0BB687A6855
:104D60001344FA7B1A70BB680133BB6005E0BB6873
:104D7000002B02D0BB68013BBB600D4800F0FAFD80
:104D80000346FB73FB7B0A48194600F007FEFB7BDA
:104D90000D2B02D0FB7B0A2BD6D1BB687A6813445B
:104DA00000221A70BB6818461037BD4680BD00BF90
:104DB00000C000400FB480B586B000AF00237B6117
:104DC0004FF48073FB60FB68184601F0D9F8034686
:104DD0003B613B69002B02D14FF0FF332EE007F11E
:104DE00024037B60FB68386919463A6A7B6802F0E5
:104DF00037F978617B69002B03DB7A69FB689A429B
:104E000015DBFB685B00FB60FB683869194601F045
:104E1000A5FCB860BB68002B06D10C48FFF766FF05
:104E20004FF0FF337B6102E0BB683B61D7E7386935
:104E3000FFF75CFF386901F0ABF87B69184618375B
:104E4000BD46BDE8804004B0704700BF5CAD0020A7
:104E500080B500AF00F0BCFD0346DBB2184680BD54
:104E600080B483B000AF7860034A7B6813600C376E
:104E7000BD465DF8047B704708ED00E080B485B066
:104E800000AF78603960074B1B68FB607B689B0054
:104E9000FA6813443A681A601437BD465DF8047B1B
:104EA000704700BF08ED00E080B483B000AF7860C9
:104EB0007B68042B0AD1284A274B1B6843F48033B4
:104EC0001360BFF34F8FBFF36F8F3FE07B68052BFD
:104ED0000AD1214A204B1B6843F400331360BFF30F
:104EE0004F8FBFF36F8F31E07B68062B0AD11A4AD0
:104EF000194B1B6843F480231360BFF34F8FBFF33C
:104F00006F8F23E07B680F2B0AD1144A134B1B6869
:104F100043F002031360BFF34F8FBFF36F8F15E0B1
:104F20007B680F2B12D97B68103B5B090C4A52F847
:104F3000233019467B68103B03F01F03012202FA5D
:104F400003F30B60BFF34F8FBFF36F8F0C37BD467A
:104F50005DF8047B704700BF24ED00E010E000E046
:104F60007CAD002080B485B000AF786039607B688C
:104F700003F03F030B4A52F82330FB60FB689A00B2
:104F8000094B1344FB60FB68FA68126822F00F01BA
:104F90003A680A4322F440621A601437BD465DF84D
:104FA000047B704794AD0020A0E0024480B487B039
:104FB00000AFF860B9607A60FB6803F03F031F4AF6
:104FC00052F823307B617B68B3F1805F16D11C49B6
:104FD0001B4B1A687B69802000FA03F303F4F0533B
:104FE00013430B607B699A00164B13447B617B690A
:104FF0007A69126842F440621A601AE01049104B54
:105000001B687A69802000FA02F202F4F052D2435F
:1050100013400B607B699A000A4B13447B617B69E8
:105020007A69126822F47C71B8687A6802430A438C
:105030001A601C37BD465DF8047B704794AD0020B4
:1050400044E10244A0E0024480B582B000AF786041
:10505000396078683968FFF785FF78682021002279
:10506000FFF7A4FF0837BD4680BD00BF80B582B002
:1050700000AF0B4B1B68DBB27B607B68002B09D158
:10508000084800F0A5F9034603F00103002B01D006
:1050900007237B607B6818460837BD4680BD00BF8C
:1050A0000CD0024468FC024480B483B000AF786046
:1050B00039607B68FF2B14D0104A7B6852F833307C
:1050C00003F1884303F5143319460C4A7B6852F800
:1050D000333003F1884303F514331A683B681343F4
:1050E0000B607B68002B03D1054B40F204421A6031
:1050F0000C37BD465DF8047B704700BF94AE0020BE
:105100000050024480B483B000AF786039600D4A2B
:105110007B6852F8333003F1884303F514331946A2
:10512000084A7B6852F8333003F1884303F514339F
:105130001A683B68DB4313400B600C37BD465DF8D3
:10514000047B704794AE002080B487B000AF7860D5
:105150007B68132B0CBF01230023DAB27B68042B7E
:105160000CBF01230023DBB21343DBB21A467B687A
:10517000032B0CBF01230023DBB21343002B01D010
:10518000174B26E07B68002B0AD1164B1B681B0AC5
:1051900003F007037B61134B1B68DBB23B610FE03D
:1051A0007B68022B0AD1104B1B681B0A03F0070314
:1051B0007B610D4B1B68DBB23B6101E00B4B08E0F0
:1051C0007A693B6913440233094AB2FBF3F3FB608B
:1051D000FB6818461C37BD465DF8047B704700BF6E
:1051E000005A6202005002442050024400B4C40439
:1051F000001C4E0E80B485B000AF78607B68122B27
:1052000036D01E4A7B68DB0013445B6803F1884399
:1052100003F514331946194A7B68DB0013445B68B5
:1052200003F1884303F514331B6843F001030B605B
:105230000023FB6002E0FB680133FB60FB680F2B7F
:10524000F9D90E4A7B68DB0013445B6803F188439D
:1052500003F514331946094A7B68DB0013445B6885
:1052600003F1884303F514331B6823F001030B603B
:105270001437BD465DF8047B704700BF94AE002034
:1052800080B582B000AF444A434B1B6843F400032F
:105290001360424800F09CF878607B6843F010038C
:1052A0003E48194600F0A4F83D4A3D4B1B6843F0C8
:1052B0003C03136005200121FFF7F6FE0520FFF7F0
:1052C00099FF05200121FFF71DFFFFF7CFFE0346E1
:1052D000002B03D13348012100F08AF8324B1B68C0
:1052E000DBB2022B13D1314A304B1B6823F44063ED
:1052F00023F00F0343F0020313602D4A2B4B1B686E
:1053000023F4406323F00F0343F002031360294AA0
:10531000284B1B6843F002031360274B1B6803F004
:105320000F03012B05D1244A234B1B6823F00F03E5
:105330001360224B1B6803F00F03012B05D11F4A9A
:105340001E4B1B6823F00F0313601D4B1B689B0D46
:1053500003F00F030E2B08D11A4A1A4B1B6823F4D3
:105360007C0343F44803136007E0164A154B1B689F
:1053700023F47C0343F424031360134A124B1B6889
:1053800023F080531360114A104B1B6843F0040351
:1053900013600837BD4680BD64F0024418FC024427
:1053A0006CE1024404F80244C8F0024410E10244F3
:1053B00014E1024484E10244A4E00244A8E002446F
:1053C00078DC0244B0F0024474FC0244A8F00244C9
:1053D00080B584B000AF78607B681B68FB6041F2E9
:1053E000D54000F0F1FAFB6818461037BD4680BD85
:1053F00080B582B000AF786039607B683A681A6027
:1054000041F2D54000F0E0FA0837BD4680BD00BF4C
:1054100080B485B000AF78600B46FB70FB78002B42
:1054200013D0134B1B68FB607B6803F58E731B68FE
:10543000BB607B6803F58C731A68BB681A40FB6815
:1054400003F007031B0413430BE00A4B1B68FB60CC
:105450007B6803F58C731A68FB6803F007031B0471
:10546000134318461437BD465DF8047B704700BFF0
:10547000180803441408034480B483B000AF786074
:1054800039601349124B1A683B6803F4E0231B0C84
:10549000DB4313400B607B6803F58E7319467B6812
:1054A00003F58E731A683B689BB213430B607B68ED
:1054B00003F588731A467B6803F588731B6843F00D
:1054C000040313600C37BD465DF8047B704700BFD2
:1054D0001008034480B483B000AF78603960164987
:1054E000154B1A683B6803F4E0231B0C13430B6055
:1054F0007B6803F58E7319467B6803F58E731A6813
:105500003B689BB2DB4313400B607B6803F58E73F3
:105510001B68002B0AD17B6803F588731A467B68E9
:1055200003F588731B6823F0040313600C37BD4632
:105530005DF8047B704700BF1008034480B582B05B
:1055400000AF78603960A4203968FFF797FCA42089
:10555000FFF7AAFC0837BD4680BD00BF80B483B00A
:1055600000AF786039607B6848331A463B68136047
:105570000C37BD465DF8047B704700BF80B483B034
:1055800000AF786039607B6844331A463B6813602B
:105590000C37BD465DF8047B704700BF80B485B012
:1055A00000AF7860396000BF7B6803F58C731B68BF
:1055B00003F00203002BF7D00023FB730CE0FA7B0F
:1055C0007B68134480331946FB7B3A6813441B689D
:1055D0000B60FB7B0433FB73FB7B3F2BEFD9143752
:1055E000BD465DF8047B704780B485B000AF78603D
:1055F00039607B6844331B6803F00603062B31D8FF
:1056000001A252F823F000BF255600206556002065
:105610002B5600206556002031560020655600208C
:10562000375600201023BB6008E01423BB6005E060
:105630001C23BB6002E02023BB6000BF0023FB6093
:105640000BE03A68FB6813447968FA680A44203230
:1056500012681A60FB680433FB60FA68BB689A4200
:10566000EFD300E000BF1437BD465DF8047B704700
:1056700080B58AB000AFF860B9607A6000237B61C2
:105680007B689B09FB6100237B6209E0F868B968CD
:10569000FFF784FFBB684033BB607B6A01337B62EA
:1056A0007A6AFB699A42F1D37B6803F03F03FB619E
:1056B000FB69002B4FD000BFFB6803F58C731B68A0
:1056C00003F00203002BF7D0FB699B08FB6100236A
:1056D0007B620EE07B6A9A00FB68134480331A46B3
:1056E000BB681B681360BB680433BB607B6A013313
:1056F0007B627A6AFB699A42ECD37B6803F003030E
:10570000FB6107F11403BB61FB69002B23D000236D
:105710003B627B6A002B05D07B6A03F18043013B2F
:105720009B003B6200237B620AE0BA697B6A1344F8
:10573000B9687A6A0A4412781A707B6A01337B620C
:105740007A6AFB699A42F0D3FA683B6A1344803361
:105750001A467B6913602837BD4680BD80B584B08A
:1057600000AFF860B9607A603B6000BFFB6803F58A
:105770008C731B6803F00803002BF7D0F868796876
:10578000FFF7ECFEF868B9687A68FFF771FF00BFB1
:10579000FB6803F58C731B6803F00103002BF7D043
:1057A000F8683968FFF720FF012318461037BD4617
:1057B00080BD00BF80B584B000AFF860B9607A608A
:1057C0003B6000BFFB6803F58C731B6803F00803A4
:1057D000002BF7D0F8687968FFF7C0FEF868B96861
:1057E0007A68FFF745FF00BFFB6803F58C731B6801
:1057F00003F00103002BF7D0F8683968FFF7F4FED7
:10580000012318461037BD4680BD00BF80B485B067
:1058100000AF786039600023FB600BE07A68FB68BA
:10582000134419463A68FB6813441B680B60FB6815
:105830000433FB60FB683F2BF0D97B6844331A4686
:105840007B6844331B6843F0B00313601437BD46D4
:105850005DF8047B704700BF80B586B000AFF8608C
:10586000B9607A603B60F86800F05EF87B681A0106
:10587000BB689A420CD9FB6830331A46FB68303358
:105880001B6843F0200313607B685B087B6008E0C3
:10589000FB6830331A46FB6830331B6823F0200363
:1058A0001360BB68DA007B68B2FBF3F301335B087B
:1058B0007B61FB6824331A467B699B091360FB6894
:1058C00028331A467B6903F03F031360FB682C33CF
:1058D0001A463B681360FB6818331A4600231360AE
:1058E000F86800F003F81837BD4680BD80B483B077
:1058F00000AF78607B682C331A467B682C331B68BA
:1059000043F0100313607B6830331A467B683033F2
:105910001B6843F4407343F0010313600C37BD462A
:105920005DF8047B704700BF80B483B000AF78603F
:1059300000BF7B6818331B6803F00803002BF8D105
:105940007B682C331A467B682C331B6823F01003CA
:1059500013607B6830331A467B6830331B6823F44E
:10596000407323F0010313600C37BD465DF8047BE0
:10597000704700BF80B483B000AF786000BF7B6821
:1059800018331B6803F01003002BF8D17B681B68E9
:1059900018460C37BD465DF8047B704780B483B071
:1059A00000AF78600B46FB7000BF7B6818331B6844
:1059B00003F02003002BF8D17B68FA781A600C37CB
:1059C000BD465DF8047B704701387FF4FDAF70473A
:1059D000EFF3108062B6BFF34F8FBFF36F8F704746
:1059E0001C462346184600BF4BB942B9002908BFE0
:1059F000002802D04FF0FF31084600F03BB882B0DB
:105A0000EC462DE9005000F01DF8DDF804E002B08E
:105A10000CBC70472DE9F041069C154606460F4622
:105A2000984600F029F805FB01F300FB0838A5FBB8
:105A30000023B21A434467EB0303C4E90023BDE823
:105A4000F08100BF2DE9F041069C904606460F46C6
:105A50001D4600F05FF900FB05F5A0FB082308FBDD
:105A60000155B21A2B4467EB0303C4E90023BDE8D8
:105A7000F08100BF704700BF00292DE9F043C0F25C
:105A8000A6800026002BC0F29C80884694469E4645
:105A9000154604460F46002B3DD18A4259D9B2FA29
:105AA00082F33BB1C3F120029F4020FA02F29D40F5
:105AB00017439C40290C220CB7FBF1FEA8B201FB56
:105AC0001E7742EA074700FB0EF3BB420AD97F1953
:105AD0000EF1FF3280F00581BB4240F20281AEF14F
:105AE000020E2F44FF1AA4B2B7FBF1F301FB1377A8
:105AF00044EA074700FB03F0B84208D97F1903F1D5
:105B0000FF3280F0F080B84240F2ED80023B43EA81
:105B10000E43002203E08B420FD900221346341CAF
:105B200018BF012460424FF0000565EB4501584065
:105B3000514000196941BDE8F083B3FA83F2002AAD
:105B400040F086808B4202D3844500F2DB80012343
:105B5000E5E712B90123B3FBF2F5B5FA85F00028A9
:105B60003BD1781B4FEA154E1FFA85FC0122B0FB92
:105B7000FEF8210C0EFB180741EA07470CFB08F35F
:105B8000BB4207D97F1908F1FF3102D2BB4200F2B4
:105B9000BD808846FF1AA4B2B7FBFEF30EFB137755
:105BA00044EA07470CFB03FCBC4507D97F1903F106
:105BB000FF3102D2BC4500F2A7800B4643EA0843FE
:105BC000ADE752426FEA060663EB43035DE74042EE
:105BD00061EB41014FF0FF3654E7C0F1200224FA97
:105BE00002F107FA00F385404FEA154ED7401943FA
:105BF000B7FBFEF20B0C0EFB12771FFA85FC43EA93
:105C000007430CFB02F79F4204FA00F407D95B1923
:105C100002F1FF3074D29F4272D9023A2B44DF1B4B
:105C200089B2B7FBFEF80EFB187341EA03430CFB85
:105C300008F79F4208D95B1908F1FF315CD29F42F7
:105C40005AD9A8F102082B44D81B48EA02428EE731
:105C5000C2F120032CFA03F10EFA02FE20FA03F738
:105C600041EA0E0E08FA02F028FA03F14FEA1E4547
:105C70003843B1FBF5F8030C05FB18111FFA8EF73A
:105C800043EA014107FB08F38B420CFA02FC09D9F5
:105C900011EB0E0108F1FF3930D28B422ED9A8F159
:105CA00002087144C91A80B2B1FBF5F305FB131168
:105CB00040EA014107FB03F78F4208D911EB0E01BF
:105CC00003F1FF3016D28F4214D9023B714443EAEC
:105CD0000843C91BA3FB0C89494509D305D0002201
:105CE0001DE79646FEE6134611E794404445F6D27A
:105CF000013BF4E70346EAE78846A5E7C846D1E753
:105D000002468CE713460AE7023B57E7A8F1020870
:105D10002F443FE72DE9F041002B44D18A4215463C
:105D200004464FD9B2FA82F70E464FB1C7F12003AD
:105D3000B94020FA03F602FA07F50E4300FA07F419
:105D40004FEA154E230CB6FBFEF0AFB20EFB10610E
:105D500043EA014307FB00F1994209D95B1900F1BD
:105D6000FF3280F0EC80994240F2E98002382B4407
:105D70005A1AA4B2B2FBFEF30EFB132244EA02420B
:105D800007FB03F7974208D9521903F1FF3180F05E
:105D9000D880974240F2D580023B43EA004000267B
:105DA0003146BDE8F0818B4247D8B3FA83F6002E26
:105DB00048D18B4202D3824200F2CD80012031468D
:105DC000BDE8F08112B90125B5FBF2F5B5FA85F809
:105DD000B8F1000F77D14A1B4FEA154EAFB201263A
:105DE000B2FBFEF0230C0EFB102143EA014107FB3E
:105DF00000F38B4207D9491900F1FF3202D28B42DE
:105E000000F2BA801046C91AA4B2B1FBFEF30EFB31
:105E1000131144EA014407FB03F7A74208D96419A8
:105E200003F1FF3280F08F80A74240F28C80023B6A
:105E300043EA00403146BDE8F08100263046314655
:105E4000BDE8F081C6F1200422FA04F5B3402B43EB
:105E500020FA04FC01FA06F721FA04F54FEA134E82
:105E60004CEA0707B5FBFEF8390C0EFB18551FFA74
:105E700083FC41EA05450CFB08F1A94202FA06F24F
:105E800004D9ED1808F1FF3467D3A0466D1ABFB2EC
:105E9000B5FBFEF40EFB145547EA05410CFB04FC70
:105EA0008C4504D9C91804F1FF355CD32C4644EA6B
:105EB0000844CCEB0101A4FB0223994248D344D00F
:105EC000204600266CE7C8F1200401FA08F305FA21
:105ED00008F520FA04F7E1404FEA154E1F43B1FBE5
:105EE000FEF63A0C0EFB16111FFA85FC42EA01433E
:105EF0000CFB06F29A4200FA08F407D95B1906F186
:105F0000FF3137D29A4235D9023E2B449B1ABFB299
:105F1000B3FBFEF00EFB103347EA03430CFB00F12A
:105F2000994207D95B1900F1FF3221D299421FD95A
:105F300002382B445A1A40EA0646674650E7104694
:105F400016E70B4629E7134672E7B0409042B7D2F6
:105F5000601E002624E7304622E7A94295D9A8F121
:105F600002081D4492E78C45A0D9023C19449EE7E3
:105F70001046DFE70E46C9E70238294443E700BF71
:105F8000024B0146186800F00BB800BFF0B40020C7
:105F9000024B0146186801F0C1B800BFF0B4002000
:105FA0002DE9F04F01F10B05162D83B0064627D9D8
:105FB00035F0070500F1B680A94200F2B38000F089
:105FC000C9FBB5F5FC7F22D2C24FE80807EBC0033E
:105FD000DC689C4200F0C9816368E168A56823F031
:105FE0000303234430465A68E96042F001028D60A1
:105FF0005A6000F0B1FB0834204603B0BDE8F08FD2
:10600000102900F28F8000F0A5FB1025DCE7680A5C
:1060100000F08F80042800F25481A8093830410034
:10602000AC4F07EB8101CC68A14206D10CE0002AFD
:1060300080F28280E468A14206D0636823F0030303
:106040005A1B0F2AF3DD01380130A2493C6901F1E6
:10605000080E744500F07E81636823F003035A1B29
:106060000F2A00F36481002AC1F814E0C1F810E09F
:1060700073DAB3F5007F80F03981DB0801EBC308E8
:106080004FEAA30C4A68D8F80890C4F80890012396
:1060900003FA0CF31343C4F80C804B60C8F80840B3
:1060A000C9F80C408210012494409C4262D82342DB
:1060B00006D120F003006400234200F10400FAD06E
:1060C00007EBC008C4468146DCF80C309C4507D17C
:1060D00042E1002980F25281DB689C4500F03C815E
:1060E0005A6822F00302511B0F29F2DD1C46D3F837
:1060F0000CC054F8088F5A1945F0010941F0010508
:10610000C3F804903046C8F80CC0CCF808807A6117
:106110003A61C2F80CE0C2F808E05560515000F056
:106120001BFB69E700240C232046336003B0BDE865
:10613000F08F7E213F2073E72344E1685A68A56809
:1061400042F00102E96030468D605A6000F004FBC5
:106150000834204603B0BDE8F08F234430465A6827
:1061600042F001025A6000F0F7FA0834204603B00A
:10617000BDE8F08FBC68636823F00308454504D888
:10618000C5EB08030F2B00F38C80534BDFF858A1AD
:106190001A68DAF8003001332A4404EB080B00F0E7
:1061A000508102F580520F3222F47F6222F00F02FA
:1061B00011463046019200F0CFFCB0F1FF3F81461E
:1061C000019A00F0F580834500F2EF80434B196897
:1061D000CB451144196000F03D81DAF80000DFF88A
:1061E00008E101301BBFCBEB090B5944CEF80090FE
:1061F000196019F0070100F00781C1F10800C1F52D
:106200008051814408314A44C2F30B02C2EB010AB7
:1062100051463046019300F09FFC431C019B00F067
:106220002781C9EB0002524442F001021968C7F805
:1062300008905144BC42C9F804201960DFF89CA0C2
:1062400016D0B8F10F0F40F2E2806268A8F10C039B
:1062500023F00703E01802F001024FF0050E1A4385
:106260000F2B6260C0F804E0C0F808E000F204817F
:106270001B4BBC681A68914288BF1960194B1A6899
:106280009142626888BF196022F003029542A2EB36
:10629000050301D80F2B04DC304600F05DFA002422
:1062A000AAE6621943F0010345F001056560304636
:1062B000BA60536000F050FA0834204603B0BDE8DD
:1062C000F08F142869D9542800F29780280B6E307B
:1062D0004100A5E6F4B4002050C9002054C90020B4
:1062E0004CC9002048C9002000B900205A0A042ADD
:1062F00056D9142A00F2A7805B324FEA420C07EB12
:106300008C0CDFF8B481DCF80810614500F0858062
:106310004A6822F00302934202D289688C45F7D181
:10632000CA687B68E260A1609460CC60BAE66319D9
:1063300042F0010745F00105656030464B610B6195
:10634000C3F80CE0C3F808E05F609A50083400F02E
:1063500003FA51E64B68A5E609F1010919F0030FAC
:106360000CF1080C7FF4B0AE2BE004F10803646973
:10637000A34208BF02303FF468AE2DE61A441C4623
:106380005168DB6854F8085F41F001015160304604
:10639000EB609D6000F0E0F92EE65B3041003FE6E7
:1063A0009A0938324FEA420CA9E7BC423FF40EAFDB
:1063B000BC68626822F0030268E7D8F8008098455C
:1063C00077D110F0030FA8F1080300F1FF30F4D1EA
:1063D0007B6823EA04037B6064009C423FF6CAAEFC
:1063E000002C3FF4C7AE234248467FF469AE6400F8
:1063F000234200F10400FAD062E6B0F5AA7F18D873
:10640000E80B773041000BE64FF48051FBE60123A7
:10641000C9F804304C46002238E7D8F8043092100E
:106420004FF0010C0CFA02F21343C8F804300A468C
:1064300078E740F25453984217D8A80C7C304100BA
:10644000EEE51032B4E6542A1ED81A0B6E324FEA2B
:10645000420C54E7CBF30B0000287FF4BEAE42445D
:10646000BB6842F001025A6002E7FC217E20D7E5BA
:1064700001224FF0000AD9E604F10801304600F08D
:106480004DFEDAF80010F3E6B2F5AA7F04D8DA0B75
:1064900077324FEA420C32E740F254518A4204D834
:1064A0009A0C7C324FEA420C29E74FF0FC0C7E221A
:1064B00025E77B6890E700BFF4B40020844641EAFA
:1064C000000313F003036DD1403A41D351F8043B6C
:1064D00040F8043B51F8043B40F8043B51F8043BBE
:1064E00040F8043B51F8043B40F8043B51F8043BAE
:1064F00040F8043B51F8043B40F8043B51F8043B9E
:1065000040F8043B51F8043B40F8043B51F8043B8D
:1065100040F8043B51F8043B40F8043B51F8043B7D
:1065200040F8043B51F8043B40F8043B51F8043B6D
:1065300040F8043B51F8043B40F8043B51F8043B5D
:1065400040F8043B51F8043B40F8043B403ABDD2CC
:10655000303211D351F8043B40F8043B51F8043B6E
:1065600040F8043B51F8043B40F8043B51F8043B2D
:1065700040F8043B103AEDD20C3205D351F8043BFD
:1065800040F8043B043AF9D2043208D0D2071CBFC9
:1065900011F8013B00F8013B01D30B8803806046F2
:1065A000704700BF082A13D38B078DD010F0030368
:1065B0008AD0C3F10403D21ADB071CBF11F8013BD8
:1065C00000F8013B80D331F8023B20F8023B7BE727
:1065D000043AD9D3013A11F8013B00F8013BF9D252
:1065E0000B7803704B7843708B78837060467047EC
:1065F0008842F0B50DD98B1898420AD28118002A2A
:1066000054D09A1A13F8014D01F8014D9342F9D173
:10661000F0BD0F2A48D940EA01039B0747D100F19A
:10662000100401F11003154653F8106C44F8106C77
:1066300053F80C6C44F80C6C53F8086C44F8086C74
:10664000103D53F8046C44F8046C0F2D03F1100353
:1066500004F11004E8D8A2F1100323F00F0302F0B4
:106660000F0E1033BEF1030F1944034421D91E1F2E
:106670000D467446043C55F8047B46F8047F032C11
:10668000F8D8AEF1040424F0030404342344214474
:1066900002F0030252B1013B0A4411F8014B03F826
:1066A000014F9142F9D1F0BD0346F3E7F0BD034637
:1066B000F1E77246EEE700BF70B4840746D0541E7F
:1066C000002A41D0CDB2034602E0621EE4B3144674
:1066D00003F8015B9A07F8D1032C2ED9CDB245EA15
:1066E00005250F2C45EA054519D903F11002264668
:1066F000103E0F2E42F8105C42F80C5C42F8085C29
:1067000042F8045C02F11002F2D8A4F1100222F067
:106710000F0204F00F041032032C13440DD91E464F
:106720002246043A032A46F8045BFAD8221F22F0D4
:1067300003020432134404F003042CB1C9B21C4414
:1067400003F8011BA342FBD170BC704714460346FB
:10675000C2E700BF704700BF704700BF024B0A4648
:106760000146186800F002B8F0B400202DE9F04F9F
:10677000174683B00E46002900F0E780814607F1F6
:106780000B05FFF7E7FF56F8043C162D23F0030432
:10679000A6F108084CD810221546AF424DD89442B5
:1067A00080F28480DFF8ACB3DBF8080008EB04016A
:1067B000884200F0D680486820F0010E8E44DEF852
:1067C00004E01EF0010F3FD120F00300204490426E
:1067D00080F2C180DB0700F18F8056F8083CC3EBE4
:1067E000080ADAF8043023F0030300EB030E9645A1
:1067F00034DBCB688A685746D3609A6057F8081F25
:10680000DAF80C30CB60221F242A996000F236811E
:10681000132A40F2FD803368CAF808307368CAF85A
:106820000C301B2A00F2408108360AF11003F0E018
:1068300025F00705002D2A46AFDA0C230020C9F801
:10684000003003B0BDE8F08FD90755D456F8083CA6
:10685000C3EB080ADAF8043023F00303234493421D
:106860004ADB5746DAF80C1057F8080F221F242A83
:10687000C160886000F20E81132A40F209813168FC
:10688000CAF808107168CAF80C101B2A00F221819E
:1068900008360AF110023168116071685160B16800
:1068A00091601C46DAF804303E46D046621B0F2A3F
:1068B00003F001030ED823434444C8F8043063684E
:1068C00043F0010363604846FFF746FF304603B0DC
:1068D000BDE8F08F08EB05011D4342F001030A44B7
:1068E000C8F804504B60536843F00103083153600B
:1068F000484600F013FCE6E739464846FFF750FBF0
:106900000746D8B156F8043C23F001024244A0F1F6
:106910000801914200F0AC80221F242A00F29980E5
:10692000132A6AD8034632461168196051685960C3
:1069300092689A603146484600F0F0FB4846FFF7FF
:106940000BFF384603B0BDE8F08F114603B0BDE839
:10695000F04FFFF725BBCA6889680446CA6091609A
:10696000A4E7416821F00301214405F110008142B0
:106970005BDADB07C0D456F8083CC3EB080ADAF848
:10698000043023F0030301EB030C60453FF766AFCF
:106990005746DAF80C3057F8081F221F242ACB601C
:1069A000996000F2B880132A40F2A9803368CAF8CF
:1069B00008307368CAF80C301B2A00F2B58008361C
:1069C0000AF1100332681A6072685A60B2689A60FD
:1069D0000AEB0502C5EB0C0343F00103CBF80820DA
:1069E0005360DAF8043003F001031D434846CAF847
:1069F0000450FFF7B1FE384669E7336803607368F7
:106A000043601B2A29D800F1080306F108028BE72E
:106A10003B4632681A6072685A60B2689A603E46B5
:106A20007446DAF80430D04640E708EB05024B1B09
:106A300043F00103CBF80820536056F8043C03F000
:106A400001031D43484646F8045CFFF785FE3046C7
:106A50003DE73146FFF7CCFD6CE7B3688360F36830
:106A6000C360242A2CD000F1100306F110025BE76A
:106A700050F8042C22F00302144417E7314638463C
:106A800074463E46FFF7B4FDD046DAF804300DE711
:106A90003A4600E7314638461C463E46FFF7A8FD19
:106AA000D046DAF8043001E7B368CAF81030F3686A
:106AB000CAF81430242A18D010360AF11803A8E7AF
:106AC000336903617369436106F1180200F1180329
:106AD0002AE7B168CAF81010F168CAF81410242A1D
:106AE0000FD010360AF11802D5E63369CAF818300B
:106AF0007369CAF81C3018360AF1200389E73B464F
:106B000060E73269CAF818207269CAF81C20183682
:106B10000AF12002BFE631463846CDF804C0FFF73F
:106B200067FDDDF804C053E7B368CAF81030F368B6
:106B3000CAF81430242A03D010360AF1180341E7AA
:106B40003369CAF818307369CAF81C3018360AF16C
:106B5000200337E7F4B4002038B5074C002305467E
:106B600008462360FEF782F8431C00D038BD236836
:106B7000002BFBD02B6038BD10CA002000000000A5
:106B8000A2EB0300704700BF02780B78012A28BFF0
:106B90009A42F5D16DE9044540EA0104CDE9026766
:106BA0006FF0000C4FEA447212B380EA010414F053
:106BB000070F6AD100F0070420F0070004F0030576
:106BC00021F007014FEAC505F0E8042314F0040F93
:106BD000F1E804670CFA05F462EA040266EA0406C6
:106BE0000AD063EA0403624667EA0407664603E0E4
:106BF000F0E80423F1E8046782FA4CF582EA06041F
:106C0000A4FA8CF46CBB83FA4CF583EA0705A5FA69
:106C10008CF595B950E9022351E9026782FA4CF5E7
:106C200082EA0604A4FA8CF483FA4CF583EA070599
:106C3000A5FA8CF52543DBD09CB92DBAB5FA85F4BD
:106C400024F0070427FA04F1DDE9026723FA04F3CC
:106C500003F0FF0001F0FF01FDE80445A0EB010097
:106C6000704724BAB4FA84F424F0070426FA04F135
:106C7000DDE9026722FA04F202F0FF0001F0FF01F1
:106C8000FDE80445A0EB0100704714F0030F3CD170
:106C900010F0030428D150F8082B51F8083B82FA71
:106CA0004CF582EA0305A5FA8CF55DB950F8042C81
:106CB00051F8043C82FA4CF582EA0305A5FA8CF5FA
:106CC000002DE8D02DBAB5FA85F424F0070423FA94
:106CD00004F122FA04F202F0FF0001F0FF01FDE8E6
:106CE0000445A0EB010070474FEAC40420F0030004
:106CF00050F8082B21F0030151F8083B0CFA04F47A
:106D000062EA040263EA0403C9E710F003041AD03C
:106D1000A1EB040120F00300E40750F8042B06D097
:106D20000FD28B785FFAA2F4E41A06D12BB1CB789C
:106D30005FFAB2F4E41A00D11BB920465DF8104B9B
:106D4000704701F1040150F8042BCC0721F0030136
:106D500051F8043B48D824D222F07F4482FA4CF503
:106D600094EA1325A5FA8CF50AD165B951F8043BCC
:106D700084EA0204B4EB036F0ED150F8042BEBE766
:106D80004FEA132355E035F07F454DD10878FDE8F3
:106D90000445C0F1000070474FEA126203F0FF03A0
:106DA00047E002EA1C4482FA4CF594EA1345A5FA3E
:106DB0008CF50AD165B951F8043B84EA0204B4EBBE
:106DC000034F0CD150F8042BEBE74FEA134330E0AC
:106DD00015EA1C4528D10B884FEA124229E04FEAF8
:106DE000124203EA1C4324E002F0FF0482FA4CF54D
:106DF00094EA1365A5FA8CF50AD165B951F8043BFC
:106E000084EA0204B4EB032F09D150F8042BEBE71A
:106E10004FEA13630DE015F0FF0F05D10B684FEA41
:106E2000122223F07F4304E04FF00000FDE8044508
:106E3000704712BA1BBA82FA4CF482EA0304A4FA2D
:106E40008CF5B5FA85F402FA04F203FA04F34FEA7A
:106E50001260FDE80445A0EB13607047AFF30080BB
:106E600080EA0102844612F0030F4FD111F0030FA4
:106E700032D14DF8044D11F0040F51F8043B0BD002
:106E8000A3F101329A4312F0803F04BF4CF8043B57
:106E900051F8043B16D100BF51F8044BA3F1013265
:106EA0009A4312F0803FA4F101320BD14CF8043B1D
:106EB000A24312F0803F04BF51F8043B4CF8044B4E
:106EC000EAD023460CF8013B13F0FF0F4FEA3323BF
:106ED000F8D15DF8044B704711F0010F06D011F89E
:106EE000012B0CF8012B002A08BF704711F0020F8C
:106EF000BFD031F8022B12F0FF0F16BF2CF8022B77
:106F00008CF8002012F47F4FB3D1704711F8012B99
:106F10000CF8012B002AF9D1704700BF20F00301C3
:106F200010F00300C0F1000051F8043B00F1040C24
:106F30004FEACC0C6FF000021CBF22FA0CF2134394
:106F40004FF0010C4CEA0C2C4CEA0C4CA3EB0C025D
:106F500022EA030212EACC1204BF51F8043B0430C7
:106F6000F4D0C2F1000102EA0102B2FA82F2C2F1E7
:106F70001F0200EBD2007047024B1A6801235C32FB
:106F800000F002B8F0B40020F0B420B307460D467C
:106F900017F8016B01E0A64216D015F8014B002C42
:106FA000F9D1EEB13E460C4616F8015B00E073B134
:106FB00014F8013BAB42FAD15DB100233B7016607F
:106FC00006463046F0BC704763B13846DEE73746C8
:106FD000E8E72E46F3E710680028D7D10646F0E729
:106FE0001660EEE7176006460370EAE770B5002A00
:106FF0009AB005462FDB14461A464FF402730091EF
:107000000491ADF80C3011D0013C4FF6FF76694683
:107010001E9B02940594ADF80E6000F057F9421CD7
:1070200016DB009B00221A701AB070BD1E9B0294E2
:107030004FF6FF7669460594ADF80E6000F046F90C
:10704000431C01DB1AB070BD8B232B601AB070BDDE
:107050008B232B60E5E78B2303604FF0FF30F1E7D4
:1070600030B583B0054C009324680D4613460146A5
:107070002A462046FFF7BAFF03B030BDF0B4002027
:10708000F8B5234F0C460646FFF764FBBB685D6806
:1070900025F00305291B01F6EF7121F47F6121F032
:1070A0000F01A1F58054B4F5805F07DB3046002165
:1070B000FFF752FDBB682B44984204D03046FFF7DF
:1070C0004BFB0020F8BD30466142FFF745FD013023
:1070D0000DD0104BBA6819682D1B45F001053046DC
:1070E000091B55601960FFF737FB0120F8BD3046DA
:1070F0000021FFF731FDBA68831A0F2BDEDD064C45
:107100000449246843F00103001B53600860D5E77D
:10711000F4B4002054C9002000B9002000294ED04A
:107120002DE9F0410C468046FFF714FB54F8047C2F
:10713000624927F00102A4F10805AB188E6858686F
:107140009E4220F003005AD0FE0758600BD454F83A
:10715000087CED1B01F1080EAC6874453A4467D019
:10716000EF68E760BC601C186468E4070CD4544FF7
:107170009C68BC4202447CD0D868E06042F00103C5
:1071800084606B60AA5003E042F001036B60AA5078
:10719000B2F5007F14D2D20801EBC20348689F68A1
:1071A000AF609210012404FA02F21043EB604860D1
:1071B0009D60FD604046BDE8F041FFF7CDBA7047E5
:1071C000530A042B47D8930903F13804600001EBFC
:1071D00080003A498368834243D0596821F0030113
:1071E000914202D99B689842F7D1DA68EA60AB60B5
:1071F00040469560DD60BDE8F041FFF7ADBAFF079E
:10720000024407D454F8083CED1A1A44A868EB6805
:10721000C36098602B4B1B6842F001009A42686083
:107220008D60C7D3284B40461968FFF729FFC1E797
:1072300019184968C90709D4D9689B68024442F003
:107240000100D9608B606860AA50B3E742F0010387
:107250006B60AA50AEE7142B14D803F15B046000F6
:10726000B5E74A68A4100120A04002434A601A46CC
:10727000BCE742F001034D610D61EC60AC606B60F6
:10728000AA5097E7542B04D8130B03F16E04600047
:107290009DE7B3F5AA7F04D8D30B03F17704600010
:1072A00095E740F25450834204D8930C03F17C04D8
:1072B00060008CE7FC207E2489E700BFF4B4002046
:1072C000FCB40020FCB8002050C900202DE9F04F8C
:1072D000C1B089460A920E93089002F025FA03681D
:1072E00017931846FFF71AFEB9F80C3018901A06D3
:1072F00004D5D9F81030002B01F08C80002330AF7A
:10730000139325932493169319930B932397149314
:1073100015933C464E460A9D2B78002B00F0A98021
:10732000252B02D1A5E0252B03D015F8013F002B1A
:10733000F9D10A9BEB1A73B1249A25990A98206017
:1073400001321944072A63602591249272DC0834C3
:107350000B9A1A440B922B78002B00F0B587002370
:10736000691C6D788DF86F301A460C9307934FF0B7
:10737000FF3A4B1CA5F12001582900F2D983DFE820
:1073800011F07002D703D7037403D703D703D703D1
:10739000D703D703D703F0020D02D703F40111027C
:1073A000D7037B03BA02BA02BA02BA02BA02BA021D
:1073B000BA02BA02BA02D703D703D703D703D70357
:1073C000D703D703D703D703D703C9028B03D70348
:1073D0008B03D703D703D703D7036D03D703D70393
:1073E0000503D703D703D703D703D7032303D70353
:1073F000D7033D03D703D703D703D703D703D70357
:10740000D703D703D703D70358032C028B038B036F
:107410008B03FE022C02D703D703E602D7037E02BA
:10742000FB01C0037702D7039202D7037A00D70388
:10743000D7034A0208980793314623AA02F0E2FCD8
:1074400050B93C46079B83E70898314623AA02F0CF
:10745000D9FC002800F08581B146B9F80C3013F052
:10746000400F0B9B18BF4FF0FF33184641B0BDE8EB
:10747000F08F0A9D6FE70A93079B980640F1AD8253
:107480000E9B03F1070929F0070303F10802D3E972
:1074900000890E9201234FF0000C8DF86FC0CDF8DB
:1074A00044A0BAF1000F03DB079A22F08002079292
:1074B00058EA090240F04C83BAF1000F00F0518401
:1074C000012B00F04F83022B00F0908439464FEAE5
:1074D000D80242EA49724FEAD90008F00703814610
:1074E0009046303358EA090201F8013DEFD1079A7E
:1074F0001091D20700F144857B1A0D930D9A9245A5
:107500005346B8BF1346099300231293BCF1000FF2
:1075100002D0099B01330993079B13F002030F93D9
:1075200002D0099B02330993079B13F0840940F0B2
:107530000C830C9B099AC2EB0308B8F1000F40F3CF
:107540000483B8F1100F2599249ADFF844A529DDAA
:1075500053464FF0100BC246A8461D4606E0AAF15E
:10756000100ABAF1100F04F1080417DD01321031CE
:10757000072A2591249284E82008F0DD08983146F6
:1075800023AA02F03FFC00287FF466AFAAF1100A9C
:10759000BAF1100F2599249A3C46E7DC2B46454664
:1075A000D0469A46013208EB010B072ACDF894B079
:1075B0002492C4F800A0C4F8048000F37B849DF8F2
:1075C0006FC00834BCF1000F0FD0249B01330BF1C6
:1075D000010B0DF16F010122072BCDF894B024931C
:1075E00084E8060000F3DA8308340F9B73B1249B10
:1075F00001330BF1020B1CA90222072BCDF894B02A
:10760000249384E8060000F3D5830834B9F1800F91
:1076100000F01183119B0D9AC2EB030ABAF1000F1F
:107620003CDDBAF1100F249ADFF868942BDD49464F
:107630005B46A9464FF01008DDF820B00D4606E085
:10764000AAF1100ABAF1100F04F1080417DD013293
:107650001033072A2593249284E82001F0DD584650
:10766000314623AA02F0CEFB00287FF4F5AEAAF142
:10767000100ABAF1100F259B249A3C46E7DC9B4682
:107680002B464D4699460132D344072ACDF894B093
:10769000249284E8000600F375830834079BD9051B
:1076A00000F16C82249B0D99109A226001338B4467
:1076B000072BCDF894B06160249300F3468308341F
:1076C000079B5A0741D50C9B099A9D1A002D3CDD5A
:1076D000102D249BDFF8B8A323DD4FF010085A4685
:1076E000DDF8209004E0103D102D04F1080417DDB2
:1076F00001331032072B25922493C4F800A0C4F85C
:107700000480F0DD4846314623AA02F07BFB0028C6
:107710007FF4A2AE103D102D259A249B3C46E7DC59
:1077200093460133AB44072BCDF894B02493C4F8AF
:1077300000A0656009DD0898314623AA02F062FBCB
:1077400000287FF489AEDDF894B00B9B099A0C9960
:107750008A42ACBF9B185B180B93BBF1000F7FF400
:1077600073AE002324933C46D5E5194607981D784F
:1077700040F004000790FCE50A93079B13F02003F8
:1077800000F00E810E9B03F1070929F0070303F1B6
:107790000802D3E900890E9200237CE61D78194681
:1077A0002B22E6E51D782A2D03F1010100F0AD87BB
:1077B000A5F1300009280B464FF0000A3FF6DAAD7C
:1077C00013F8015B0AEB8A0A00EB4A0AA5F13000C4
:1077D0000928F5D94AEAEA7ACCE50A93079B8DF89D
:1077E0006F209B0640F1A1800E9B03F1070929F051
:1077F0000709D9E9002309F108010E91904699463D
:10780000002A73F10003C0F20B849DF86FC0CDF81D
:1078100044A0012345E60A939B4B1693079B8DF8E2
:107820006F209B0640F1F3800E9B03F1070929F0BE
:107830000703D3E9008903F108020E92079BD907D9
:1078400040F1F58058EA090300F0F180079A8DF8BD
:107850007150302342F002028DF8703007920223FB
:1078600019E61D781946002A7FF483AD202280E5B1
:10787000079941F0200107911D78194679E50A938F
:10788000079B8DF86F209A0640F1A1840B990E9A00
:107890004FEAE179136808468846043249460E9259
:1078A000C3E9000137E50E9A0A93136810934FF06D
:1078B000000B8DF86FB002F10409002B00F03B863D
:1078C000BAF1000F1098C0F2E9855946524601F00E
:1078D0002FFF002800F06C86109BCDF844B0C31A2F
:1078E0000D93CDF8389023EAE3730993CDF848B0AF
:1078F0009DF86FC00AE6A5F13000002113F8015B86
:1079000001EB810100EB4101A5F130000928F5D917
:107910000C912FE50A93079B8DF86F2043F010031D
:107920000793079B9B063FF55FAF079BD80600F1C7
:107930006883079B590640F164830E99B1F9008072
:1079400004314FEAE87942464B460E9158E71D78DC
:1079500007996C2D00F0CB8441F010010791194676
:1079600007E50E9D29680C9108460028294601F17B
:107970000401C0F2B5840E911D781946F9E4079907
:1079800041F0400107911D781946F2E40A93079BE4
:1079900043F010030793079B13F020037FF4F2AE2C
:1079A000079A12F0100240F01983079B13F040036E
:1079B00000F014830E9913460A460432B1F8008091
:1079C0000E924FF0000966E50A93079B43F01003FF
:1079D0000793079B98063FF553AD079BD90600F127
:1079E0000683079B5A0640F102830E9AB2F8008084
:1079F00004324FF0000901230E924CE50A93234B09
:107A00001693079B8DF86F209B063FF50DAF079BE4
:107A1000D80640F1CD830E9A13461B689846079B03
:107A20000432D9070E924FF000093FF50BAF022345
:107A300031E50E990A930A688DF8982000230122F7
:107A400004319C4609920E918DF86F3026ABCDF82B
:107A500044C0CDF848C00D9210935DE5079941F000
:107A6000080107911D78194683E4079941F0010147
:107A700007911D7819467CE4079941F08001079130
:107A80001D78194675E400BF74AF002060AF002078
:107A900040AF002094AF00200A930E9B8DF86F201A
:107AA00003F1070929F0070303F108020E921A688F
:107AB00014925B6815931599149802F077F90128D0
:107AC000D3461498159940F059830022002302F000
:107AD00075FE002840F064859DF86FC0079BBE4A84
:107AE000DFF800E323F0800307931346032100200F
:107AF000472DD8BF73460991119010930D911290A4
:107B000004E50E9807990A93302203688DF87020D7
:107B10000246782541F0020104329846AF4B169395
:107B200007910E924FF000098DF871500223B2E4D4
:107B30000A938DF86F20002D00F0C68300230122E8
:107B40009C4609928DF898507EE7DDF894B039E5AF
:107B5000012B7FF4B8ACB9F1000F08BFB8F10A0FE0
:107B600080F01C820DF5807B08F130080BF8418D08
:107B7000CBEB07030D93CDF840B0BFE4652D40F388
:107B8000A080149815990022002302F00DFE002811
:107B900000F04581249B924A226001330BF1010BD6
:107BA0000122072BCDF894B02493626000F3348354
:107BB00008341D9B139A934203DB079BDA077FF57A
:107BC0007FAD249B1899179A226001338B44072BB1
:107BD000CDF894B06160249300F390830834139B34
:107BE0005D1E002D7FF76CAD102D249BDFF8F89102
:107BF00040F3BA814FF010085A46DDF820A004E0A7
:107C00000834103D102D40F3AE8101331032072BA4
:107C100025922493C4F80090C4F80480F0DD504607
:107C2000314623AA02F0EEF800287FF415AC259A1D
:107C3000249B3C46E5E70C9B099AC2EB030ABAF188
:107C4000000F7FF7E7ACBAF1100F249ADFF8989194
:107C50002BDD49465B46A9464FF01008DDF820B001
:107C60000D4606E0AAF1100ABAF1100F04F108045B
:107C700017DD01321033072A2593249284E820016E
:107C8000F0DD5846314623AA02F0BCF800287FF404
:107C9000E3ABAAF1100ABAF1100F259B249A3C46D7
:107CA000E7DC9B462B464D4699460132D344072AD2
:107CB000CDF894B0249284E8000600F35282083490
:107CC000A8E4139B249D012B40F32082109B23608A
:107CD00001350BF101030122072D259324956260E4
:107CE00000F32682083418996160013503EB010B1B
:107CF000072D179BCDF894B02495236000F32482C0
:107D00000834002314981599002202F04DFD139BAE
:107D1000002840F0DE80109A013B013501329B447F
:107D2000072D2495CDF894B02260636000F30E8196
:107D30000834199A6260013593441FAB072DCDF8C2
:107D400094B0249523607FF7BAAC0898314623AAF3
:107D500002F058F800287FF47FABDDF894B03C4681
:107D6000AEE4002B32D1079BD8072FD50DF5807BD1
:107D700030230BF8413DCBEB07030D93CDF840B01A
:107D8000FFF7BCBB0898314623AA02F03BF8002855
:107D90007FF462ABDDF894B03C467FE4089831464E
:107DA00023AA02F02FF800287FF456ABDDF894B038
:107DB0003C461AE40898314623AA02F023F800282A
:107DC0007FF44AABDDF894B03C461FE4CDF834A014
:107DD0001097FFF793BB00BF54AF002074AF002093
:107DE00090AF002050AF002094AF00201698BB4603
:107DF0004FEA181308F00F0143EA09734FEA19120A
:107E000098469146435C0BF8013D58EA0903EFD1CF
:107E10005B46CDF840B0FB1A0D93FFF76FBB1D9D7D
:107E2000002D40F30582139A12998A421346A8BF87
:107E30000B461D461099002D01EB020A0BDD249B19
:107E400021600133AB44072BCDF894B065602493D7
:107E500000F34D830834129B002DA8BF5B1B002B41
:107E60001D4640F3F580102D249BDFF8F49540F378
:107E7000C6815A464FF01008DDF820B004E00834FF
:107E8000103D102D40F3BA8101331032072B25929B
:107E90002493C4F80090C4F80480F0DD58463146BD
:107EA00023AA01F0AFFF00287FF4D6AA259A249BCD
:107EB0003C46E5E70898314623AA01F0A3FF0028D5
:107EC0007FF4CAAA9DF86FC0DDF894B03C46FFF776
:107ED00079BB03F1FF38B8F1000F7FF72AAFB8F193
:107EE000100FDFF87C9525DD5B464FF0100ADDF8BA
:107EF00020B006E0A8F11008B8F1100F04F1080452
:107F000017DD01351033072D2593249584E80006ED
:107F1000F0DD5846314623AA01F074FF00287FF4B3
:107F20009BAAA8F11008B8F1100F259B249D3C4690
:107F3000E7DC9B460135C344072DCDF894B024956A
:107F4000C4F80090C4F804807FF7F2AE0898314678
:107F500023AA01F057FF00287FF47EAADDF894B031
:107F6000249D3C46E5E693460133AB44072BCDF810
:107F700094B02493C4F8009065607FF7A0ABE4E66A
:107F8000302B109B3FF447AF013B1A461093BA1AAF
:107F900030230D9201F8013CFFF7B0BABB46CDF893
:107FA00024C0404649460A220023FDF71DFD303219
:107FB000404649460BF8012D00230A22FDF714FD27
:107FC0008046894658EA0903EBD15B46FB1ADDF887
:107FD00024C0CDF840B00D93FFF790BA0E990A680F
:107FE00004310E9190464FF00009FFF754BA0E99F4
:107FF0000A68043101230E9190464FF00009FFF703
:108000004ABA0E9A136898464FEAE3791346043346
:1080100042460E93002A4B4673F10003BFF6F5ABC0
:108020004FF02D0CD8F1000869EB49098DF86FC0AD
:10803000CDF844A00123FFF734BA0898314623AAAB
:1080400001F0E0FE00287FF407AADDF894B03C467A
:10805000109A12991D9B0A449046139A934246DB4C
:10806000079AD00743D4139AC8EB0A05D31A9D4246
:10807000A8BF1D46002D0CDD249AC4F800800132F3
:10808000AB44072ACDF894B06560249200F3678270
:108090000834002DACBF5D1B1D46002D7FF710ABD3
:1080A000102D249BDFF8B8937FF75EAF4FF01008D8
:1080B0005A46DDF820A004E00834103D102D7FF76B
:1080C00052AF01331032072B25922493C4F800904D
:1080D000C4F80480F0DD5046314623AA01F092FE38
:1080E00000287FF4B9A9259A249B3C46E5E7249A09
:1080F00018981799216001328344072ACDF894B06B
:108100006060249200F30A820834ACE7079BD90729
:108110003FF5DCAD109B236001350BF1010B012312
:10812000072DCDF894B0249563607FF701AE0DE77D
:108130000898314623AA01F065FE00287FF48CA937
:10814000259B249D3C46CEE50898314623AA01F0A4
:1081500059FE00287FF480A9DDF894B0249D3C46A8
:10816000CFE50898314623AA01F04CFE00287FF4A1
:1081700073A9DDF894B03C46FFF74CBA01F016FE47
:10818000002840F0C7808646B24AB34B119007984A
:108190009DF86FC0CDF848E0032120F08000472D06
:1081A000D8BF1A460991079010920D91FFF7AEB90A
:1081B000079B0E9A13F0400F13463FF42EAC043386
:1081C000B2F800800E934FF00009FFF737BB079B12
:1081D000DB060BD4079B5D0608D50E9A13680432A4
:1081E0000E92BDF82C201A80FFF795B80E9A1368EE
:1081F00004320E920B9A1A60FFF78DB89346013342
:10820000AB44072BCDF894B02493C4F8009065607C
:108210003FF713AF08341BE70898314623AA01F053
:10822000F1FD00287FF418A9DDF894B03C46C0E4C5
:10823000249B8A4A226001330BF1010B0122072B98
:10824000CDF894B02493626000F3F48008342DB923
:10825000139B1BB9079BDB077FF532AA249B189859
:10826000179A226001330BEB0001072B2591606008
:10827000249300F3F38104F108026D42002D40F3D2
:10828000FC80102DDFF8D89140F33D811024DDF8FB
:10829000208004E00832103D102D40F3348101337A
:1082A0001031072B25912493C2F800905460F1DD22
:1082B0004046314623AA01F0A5FD00287FF4CCA852
:1082C0002599249B3A46E6E7259BB146002B3FF4CF
:1082D000C4A80898314623AA01F094FDFFF7BDB861
:1082E0000C980E9140420C901946FFF73FBA41F0AE
:1082F000200107915D78591CFFF73BB8089831467B
:1083000023AA01F07FFD00287FF4A6A8DDF894B031
:108310003C4664E425F02003BAF1FF3F0D9300F0E2
:108320009680472B05D1BAF1000F14BFD3464FF00A
:10833000010B079B43F480731193159BB3F1000A63
:10834000149B0993BBBF534603F1004A00232D231E
:10835000662D0F9300F0AC80462D00F0A9800D9B98
:10836000099A452B0CBF0BF10109D94602201DA922
:108370008DE8010202911EA821A9039053460491A1
:10838000089800F085FA672D109002D0472D40F034
:108390009F80079BDB0740F18981109B03EB090855
:1083A000099851460022002302F0FEF9002840F00F
:1083B000FD80219B984506D930215A1C21921970C5
:1083C000219B9845F9D8109A9B1A13930D9B472B24
:1083D0001D9B00F0DE80652D40F3F880662D129322
:1083E00000F05781139B129A934200F34481079B3C
:1083F000D90700F1738122EAE2730D920F9A002AE5
:1084000040F0BC800993119B079311929DF86FC0B7
:10841000FFF77CB808984021FDF7C2FDC9F80000BD
:10842000C9F81000002800F08C814023C9F81430EE
:10843000FEF764BF0898314623AA01F0E3FC002848
:108440007FF40AA81D9DDDF894B03C46FFE64FF08E
:10845000060B6EE75CAF002058AF002090AF002005
:1084600094AF00200898314623AA01F0CBFC0028E5
:108470007EF4F2AF2599249B3A46139C5460013355
:1084800001EB040B072B1099CDF894B024931160E5
:108490003FF75BAC02F10804FFF712B9CDF844B026
:1084A000FEF73CFDCDF838900D900346FFF71BBA60
:1084B00003201DA98DE8010802911EA821A903909F
:1084C000099A04915346089800F0E2F9D9461090B1
:1084D000109B03EB09080D9B462B7FF461AF109BAB
:1084E0001B78302B00F0E4801D9B984458E70898D7
:1084F000314623AA01F086FC00287EF4ADAFDDF8FA
:1085000094B03C46A7E401332944072B25912493DA
:10851000C2F800905560A5DC0832AEE708983146F5
:1085200023AA01F06FFC00287EF496AF1D9BDDF8B6
:1085300094B03C4697E55346062B28BF06230D937F
:1085400023EAE373DDF840C00993834BCDF83890FC
:10855000CDF844C0CDF848C01093FEF7D7BF0898B7
:10856000314623AA01F04EFC00287EF475AF1D9B16
:10857000139ADDF894B0D31A3C468AE50993119B0F
:1085800007934FF02D0C00238DF86FC01193FEF769
:10859000C0BFDA1C19DB9B4517DB1293672521E767
:1085A0004FF02D0C8DF86FC0FFF798BA43460AE7DD
:1085B0002AEAEA731190CDF8389012909DF86FC0B6
:1085C0000993CDF834A0FEF7A1BF023D013B002B7B
:1085D0001D93BABF5B422D222B22092B8DF87C50B4
:1085E0008DF87D2072DD0DF18B0E70465B4A82FBAB
:1085F0000321DA17C2EBA10202EB8201A3EB4103D4
:1086000003F13001092A134600F8011DEEDC024691
:108610003033D9B202F8011D964540F299800DF130
:108620007E02034601E013F8011B02F8011B7345AB
:10863000F9D123AB1B1A0DF17E0213441FAA9B1A1A
:10864000139A1993012A13440D936BDD0D9B00229D
:1086500001330D93129223EAE373CFE60898314673
:1086600023AA01F0CFFB00287EF4F6AE1D9D2599CC
:10867000249B3A4601E6129B002BD8BFC3F10208A7
:10868000139BC8BF4FF0010843440D9323EAE373E3
:10869000B4E6002B30DDBBF1000F25D1079BDB07D3
:1086A00022D4129A0D9222EAE273A7E6219B8AE66F
:1086B000099851460022002302F076F800287FF442
:1086C00013AFC9F101031D93984469E6303330229A
:1086D0008DF87F308DF87E2020ABAFE7129B013301
:1086E0000D9323EAE37389E6129B0BF101084344DF
:1086F0000D9323EAE37381E6BBF1000F1BD1079BC7
:10870000D80718D401230D9378E60E9DD5F800A064
:1087100028460430BAF1000F5D780E90BEF629AEFF
:10872000FEF725BE079B13F001038FD112930D9B1B
:1087300023EAE37362E60BF102030D9323EAE3738A
:108740005CE6089A0C2313604FF0FF30FEF78EBEF4
:108750000DF17E0372E700BF88AF00206766666692
:1087600002690B69934200F38F802DE9F04F03F10A
:10877000FF3801F1140700F1140B57F828205BF8BB
:1087800028304FEA880483B00132B3FBF2F90BEBD7
:108790000403009407EB040A0193B9F1000F3BD0E6
:1087A00000263246BC46DE4634465CF8046BDEF8F2
:1087B0000050B3B2360C03FB094406FB09F606EB86
:1087C0001446A3B2D31AB4B213FA85F3C4EB15441A
:1087D00004EB23449BB243EA0443E2454FEA2442BC
:1087E0004EF8043B4FEA1644DFD2009B5BF803309F
:1087F00093B9019C231F9B450CD254F8043C4BB900
:10880000A4F1080302E01A68043B1AB99B4508F179
:10881000FF38F8D3C0F81080044601F0DDF90028D5
:108820002EDB09F101095D46002357F8041B286877
:108830008AB29A1A090C12FA80F2C1EB104303EBC8
:10884000224391B241EA0341BA4545F8041B4FEA7D
:108850002343EAD25BF828200BEB880382B91A1F66
:1088600093450BD253F8042C42B9083B02E01A6836
:10887000043B1AB99B4508F1FF38F8D3C4F81080BF
:10888000484603B0BDE8F08F0020704700000000AC
:108890002DE9F04F016C97B00446239DCDE90223EA
:1088A00041B1426C4A60012393408B6000F0B0FFFD
:1088B00000232364DDE90223002B994636DB0023E5
:1088C0002B60A54B1A4609EA0303934217D0DDE952
:1088D0000267002230463946002301F065FF8046DA
:1088E00000282BD0229A01231360249B002B00F038
:1088F000CB809A481860013817B0BDE8F08F229AF3
:1089000042F20F731360029B002B00F0A680944884
:10891000249B002BF0D0C378002B00F0B78000F12F
:108920000803249A136017B0BDE8F08F039A01235F
:1089300022F000492B60CDF80C90C2E715AA14ABC9
:108940008DE80C00204632463B4601F0D3F95FEA41
:108950001955834640F08A80DDF85080159D6FF4EC
:10896000826345449D42C0F297827E4A521B09FAB7
:1089700002F9029A05F2124322FA03F049EA0000D2
:1089800001F034FC0123013DA1F1F8710D930022A7
:10899000754B01F0EDFA6AA3D3E9002301F09CFCCA
:1089A00069A3D3E9002301F0E5FA064628460F46FD
:1089B00001F02CFC66A3D3E9002301F08DFC0246F4
:1089C0000B463046394601F0D5FA06460F4601F00F
:1089D0001DFF3946049000223046002301F0EEFED0
:1089E000002840F0A681049B162B00F29F81049A78
:1089F0005E4B03EBC203D3E90001DDE9022301F082
:108A0000FBFE002800F04E82049B013B04930023F0
:108A10000B93C5EB0805B5F1010A00F1A181002314
:108A20000593049B002BC0F292819A440A93002381
:108A30000893209B092B2BD8052B40F37086043B11
:108A400020930025209B023B032B00F24E86DFE89B
:108A500013F0CC03BE03B2026306414B444AC9F390
:108A60001300002814BF1846104651E7C7F313033C
:108A700043F07F51CDF834803046A5F2FF3541F404
:108A80004011DDF8508082E73A4835E7C31C48E7DB
:108A9000002161642046209100F094FE4FF0FF33E6
:108AA0000693209A0C930123079021922064099346
:108AB000159B002BC0F2D280049A0E2A00F3CE80C0
:108AC0002A4B03EBC203D3E90089219B002BC0F2A0
:108AD0008F83DDE9026742464B463046394601F056
:108AE00025FD01F093FE824601F090FB42464B4685
:108AF00001F0F2FB0B4602463946304601F038FAE7
:108B0000079D0AF130032B70069B012B06460F468A
:108B100005F1010562D00022174B01F0DDFB0022B8
:108B2000002306460F4601F03FFE002840F08380F8
:108B3000CDF808B00594DDF81CB0069C29E000BF14
:108B400061436F63A787D23FB3C8608B288AC63F53
:108B5000FB799F501344D33F0000F07F91AF00207A
:108B6000B0AF00200EFCFFFF0000F83FC0AF0020B8
:108B7000A4AF002090AF00200000244001F0ACFB27
:108B80000022002306460F4601F00EFE002840F0AA
:108B9000DE8342464B463046394601F0C7FC01F0C1
:108BA00035FE824601F032FB42464B4601F094FB13
:108BB00002460B463046394601F0DAF90AF1300E2A
:108BC00005F801EBCBEB050E744506460F464FF05A
:108BD0000002B54BD2D1DDF808B0059C32463B46C9
:108BE0003046394601F0C6F906460F46404649462A
:108BF00032463B4601F0E2FD48B94046494632461E
:108C00003B4601F0D1FDB0B11AF0010F13D015F8B9
:108C1000018C07996B1E04E08B4200F0408413F82E
:108C2000018DB8F1390F03F101051A46F4D008F1AE
:108C30000103DBB213702046594600F0E9FD002223
:108C4000049B2A70229A01331360249B002B00F0AE
:108C5000458307981D6017B0BDE8F08F099A002A78
:108C600000F08480209A012A40F30483069B5F1E53
:108C7000089BBB42C0F2A983DF1B069B002BC0F2FE
:108C80009C84059D069B059A20461A440121059265
:108C90009A4400F057FE064665B1BAF1000F09DDAF
:108CA000AA45059A5346A8BF2B46D21A0592ED1A3B
:108CB000C3EB0A0A089B002B1ADD099B002B00F06E
:108CC0007D83002F10DD31463A46204600F0DEFE5F
:108CD00006465A463146204600F03EFE594680463A
:108CE000204600F095FDC346089BDA1B40F0A282A7
:108CF0002046012100F026FE0A9B002B804639DD2C
:108D000001461A46204600F0C1FE209B012B8046FA
:108D100040F396824FF00009D8F8103008EB830337
:108D2000186900F0C1FDC0F120002DE001230B9374
:108D30006FE6049801F06AFA32463B4601F034FDD2
:108D400000287FF450AE049B013B04934BE6059A48
:108D5000049BD21A5B420893002305920A9368E6AB
:108D6000CAF1000305934FF0000A5AE6089F059DDB
:108D7000099E91E7209B012B40F3B3824FF000093D
:108D80000A9B002BC8D10120504410F01F0000F0B6
:108D90008180C0F12003042B40F3B884C0F11C0093
:108DA000059B0344059305448244059B002B05DD88
:108DB00059461A46204600F0B9FE8346BAF1000F24
:108DC00005DD41465246204600F0B0FE80460B9B32
:108DD000002B40F06882069B002B40F39582099B94
:108DE000002B71D1DDF81C90069F4D4602E000F08B
:108DF00019FD834641465846FFF7B2FC00F1300C9E
:108E000005F801CBC9EB0503BB42204659464FF09C
:108E10000A024FF00003EADB079B069A012AACBF67
:108E20009B1801331D464FF0000A59460122204687
:108E3000CDF808C000F07AFE4146834600F0CCFE33
:108E40000028DDF808C040F3F68215F8012C0799D8
:108E50006B1E04E08B4200F0738213F8012D392A57
:108E600003F10105F6D001321A704146204600F0A8
:108E7000CFFC002E3FF4DFAEBAF1000F05D0B245B3
:108E800003D05146204600F0C3FC3146204600F096
:108E9000BFFCD0E61C2083E7044B029A5B1B02FA5E
:108EA00003F06DE50B90B4E500002440EEFBFFFFFE
:108EB0003146002320460A2200F0B4FC0C9B002B14
:108EC000064640F30C840693002D05DD31462A4604
:108ED000204600F02BFE0646B9F1000F40F0E98273
:108EE000B146069B079A013BD3180893029B03F0F7
:108EF00001030993174641465846FFF731FC3146B6
:108F00000546584600F068FE4A46824641462046DD
:108F100000F086FEC268034605F1300C002A40F0DE
:108F2000B88119465846CDF818C0059300F054FE94
:108F3000059B02901946204600F06AFC029ADDF873
:108F400018C02AB9209B1BB9099B002B00F0A783EE
:108F5000BAF1000FC0F2518205D1209B1BB9099BC9
:108F6000002B00F04A82002A00F3B782089B87F8A2
:108F700000C007F1010A9F42554600F0BA825946E7
:108F80000A220023204600F04DFC4E458346314620
:108F900020464FF00A024FF0000300F0748100F009
:108FA00041FC494606460A222046002300F03AFCCE
:108FB000574681469FE701230993219B002B40F3ED
:108FC00013821F461E460C9306930021172F6164DF
:108FD0000AD9012204235B0003F1140087421146E1
:108FE00002F10102F7D26164204600F0EBFB0E2E85
:108FF000079020643FF65CAD002D3FF459ADDDE9EC
:10900000022304990029CDE90E2340F32182B74BB6
:1090100001F00F020D1103EBC203E906D3E900676B
:1090200040F1DB81B24BDDE90E01D3E9082301F009
:109030007DFACDE9020105F00F054FF003088DB16F
:10904000DFF8AC9230463946EA0705D5D9E9002366
:1090500008F1010801F040F96D1009F10809F3D198
:1090600006460F46DDE9020132463B4601F05EFA54
:10907000CDE902010B9B43B1DDE9020100229D4BCA
:1090800001F09CFB002840F0AC82404601F0BEF8A5
:10909000DDE9022301F020F9974B002200F06AFF7E
:1090A000069B0646A1F15077002B00F06281049BDD
:1090B000DDF818901293099B002B00F021828B4B56
:1090C0008E4903EBC90353E90223002001F02EFA75
:1090D00032463B4600F04CFFDDE90267CDE9100166
:1090E0003946304601F092FB054601F08FF83035E5
:1090F00002460B463046394600F03AFF5FFA85F8E3
:10910000079DDDE9102385F8008006460F460135EE
:1091100001F054FB002840F0B28232463B4600206A
:10912000744900F025FF02460B46DDE9100101F00D
:1091300063FB002840F0AC82B9F1010F40F33881A5
:10914000079BCDF84CA0CDF808B09944DDE910ABF1
:10915000A0460DE00020674900F00AFF52465B463A
:1091600001F02CFB002840F08E824D4500F01B8161
:10917000504659460022624B01F0AEF80022604B87
:1091800082468B463046394601F0A6F80F46064621
:1091900001F03CFB044601F039F802460B4630462C
:1091A000394600F0E5FE3034E4B252465B4605F83D
:1091B000014B06460F4601F001FB32463B460028B4
:1091C000C8D0129BDDF808B00493444633E5002371
:1091D0000993219B049A13440C930133002B0693AB
:1091E00040F30981069E3746EFE600230993E4E643
:1091F000069B002B3FF76DAC40F062824046002298
:10920000404B494601F068F8DDE9022301F0EAFA33
:10921000DDF818804646002800F08A80219B079DD3
:10922000DB4304934146204600F0F2FA002E7FF41F
:109230002CAE00E55946204600F028FC834657E551
:10924000029B002B7FF466AD039BC3F31303002B3B
:109250007FF494AD039B23F000473F0D3F05002FA3
:1092600000F01A82059B013305930AF1010A4FF0C1
:10927000010985E50D9A002A00F0A58103F2334328
:10928000089F059DFFE400F0CDFA5746064681464B
:1092900031E601462046CDF808C000F0B9FA0122B7
:1092A000DDF808C054E65846414600F095FC002819
:1092B000BFF691AD049F5946002320460A22013F84
:1092C000049700F0AFFA099B8346002B7FF4F0ADC2
:1092D0000C9B002B40F3F881069383E50798FFF77A
:1092E0000BBB029B002B7FF449ADADE7C0AF002064
:1092F00088B000200000F03F00001C400000E03F6C
:109300000000244000001440209B022B7FF767AD33
:10931000069B002B82D141460522204600F082FAAE
:1093200080464146584600F057FC00287FF776AF4C
:10933000049A07993123013204920B704D1C71E796
:10934000049A01320492079A312313708DE5DDF8F7
:1093500008B0059C6FE4404600F058FFDDE90223A9
:1093600000F0BAFF0022BC4B00F004FE0646A1F15B
:109370005077DDE902010022B84B00F0F9FD3246DA
:109380003B46CDE9020101F037FA8046002840F063
:10939000B380324607F10043DDE9020101F00EFA25
:1093A00030B146463AE7DDF84CA0DDF808B0444657
:1093B000DDE90E23CDE90223FFF77ABB5946089A6F
:1093C000204600F063FB834692E4089B0A9A0897C4
:1093D000FB1A1A440A9200274FE4DDE90E234FF0EE
:1093E0000208CDE902232AE6012621960C9606966C
:1093F00000216164F8E51E46FAE7002A15DD5946AA
:1094000001222046CDF808C000F090FB414683467B
:1094100000F0E2FB0028DDF808C040F34A81BCF10F
:10942000390F00F006810CF1010CB24687F800C03C
:109430007D1C4E4619E504D11CF0010F01D004E556
:10944000154615F8013C302B05F1FF32F8D00CE53C
:10945000049B5D42002D00F0BD80814B05F00F02A2
:1094600003EBC203D3E90023DDE90E0100F034FF72
:109470002D11CDE9020100F02C817A4E4FF0020847
:10948000EB0705D5D6E9002308F1010800F024FF19
:109490006D1006F10806F3D1CDE90201EAE5049A60
:1094A00001320492079A3023137031231370FFF7AF
:1094B000C2BB7168204600F085F933699A1C0546E5
:1094C000920006F10C010C30FCF7F8FF204629460B
:1094D000012200F02BFB814603E5BCF1390F00F0BF
:1094E000A8800CF1010CB24687F800C07D1C4E46E6
:1094F000BBE4B2464E4698E44FF00008464617E7F4
:10950000574909F1FF3301EBC30132461393D1E907
:1095100000013B4600F0E0FEDDE90267CDE9100105
:109520003946304601F072F9054600F06FFE0246FA
:109530000B463046394600F01BFD079A3035B9F12D
:10954000010F157006460F4602F1010523D0079B57
:10955000CDF808A04B445E469A46AB460022424BEB
:1095600000F0BAFE8946804601F050F9074600F047
:109570004DFE303702460B464046494600F0F8FCA7
:109580000BF8017BD345E9D1139BDDF808A0B34666
:109590000F4606461D440022344BDDE9100100F061
:1095A000E9FC32463B4601F009F9002847D0129BFE
:1095B000049315F8018CFFF72CBB059B069A9D1AA6
:1095C0000023FFF760BB149B089F059DC3F1360382
:1095D000FFF759BBDDE90E234FF00208CDE9022366
:1095E00048E5069B002B3FF4B6AE0C9D002D7FF79F
:1095F000DFAE00221C4BDDE9020100F06DFE0646E5
:109600000F4608F10100CDE9026700F0FFFD0246B8
:109610000B463046394600F05FFE0F4B002200F04B
:10962000A9FC049B013B0646A1F150771293A94681
:1096300041E53922B2463A704E467D1C07E4DDE929
:1096400010230020094900F093FC32463B4601F00C
:10965000D3F870B9ACE600BF00001C400000144015
:10966000C0AF002088B00020000024400000E03F90
:10967000154615F8013C302B05F1FF32F8D0129B4E
:109680000493FFF7D8BA4346DDF808B0A0461C465D
:10969000129B0493FFF7BDBAB946FFF771BBBCF14B
:1096A000390FC6D0BAF1000F7FF7BFAE05F1310C0C
:1096B000BBE67FF4BAAE1CF0010F3FF4B6AEAEE6E7
:1096C0004FF000084646A9E5209B022B04DC0C9BCA
:1096D00002E64FF00208CDE40C9B069318E6209BAF
:1096E000022BF9DC0C9BFFF7EEBB002565642946D5
:1096F000204600F067F84FF0FF3306930C930123E8
:109700000790219520640993FFF7D2B93FF44DAB40
:10971000C0F13C00FFF744BB0123099359E5012543
:10972000FFF790B9AFF300800048704704B90020FC
:10973000830770B4C9B240D0541E002A3FD00378CA
:109740008B4218BF431C06D11DE0F4B102788A4257
:1097500004F1FF3417D013F0030F184603F101038F
:10976000F3D1032C14D884B103788B420BD00519A4
:10977000431C02E002788A4205D0AB42184603F14E
:109780000103F7D1002070BC7047204670BC7047C1
:1097900041EA0126024646EA0646104604320368BC
:1097A0007340A3F1013525EA030313F0803FDAD1BA
:1097B000043C032C1046F0D8D5E71446D1E71046F8
:1097C000E1E700BFC36C70B505460C464BB153F8DA
:1097D000240080B1026843F8242000230361C360A1
:1097E00070BD0421212200F08FFBE86403460028AD
:1097F000EDD1002070BD012101FA04F6721D28464A
:10980000920000F081FB0028F3D044608660E4E71A
:1098100031B1C36C4A6853F82200086043F8221043
:10982000704700BFF0B50C6983B00D46064601F1E4
:10983000140E0027DEF8001088B2090C02FB00337A
:1098400002FB01F101EB134101379BB203EB014332
:10985000BC424EF8043B4FEA1143EBDC3BB1AA6833
:10986000944207DA05EB8402013453612C612846E7
:1098700003B0F0BD6968019301313046FFF7A2FFE4
:109880002A69023205F10C01074692000C30FCF700
:1098900015FEF26C6968019B52F82100286042F8BD
:1098A00021503D46DEE700BF030C1B04B3B90004A2
:1098B000102310F07F4F04BF0002083310F0704FE8
:1098C00004BF0001043310F0404F04BF8000023396
:1098D000002807DB420003D4202070470023E8E77C
:1098E000581C704718467047036813F0070207D0EA
:1098F000D90720D49A0720D49B0803600220704720
:1099000099B209B91B0C102213F0FF0F04BF1B0AF8
:109910000832190704BF1B090432990704BF9B08CA
:109920000232D90704D45B0801D1202070470132EC
:10993000036010467047002070475B0803600120F9
:10994000704700BF10B50C460121FFF73BFF012215
:109950004461026110BD00BF2DE9F04F0F69166927
:10996000B74283B00D461446C0F28D8033463E4662
:109970001F46AB68696806EB07089845C8BF013108
:10998000FFF720FF00F1140C0CEB8809CC45009088
:1099900005D26346002143F8041B9945FBD804F126
:1099A000140202EB870A05F11403524503EB860EFD
:1099B00054D2CDF80490994652F8043B1FFA83FB29
:1099C000BBF1000F20D000204F466646054600E060
:1099D0001E4657F8044B3068A1B283B20BFB01312D
:1099E000240C000C4B190BFB040000EB134099B244
:1099F000334641EA0041BE454FEA104543F8041B97
:109A0000E6D8756052F8043C5FEA134B20D0DCF8CE
:109A10000030674618464D46002100E037462C8846
:109A2000000C0BFB040001449CB23E4644EA014397
:109A300046F8043B786855F8044B83B2240C0BFBC2
:109A4000043404EB1143AE454FEA1341E6D87B6082
:109A500092450CF1040CAFD8DDF80490B8F1000F7A
:109A60000BDD59F8043CA9F104091BB105E059F8D4
:109A7000043D13B9B8F10108F9D10098C0F810807D
:109A800003B0BDE8F08F15460C4672E712F00303F1
:109A90002DE9F041144607460E462DD1A4101CD0E6
:109AA000BD6C95B3E3074FF0000806D4641014D0E2
:109AB0002868A8B10546E307F8D5384631462A4656
:109AC000FFF74AFFB6B17268FB6C641053F82210BE
:109AD000316043F822600646EAD13046BDE8F081A5
