:020000042000DA
:1040000028620020E54400203D4500204545002071
:10401000554500204D45002055450020000000007A
:1040200000000000000000000000000055450020D6
:104030005545002000000000554500205545002052
:104040005545002055450020554500205545002088
:1040500000000000554500205545002000000000EC
:104060005545002000000000000000000000000096
:1040700000000000000000005545002055450020CC
:104080005545002055450020554500205545002048
:104090005545002055450020554500205545002038
:1040A0005545002000000000000000000000000056
:1040B0000000000055450020000000000000000046
:1040C0000000000000000000000000005545002036
:1040D0005545002000000000000000000000000026
:1040E00000000000000000000000000000000000D0
:1040F000000000000000000055450020554500204C
:1041000000000000000000000000000000000000AF
:10411000000000000000000000000000000000009F
:10412000000000000000000000000000000000008F
:10413000000000000000000000000000000000007F
:10414000000000000000000000000000000000006F
:10415000000000000000000000000000000000005F
:10416000000000000000000000000000000000004F
:10417000000000000000000000000000000000003F
:10418000000000000000000000000000000000002F
:10419000000000000000000000000000000000001F
:1041A000000000000000000000000000000000000F
:1041B00000000000000000000000000000000000FF
:1041C00000000000000000000000000000000000EF
:1041D00000000000000000000000000000000000DF
:1041E00000000000000000000000000000000000CF
:1041F00000000000000000000000000000000000BF
:1042000000000000000000000000000000000000AE
:10421000000000000000000000000000000000009E
:10422000000000000000000000000000000000008E
:10423000000000000000000000000000000000007E
:10424000000000000000000000000000000000006E
:10425000000000000000000000000000000000005E
:10426000000000000000000000000000000000004E
:10427000000000000000000000000000000000003E
:10428000000000000000000000000000000000002E
:1042900055450020000000000000000055450020AA
:1042A0000000000055450020000000000000000054
:1042B0000000000000000000000000005545002044
:1042C000000000005545002000000000554500207A
:1042D00000000000000000000000000000000000DE
:1042E0000000000000000000000000005545002014
:1042F000554500200000000000000000554500204A
:104300005545002055450020000000000000000039
:10431000000000000000000000000000000000009D
:10432000000000000000000000000000000000008D
:10433000000000000000000000000000000000007D
:10434000000000000000000000000000000000006D
:10435000000000000000000000000000000000005D
:10436000000000000000000000000000000000004D
:10437000000000000000000000000000000000003D
:10438000000000000000000000000000000000002D
:10439000000000000000000000000000000000001D
:1043A000000000000000000000000000000000000D
:1043B00000000000000000000000000000000000FD
:1043C00000000000000000000000000000000000ED
:1043D00000000000000000000000000000000000DD
:1043E00000000000000000000000000000000000CD
:1043F00000000000000000000000000000000000BD
:1044000080B500AF114B1B78DBB2002B00D11CE054
:104410000F4B1B68092B06D9092000F0ABFC0D4897
:1044200000F0E2FB11E04FF0804000F043FC092077
:1044300000F0A0FC074800F0D7FB092000F00EFDBB
:10444000034B1B680133024A136080BD10520020E9
:104450003462002000350C0080B500AF054B1846D3
:1044600000F0C2F800F0B8F80F2000F0F7F800F004
:10447000F3FA80BD0040002080B582B000AFFFF7A6
:10448000EBFF00F01BF8012000F042FC092000F0D7
:10449000E5FC0848084900F097FD4FF0804000F027
:1044A000A7FB0346FB71FB79002B01D100F0AEFDA9
:1044B000FEE700BF0144002000B4C40480B500AF93
:1044C0000720012100F032FA3F200021002200F0F5
:1044D000F3F903480221012200F040F880BD00BF3B
:1044E0000050004080B582B000AF0F4B7B600F4B97
:1044F0003B6007E03B681A1D3A607A68111D7960DD
:1045000012681A603B680A4A9342F3D309480A4981
:104510004FF000028842B8BF40F8042BFADBFFF7E7
:10452000ABFF0837BD4680BD10520020105200205E
:1045300028520020285200203B62002080B400AFA7
:10454000FEE700BF80B400AFFEE700BF80B400AF5D
:10455000FEE700BF80B400AFFEE700BF80B485B0C7
:1045600000AFF8600B467A60FB72FB6803F580636E
:1045700019467B6803F00103002B06D0FB6803F5A6
:1045800080631A68FB7A134306E0FB6803F58063D7
:104590001B68FA7AD24313400B601437BD465DF8AE
:1045A000047B704780B483B000AF78600B46FB702B
:1045B0001346BB70FB789B001A467B6813441A466F
:1045C000BB7813600C37BD465DF8047B704700BFB5
:1045D00080B400AFFEE700BF80B500AF00F08CFBF9
:1045E0000346DBB2184680BD80B483B000AF78606C
:1045F000034A7B6813600C37BD465DF8047B704747
:1046000008ED00E080B485B000AF78603960074BFA
:104610001B68FB607B689B00FA6813443A681A6069
:104620001437BD465DF8047B704700BF08ED00E01D
:1046300080B485B000AF7860064B1B68FB607B6878
:104640009B00FA681344044A1A601437BD465DF8AB
:10465000047B704708ED00E0D145002080B483B0B2
:1046600000AF78607B68042B0AD1284A274B1B686F
:1046700043F480331360BFF34F8FBFF36F8F3FE07E
:104680007B68052B0AD1214A204B1B6843F4003379
:104690001360BFF34F8FBFF36F8F31E07B68062B42
:1046A0000AD11A4A194B1B6843F480231360BFF3E5
:1046B0004F8FBFF36F8F23E07B680F2B0AD1144A13
:1046C000134B1B6843F002031360BFF34F8FBFF31C
:1046D0006F8F15E07B680F2B12D97B68103B5B094D
:1046E0000C4A52F8233019467B68103B03F01F0335
:1046F000012202FA03F30B60BFF34F8FBFF36F8FFA
:104700000C37BD465DF8047B704700BF24ED00E028
:1047100010E000E03450002080B483B000AF786037
:104720007B68042B0AD1284A274B1B6823F480336B
:104730001360BFF34F8FBFF36F8F3FE07B68052B94
:104740000AD1214A204B1B6823F400331360BFF3C6
:104750004F8FBFF36F8F31E07B68062B0AD11A4A67
:10476000194B1B6823F480231360BFF34F8FBFF3F3
:104770006F8F23E07B680F2B0AD1144A134B1B6801
:1047800023F002031360BFF34F8FBFF36F8F15E069
:104790007B680F2B12D97B68103B5B090C4A52F8DF
:1047A000233019467B68103B03F01F03012202FAF5
:1047B00003F30B60BFF34F8FBFF36F8F0C37BD4612
:1047C0005DF8047B704700BF24ED00E010E000E0DE
:1047D0004C50002080B485B000AF786039607B68B1
:1047E00003F03F030B4A52F82330FB60FB689A004A
:1047F000094B1344FB60FB68FA68126822F00F0152
:104800003A680A4322F440621A601437BD465DF8E4
:10481000047B704764500020A0E0024480B487B05D
:1048200000AFF860B9607A60FB6803F03F031F4A8D
:1048300052F823307B617B68B3F1805F16D11C494D
:104840001B4B1A687B69802000FA03F303F4F053D2
:1048500013430B607B699A00164B13447B617B69A1
:104860007A69126842F440621A601AE01049104BEB
:104870001B687A69802000FA02F202F4F052D243F7
:1048800013400B607B699A000A4B13447B617B6980
:104890007A69126822F47C71B8687A6802430A4324
:1048A0001A601C37BD465DF8047B704764500020D9
:1048B00044E10244A0E0024480B584B000AFF86057
:1048C000B9601346FB71FB79002B05D0F8682021F5
:1048D0001022FFF7A3FF04E0F86820210022FFF771
:1048E0009DFFF868B968FFF775FF1037BD4680BDBA
:1048F00080B582B000AF0B4B1B68DBB27B607B687E
:10490000002B09D1084800F04FF9034603F00103DA
:10491000002B01D007237B607B6818460837BD4613
:1049200080BD00BF0CD0024468FC024480B483B058
:1049300000AF786039607B68FF2B14D0104A7B6829
:1049400052F8333003F1884303F5143319460C4A07
:104950007B6852F8333003F1884303F514331A6847
:104960003B6813430B607B68002B03D1054B40F27F
:1049700004421A600C37BD465DF8047B704700BFE7
:10498000645100200050024480B483B000AF7860CE
:1049900039600D4A7B6852F8333003F1884303F5E0
:1049A00014331946084A7B6852F8333003F18843C0
:1049B00003F514331A683B68DB4313400B600C3774
:1049C000BD465DF8047B70476451002080B485B01B
:1049D00000AF78607B68122B36D01E4A7B68DB0004
:1049E00013445B6803F1884303F514331946194AED
:1049F0007B68DB0013445B6803F1884303F51433E1
:104A00001B6843F001030B600023FB6002E0FB68BE
:104A10000133FB60FB680F2BF9D90E4A7B68DB0082
:104A200013445B6803F1884303F514331946094ABC
:104A30007B68DB0013445B6803F1884303F51433A0
:104A40001B6823F001030B601437BD465DF8047B3F
:104A5000704700BF6451002080B582B000AF444A67
:104A6000434B1B6843F400031360424800F09CF87A
:104A700078607B6843F010033E48194600F0A4F8C4
:104A80003D4A3D4B1B6843F03C0313600520012168
:104A9000FFF74CFF0520FFF799FF05200121FFF7E5
:104AA00073FFFFF725FF0346002B03D13348012195
:104AB00000F08AF8324B1B68DBB2022B13D1314A6B
:104AC000304B1B6823F4406323F00F0343F00203D1
:104AD00013602D4A2B4B1B6823F4406323F00F0314
:104AE00043F002031360294A284B1B6843F002037A
:104AF0001360274B1B6803F00F03012B05D1244AD9
:104B0000234B1B6823F00F031360224B1B6803F039
:104B10000F03012B05D11F4A1E4B1B6823F00F0307
:104B200013601D4B1B689B0D03F00F030E2B08D168
:104B30001A4A1A4B1B6823F47C0343F4480313609E
:104B400007E0164A154B1B6823F47C0343F4240347
:104B50001360134A124B1B6823F080531360114AF1
:104B6000104B1B6843F0040313600837BD4680BD3B
:104B700064F0024418FC02446CE1024404F802446C
:104B8000C8F0024410E1024414E1024484E102440A
:104B9000A4E00244A8E0024478DC0244B0F00244FD
:104BA00074FC0244A8F0024480B584B000AF786081
:104BB0007B681B68FB6041F2D54000F015F8FB688C
:104BC00018461037BD4680BD80B582B000AF786012
:104BD00039607B683A681A6041F2D54000F004F809
:104BE0000837BD4680BD00BF01387FF4FDAF704778
:104BF00080B483B000AF78607B6808331B68DBB299
:104C000003F00103DBB218460C37BD465DF8047BA8
:104C1000704700BF80B483B000AF78607B68083312
:104C20001A467B6808331B6843F0010313600C3796
:104C3000BD465DF8047B704780B483B000AF7860F8
:104C40007B6803F540631A46034B13600C37BD467F
:104C50005DF8047B704700BF51E5CC1A80B483B087
:104C600000AF786039607B683A681A600C37BD46DF
:104C70005DF8047B704700BF80B582B000AF7860FC
:104C8000396022203968FFF7BDFC2220FFF7E6FCDF
:104C90000837BD4680BD00BF80B582B000AF7860E8
:104CA0002220FFF739FD2220FFF7C2FC0837BD465E
:104CB00080BD00BF80B483B000AF78607B680C33E8
:104CC0001A46012313600C37BD465DF8047B70471C
:104CD00080B483B000AF78607B6803F583631A46C5
:104CE0007B6803F583631B6823F4807313600C37C0
:104CF000BD465DF8047B7047EFF3108062B6BFF3EA
:104D00004F8FBFF36F8F70471C462346184600BF76
:104D100080B582B000AF0346FB71FB7903F001035D
:104D2000002B04D009200D490D4A00F00BF9FB7946
:104D300003F00203002B04D00A200A490A4A00F0BB
:104D400001F9FB7903F00403002B04D00B20074981
:104D5000074A00F0F7F80837BD4680BD28620020FA
:104D6000386200202C62002039620020306200206E
:104D70003A62002080B582B000AF0346FB71FB7938
:104D8000013B0B2B5AD801A252F823F0D34D00203F
:104D9000E94D0020E94D0020E94D0020E94D0020BB
:104DA000BD4D0020BD4D0020D34D0020E94D002019
:104DB000D34D0020BD4D0020FF4D0020214B1A682F
:104DC000214B1B780B2011461A46012300F0DEF818
:104DD00035E01E4B1A681E4B1B780A2011461A46F6
:104DE000012300F0D3F82AE01A4B1A681A4B1B78FB
:104DF000092011461A46012300F0C8F81FE0114BA4
:104E00001A68114B1B780B2011461A46012300F03B
:104E1000BDF80E4B1A680E4B1B780A2011461A4635
:104E2000012300F0B3F80B4B1A680B4B1B780920D9
:104E300011461A46012300F0A9F800E000BF083728
:104E4000BD4680BD306200203A6200202C62002006
:104E500039620020286200203862002080B582B0CC
:104E600000AF0346FB71FB79013B0B2B5AD801A223
:104E700052F823F0BB4E0020D14E0020D14E00202E
:104E8000D14E0020D14E0020A54E0020A54E00207E
:104E9000BB4E0020D14E0020BB4E0020A54E00206E
:104EA000E74E0020214B1A68214B1B780B2011463E
:104EB0001A46002300F06AF835E01E4B1A681E4BB4
:104EC0001B780A2011461A46002300F05FF82AE0FA
:104ED0001A4B1A681A4B1B78092011461A460023F0
:104EE00000F054F81FE0114B1A68114B1B780B208F
:104EF00011461A46002300F049F80E4B1A680E4B73
:104F00001B780A2011461A46002300F03FF80B4B8D
:104F10001A680B4B1B78092011461A46002300F033
:104F200035F800E000BF0837BD4680BD3062002084
:104F30003A6200202C6200203962002028620020A2
:104F40003862002080B485B000AF0346B9607A6053
:104F5000FB73FB7B03F00703012202FA03F3DAB2CF
:104F60007B681A70FB7BDB08DBB21A46BB681A60F1
:104F7000BB681B68044A52F82320BB681A601437C8
:104F8000BD465DF8047B70471452002080B582B0A6
:104F900000AF396011461A460346FB710B46BB71E0
:104FA00013467B717A79FB7903F0070302FA03F366
:104FB0007B71BA797B79386811461A46FFF7F2FAA5
:104FC0000837BD4680BD00BF80B582B000AF7860B5
:104FD00039600B200121FFF7A9FC4FF08040FFF75B
:104FE0002BFE7B68002B04D04FF080407968FFF7E0
:104FF00043FE4FF080403968FFF730FE4FF08040AD
:10500000FFF708FE0837BD4680BD00BF80B500AF82
:105010004FF08040FFF710FE4FF08040FFF758FE42
:105020004FF08040FFF746FE4FF08040FFF734FE20
:1050300080BD00BF00E100E004E100E008E100E025
:105040000CE100E010E100E014E100E080E100E0AC
:1050500084E100E088E100E08CE100E090E100E024
:1050600094E100E00A0000000B0000000C000000CA
:105070000D0000000E0000000F00000010000000F6
:1050800011000000FF000000FF00000012000000FF
:1050900013000000140000001500000016000000BE
:1050A0001700000018000000280000001C0000008D
:1050B0001D00000019000000FF000000FF000000BC
:1050C000FF000000FF000000FF000000FF000000E4
:1050D000FF000000FF000000FF000000FF000000D4
:1050E000FF000000FF000000FF000000FF000000C4
:1050F000FF000000FF000000FF000000FF000000B4
:10510000FF000000FF000000FF000000FF000000A3
:10511000FF0000001F000000FF000000FF00000073
:10512000FF000000FF00000000000000FF00000082
:10513000200000001E000000FF0000000100000031
:10514000FF00000002000000030000000400000057
:105150000500000006000000070000000800000035
:105160000900000004000000080000001400000016
:10517000180000002400000028000000300000009B
:10518000340000004000000044000000480000001F
:105190004C000000500000005400000058000000C7
:1051A0005C00000060000000640000006800000077
:1051B0006C00000070000000740000007800000027
:1051C0007C000000800000008400000088000000D7
:1051D0008C00000090000000940000009800000087
:1051E0009C000000A0000000A4000000A800000037
:1051F000AC000000B8000000BC000000C8000000C7
:10520000CC000000D8000000DC000000000000001E
:1052100001000000004000400050004000600040DD
:08522000007000400040024054
:04000005200044E5AE
:00000001FF
