:020000042000DA
:1040000038570120AD540020055500200D550020E3
:104010001D550020155500201D55002000000000F2
:10402000000000000000000000000000DD5500203E
:104030001D55002000000000D95600201D5700200B
:104040001D5500201D5500201D5500201D55002028
:10405000000000001D5500201D550020000000003C
:104060001D550020000000000000000000000000BE
:1040700000000000000000001D5500201D5500201C
:104080001D5500201D5500201D5500201D550020E8
:104090001D5500201D5500201D5500201D550020D8
:1040A0001D5500200000000000000000000000007E
:1040B000000000001D55002000000000000000006E
:1040C0000000000000000000000000001D5500205E
:1040D0001D5500200000000000000000000000004E
:1040E00000000000000000000000000000000000D0
:1040F00000000000000000001D5500201D5500209C
:1041000000000000000000000000000000000000AF
:10411000000000000000000000000000000000009F
:10412000000000000000000000000000000000008F
:10413000000000000000000000000000000000007F
:10414000000000000000000000000000000000006F
:10415000000000000000000000000000000000005F
:10416000000000000000000000000000000000004F
:10417000000000000000000000000000000000003F
:10418000000000000000000000000000000000002F
:10419000000000000000000000000000000000001F
:1041A000000000000000000000000000000000000F
:1041B00000000000000000000000000000000000FF
:1041C00000000000000000000000000000000000EF
:1041D00000000000000000000000000000000000DF
:1041E00000000000000000000000000000000000CF
:1041F00000000000000000000000000000000000BF
:1042000000000000000000000000000000000000AE
:10421000000000000000000000000000000000009E
:10422000000000000000000000000000000000008E
:10423000000000000000000000000000000000007E
:10424000000000000000000000000000000000006E
:10425000000000000000000000000000000000005E
:10426000000000000000000000000000000000004E
:10427000000000000000000000000000000000003E
:10428000000000000000000000000000000000002E
:104290001D55002000000000000000001D550020FA
:1042A000000000001D55002000000000000000007C
:1042B0000000000000000000000000001D5500206C
:1042C000000000001D550020000000001D550020CA
:1042D00000000000000000000000000000000000DE
:1042E0000000000000000000000000001D5500203C
:1042F0001D55002000000000000000001D5500209A
:104300001D5500201D550020000000000000000089
:10431000000000000000000000000000000000009D
:10432000000000000000000000000000000000008D
:10433000000000000000000000000000000000007D
:10434000000000000000000000000000000000006D
:10435000000000000000000000000000000000005D
:10436000000000000000000000000000000000004D
:10437000000000000000000000000000000000003D
:10438000000000000000000000000000000000002D
:10439000000000000000000000000000000000001D
:1043A000000000000000000000000000000000000D
:1043B00000000000000000000000000000000000FD
:1043C00000000000000000000000000000000000ED
:1043D00000000000000000000000000000000000DD
:1043E00000000000000000000000000000000000CD
:1043F00000000000000000000000000000000000BD
:1044000080B582B000AF7860094803F073FC0948BA
:1044100003F070FC0848796803F06CFC054803F071
:1044200069FC034803F066FC0837BD4680BD00BF49
:10443000E0280120E82801202029012080B400AFD5
:10444000BD465DF8047B704780B400AFFEE700BF57
:1044500080B483B000AF78603960FEE780B500AF0C
:10446000054B184608F004F908F0FCF80F2008F096
:104470002DF908F02FFB80BD0040002080B586B0EC
:1044800000AF786039607A68704B13447B607B685A
:104490006F4AA2FB03231B0CFB82B7F916206D4B5E
:1044A00082FB030153189910D317C91A0B46DB007E
:1044B0005B1AD31A9BB21AB213465B001344664AC6
:1044C0001A443B681188927819809A703B680333CC
:1044D0003B603B685A1C3A6020221A70B7F91630CC
:1044E0005E4A83FB02015A181112DA178A1A40F247
:1044F0006D1101FB02F29B1AFB8200237B7510E019
:10450000FA8A7B7D5649CB5C5BB29BB2D31A9BB2D5
:10451000FB82B7F91630002B00DA05E07B7D013312
:104520007B757B7D0B2BEBD97B7D0C2B01D1002385
:104530007B757A7D13465B0013444A4A1A443B68F4
:104540001188927819809A703B6803333B603B680E
:104550005A1C3A6020221A707B7D414AD35C5BB2C0
:104560009AB2FB8A13449BB2FB82B7F9163001332F
:1045700038683D491A4609F0A9FE03461A463B68C9
:1045800013443B607B68324AA2FB03231B0C3B6154
:104590003A69364BA3FB0213D21A520813441B0A82
:1045A0003B613B6903F2DD73386831491A4609F013
:1045B0008DFE03461A463B6813443B607B68244AE1
:1045C000A2FB0312120C2B4901FB02F29B1A3B6166
:1045D0003B69294AA2FB0312D20A4FF4616101FB35
:1045E00002F29B1AFB603B69234AA2FB0323DB0A0E
:1045F0003B61386821493A6909F068FE03461A466A
:104600003B6813443B60FB681D4AA2FB03235B0924
:104610003B61FA681A4BA3FB021359090B461B01B5
:104620005B1A9B00D31AFB60386814493A6909F099
:104630004DFE03461A463B6813443B6038681149F7
:10464000FA6809F043FE1837BD4680BD805A732BC7
:1046500007452EC29324499298280120B1F98CB3C2
:10466000D4280120B02801204C29012061F31967CA
:104670005429012080510100C5B3A2915C29012079
:10468000898888886429012080B596B002AF786057
:104690000023FB6407F1180318460021302209F0BB
:1046A000B3FB1B233B7602233B810023BB727B239E
:1046B000FB727B685B681B0EDBB23B737B685B68DD
:1046C0001B0CDBB27B737B685B681B0ADBB2BB73C2
:1046D0007B685B68DBB2FB737B689B689BB219B23B
:1046E00007F1180207F1080300931023019308460D
:1046F00011463022002305F09DFD0346FB64FB6C50
:10470000302B02D04FF0FF3354E07B689B689BB2A4
:104710001AB207F11803104619463022002306F09A
:1047200081F80346FB643B7EDBB203F00703042BF6
:1047300002D04FF0FF333DE097F840305BB2BB64EE
:10474000BB6C1B02BB6497F841305BB2BA6C13447C
:10475000BB64BB6C1B02BB6497F842305BB2BA6CA3
:104760001344BB64BB6C1B02BB6497F843305BB261
:10477000BA6C1344BB64B86C1049FFF77FFE7B68CA
:104780001B781A464FF4616303FB02F31A46BB6CB5
:104790001344BB647B685B781A4613461B019B1A63
:1047A0009B001A46BB6C1344BB64B86C0449FFF70A
:1047B00065FE002318465037BD4680BDF4460120F3
:1047C0001247012080B500AF012008F017F9064814
:1047D00008F070FC4FF4A5704FF0000108F032F9BA
:1047E00008F068F9FEE700BF00127A002DE9F047F3
:1047F00098B00AAF78604FF0FF337B6300F054FC51
:1048000078637B6B002B00DAFEE7864B012283F88E
:10481000932000F01DF9844BFB62092387F83030A8
:10482000022387F828307F4B022283F893207F48A9
:1048300000F0DCFD7B4BD3F838C07A4BD3F83CE07A
:10484000784B1D6C774B5C6C764B586A754B996A4C
:10485000744BDA6A734B1B6B724E96F83460B24637
:10486000704E96F83560B1466E4E96F83660B0469A
:104870006C4E96F837600095019402900391049273
:104880000593CDF818A0CDF81C90CDF8208009969E
:10489000674868496246734609F018FD00F0D8F889
:1048A00007F128036448194600F044FD7863634B20
:1048B000196807F10C0207F10B030846012106F005
:1048C000F7F9FB7A5BB2012B10D101233B615B4B03
:1048D0001A6807F1100310460321042206F09EF91E
:1048E000574B03221A6000F0B3F88DE04D4B0322C2
:1048F00083F8932000F0ACF8524800F095FF0220B6
:104900000221112205F06AFC03467B6200BF7B6A2C
:10491000002BFCDB14237B610023BB617B6A9BB211
:104920001AB207F11404082300931046012114223F
:10493000234605F099FF3B4B002283F8922000F0BC
:1049400087F805233B771E237B7759E0354B93F897
:1049500092301A4613461B019B1A5B003A4A1A44CE
:1049600007F11C0304331046194600F013FD786369
:104970003B6A2C4AC2F8983000F06AF87B6B002B37
:1049800014DB0FE007F11C031846FFF77DFE786388
:1049900000F05EF87B6B002B00D007E041F288301E
:1049A00001F02CF9264B1B68022BEBD100BF00F065
:1049B0003BFD0346002BFAD0214B1B68022B1FD076
:1049C000184B224A03F19C0415460FCD0FC495E8FD
:1049D0000F0007C42380134B2D2283F8BA20114BFC
:1049E000002283F8BB200F4B93F892300133DBB2E7
:1049F00003F00703DAB20B4B83F8922000F028F89B
:104A00000F4B1B68022BA1D100F068FC054B002264
:104A100083F8932000F01CF8FFF7D4FE3837BD462A
:104A2000BDE8F087584601206C2901207846012016
:104A3000A446012078290120A02901205446012004
:104A40001044012000440120A8270120A4290120AE
:104A500080B500AF014800F0E7FE80BD08440120AA
:104A600090B585B002AF7860534803F029F95348F8
:104A7000FFF7C6FC5248534903F03CF952485349EA
:104A800003F038F9524803F01BF94E4B93F893307A
:104A9000032B1AD801A252F823F000BFAD4A002020
:104AA000B54A0020BD4A0020C54A0020494803F00D
:104AB00007F90AE0484803F003F906E0474803F025
:104AC000FFF802E0464803F0FBF8464803F0F8F828
:104AD0003C4B93F892301A4613461B019B1A5B001D
:104AE000414A13444148194603F004F9354B93F801
:104AF0009B301946334B93F89A301A46314B93F852
:104B000099301C462F4B93F8983000933848234631
:104B100003F0F0F83748384903F0ECF837483849E3
:104B2000384A03F0E7F8384803F0CAF8254BD3F8C1
:104B3000D830052B2ED801A252F823F0554B002077
:104B40006D4B0020754B00207D4B0020854B0020D5
:104B50008D4B00202D4B1B68032B03D12C4803F0F9
:104B6000AFF817E02B4803F0ABF813E02A4803F046
:104B7000A7F80FE0294803F0A3F80BE0284803F05A
:104B80009FF807E0274803F09BF803E0264803F06E
:104B900097F800BF1D4B1B68022B03D01B4B1B68F3
:104BA000032B02D1214803F08BF821484FF0FF314D
:104BB00000F07EFE58E700BFC4290120D42901205F
:104BC000E029012058460120F4290120A4460120B3
:104BD0000C2A01201C2A0120282A0120342A012025
:104BE000442A0120582A0120A82701205C2A0120FC
:104BF000702A0120902A0120F4460120A42A0120D5
:104C0000D646012012470120BC2A01201044012071
:104C1000D42A0120EC2A0120182B0120282B012066
:104C2000342B0120682B01207C2B0120A82B012094
:104C300008440120B0B582B000AF78603960334BD2
:104C400000221A60314B01225A60314A314B14461E
:104C50000FCB84E80F00304A304B14461D460FCD71
:104C60000FC42B6823802E4A2E4B14460FCB07C44B
:104C700023802D4A2D4B14461D460FCD0FC495E8B9
:104C8000030020600434218002340B0C2370284A76
:104C9000284B14461D460FCD0FC495E80300206035
:104CA00004342170244A254B14461D460FCD0FC4F1
:104CB00095E8030084E80300214A224B14461D4670
:104CC0000FCD0FC42B681A46228002341B0C2370B0
:104CD0001D4800F079FB7B681B68184600214FF4E3
:104CE00010720A4B05F09AFF7B681C68386809F05F
:104CF00075FD0346204601211A463B6805F08EFFEC
:104D0000002318460837BD46B0BD00BF144401203B
:104D10001C440120B82B01203C440120C82B012059
:104D20006C440120DC2B01209C440120EC2B012051
:104D3000FC440120042C0120CC4501201C2C012026
:104D4000EC450120342C01204C460120B0B592B036
:104D500000AF78600123FB634C484FF0FF3100F057
:104D6000A7FD4B484FF0FF3100F0A2FD07F108030B
:104D7000484A1C4615460FCD0FC42B6823801123CB
:104D80007B6407F108027B6C1A44434B5B6C104652
:104D900042491A4609F09AFA07F1080340481946B1
:104DA000FFF748FF3C4B0122C3F8D8203D4B0122BE
:104DB0001A60FFF74DFE53E0394B1B68184605F0AB
:104DC0009FFF38643B6C002B10DA3B6C13F57A7F45
:104DD00007D1314B0522C3F8D820324B02221A608A
:104DE0003EE02D4B0422C3F8D82039E03B6C012B68
:104DF00009D1294B0322C3F8D8202A4B00221A607C
:104E0000FFF726FE2CE03B6C03F00203002B1CD0C6
:104E1000234B1A6807F13C0310460221042205F0D7
:104E2000FDFE38641C4B0222C3F8D8203B6C03F013
:104E30000303002B03D01B4B02221A6002E0194B24
:104E400000221A60FFF704FE0AE0134BD3F8D830B3
:104E5000042B05D1104B0122C3F8D820FFF7F8FD31
:104E6000104B1B68012BA7D00E4B1B68022B08D0E0
:104E7000042002F033FD06484FF0FF3100F018FD2A
:104E800003E042F2107000F0B9FE85E70044012013
:104E900004440120482C0120584601205C2C0120AC
:104EA000544601201044012080B586B000AF7860E0
:104EB00025484FF0FF3100F0FBFC07F1080207F135
:104EC0000C032248002105F027F80346002B13D1DC
:104ED000FA6807F11003104600211A46082305F06E
:104EE000A5F80346002B00DAFEE7FB681846002110
:104EF0000022002305F04CF800233B74144B7B6127
:104F000007F1080207F10C0310484FF4805105F037
:104F100003F80346002B0FD1FA6807F1100310467F
:104F200000211A46082305F0D7F8FB68184600212F
:104F30000022002305F02CF8064B02221A604FF4E1
:104F40007A7000F05BFEFAE70C440120642C01202B
:104F5000BADCCDAB1044012080B500AF014800F0B1
:104F600063FC80BD0C44012080B500AF014800F017
:104F70005BFC80BD0444012080B582B002AFFFF726
:104F80006DFA00F063FA02F01FFF02F083FE33486F
:104F9000334902F05FFC092000F078FD0120002178
:104FA00005F0F6FD02462F4B1A602F4B01221A60C6
:104FB0002E4800F005FC2E4800F002FC2D4800F0C1
:104FC000FFFB2D4800F0FCFB2C480021DC2208F000
:104FD0001BFF2A4B2D2283F8BA20284B2D2283F861
:104FE0009C202748274905221E2309F06FF900233A
:104FF0000093224824490022002309F067F9012385
:10500000009300230193214821494FF4805200234B
:1050100000F086FC01230093002301931D481C49E6
:105020004FF40062002300F07BFC01230093002377
:105030000193194819494FF40062002300F070FCF5
:105040000123009300230193154816494FF4006291
:10505000002300F065FC00F0CBFDFEE7594F002077
:10506000694F0020544601201044012000440120D3
:1050700004440120084401200C440120584601202A
:10508000D64601207C2C0120882C0120ED470020F1
:10509000942C0120614A00204D4D0020D42901208C
:1050A000A94E0020A42C012080B594B000AF07F1D8
:1050B0001C0300221A60043300221A600433002209
:1050C0001A60043300221A60043300221A60043389
:1050D00000221A60043300221A60043300221A608E
:1050E000043300221A60043300221A6004330022C1
:1050F0001A60043307F1080300221A600433002207
:105100001A60043300221A60043300221A60043348
:1051100000221A6004330123FB710023BB710023BA
:105120007B7100233B714FF0FF33FB644FF0FF3383
:10513000BB6400200021002202F07CFE0346BB6419
:10514000BB6C002B23D0BB6C022B06D100BF5F4B86
:105150001B6803F00803002BF9D0002005F0E6FCE3
:105160000346FB64FF2002F073FF0346FB6400204C
:105170000021002202F05EFE0346FB64FB6C002B64
:1051800001D0FB6C9EE0FB6C002B00D0FEE70C23F3
:10519000BB712C237B71B91D7A1D07F11C03012003
:1051A00002F0BCFFF864FB6C002B01D0FB6C89E0C3
:1051B000102011210022002305F06EFC0346FB6441
:1051C000FB6C002B01D0FB6C7CE0FF2005F080FC29
:1051D0000346FB64FB6C002B01D0FB6C72E005F016
:1051E00057FC0346FB64FB6C002B06D100BF374B1A
:1051F0001B6803F00203002BF9D1FB1D04200121E1
:10520000012204F0E5FDF864FB6C002B01D0FB6C7F
:1052100058E00023BB71BB792020194600220023EF
:1052200005F03AFC0346FB64FB6C002B01D0FB6CE1
:1052300048E000233B713B1D01200A21012205F0BB
:1052400087FC0346FB64FB6C002B01D0FB6C39E050
:10525000302000210022002305F01EFC0346FB64E1
:10526000FB6C002B01D0FB6C2CE00020002104F033
:1052700099FB0346FB64FB6C002B01D0FB6C21E027
:1052800007F108031846FF21082208F0BDFD07F1C9
:10529000080301201946142205F02CFC0346FB6488
:1052A000FB6C002B01D0FB6C0CE0084B00221A6059
:1052B000074B00221A60074B00221A70064B00228F
:1052C0001A60FB6C18465037BD4680BDE05801207F
:1052D000E8580120E8600120E460012080B582B038
:1052E00000AF05F0D5FB03467B607B68002B06D141
:1052F00000BF0C4B1B6803F00203002BF9D1C82040
:1053000002F0A6FE074B00221A60074B00221A602B
:10531000064B00221A70064B00221A600837BD4661
:1053200080BD00BFE0580120E8580120E86001205E
:10533000E460012080B586B002AF78603960002358
:10534000FB60786809F04AFA03469BB21AB2002360
:1053500000937868114600223B6805F0D7FA0346AF
:10536000FB60FB68002B01D0FB680DE000BF084B21
:105370001B6803F00203002BF9D0054B1B6803F0F8
:105380000803002BF3D0002318461037BD4680BD1C
:10539000E058012080B584B000AF78603960002308
:1053A000FB60786809F01AFA03469BB278681946E0
:1053B0003A68022304F034FB0346FB60FB6818469E
:1053C0001037BD4680BD00BF80B584B000AF7860A7
:1053D0000623FB7307F10F03022000211A467B68A6
:1053E00004F016FD1037BD4680BD00BF80B584B007
:1053F00000AF78600023FB720023BB720C23FB72AA
:105400002C23BB7207F10B0207F10A03012011469E
:105410001A467B6802F082FE0346FB60FB68184672
:105420001037BD4680BD00BF80B400AF064B1B687F
:1054300003F00203002B14BF01230023DBB2184644
:10544000BD465DF8047B7047E058012080B500AF91
:105450000C20012107F054FA0720012107F050FA2F
:105460000820012107F04CFA3620032107F0DAF971
:105470003820032107F0D6F903200021002207F08D
:10548000FBF908482021002207F0A2F80E20002195
:10549000002207F0F1F904484021002207F098F8B3
:1054A00080BD00BF005000400060004080B582B069
:1054B00000AF0F4B7B600F4B3B6007E03B681A1D52
:1054C0003A607A68111D796012681A603B680A4A6E
:1054D0009342F3D309480A494FF000028842B8BF0B
:1054E00040F8042BFADBFFF747FD0837BD4680BDC7
:1054F000283A0120283A0120A84201200044012036
:105500004477012080B400AFFEE700BF80B400AF55
:10551000FEE700BF80B400AFFEE700BF80B400AF7D
:10552000FEE700BF80B485B000AF78600F4B1B680A
:10553000002B02D10D4B0E4A1A600C4B1B68FB600E
:105540000A4B1A687B6813440A4A934201D9002324
:1055500006E0064B1A687B681344044A1360FB6834
:1055600018461437BD465DF8047B70473447012068
:10557000447701204877022080B485B000AFF860FE
:10558000B9607A60FB68043BFB60FB684FF0807297
:105590001A60FB68043BFB60BA68FB681A60FB6832
:1055A000043BFB60094AFB681A60FB68143BFB6024
:1055B0007A68FB681A60FB68203BFB60FB68184652
:1055C0001437BD465DF8047B704700BFD1550020FD
:1055D00080B500AF00F072F8FEE700BF074B196816
:1055E0000868B0E8F00F80F30988BFF36F8F4FF0C1
:1055F000000080F311884EF00D0E704744570120D3
:1056000005480068006880F3088862B6BFF34F8FD2
:10561000BFF36F8F00DF00BF08ED00E080B500AF83
:105620000B4A0B4B1B6843F460031360084A084B9A
:105630001B6843F06043136000F084F8054B0022C0
:105640001A60FFF7DDFFFFF7C3FF0023184680BD98
:1056500020ED00E0283A012080B400AF054B4FF068
:1056600080521A60BFF34F8FBFF36F8FBD465DF856
:10567000047B704704ED00E080B500AF00F01EF839
:10568000044B1B680133034A1360BFF34F8FBFF312
:105690006F8F80BD283A012080B500AF064B1B6894
:1056A000013B054A1360044B1B68002B02D100200C
:1056B00000F00EF880BD00BF283A0120EFF3118002
:1056C0004FF0200181F3118870470023184600BF76
:1056D00080F31188704700BFEFF30980BFF36F8F2D
:1056E0000D4B1A6820E9F00F10602DE908404FF0CB
:1056F000200080F3118801F02BF94FF0000080F3B7
:105700001188BDE8084019680868B0E8F00F80F318
:105710000988BFF36F8F70474457012080B500AFF1
:10572000FFF7CCFF01F064F80346002B03D0044BD5
:105730004FF080521A600020FFF7CAFF80BD00BF03
:1057400004ED00E080B400AF044B054A1A60054B3D
:1057500007221A60BD465DF8047B704714E000E044
:105760007F38010010E000E080B584B000AFF86041
:10577000B9601346FB71FB681846B96806F07EFFF6
:10578000FA68FB791046194606F08AFFFB6818464E
:1057900006F09CFF00235BB218461037BD4680BD63
:1057A00080B582B000AF78607B68184606F0D4FF01
:1057B0007B68184606F06AFF0837BD4680BD00BF0B
:1057C00080B584B000AF78607B68002B01D1FC23EA
:1057D00010E07B68FB6001200021032200F06CFADE
:1057E0000246FB681A607B681B68002B01D000230F
:1057F00000E0FE235BB218461037BD4680BD00BFF7
:1058000080B582B000AF78607B68002B01D1FC23AB
:1058100005E07B681B68184600F074FC00235BB24F
:1058200018460837BD4680BD80B582B000AF7860AD
:105830007B68002B01D1FC230DE07B681B681846B8
:1058400000210022002300F0B5FA0346012B01D00D
:10585000002300E000235BB218460837BD4680BD38
:1058600080B582B000AF78607B68002B01D1FC234B
:1058700016E00E4B00221A607B681B681846002158
:105880000A4A002300F030FB0346012B07D1074BE7
:105890001B68002B01D0FFF7DFFE002300E0002390
:1058A0005BB218460837BD4680BD00BF385701209F
:1058B00080B582B000AF786039607B68002B01D181
:1058C000FC230DE07B681B68184600213A68002322
:1058D00000F060FB0346012B01D1002300E0FE2312
:1058E0005BB218460837BD4680BD00BF80B582B0A8
:1058F00000AF78607B68002B01D1FC230BE0012016
:1059000000F016FA02467B681A607B68002B01D013
:10591000002300E0FE235BB218460837BD4680BD79
:1059200080B588B004AFF860B9603B601346FB8077
:10593000FB889B089AB2BB690093FB690193002323
:10594000029300230393F868B9683B6800F0A8FD50
:105950000346012B01D1002300E0FE235BB2184671
:105960001037BD4680BD00BF80B582B000AF786003
:105970007B681B68184600F0C5FB00235BB2184625
:105980000837BD4680BD00BF80B582B000AF7860EB
:1059900039607B68002B01D1FC230DE07B681B681C
:1059A000184600213A68002300F0F4FA0346012B60
:1059B00001D1002300E0FE235BB218460837BD4644
:1059C00080BD00BF80B582B000AF78607B68002BDF
:1059D00001D1FC230DE07B681B68184600210022E2
:1059E000002300F0E7F90346012B01D1002300E07A
:1059F000FE235BB218460837BD4680BD80B586B031
:105A000000AFF860B9607A60FB683B61BB687B619E
:105A10000E4B00221A600E4B1A6807F11003104655
:105A200019460A4A002300F05FFA0346012B07D10A
:105A3000064B1B68002B01D0FFF70EFE002300E091
:105A4000FE235BB218461837BD4680BD385701208B
:105A50003C57012080B586B000AF786000237B61A1
:105A6000094B1A6807F10C03104619464FF0FF3234
:105A7000002300F08FFA78617B69012B03D1FB686A
:105A80003A6910469847EBE73C57012080B586B04D
:105A900004AF786003200821002200F00DF90246CF
:105AA000104B1A600F4B1B68002B01D1FE2314E032
:105AB0007B6800930C4B0193002302930023039314
:105AC0000A480B494FF40072002300F0E9FC03463A
:105AD000012B01D1002300E0FE235BB218460837FA
:105AE000BD4680BD3C57012040570120555A00203B
:105AF000B42C012080B586B000AFF860B9607A6040
:105B00003B60FB68002B01D1FC2310E000237B618C
:105B100038687968002200F0CFF878617B69002B43
:105B200001D1FE2303E0FB687A691A6000235BB2AF
:105B300018461837BD4680BD80B582B000AF78608A
:105B40007B68002B01D1FC2305E07B681B681846AD
:105B500000F0D8FA00235BB218460837BD4680BD76
:105B600080B584B000AFF860B9607A60FB68002B44
:105B700001D1FC230FE0FB681B681846B968084A8E
:105B8000002300F0B1F90346012B03D1FFF764FDB8
:105B9000002300E0FE235BB218461037BD4680BDEF
:105BA0003857012080B584B000AFF860B9607A60E2
:105BB000FB68002B01D1FC2314E07B68B3F1FF3FAD
:105BC00002D14FF0FF337B60FB681B681846B96851
:105BD0007A68002300F0DEF90346012B01D100238F
:105BE00000E0FE235BB218461037BD4680BD00BF03
:105BF00080B500AF00F02AFD80BD00BF80B584B045
:105C000000AF78607B68FB60F86800F0E5FC103757
:105C1000BD4680BD80B584B000AF786039607B68D8
:105C2000FB60FFF729FDFB681A68FB68DB6BF9680E
:105C3000096C01FB03F31A44FB685A60FB680022FD
:105C40009A63FB681A68FB689A60FB681A68FB68CD
:105C5000DB6B013BF968096C01FB03F31A44FB6839
:105C6000DA60FB684FF0FF325A64FB684FF0FF3296
:105C70009A643B68002B0ED1FB681B69002B14D083
:105C8000FB681033184600F03FFF0346012B0CD190
:105C9000FFF7E2FC09E0FB681033184601F0F0FC66
:105CA000FB682433184601F0EBFCFFF7F5FC0123F9
:105CB00018461037BD4680BD80B588B000AFF8608B
:105CC000B9601346FB710023FB61FB68002B29D0F0
:105CD000502001F0ABFCB861BB69002B22D0FB68FF
:105CE000BA6802FB03F301337B61786901F09EFC23
:105CF0000246BB691A60BB691B68002B0FD0BB69E9
:105D0000FA68DA63BB69BA681A64B8690121FFF7F7
:105D100081FFBB690022DA64BB69FB6102E0B869FC
:105D200001F09CFCFB6918462037BD4680BD00BFD2
:105D300080B584B000AF0346FB71502001F076FCC3
:105D4000F860FB68002B2FD0FB6800225A60FB68CC
:105D500000221A60FB6800229A60FB680022DA6069
:105D6000FB6800229A63FB680122DA63FB68002269
:105D70001A64FB684FF0FF325A64FB684FF0FF3241
:105D80009A64FB680022DA64FB681033184601F05D
:105D900077FCFB682433184601F072FCF868002198
:105DA0000022002300F006F8FB6818461037BD46B5
:105DB00080BD00BF80B588B000AFF860B9607A6080
:105DC0003B600023FB61FB68BB61FFF755FCBB69CF
:105DD0009A6BBB69DB6B9A4202D33B68022B24D1DE
:105DE000B869B9683A6800F0A5F9BB69DB6C002BAB
:105DF00009D0B869396800F029FB0346012B10D19E
:105E0000FFF72AFC0DE0BB695B6A002B09D0BB6978
:105E10002433184600F078FE0346012B01D1FFF72A
:105E20001BFCFFF739FC012359E07B68002B03D1F1
:105E3000FFF732FC002352E0FB69002B06D107F18B
:105E40001003184600F0B6FE0123FB61FFF724FCA7
:105E500000F02EFCFFF710FCBB695B6CB3F1FF3F59
:105E600002D1BB6900225A64BB699B6CB3F1FF3F4E
:105E700002D1BB6900229A64FFF70EFC07F1100201
:105E80003B1D1046194600F0ABFE0346002B1ED109
:105E9000B86900F04DFA0346002B12D0BB6903F13C
:105EA00010027B681046194600F0BCFDB86900F08E
:105EB000CFF900F00BFC0346002B0FD1FFF7CCFB12
:105EC0000CE0B86900F0C4F900F000FC7DE7B869A7
:105ED00000F0BEF900F0FAFB002300E075E7184679
:105EE0002037BD4680BD00BF80B588B000AFF860E8
:105EF000B9607A603B60FB68BB61FFF7DFFB7861EC
:105F0000BB699A6BBB69DB6B9A4202D33B68022B7D
:105F100036D1B869B9683A6800F00CF9BB699B6C76
:105F2000B3F1FF3F24D1BB69DB6C002B0DD0B86906
:105F3000396800F08BFA0346012B1ED17B68002BD9
:105F40001BD07B6801221A6017E0BB695B6A002BDB
:105F500013D0BB692433184600F0D6FD0346002B4E
:105F60000BD07B68002B08D07B6801221A6004E00C
:105F7000BB699B6C5A1CBB699A640123FB6101E0FD
:105F80000023FB617869FFF7A3FBFB691846203704
:105F9000BD4680BD80B58AB000AFF860B9607A6058
:105FA0003B6000237B62FB683B62FFF765FB3B6A5B
:105FB0009B6B002B3BD03B6ADB68FB61386AB9689E
:105FC00000F020F93B68002B1CD13B6A9B6B5A1EEA
:105FD0003B6A9A633B6A1B68002B04D100F0B6FF52
:105FE00002463B6A5A603B6A1B69002B1BD03B6A26
:105FF0001033184600F088FD0346012B13D1FFF73C
:106000002BFB10E03B6AFA69DA603B6A5B6A002BA3
:1060100009D03B6A2433184600F076FD0346002B76
:1060200001D0FFF719FBFFF737FB012366E07B6820
:10603000002B03D1FFF730FB00235FE07B6A002BCE
:1060400006D107F11403184600F0B4FD01237B626A
:10605000FFF722FB00F02CFBFFF70EFB3B6A5B6CAB
:10606000B3F1FF3F02D13B6A00225A643B6A9B6C4A
:10607000B3F1FF3F02D13B6A00229A64FFF70CFBA9
:1060800007F114023B1D1046194600F0A9FD034616
:10609000002B2BD1386A00F035F90346002B1FD0B6
:1060A0003B6A1B68002B08D1FFF7E6FA3B6A5B6886
:1060B000184600F079FFFFF7EFFA3B6A03F124027C
:1060C0007B681046194600F0ADFC386A00F0C0F855
:1060D00000F0FCFA0346002B0FD1FFF7BDFA0CE0ED
:1060E000386A00F0B5F800F0F1FA5EE7386A00F0BF
:1060F000AFF800F0EBFA002300E056E71846283727
:10610000BD4680BD80B584B000AF78607B68FB6021
:10611000F86800F04DF9FB681B68002B04D0FB68A1
:106120001B68184601F09AFAF86801F097FA1037E0
:10613000BD4680BD80B584B000AFF860B9607A60BC
:10614000FB681B6C002B0CD1FB681B68002B51D12A
:10615000FB685B68184600F09FFFFB6800225A60EE
:1061600048E07B68002B1AD1FB689A68FB681B6CBF
:106170001046B9681A4607F049FDFB689A68FB6843
:106180001B6C1A44FB689A60FB689A68FB685B6842
:106190009A422FD3FB681A68FB689A602AE0FB6872
:1061A000DA68FB681B6C1046B9681A4607F02EFDCA
:1061B000FB68DA68FB681B6C5B421A44FB68DA60B8
:1061C000FB68DA68FB681B689A4207D2FB685A686A
:1061D000FB681B6C5B421A44FB68DA607B68022B2D
:1061E00008D1FB689B6B002B04D0FB689B6B5A1E8D
:1061F000FB689A63FB689B6B5A1CFB689A631037B9
:10620000BD4680BD80B582B000AF786039607B68E4
:106210001B68002B19D07B68DA687B681B6C1A44FA
:106220007B68DA607B68DA687B685B689A4203D3D4
:106230007B681A687B68DA607B68DA687B681B6C4D
:10624000386811461A4607F0E1FC0837BD4680BDA4
:1062500080B582B000AF7860FFF70EFA22E07B686D
:10626000DB6C002B09D07868002100F0EFF80346C2
:10627000012B12D100F0F8FC0FE07B685B6A002B69
:106280000AD07B682433184600F03EFC0346002BFE
:1062900003D000F0E9FC00E008E07B689B6C5A1E2C
:1062A0007B689A647B689B6C002BD8DC7B684FF022
:1062B000FF329A64FFF7F0F9FFF7DEF914E07B682C
:1062C0001B69002B0FD07B681033184600F01CFCB4
:1062D0000346002B01D000F0C7FC7B685B6C5A1EA4
:1062E0007B685A6400E003E07B685B6C002BE6DCB3
:1062F0007B684FF0FF325A64FFF7CEF90837BD468E
:1063000080BD00BF80B584B000AF7860FFF7B4F9FE
:106310007B689B6B002B02D10123FB6001E0002313
:10632000FB60FFF7B9F9FB6818461037BD4680BD22
:1063300080B584B000AF7860FFF79EF97B689A6BF8
:106340007B68DB6B9A4202D10123FB6001E00023F2
:10635000FB60FFF7A1F9FB6818461037BD4680BD0A
:1063600080B485B000AF786039600023FB6014E032
:106370000E4AFB6852F83330002B0BD10B49FB68F7
:106380003A6841F83320094AFB68DB0013447A6815
:106390005A6005E0FB680133FB60FB68092BE7D915
:1063A0001437BD465DF8047B704700BFEC600120E8
:1063B00080B485B000AF78600023FB6010E00C4A29
:1063C000FB68DB0013445A687B689A4205D1084A8F
:1063D000FB68002142F8331005E0FB680133FB60E5
:1063E000FB68092BEBD91437BD465DF8047B704779
:1063F000EC60012080B584B000AF786039607B68C4
:10640000FB60FFF739F9FB685B6CB3F1FF3F02D12A
:10641000FB6800225A64FB689B6CB3F1FF3F02D11A
:10642000FB6800229A64FFF737F9FB689B6B002B2F
:1064300005D1FB6824331846396800F033FBF8684F
:10644000FFF706FF1037BD4680BD00BF80B584B0A2
:1064500000AF786039607B68DB6CBB600023FB6059
:10646000BB689A6BBB68DB6B9A4213D23B1DB86862
:1064700019463A68FFF75EFEBB685B6A002B09D0DD
:10648000BB682433184600F03FFB0346002B01D0C5
:106490000123FB60FB6818461037BD4680BD00BF76
:1064A00080B58AB002AFF860B9603B601346FB80EC
:1064B000FB881846396B00F0E3FCB861BB69002B20
:1064C00067D0BB691A6BFB8803F18043013B9B00DB
:1064D00013447B617B6923F007037B61FB88009396
:1064E000B869B968BA6A7B6B00F0D4FB7869F9685F
:1064F0003A68FFF741F80246BB691A60FB6A002B55
:1065000002D0FB6ABA691A60FFF7B6F82C4B1B6819
:1065100001332B4A13602B4B1B68002B09D1294AEE
:10652000BB691360264B1B68012B0FD100F0FAFBEF
:106530000CE0254B1B68002B08D1224B1B68DA6A44
:10654000BB6A9A4202D81F4ABB6913601F4B1B6883
:1065500001331E4A1360BB69DB6A1A46012303FA42
:1065600002F21B4B1B681343194A1360BB69DA6ABA
:1065700013469B0013449B00164A1A44BB6904331C
:106580001046194601F0A8F80123FB61FFF784F8D3
:1065900002E04FF0FF33FB61FB69012B0BD10A4B8B
:1065A0001B68002B07D0074B1B68DA6ABB6A9A424C
:1065B00001D2FFF751F8FB6918462037BD4680BD70
:1065C000845801204457012090580120A0580120F0
:1065D0008C5801204857012080B584B000AF786006
:1065E0000023FB607B68002B21D000F061F8144B86
:1065F0001A687B681344BB60124B1B68043318464F
:1066000001F0C6F80346002B0BD10E4B1B68DB6A6A
:106610001A4601239340DA430B4B1B6813400A4A86
:106620001360B86800F0F6FB00F050F8F860FB6803
:10663000002B01D1FFF710F81037BD4680BD00BF19
:1066400088580120445701208C58012080B586B01D
:1066500004AF00230093114B019300230293002306
:1066600003930F480F4946220023FFF719FF786074
:106670007B68012B02D100F06BFD78607B68012BF9
:1066800009D1FFF71BF8084B01221A60074B0022C3
:106690001A60FEF7C3FF0837BD4680BD8058012051
:1066A000816C0020BC2C01209058012088580120CA
:1066B00080B400AF044B1B680133034A1360BD462E
:1066C0005DF8047B704700BFA458012080B582B0FC
:1066D00000AF00237B60FEF7CFFF344B1B68013B0C
:1066E000324A1360314B1B68002B57D1304B1B686B
:1066F000002B53D030E02F4BDB68DB683B603B68FE
:106700001833184601F044F83B680433184601F08A
:106710003FF83B68DB6A1A46012303FA02F2264B74
:106720001B681343244A13603B68DA6A13469B00D4
:1067300013449B00214A1A443B680433104619460F
:1067400000F0CAFF3B68DA6A1D4B1B68DB6A9A429D
:1067500002D31C4B01221A60164B1B68002BCAD1B6
:10676000194B1B68002B11D00CE000F041F80346D8
:10677000002B02D0134B01221A60134B1B68013B04
:10678000114A1360104B1B68002BEED10D4B1B6898
:10679000012B03D101237B60FEF75EFFFEF77CFF38
:1067A0007B6818460837BD4680BD00BFA45801204D
:1067B00084580120405801208C580120485701205E
:1067C00044570120985801209458012080B582B088
:1067D00000AFFEF751FF054B1B687B60FEF75CFFC7
:1067E0007B6818460837BD4680BD00BF8858012029
:1067F00080B586B000AF00237B614A4B1B68002B3D
:106800007FD1494B1B680133474A1360464B1B68D5
:106810003B613B69002B10D1444B1B68FB60444B30
:106820001B68424A1360424AFB681360414B1B6875
:106830000133404A136000F065FB3F4B1B683A6927
:106840009A424FD3394B1B681B68002B01D101239F
:1068500000E00023002B04D0374B4FF0FF321A60CA
:1068600040E0324B1B68DB68DB68BB60BB685B6881
:106870007B603A697B689A4203D22F4A7B68136037
:1068800030E0BB680433184600F082FFBB689B6AA7
:10689000002B04D0BB681833184600F079FFBB68A2
:1068A000DB6A1A46012303FA02F2244B1B681343E6
:1068B000224A1360BB68DA6A13469B0013449B00AC
:1068C0001F4A1A44BB6804331046194600F004FFFF
:1068D000BB68DA6A1B4B1B68DB6A9A4201D301234F
:1068E0007B61AFE7174B1B68DA6A154913469B00BB
:1068F00013449B000B441B68012B07D901237B61C8
:1069000004E0114B1B6801330F4A13600F4B1B68E7
:10691000002B01D001237B617B6918461837BD46E7
:1069200080BD00BFA458012088580120385801209C
:106930003C5801209C5801202C3A01208C58012001
:1069400048570120445701209458012098580120AD
:1069500080B584B000AF2D4B1B68002B03D02C4BAF
:1069600001221A604FE02A4B00221A60294B1B6853
:106970001A68284B1B681B6B9A4208D8254B1A686B
:10698000244B1B68343310461946FDF761FD214B3B
:106990001B681B6B18462049142207F005F90346B3
:1069A000002B08D01B4B1A681A4B1B683433104657
:1069B0001946FDF74DFD194B1B687B607B68B3FAE8
:1069C00083F3FB70FB78C3F11F03FB60FA68134687
:1069D0009B0013449B00124A1344BB60BB685B6876
:1069E0005A68BB685A60BB685A68BB6808339A42E9
:1069F00004D1BB685B685A68BB685A60BB685B6857
:106A0000DB68044A13601037BD4680BDA4580120DE
:106A10009858012044570120C42C01208C58012093
:106A20004857012080B584B000AF78603960194BB9
:106A30001B6818337868194600F072FE154B1B6806
:106A40000433184600F0A4FE0346002B0BD1114B73
:106A50001B68DB6A1A4601239340DA430E4B1B681E
:106A600013400D4A13603B68B3F1FF3F07D1094B58
:106A70001B6804330948194600F02EFE07E0084B56
:106A80001A683B681344FB60F86800F0C3F91037DC
:106A9000BD4680BD445701208C5801206C58012010
:106AA0008858012080B584B000AF78603960134BFE
:106AB0001B6818337868194600F00EFE0F4B1B68F0
:106AC0000433184600F064FE0346002B0BD10B4B39
:106AD0001B68DB6A1A4601239340DA43084B1B68A4
:106AE0001340074A1360074B1A683B681344FB6066
:106AF000F86800F08FF91037BD4680BD445701207B
:106B00008C5801208858012080B584B000AF78608F
:106B10007B68DB68DB68BB60BB681833184600F035
:106B200037FE1E4B1B68002B1ED1BB680433184672
:106B300000F02EFEBB68DB6A1A46012303FA02F25C
:106B4000174B1B681343164A1360BB68DA6A134677
:106B50009B0013449B00134A1A44BB68043310463D
:106B6000194600F0B9FD05E0BB6818330E48194618
:106B700000F0B2FDBB68DA6A0C4B1B68DB6A9A4214
:106B800005D90123FB600A4B01221A6001E00023B2
:106B9000FB60FB6818461037BD4680BDA458012035
:106BA0008C580120485701204058012044570120AB
:106BB0009858012080B483B000AF7860064B1A6803
:106BC0007B681A60054B1A687B685A600C37BD46B3
:106BD0005DF8047B704700BF9C5801208858012055
:106BE00080B584B000AF78603960FEF745FD1C4B7E
:106BF0001B68BB603B681B68B3F1FF3F02D10023F9
:106C0000FB6026E07B681A68164B1B689A4207D027
:106C10007B685A68BB689A4202D80123FB6018E07F
:106C20007B685B68BA68D21A3B681B689A420ED2CE
:106C30003B681A687B685968BB68CB1A1A443B6882
:106C40001A607868FFF7B6FF0023FB6001E00123BC
:106C5000FB60FEF721FDFB6818461037BD4680BD7E
:106C6000885801209C58012080B400AF034B0122BA
:106C70001A60BD465DF8047B704700BF985801203C
:106C800080B582B000AF786000F08AF8FDF7D6FBDF
:106C9000FAE700BF80B586B000AFF860B9607A60EF
:106CA0003B6000237B6113E0BA687B691344197869
:106CB000FA687B69134430330A461A71BA687B69F3
:106CC00013441B78002B00D105E07B6901337B6105
:106CD0007B690B2BE8D9FB68002283F83F207B6897
:106CE000092B01D909237B60FB687A68DA62FB68AB
:106CF0007A681A64FB680433184600F0E1FCFB680C
:106D00001833184600F0DCFCFB68FA681A617B68EF
:106D1000C3F10A02FB689A61FB68FA685A62183785
:106D2000BD4680BD80B582B000AF00237B600CE023
:106D30007A6813469B0013449B00114A134418467B
:106D400000F09EFC7B6801337B607B68092BEFD9E8
:106D50000C4800F095FC0C4800F092FC0B4800F049
:106D60008FFC0B4800F08CFC0A4800F089FC0A4BB1
:106D7000044A1A60094B044A1A600837BD4680BDB0
:106D80004857012010580120245801204058012064
:106D9000545801206C580120385801203C580120DB
:106DA00080B582B000AF28E0FFF782FC164B1B686D
:106DB000002B0CBF01230023DBB27B60FFF786FCB6
:106DC0007B68002B19D1FEF757FC0F4BDB68DB68A3
:106DD0003B603B680433184600F0DAFC0B4B1B6841
:106DE000013B0A4A13600A4B1B68013B084A1360C7
:106DF000FEF752FC386800F075F8054B1B68002B55
:106E0000D2D10837BD4680BD545801208458012096
:106E10006858012080B582B000AF7860134B1B68C2
:106E20007A685A60124B1B687A689A4209D2114BF1
:106E30001A680E4B1B6804331046194600F070FCAC
:106E400010E00D4B1A68094B1B68043310461946B5
:106E500000F066FC094B1B687A689A4202D2074A26
:106E60007B6813600837BD4680BD00BF44570120D2
:106E7000885801203C580120385801202C3A012024
:106E800080B584B000AF03463960FB80442000F039
:106E9000CDFBF860FB68002B1FD03B68002B06D1B0
:106EA000FB889B00184600F0C1FB034600E03B68EE
:106EB000FA681363FB681B6B002B05D1F86800F0C0
:106EC000CDFB0023FB6008E0FB681A6BFB889B008E
:106ED0001046A5211A4606F097FFFB6818461037A2
:106EE000BD4680BD80B582B000AF78607B681B6B0B
:106EF000184600F0B3FB786800F0B0FB0837BD46D9
:106F000080BD00BF80B483B000AF0E4B1B681B6810
:106F1000002B01D1012300E00023002B04D00A4BF9
:106F20004FF0FF321A6008E0064B1B68DB68DB6835
:106F30007B607B685B68044A13600C37BD465DF874
:106F4000047B7047385801202C3A012080B483B06C
:106F500000AF054B1B687B607B6818460C37BD464D
:106F60005DF8047B704700BF4457012080B483B0B4
:106F700000AF0B4B1B68002B02D101237B6008E0A4
:106F8000084B1B68002B02D102237B6001E0002329
:106F90007B607B6818460C37BD465DF8047B704704
:106FA00090580120A458012080B584B000AF7860CB
:106FB0007B68FB607B68002B64D0FB68DA6A334B2C
:106FC0001B68DB6A9A425DD2FB689B69002B06DB7B
:106FD0002E4B1B68DB6AC3F10A02FB689A61FB68EF
:106FE0005969FB68DA6A13469B0013449B00284AE0
:106FF0001344994201D1012300E00023002B3CD02F
:10700000FB680433184600F0C3FB0346002B15D180
:10701000FB68DA6A1E4913469B0013449B000B442D
:107020001B68002B0AD1FB68DB6A1A4601239340D8
:10703000DA43184B1B681340164A1360134B1B6846
:10704000DA6AFB68DA62FB68DB6A1A46012303FA34
:1070500002F2104B1B6813430E4A1360FB68DA6A96
:1070600013469B0013449B00094A1A44FB680433EF
:107070001046194600F030FB04E0044B1B68DA6A46
:10708000FB68DA621037BD4680BD00BF445701205F
:10709000485701208C58012080B584B000AF78603B
:1070A0007B68FB607B68002B4AD0FB68DA6AFB6870
:1070B0001B6C9A4244D0FB680433184600F068FB0E
:1070C0000346002B15D1FB68DA6A1F4913469B0063
:1070D00013449B000B441B68002B0AD1FB68DB6A3E
:1070E0001A4601239340DA43184B1B681340174A92
:1070F0001360FB681A6CFB68DA62FB689B69002B03
:1071000005DBFB68DB6AC3F10A02FB689A61FB6876
:10711000DB6A1A46012303FA02F20C4B1B68134385
:107120000A4A1360FB68DA6A13469B0013449B000B
:10713000054A1A44FB6804331046194600F0CCFA9D
:107140001037BD4680BD00BF485701208C58012034
:1071500080B586B004AF00237B6000F031FA0C4BA1
:107160001B68002B0ED00223009300230193002301
:10717000029300230393074807498C220023FFF75B
:107180008FF978607B6818460837BD4680BD00BF20
:10719000D85801208D720020D82C012080B588B0ED
:1071A00000AFF860B9607A603B600023FB611D4B63
:1071B0001B68002B30D0BB683B617B687B61FB6840
:1071C000BB61BB68052B1CDCFFF7D0FE0346022B1E
:1071D0000BD1144B1A6807F1100310461946BA6A0E
:1071E0000023FEF7E7FDF86116E00E4B1A6807F181
:1071F00010031046194600220023FEF7DBFDF8615C
:107200000AE0084B1A6807F11003104619463A685D
:107210000023FEF769FEF861FB6918462037BD467A
:1072200080BD00BFD858012080B586B002AF78601D
:107230003960154B1B68DB68DB68FB60FB68043357
:10724000184600F0A5FAFB68DB69012B15D1FB6835
:107250009A697B681344F86819463A687B6800F0BD
:10726000A1F80346012B08D100230093F868002100
:107270007A680023FFF792FFB860FB685B6AF868E2
:1072800098471037BD4680BDD058012080B584B0E6
:1072900000AF786007F10803184600F03FF8F86087
:1072A000BB68F868194600F003F800F0BDF8F1E794
:1072B00080B584B000AF78603960FFF7F9F907F165
:1072C0000803184600F04EF8F860BB68002B1ED18A
:1072D0003B68002B0AD17A68FB689A4206D8FFF710
:1072E000F5F97868F968FFF79FFF12E00A4B196813
:1072F0007A68FB68D31A08461946FFF77BF8FFF750
:10730000E5F90346002B04D1FEF7A6F901E0FFF7EB
:10731000DDF91037BD4680BDD858012080B485B056
:1073200000AF78600E4B1B681B68002B0CBF01235D
:107330000023DBB21A467B681A607B681B68002B4F
:1073400005D1074B1B68DB681B68FB6001E000236D
:10735000FB60FB6818461437BD465DF8047B704738
:10736000D058012080B584B000AF7860FFF72EFAC6
:10737000F8600B4B1B68FA689A4205D200F0CEF811
:107380007B6801221A6002E07B6800221A60044ACE
:10739000FB681360FB6818461037BD4680BD00BF10
:1073A000DC58012080B586B000AFF860B9607A6023
:1073B0003B6000237B61FB68BA685A60FB68FA682F
:1073C0001A61BA687B689A4212D87A683B68D21A06
:1073D000FB689B699A4202D301237B611BE0104B3F
:1073E0001A68FB6804331046194600F099F912E058
:1073F0007A683B689A4206D2BA683B689A4202D3DE
:1074000001237B6107E0074B1A68FB6804331046D1
:10741000194600F085F97B6918461837BD4680BDCE
:10742000D4580120D058012080B58AB002AF62E064
:10743000BB68002B5FDB3B69FB61FB695B69002B71
:1074400004D0FB690433184600F0A2F93B1D18462E
:10745000FFF788FFB861BB68092B4BD801A252F82F
:1074600023F000BF8D7400208D7400208D740020E7
:10747000F7740020D1740020ED7400208D7400207A
:107480008D740020F7740020D1740020FA68FB6925
:107490009B691A44FB68F8691146BA69FFF782FFD5
:1074A0000346012B13D1FB695B6AF8699847FB69B6
:1074B000DB69012B0BD1FA68FB699B691A44002335
:1074C0000093F86900210023FFF768FE786112E05D
:1074D000FA68FB699A61FB699A69BB691344F869A8
:1074E0001946BA69BB69FFF75DFF04E0F86900F06F
:1074F000B5F800E000BF084B1A6807F10803104612
:10750000194600220023FEF745FD0346002B8FD1CC
:107510002037BD4680BD00BFD858012080B588B057
:1075200002AF37E0244B1B68DB681B687B61224B92
:107530001B68DB68DB683B613B690433184600F07D
:1075400027F93B695B6A386998473B69DB69012B1E
:1075500020D13B699A697B691344FB60FA687B69B7
:107560009A420ED93B69FA685A603B693A691A61D6
:10757000114B1A683B6904331046194600F0D0F8E5
:1075800008E000230093386900217A690023FFF79F
:1075900005FEB860084B1B681B68002BC2D1064B68
:1075A0001B687B60054B1B68034A1360034A7B68BA
:1075B00013601837BD4680BDD0580120D458012033
:1075C00080B500AFFEF758F8124B1B68002B1DD199
:1075D000114800F055F8114800F052F8104B0E4ACF
:1075E0001A60104B0D4A1A6014200C210022FEF77D
:1075F00063FB0246074B1A60064B1B68002B05D045
:10760000044B1B6818460849FEF7AAFEFEF744F82B
:1076100080BD00BFD8580120A8580120BC580120C7
:10762000D0580120D4580120E02C012080B584B02E
:1076300000AF7860FFF73CF8786806F017F803466B
:10764000FB60FFF743F8FB68002B01D1FCF7FCFE61
:10765000FB6818461037BD4680BD00BF80B582B0BC
:1076600000AF78607B68002B06D0FFF721F87868C0
:1076700006F004F8FFF72AF80837BD4680BD00BFC2
:1076800080B483B000AF78607B6803F108027B6848
:107690005A607B684FF0FF329A607B6803F1080202
:1076A0007B68DA607B6803F108027B681A617B689B
:1076B00000221A600C37BD465DF8047B704700BF9E
:1076C00080B483B000AF78607B6800221A610C3709
:1076D000BD465DF8047B704780B485B000AF78602C
:1076E00039607B685B68FB603B68FA685A60FB68DE
:1076F0009A683B689A60FB689B683A685A60FB68C6
:107700003A689A603B687A681A617B681B685A1C01
:107710007B681A601437BD465DF8047B704700BF74
:1077200080B485B000AF786039603B681B68BB608F
:10773000BB68B3F1FF3F03D17B681B69FB600CE0C2
:107740007B680833FB6002E0FB685B68FB60FB68FA
:107750005B681A68BB689A42F6D9FB685A683B684E
:107760005A603B685B683A689A603B68FA689A605E
:10777000FB683A685A603B687A681A617B681B68E4
:107780005A1C7B681A601437BD465DF8047B70474D
:1077900080B485B000AF78607B681B69FB607B6854
:1077A0005B687A6892689A607B689B687A685268BE
:1077B0005A60FB685A687B689A4203D17B689A6872
:1077C000FB685A607B6800221A61FB681B685A1EBE
:1077D000FB681A60FB681B6818461437BD465DF8E5
:1077E000047B704780B582B000AF0A48012104F0E5
:1077F0002BFF03467B607B6803F02003002B05D042
:10780000042000F09DF8044B1B6898470837BD46DC
:1078100080BD00BF005000403C61012080B582B0B7
:1078200000AF0A48012104F00FFF03467B607B682C
:1078300003F04003002B05D0022000F081F8044B38
:107840001B6898470837BD4680BD00BF00600040F8
:107850004061012080B582B000AF786039603B683C
:10786000002B14D017482021002204F0BDFE164A38
:107870003B681360112015492022FDF775FF114860
:10788000202104F0E9FE0F48202104F0CFFE7B68A0
:10789000002B14D00E484021002204F0A5FE0D4A12
:1078A0007B68136012200C492022FDF75DFF084819
:1078B000402104F0D1FE0648402104F0B7FE08370D
:1078C000BD4680BD005000403C610120E5770020AE
:1078D00000600040406101201D78002080B582B02A
:1078E00000AF0346FB71FB7903F00203002B0DD0C0
:1078F0001148402104F0B0FE122004F073FF122062
:1079000004F0E4FE0C48402104F090FEFB7903F003
:107910000403002B0DD00948202104F09DFE112006
:1079200004F060FF112004F0D1FE0448202104F08F
:107930007DFE0837BD4680BD00600040005000401D
:1079400080B582B000AF0346FB71FB7903F0020300
:10795000002B0AD00E48402104F06EFE0C48402156
:1079600004F07AFE122004F0F7FEFB7903F0040322
:10797000002B0AD00748202104F05EFE0548202194
:1079800004F06AFE112004F0E7FE0837BD4680BD12
:107990000060004000500040B0B588B004AF78608F
:1079A0007B68002B00D1ECE07B681B68013B082B57
:1079B00000F2E38001A252F823F000BFE179002039
:1079C000517A0020357B0020437B0020017B002082
:1079D0001B7B0020517B00205F7B00206D7B002003
:1079E000694B1B6843F00203674A1360664B1B68D0
:1079F00023F08003644A13607B689A1D7B685B797F
:107A0000624811461A4606F001F9614A7B6847331D
:107A1000196811609B8893805D4B1B781D465C4BF9
:107A20005B781C465A4B9B781846594BDB781946B5
:107A3000574B1B791A46564B5B7900900191029285
:107A40000393544851492A46234600F053F998E0DD
:107A50000023FB604C4B1B6823F002034A4A13606F
:107A6000494B1B6823F00803474A13607B680433C3
:107A7000FB60FB6893F84930C82B1BD1444B1B7843
:107A80001D46434B5B781C46414B9B781846404B48
:107A9000DB7819463E4B1B791A463D4B5B790090CB
:107AA0000191029203933C4838492A46234600F04C
:107AB00021F91AE0364B1B781D46354B5B781C4686
:107AC000334B9B781846324BDB781946304B1B7989
:107AD0001A462F4B5B7900900191029203932F4835
:107AE0002A492A46234600F005F928480021212288
:107AF00006F08AF926480021062206F085F940E0C2
:107B0000214B1B6843F002031F4A13601E4B1B6886
:107B100023F080031C4A136033E01B4B1B6823F0E7
:107B20000203194A1360184B1B6823F00403164A1A
:107B3000136026E0144B1B6843F01003124A1360D5
:107B40001FE0114B1B6823F010030F4A136018E06D
:107B50000D4B1B6843F020030B4A136011E00A4BE6
:107B60001B6843F04003084A13600AE0064B1B6899
:107B700043F08003044A136003E0094800F0BAF8B8
:107B800000BF1037BD46B0BDE05801205061012054
:107B900048610120E82C0120302D0120982D012082
:107BA000F82D012080B584B000AF78607B68002B91
:107BB00000D13AE07B681B68013B032B31D801A25E
:107BC00052F823F0D57B0020D57B0020E97B0020F4
:107BD0000F7C0020164B1B6843F00803144A136007
:107BE000144800F087F820E0114B1B6843F00403B1
:107BF0000F4A1360104800F07DF80023FB607B689B
:107C00000433FB60FB681B680C4A13600DE0084BF3
:107C10001B6823F00403064A1360094800F06AF861
:107C200003E0084800F066F800BF1037BD4680BD8D
:107C3000E05801201C2E0120482E0120E45801208C
:107C4000702E01209C2E012080B483B000AF78609C
:107C50007B68002B00D10DE07B681B68012B00D0F6
:107C600008E07B689B881BB213F10F0F00D000E087
:107C700000BF00BF0C37BD465DF8047B704700BFF6
:107C800080B483B000AF786039600C37BD465DF8D2
:107C9000047B704780B500AF0C2004F055FE03460E
:107CA000054819464FF4E132602305F0E9F8034B2B
:107CB00000221A6080BD00BF00C00040EC580120C7
:107CC00080B582B000AF78607B68002B0CD007E0F5
:107CD0007B685A1C7A601B780548194605F004F940
:107CE0007B681B78002BF3D10837BD4680BD00BFF1
:107CF00000C000400FB480B586B000AF00237B61A8
:107D00004FF48073FB60FB68184605F0AFFC034638
:107D10003B613B69002B02D14FF0FF332EE007F1AE
:107D200024037B60FB68386919463A6A7B6808F06F
:107D300089FB78617B69002B03DB7A69FB689A42D7
:107D400015DBFB685B00FB60FB683869194606F0D1
:107D5000ADF8B860BB68002B06D10C48FFF7B0FF48
:107D60004FF0FF337B6102E0BB683B61D7E73869C6
:107D7000FFF7A6FF386905F081FC7B6918461837C4
:107D8000BD46BDE8804004B0704700BFE831012027
:107D900080B582B000AF064B01221A7005F066F97B
:107DA0007860786805F068F90837BD4680BD00BF87
:107DB0000065012080B500AF05F058F9034618466C
:107DC00005F05AF980BD00BF80B582B000AF052034
:107DD000012104F095FD052004F0E0FD3E2011494D
:107DE00005F03AF93F20104905F036F905F084F81E
:107DF0000E4800214FF4806206F006F80B4805F0AB
:107E00008BF800237B6007E0094A7B68002142F879
:107E100023107B6801337B607B683F2BF4D90837E4
:107E2000BD4680BD917D0020B57D00200068012009
:107E300000640120F0B5044683B00F4616463C4D61
:107E400004F088F800F0ACFEBCB12B681C600E207A
:107E5000082100F09BFD0A28044609D02868344D0B
:107E600090304FF0FF31FDF78FFD00B260B1FEE7BB
:107E70004FF6300318B203B0F0BD214638462C68E7
:107E800003F03CFE2060E2E7286804EB4404A40011
:107E9000031901AA90305A61FDF794FD07B297B912
:107EA0002B681B68002B0CDB04F0B4F83946214822
:107EB00004F032F846B12B68DE6004F093F82B68CA
:107EC0001B689BB2D6E7FEE704F08CF828681034F4
:107ED00020444FF0FF31FDF7EBFC00B200B1FEE7AC
:107EE0002B6893F8C00000F0CDFE019BB3F1333F47
:107EF0000CD012D9B3F1553F0DD0B3F1663F07D086
:107F0000B3F1443FDDD14FF6FE73B3E70223B1E78F
:107F10004FF6FD73AEE70323ACE7B3F1113F05D095
:107F2000B3F1223FCDD14FF6FF73A3E73346A1E76C
:107F3000F85801206D82002038B52D4C2368054685
:107F40004FF0FF3103F19000FDF71EFD00B210BBB2
:107F50002368DA680AB3AB68B3F1333F46D03CD943
:107F6000B3F1553F37D0B3F1663F31D0B3F1443F61
:107F70002BD018B2904720681D4C9030FDF722FDA1
:107F800000B248B92368DA68F2B193F8C000BDE8DE
:107F9000384000F077BEFEE7FEE793F8C020A968FE
:107FA00002EB420203EB82035B691960236893F8DA
:107FB000C02002EB420203EB82001030FDF734FCDC
:107FC00000B20028D7D0FEE738BD6FF00100D1E73E
:107FD0006FF00200CEE70320CCE7B3F1113FC9D028
:107FE000B3F1223FC5D14FF0FF30C3E70220C1E714
:107FF000F858012038B5154C236805464FF0FF317D
:1080000003F19000FDF7C0FC00B200B1FEE7236869
:10801000A96893F8C02002EB420203EB82035B697C
:108020001960236893F8C02002EB420203EB820040
:108030001030FDF7F9FB00B200B1FEE72068903088
:10804000FDF7C0FC00B200B1FEE738BDF8580120D2
:1080500070B5034682B080B9014603F05DFF03F0BE
:10806000D9FF2C4B1B68186803F0DEFD84B200F0CA
:10807000C9F8204600B202B070BD0E200821ADF84C
:10808000003000F083FC0A28064609D0214D2868FC
:108090004FF0FF319030FDF777FC00B228B1FEE7DA
:1080A0004FF6300000B202B070BD286806EB4604FF
:1080B000A400031901AA5A619030FDF783FC02B2B3
:1080C00002B1FEE71448694601F024FBE8B9BDF9A6
:1080D0000030E3B92868103420444FF0FF31FDF739
:1080E000E7FB00B290B9BDF80440ADF80040F0B233
:1080F00000F0C8FD0020014603F00EFF03F08AFFE8
:108100002B68186803F090FDB1E7FEE7FEE7044630
:10811000EDE700BFF85801200C320120F0B51446FD
:10812000127887B042B30D4649B3002686460F78D1
:10813000ADF80A2014480593694602AAADF802E09A
:10814000ADF808600496ADF80C60ADF8047001F06D
:10815000E1FA80B9BDF80A20BDF80C30BDF8041072
:1081600029709A422DBFBDF9000022706FF4FA60A9
:10817000237007B0F0BDFEE7044807B0F0BD4FF034
:10818000FF3007B0F0BD00BF083201202EF8FFFF1E
:108190000288732A38B508D0782A2CD0082A00D053
:1081A000FEE7BDE83840FFF7C7BE154C054620681E
:1081B0004FF0FF319030FDF7E7FB00B2E0B92368E4
:1081C000A96893F8C02002EB420203EB82035B69CB
:1081D0001960236893F8C02002EB420203EB82008F
:1081E0001030FDF721FB00B238B920689030FDF760
:1081F000E9FB00B210B938BDFEE7FEE7FEE700BFBD
:10820000F858012070B5184D01F066FB28689430CD
:10821000FDF7F6FA00B200B1FEE728680430FDF77A
:10822000A3FB00B200B1FEE728689030FDF79CFB8D
:1082300000B2B8B9044604EB440328680A4E9B0018
:1082400010331844FDF7DCFA00B2013458B90A2C97
:10825000F1D13368306083F8880083F8894083F86F
:108260008A4070BDFEE7FEE7F858012008B503F02C
:1082700065FE0D4B186890F8A93090F898200133EE
:10828000DBB2012A80F8A93006D000210A4607484F
:10829000BDE80840FDF7B2BB9430FDF7E1FA00B24B
:1082A00000B1FEE708BD00BFF8580120219800206A
:1082B00070B5424C25680023C5F8B000C5F8B4106D
:1082C000C5F8B82085F89830D8B103882B81002AEA
:1082D00061D0817813880331033321F0030123F047
:1082E00003030B449BB295F8AD106B8101294ED06E
:1082F00004222868324903F093FD02B2042A01D017
:10830000FEE7FEE721682D4E51F8080B03F088FDCB
:1083100000B2042800D0FEE73368D3F8B41021B1CE
:10832000D3F8B0209278002A3AD193F8AD20012AF0
:1083300018D0D3F8B81099B10A888AB1D3F8B00030
:108340008078800700D0FEE7D41C24F0030424B218
:1083500018688968224603F063FD00B284422AD17E
:10836000002070BDD3F8B8201868002183F8AD1044
:108370005588D168033525F003052DB22A4603F050
:108380004FFD00B2854200D0FEE72368D1E7528856
:1083900013446B81ACE78378033303F4FE73A2E7E5
:1083A000033202F4FE7518682A4603F039FD00B264
:1083B000854201D0FEE7FEE73368B6E7F8580120B2
:1083C0001432012070B5404C2268D2F8B030EBB1C5
:1083D000D2F8B80019881181002861D099780388F3
:1083E0000331033321F0030123F003030B449BB259
:1083F00092F8AD10538101294ED010683349042200
:1084000003F00EFD02B2042A01D0FEE7FEE7216868
:108410002D4E51F8080B03F003FD00B2042800D0E4
:10842000FEE73368D3F8B41021B1D3F8B0209278C6
:10843000002A3AD193F8AD20012A18D0D3F8B81009
:1084400099B10A888AB1D3F8B0008078800700D04B
:10845000FEE7D41C24F0030424B21868896822467D
:1084600003F0DEFC00B284422AD1002070BDD3F8B4
:10847000B8201868002183F8AD105588D1680335FD
:1084800025F003052DB22A4603F0CAFC00B285424E
:1084900000D0FEE72368D1E741880B445381ACE765
:1084A0009B78033303F4FE73A2E7033202F4FE75F4
:1084B00018682A4603F0B4FC00B2854201D0FEE7FA
:1084C000FEE73368B6E700BFF858012014320120F8
:1084D0002DE9F0474B4C00F00F0A4FF001090D4613
:1084E00017461E4609FA0AF9A04620684FF0FF31E8
:1084F000A030FDF749FA00B20146D8B9D8F800001B
:10850000A430FDF7D5F9D8F8003093F8AC2019EA7B
:10851000020F4FF0FF3103F1A40024D193F89C2007
:10852000022A08D9181D4FF0FF31FDF72DFA00B2CD
:1085300008B3FEE7FEE793F8AB2052FA0AF254D1F3
:10854000FDF7B6F900B268B9D8F8003093F89C206E
:10855000022A03F1A000E5D8FDF734FA00B20028A2
:10856000C3D0FEE7FEE703F1A000FDF72BFA00B24F
:10857000002841D0FEE72068DFF8888090F89C3022
:10858000022B00D8FEE7013B80F89C30A030FDF7BD
:1085900019FA00B2F8B9D8F800202B881381FEB17F
:1085A000A97833880331033321F0030123F0030357
:1085B0000B449BB2C2F8B0505381C2F8B470C2F8F9
:1085C000B860FFF7FFFE054620680430FDF7FAF9B2
:1085D00000B208B1FEE7FEE7284600B2BDE8F0872A
:1085E000AB78033303F4FE73E4E703F1A000FDF777
:1085F000E9F900B218B1FEE74FF6FF70EDE74FF66C
:10860000F570EAE7F8580120C24B70B51D68D5F83F
:10861000C460D5F8BC4094B04EB3238840F6B20293
:10862000934200F0C18024D941F62202934200F027
:108630006C8140F2968041F62C02934265D040F264
:10864000A48041F62D02934200F0CF8041F625220E
:10865000934257D114AD022345F8503D54F80C0F06
:108660006168A268E36802AC0FC42846B04714B042
:1086700070BD40F63102934200F03F8135D840F69C
:108680002F02934200F06181B3F5036F80F04481C3
:1086900040F62E02934235D101A800214C2205F06C
:1086A000B3FB23460522009253F8280F09909B88BC
:1086B000ADF8283094F82E2004F1080101A805F047
:1086C000A5FA94F82E3094F850208DF82A300BA893
:1086D00004F1300105F09AFA94F850308DF84C30DE
:1086E000D5F8C43068469847C1E7B3F5086F00F085
:1086F000D78040F68102934200F0A18040F632021A
:10870000934211D02046B047B1E703230093E368BA
:10871000A2680192029354F8100F0390A388ADF859
:1087200010306846B047A2E723460822009253F86B
:10873000280F09909B88ADF8283094F82E2001A8C6
:1087400004F1080105F062FA94F82F3094F82E2015
:108750008DF82A208DF82B30D5F8C430684698471C
:1087600085E741F20E0293425DD041F20F0293423F
:108770004BD040F6B3029342C4D12389ADF8043004
:10878000042300936846B04771E741F625029342FF
:10879000B8D10123009304F108010EC96846019184
:1087A00002920393B04762E703230093E268A16853
:1087B000236B02920026039604960596069607966A
:1087C000089609960A96E268019103A804F110013F
:1087D0000B9305F01BFA236B002B40F0C880D5F8F3
:1087E000C4306846984714B070BD04230093A26853
:1087F000638AADF80E30019254F80C0F0290A388F2
:10880000ADF80C306846B04731E702230093217B76
:10881000627BE389ADF80A308DF808108DF80920E5
:108820006846B04723E714AA012342F8503D54F8A4
:10883000080F616801AB03C31046B04717E701A8F2
:1088400000214C2205F0E0FA02230093237A8DF8F0
:108850000430234604F12B0153F84B2FCDF8472069
:108860009B88ADF84B3094F82A200DF1270005F0D5
:10887000CDF904F10A01627A0DF1060005F0C6F99E
:1088800094F82A30617A94F851208DF84D208DF8B3
:1088900005108DF82630D5F8C43068469847E6E6CE
:1088A00001A800214C2205F0AFFA01230093237A9E
:1088B0008DF80430234604F12B0153F84B2FCDF8EB
:1088C00047209B88ADF84B3094F82A200DF1270003
:1088D00005F09CF9627A0DF1060004F10A0105F039
:1088E00095F994F82A30627A8DF805208DF82630B3
:1088F000D5F8C43068469847B9E62389ADF8043006
:10890000092300936846B047B1E6204601F032F9EA
:10891000ADE600BFF858012007222346009253F825
:10892000280F09909B88ADF8283094F82E2001A8D4
:1089300004F1080105F06AF994F82E308DF82A3018
:10894000D5F8C430684698474DE74C2201A800216D
:1089500005F05AFA06222346009253F8280F099090
:108960009B88ADF8283001A894F82E20E0E70C96FB
:108970000D960E960F961096119612961396226BE0
:1089800004F134010CA805F041F928E72DE9F04F76
:10899000DFF87491D9F8003083B082460F4603F1B6
:1089A00090004FF0FF31FCF7EFFF00B200284CD1F0
:1089B000D9F8003093F88840092C00F28C804FEAF7
:1089C000440808EB0405AD00581900F118018A7835
:1089D0000A2A28BF0A22072F83F8882080F818A0C7
:1089E00034D8012605F1100206FA0AFA4F700192F6
:1089F000BE40D3F88C20DFF810B1164203EB05011E
:108A000003F1900079D093F889208A7683F8894021
:108A1000FCF7D8FF00B24FF0FF31002869D1D9F838
:108A20000000019B1844FCF743FF00B24FF0FF31F8
:108A300000285DD1DBF800009030FCF7A5FF00B204
:108A4000002854D1DBF80030D3E7FEE70126082FD9
:108A500006FA0AFA06FA07F64DD105F110071BE0EF
:108A600093F889208A7683F88940FCF7ABFF00B23F
:108A70004FF0FF3100283CD1D9F800003844FCF712
:108A800017FF00B24FF0FF3190BB30689030FCF719
:108A90007BFF00B258BB3368D3F88C201A4E1AEA19
:108AA000020F03EB050103F19000D9D14AEA02025B
:108AB000C3F88C2008EB040203EB820293F88A10BF
:108AC000917603F1900083F88A40FCF77BFF00B2B7
:108AD00080B9A4B206E003F19000FCF773FF00B286
:108AE00020B90A2420B203B0BDE8F08FFEE7FEE70C
:108AF000FEE7FEE7FEE7D3F88C20072FD6D83243F7
:108B0000C3F88C20D6E700BFF85801202DE9F843C0
:108B1000224B1C680021782204F1100005F074F942
:108B20004FF0000908230A224FF001084FF0020C11
:108B30004FF0030E0427052606250720092184F897
:108B4000889084F81A8084F826C084F832E084F88B
:108B50003E7084F84A6084F8565084F8620084F8C5
:108B60007A10637684F8253084F8313084F83D300B
:108B700084F8493084F8553084F8613084F86E30D8
:108B800084F86D3084F8793084F8853084F8862054
:108B900084F88A2084F88920BDE8F883F8580120F9
:108BA0002DE9F0411E4C1F4D0021CC2220462C60A7
:108BB00005F02AF904F19400FCF702FE01B201B1BC
:108BC000FEE728689430FCF773FE28680430FCF751
:108BD0008DFE00B200B1FEE728689030FCF786FEFB
:108BE00004B204B1FEE7FFF791FFA84604EB440688
:108BF0002868B60010363044FCF7E2FD07B20134B5
:108C0000394667B9D8F800003044FCF751FE0A2C09
:108C1000ECD100F04BFE044B1F70BDE8F081FEE785
:108C2000046C0120F8580120F0580120144B30B496
:108C300004781D6804EB440305EB83039B7E0A2B39
:108C40001AD08C4218D0092C08D913E003EB430248
:108C5000092B05EB82021C460CD8937E8B42F5D182
:108C600001EB410105EB810104EB440405EB8404B5
:108C70008B7EA37630BC7047037030BC704700BF5A
:108C8000F85801202DE9F843DFF85481D8F8003076
:108C900006464FF0FF3103F19000FCF775FE00B27D
:108CA00000283ED1D8F8003093F88940092C4FEACB
:108CB000460738D8BA1903EB8202104692F818E03A
:108CC00002E08C7E092C2ED865002A1903EB820263
:108CD000114692F818C0F44502F11802F1D1527809
:108CE00002F00F0CBCF1080F0AD090F819C00CF07C
:108CF0000F09B9F1070F8CEA0202E2D81207E0D19E
:108D000003F189002146FFF791FF2B19D8F80000E5
:108D1000334C9B0010331844FCF786FD00B208B1B9
:108D2000FEE7FEE72368BA1903EB8202517E01F0E9
:108D30000F01072942D80120D3F88C2000FA01F155
:108D400022EA0102B91903EB810101F118000024A4
:108D50000825C3F88C204C610C76457093F88A2066
:108D600002EB420103EB8101897E0A2934D096424D
:108D70002ED0092A16D9BA1903EB820293F888106B
:108D8000917603F1900083F88860FCF71BFE00B237
:108D9000E0B1FEE701EB4100092903EB80000A4640
:108DA000E9D8817E8E42F5D1B91902EB420203EB7C
:108DB000810103EB8202897E9176DCE7107ED3F895
:108DC0008C200121814022EA0102BBE7BDE8F88343
:108DD000827883F88A20CEE783F88A10CBE700BF39
:108DE000F85801202DE9F043DC6883B0DCB18946F6
:108DF0005988B9B100F00F01072915D80F2017467F
:108E00001D46FFF7C3FDC6B20A2E25D0DFF82C8120
:108E1000D8F800004FF0FF319030FCF7B5FD00B2FC
:108E200040B1FEE7FEE7FEE74FF6F77000B203B091
:108E3000BDE8F083EB68D8F80000019302AA740043
:108E4000A31900EB830342F8087D90305A61FCF7C8
:108E5000B9FD00B218B1FEE74FF63000E6E7D8F8EA
:108E600000004FF0FF31A030FCF78EFD01B201B1E0
:108E7000FEE7D8F80000A430FCF71AFDD8F800008F
:108E800090F89C30012B4ED904304FF0FF31FCF7A5
:108E90007BFD00B2002841D1D8F80000DFF89C80AB
:108EA00090F89C30012B3AD9013B80F89C30A030DF
:108EB000FCF788FD00B298BBD8F80020B9F8003064
:108EC000138199F802102B88C2F8B850033103338C
:108ED00021F0030123F003030B44C2F8B090538147
:108EE000C2F8B470FFF76EFA0546D8F800000430F7
:108EF000FCF768FD00B2A0B95DB9A319D8F800006D
:108F00009B00103318444FF0FF31FCF7D1FC00B246
:108F100040B93046FFF7B6FE284687E7FEE7FEE792
:108F2000FEE7FEE7FEE7A4304FF0FF31FCF7C0FCA0
:108F300000B210B9D8F80000A6E7FEE7F858012003
:108F40002DE9F043454B1E6896F88A20092A45D83A
:108F5000072948D9424F41F20B2E06E0B9F802C06A
:108F600084452DD09A7E092A38D853009D1806EBE7
:108F700085052C462B466D7E94F818C0DFF8E080FE
:108F800015F0800F18BF20F40070ACF1080418BF72
:108F900080B2E400BCF10F0F07EB0409DED18D4273
:108FA000DCD1A0F5805CACF10A0CBCF1010F01D959
:108FB0007045D3D186F8C020002000B2BDE8F08310
:108FC00005F00F05082DCDD1444486F8C020636814
:108FD000C6F8C430002000B2BDE8F0834FF6FD7043
:108FE00000B2BDE8F0831E4D41F20B2706E0B9F850
:108FF00002C084452AD09A7E092AEFD8530003EB99
:10900000020E06EB8E0E744673469EF819E094F835
:1090100018C0DFF84C801EF0800F18BF20F40070DD
:10902000ACF1080418BF80B2E400BCF10F0F05EBEF
:109030000409DCD18E45DAD1A0F5805CACF10A0CD4
:10904000BCF1010FB6D9B842D1D1B3E70EF00F0E83
:109050007145B9D0BEF1080FCDD1B5E7F858012060
:10906000203201202DE9F04FB54CB6492368042287
:1090700087B0186802F0D4FE02B2042A00D0FEE7DE
:10908000236804AF1868394602F008FE00B20428CD
:1090900000D0FEE70025AC4EA8462DE0226892F8ED
:1090A000A80000F0030001438B4234D0B34231D01A
:1090B000B5F5FA6F3FD0AB073ED09DF811909DF803
:1090C00012C09DF813E09DF814009DF815109DF84E
:1090D00016209DF817308DF8109001358DF811C0CD
:1090E0008DF812E08DF813008DF814108DF815200E
:1090F0008DF816308DF81780049A944922F0802359
:10910000500723F08003C9D422F0802323F080038A
:10911000B342CDD1226815F0030517D0C5F1040183
:109120001068059B049339442A4602F0B7FD00B24B
:10913000854214D0FEE7FEE72368042205A91868DB
:1091400002F0ACFD00B20428B7D0FEE71068394643
:10915000042202F0A3FD00B2042800D0FEE77A4EFC
:1091600004997A4A21F08023480723F080031DD414
:1091700021F08023216823F08003B34208D10868DE
:109180000422394602F08AFD00B20428E8D0FEE746
:1091900091F8A8300868013381F8A830042205A9A5
:1091A00002F07CFD00B2042809D0FEE7216891F8A6
:1091B000A80000F0030002439342DED1DFE715B1BF
:1091C000C5F10405EDB2BDF810202368082A5BD074
:1091D0009DF814109DF817609DF8160083F8AB6099
:1091E000012983F8AC0083F89C10554E0AD903F18D
:1091F000A400FCF719FB00B2002840F0FB813368A3
:10920000BDF8102002F480614FF0000889B2C3F865
:10921000C480002940F0A680632A60D0A2F5805067
:109220000A38012850D941F20B20824236D002215F
:1092300083F8C81012F4F0412CD0B1F5006F1BD0A8
:10924000B1F5805F14D0B1F5C05F05D0D3F8BC2074
:10925000002A00F0E880FEE741F62E018A420FD096
:1092600041F630018A420BD0394AC3F8C420EDE7F9
:10927000384AC3F8C420E9E7374AC3F8C420E5E711
:10928000364AC3F8C420E1E700210222C3F8C41023
:1092900083F8C820324AC3F8C420D7E7142683F8DD
:1092A000C810B0464FF01809186805A9042202F04A
:1092B000F5FC00B2042800D0FEE79DF8163003F05C
:1092C0000F03072B1FD9FEE741F20B00824283F800
:1092D000C81023D10826B0464FF00C09E4E703225A
:1092E00083F8C8204DB12368394618682A4602F031
:1092F000D5FC00B2854200D0FEE702F025FE00203A
:1093000007B0BDE8F08F2068DFF834A090304FF050
:10931000FF31FCF739FB00B228B1FEE70E46884664
:109320004FF00409C0E79DF81610BDF8100001F0D9
:109330000F01FFF705FE002800F09480FEE700BF54
:10934000F85801201C3201203A5CCD2B3C5CCD2B1F
:10935000A57B0020497C002099790020159C0020E5
:1093600091810020D3F8B0201868012183F8C8103B
:10937000D678D3F8B410033606F4FE76324602F0FF
:109380008DFC00B2864200D0FEE72368D3F8B81007
:109390000029A7D048880028A4D0D3F8B020BDF871
:1093A000126092F80390C9EB06091FFA89F9A9F136
:1093B000040292B296B20FFA86FEBEF1000F8A80C6
:1093C00040F315818645F04640F30A8120F0030BF7
:1093D0001FFA8BFB00F0030ABBF1030F00F2E280DF
:1093E000BAF1000F40F0D380D3F8B820528842453C
:1093F000BFF678AF22F00302B61AB6B2002E3FF4E1
:1094000071AF0DF10C0818684146042202F046FCC9
:1094100000B2043E0428B6B240F0ED80002E3FF4C6
:1094200061AF2368EFE7BDF812E08A4EC3F8BC6075
:109430000EF1FF3222F0030297E80300A02A94BF46
:1094400092B2A022BEF1040F86E8030040F0D4805F
:1094500020684FF0FF319030FCF796FA00B20028F8
:1094600078D0FEE7DAF80030059893F8C02002EBD8
:10947000420203EB8203B9F1040F5B691B681860B9
:109480001DD1BDF8146033B2002B0ADDB6B226F050
:1094900003081FFA88F8B8F1030F06F0030636D860
:1094A0004EBB23686C4E93F8C02002EB420203EBE4
:1094B00082001030FCF7B8F900B298B1FEE7DAF894
:1094C000003093F8C020186802EB420203EB8203DD
:1094D00032465B691968043102F0E0FB00B2404596
:1094E000CFD0FEE730689030FCF76CFA00B200286D
:1094F0003FF4F8AEFEE72368DFF85C91186803A933
:10950000042202F0CBFB00B2042813D0FEE723684C
:1095100093F8C020186802EB420203EB8203424634
:109520005B69596802F0BAFB0FFA88F300B2834214
:10953000B6D0FEE7D9F8003093F8C02002EB420223
:1095400003EB820303A95B6958683246404404F088
:109550005DFBA6E7BDF8100041F2030320F40072A2
:109560009A4203D041F20603984251D12368D3F8BE
:10957000BC30997A01F00F01FFF7E2FC20689030CF
:10958000FCF720FA00B200283FF4ACAEFEE70DF184
:109590000C0818684146042202F080FB00B204283F
:1095A0000CD0FEE70FFA8BF21868C968019202F03E
:1095B00075FB019B00B2834210D0FEE72368D3F80D
:1095C000B830D868A9F10806414652465844B6B2A8
:1095D00004F01CFB0FFA86F8236805E72368FFE612
:1095E00022F0030B1FFA8BFB02F0030AF4E6A1F84A
:1095F000028077E6FEE7FEE7D3F8BC10186816B2E3
:109600003246083102F04AFB00B2864204D0FEE73F
:109610000821FFF795FCB1E7BDF81230013B23F0BC
:109620000303A02B7FF614AFA03B9EB2002E3FF4A5
:109630000FAF0DF10C08236841461868042202F0B0
:109640002DFB00B2043E0428B6B202D1002EF2D1A6
:10965000FEE6FEE7D06C0120F8580120F8B52B4D4E
:10966000286800262F4690F89830012B4FF0FF0114
:1096700026D190F8A93090F8AA209A4233D0C0F8A9
:10968000BC60C0F8C46080F8C810FFF7EBFC04466B
:1096900040BB286890F8AA3090F8C8200133012A0E
:1096A00080F8AA3028D0022ADDD1FEF7ADFF386855
:1096B00090F89830C0F8BC40012B4FF0FF01D8D093
:1096C0000430FCF77FF901B2F1B92B6893F8A920B7
:1096D00093F8AA30934203D00D480A46FCF78EF95E
:1096E0000020F8BDFEE794304FF0FF31FCF7E0F8C2
:1096F00000B250B92868B6E780F898402146943007
:10970000FCF7D6F83868AEE7FEE7FEE7F858012028
:10971000219800202DE9F0411B4D2B6882B0804636
:109720000F46181D4FF0FF311446FCF72DF900B21B
:1097300000B1FEE72B680126C3F8B840C3F8B0803B
:10974000C3F8B47083F89860FEF73CFE044698B9FD
:109750000E4B1A784AB94FF47A6101921E7001914A
:10976000019B5A1E0192002BFAD1FFF777FF0446A6
:1097700020B202B0BDE8F08128680430FCF722F97D
:1097800000B20028F4D0FEE7F8580120F05801207C
:1097900070B5214D84B00023ADF80800286801930E
:1097A000042204304FF0FF318DF80A308DF80B2081
:1097B000FCF7EAF800B200B1FEE72B6802A901AAA3
:1097C0000126C3F8B800C3F8B010C3F8B42083F87A
:1097D0009860FEF7F7FD044688B9104B1A784AB92D
:1097E0004FF47A6103921E700391039B5A1E0392F9
:1097F000002BFAD1FFF732FF044644B1FEE7286898
:109800000430FCF7DFF800B20028F6D0FEE7BDF91F
:10981000040004B070BD00BFF8580120F0580120CA
:1098200038B5214C20684FF0FF310430FCF7ACF81C
:1098300000B2F8B9236893F8A92093F8AA10C3F8E6
:10984000BC0001259142C3F8C40083F8C85013D06E
:10985000FFF708FC054670B9206890F8AA1090F848
:10986000C8200131022A80F8AA100BD0032A11D097
:1098700082B1FEE7FEE7FEE7181DFCF7A3F800B291
:1098800068B1FEE7D0F8BC3063B1FEF7BDFE2068DA
:10989000C0F8BC500430FCF795F800B208B90020BD
:1098A00038BDFEE7FEE700BFF858012010B5094CAF
:1098B0002068012380F89C30A030FCF717F800B234
:1098C00000B1FEE72068A430FBF77AFF00B200B1D8
:1098D000FEE710BDF858012010B5094C20680023A0
:1098E00080F89C30A030FCF73FF800B200B1FEE7F2
:1098F0002068A430FBF784FF00B200B1FEE710BD82
:10990000F858012008B5044B18689030FCF75AF855
:1099100000B200B1FEE708BDF85801202DE9F04380
:10992000C9B05F180E461D465299BDF84041519B83
:109930008DF80460FE2F8DF805500391ADF80640B8
:10994000029326DC08AC8146002190462046FF2287
:1099500004F05AFA20464946324604F057F925B138
:10996000A01941462A4604F051F9002304AA0C48E4
:10997000ADF8107001A90694ADF812300793FFF707
:10998000C9FE28B9BDF8040000B249B0BDE8F083B3
:10999000FEE74FF6FF7000B249B0BDE8F08300BFAC
:1099A0006032012000B585B000220092019202923F
:1099B0001346FFF7B3FF05B05DF804FBF8B5174C8D
:1099C000226892F8C03003EB430302EB830393F960
:1099D0001920002A21DB5B6905699E6801465868E9
:1099E0004A890560CF680889DD68376018802E884D
:1099F0001869B24228BF324614312A8004F006F9B1
:109A0000236893F8C02002EB420203EB820010307F
:109A1000FBF70AFF00B200B1FEE7F8BDF8580120DD
:109A20002DE9F0418AB00C461E46039000230B201E
:109A30000821ADF80440ADF800408DF802601746EB
:109A4000ADF806300493FEF7A1FFC5B20A2D1BD076
:109A5000DFF8A480D8F800004FF0FF319030FBF71A
:109A600093FF00B278B96C00D8F80000631900EBDE
:109A7000830305AA032E5A6136D09030FBF7A2FF6C
:109A800000B238B1FEE7FEE74FF6300000B20AB090
:109A9000BDE8F0811748694601AAFFF73BFE08BB05
:109AA000BDF90030C3B96319D8F800009B0010332A
:109AB00018444FF0FF31FBF7FBFE00B298B9BDF838
:109AC0001430ADF800303BB9022E38460CBF0422EA
:109AD000102206A904F09AF82846FFF7D3F8BDF83B
